:4000000000800020110000006D0200006D02000008B5044B1A6803F53F5302331A6000F027F900BFFA46004010B5054C237833B9044B13B10448AFF300800123237010BD79
:40004000F081FF1F00000000A0120000084B10B51BB108480849AFF300800848036803B910BD074B002BFBD0BDE81040184700BF00000000A0120000F481FF1F0881FF1F0D
:4000800000000000F8B5012001464FF4804241F6FF7300F095FC204F3870012001464FF4804241F6FF7300F06DFC1C4E307000F081FB1B4D287000F07DFB1A4C2070287802
:4000C0004FF40061FE22822300F08EFB20784FF40061FE22822300F087FB287846F24651114A92B200F094FB207846F256510F4A92B200F08DFB3878297800F02BFB307883
:40010000217800F027FB3878012100F0DBFA3078012100F0D7FAF8BD2C92FF1F3192FF1F1C82FF1F2082FF1F2882FF1F2C8AFF1F2DE9F0410120014641F6FF724FF480430B
:4001400000F08AFBDFF8948088F800000120014641F6FF724FF4804300F09EFB1B4F387000F028FB1A4D287000F024FB194C20702A7810466021012300F036FB227810462A
:400180006021012300F030FB134EB6B22878314646F2444200F03CFB2078314646F2544200F036FB98F80000297800F0D3FA3878217800F0CFFA98F80000012100F082FAAE
:4001C0003878012100F07EFABDE8F0811D82FF1F3092FF1F2482FF1F0C81FF1F288AFF1F62B6002303E01D4A22F813300133B3F5806FF8D370B584B0FFF744FFFFF798FF3C
:4002000000F000FA00F00CFA00F01EFA40F6B83000F00CFB00F07CFB00241BE00F4B33F81420D6B20E4D68462946120A00F020FC02A82946324600F01BFC684600F082FBA7
:40024000084800F07FFB02A800F07CFB064800F079FB0134B4F5806FE0D3FEE72882FF1FA4120000AC120000B0120000FEE700BF08B5114B114D16E029686B68AC680022F3
:4002800004E008681860043204330431A242F8D1E868002203E000211960043204338242F9D1103533465E1E002BE5D100F0A6FBFFF796FFFEE700BF0100000068130000E2
:4002C00008B5134A134B1A60134A136843F40073136000230AE0032B03D8104A52F8231000E00F490F4A42F8231001332F2BF2D90D4B1A780D4B1A700A4A0D4B1A6000F0F1
:40030000B5F800F0C5F900220A4B1A6008BD00BF0004FA050CED00E014ED00E0000000006D0200000080FF1FBC7600400481FF1F08ED00E00081FF1FFEE700BFF0B4002230
:40034000174611E050F82760F3B226F0FF0608E001EB420511F812406D78A5550132013BDBB2002BF4D10137162FEBD9F0BC7047064B1B78DBB203F00701054A11701B095B
:40038000013213704422034B1A707047CF0100496E5800407658004008B50A46002100F05EFB08BD38B50722254B1A80192502331D7002331D8002331D70062203F27A23BB
:4003C0001A705222A3F580731A701E4B1B78DBB21D4A13704FF4E1621C4B1A8041F25122023B1A8000240CE0194B1B7803F0010343EA440404F003044FF4F07000F038F941
:40040000013D0DB1032CEFD115B90320FFF794FF104A4FF4807313800723137000230E490B7048200231087013700532137002220A4B1A700A4A137843F00303137038BDAF
:40044000804000400F010049A14600402242004025420040044000400640004001400040A243004008B500F0EFFA08BD70B572B63D4A137843F00403137000240CE03B49F6
:4004800063001A1952000A4423445B00C8589188FFF782FF0134E4B20A2CF0D9002410E03249A3001A1952000A4452F8440F23445B000B445168B3F84C20FFF7D3FF01344A
:4004C000E4B2012CECD94FF090402949FFF736FF28480421FFF760FF27480421FFF75CFF26480421FFF758FF25480421FFF754FF244A137843F0020313701032137843F08A
:4005000002031370204C237843F040032370A2F58632513A137843F0100313701B481C490822FFF79FFF1B481B490822FFF79AFF1A481B490A22FFF795FF1A4A137843F051
:4005400008031370184E01253570FFF72BFF81233370164B1D70FFF70BFF154821460E22FFF780FF70BD00BFE8460040B41200005C00004800760040087600401076004000
:400580001876004003500140A0430040325100402005004842510040280500485051004030050048224300400048004004000840B043004008B500F063F8064A137843F01E
:4005C0002003137000F060F8034A137843F00403137008BD9764004075640040084B1A7802F0F8021A701A78D2B21A7003F581731A7802F0F8021A701A78D2B21A70704719
:400600008464004008B5054B1B7823B9FFF7E6FF0122024B1A70FFF7CDFF08BD0C82FF1F08B500F02DF8064A137843F01003137000F02AF8034A137843F00103137008BD2F
:40064000946400407564004008B500F019F8064A137843F01003137000F016F8034A137843F00203137008BD96650040756400400230800803D000BF01380046FCD17047CE
:40068000EFF3108072B6704780F31088704700BF0B4A7F2313708021517007E0DA0002F1804202F5F042013BDBB21370002BF5D1DB0003F1804303F5F04300221A70704790
:4006C0006C81FF1F172815D831B103010A495A5C42F020025A5405E0030107495A5C02F0DF025A540001044A835C43F00103835400207047012070471070004017280BD895
:400700000001064A835C03F0F10301F0070143EA4101815400207047012070471070004041F6FF73994201D14FF4005141F6FF739A4201D14FF40052172808D8C00000F150
:40074000804000F5EC408180C280002070470120704700BF172805D8034B03EB0010417200207047012070471070004017281BD810B4C00000F1804404F5EC44D201D2B272
:4007800001F07F01114321709DF804201201D2B203F00F03134363709DF8083003F00F03A3700020E07001E0012070475DF8044B704700BF10B5FFF763FF0A4B5B78182BB5
:4007C0000BD9084A1478013B5370E30003F1804303F5F0431B78137000E0FF24FFF754FF204610BD6C81FF1F10F0800F0CD111F4704F0BD1C00000F1804000F5F0400180B0
:400800008270C37000207047012070470120704710F0800F08D1C00000F1804000F5F0408180C280002070470120704710B5044605E0084B1868FFF71BFFA4F50044B4F5BF
:40084000004FF6D8034B586800FB04F0FFF710FF10BD00BF7481FF1FF0B583B084468E4617461E460B4C02252570002300930193284661467246FFF779FF2078394632465C
:40088000FFF74EFF20782946FFF738FF207803B0F0BD00BF8481FF1FF0B583B086460F4616461D460A4C0320207000230093019371463A46FFF75AFF207831462A46FFF7E1
:4008C0002FFF20780221FFF719FF207803B0F0BD8581FF1F0622044B1A70472210331A7000224F331A7070472565004010B5FFF7C7FE0446054A137843F01003137000F0A2
:4009000033F82046FFF7C0FE10BD00BF9465004008B5054B1B7823B9FFF7DCFF0122024B1A70FFF7E3FF08BD0D82FF1F034B1B7813F0040FFAD1024B1870704764650040C5
:400940004465004038B5074B1B782BB938BDFFF7EDFF0134A4B201E005460024285D0028F5D138BD0D82FF1F054A137843F0020313701032137843F002031370704700BF7E
:40098000A2430040F0B583B086460F4616461D460A4C0120207000230093019371463A46FFF7E4FE207831462A46FFF7B9FE20780221FFF7A3FE207803B0F0BD8681FF1F5F
:4009C000F0B583B086460F4616461D460A4C0023237000930193184671463A46FFF7C6FE207831462A46FFF79BFE20780221FFF785FE207803B0F0BD8781FF1F0E4B70B5DF
:400A00001E460E4C0025E41AA410A54204D056F8253098470135F8E700F094FC084B094C1E46E41AA4100025A54204D056F8253098470135F8E770BD501300005013000027
:400A4000501300005813000010B5431E0A44914204D011F8014B03F8014FF8E710BD03460244934202D003F8011BFAE7704700000EB400B54FF402719CB0ADF814106FF0BB
:400A80000041049107914FF6FF711DABADF81610084953F8042B02900690086802A9019300F064F8029B00221A701CB05DF804EB03B07047E881FF1F2DE9F0478E6882463D
:400AC000B3420C469046994640D38A8912F4906F3AD02568096902236F1A656905EB450595FBF3F57B1C4B449D4238BF1D4653050FD5294600F030FB064698B121693A46D4
:400B0000FFF7A2FFA38923F4906343F08003A38113E02A4600F076FB064670B95046216900F0D6FA0C23CAF80030A3894FF0FF3043F04003A381BDE8F08726613E442660F5
:400B40004E466561ED1BA560B14500D24E4632462068414600F0A0FAA36800209B1BA36023681E442660BDE8F08700002DE9F0439DB003938B8906461C060D4690460CD576
:400B80000B6953B9402100F0E7FA2860286110B90C233360CCE040236B610023099320238DF8293030238DF82A3043461C4613F8012B1AB9B4EB08090FD002E0252AF5D17F
:400BC000F8E73046294642464B46FFF775FF013000F0A980099B4B4409932378002B00F0A28000234FF0FF3204930793059206938DF853301A9304F101084446DFF84891DC
:400C000021784846052200F039FA08F10108049B30B1C9EB00000122824013430493ECE7D80644BF20228DF85320190744BF2B228DF8532022782A2A02D0079923460EE02E
:400C4000039A0134111D12680391002ABBBF524243F0020307920792B8BF04930AE01C4622780133303A092A03D80A2000FB0121F5E7079123782E2B1AD163782A2B0AD17F
:400C8000039B02341A1D1B680392002BB8BF4FF0FF3305930CE0611C00220C4623780131303B092B03D80A2000FB0232F5E70592DFF8988021784046032200F0DFF938B192
:400CC000049AC8EB00004023834013430493013421781A48062204F101088DF8281000F0CDF988B1164B33B9039B073323F007030833039313E003AB0093304604A92A46B4
:400D0000104BAFF3008007E003AB0093304604A92A460C4B00F092F8421C074603D0099B3B44099341E7AB895B0601D4099801E04FF0FF301DB0BDE8F08300BF181300001C
:400D400000000000B90A00000E130000141300002DE9F84391461F468A680B6906469342B8BF1346C9F8003091F843200C46DDF8208012B10133C9F800302368990642BFCD
:400D8000D9F800300233C9F80030256815F006051CD094F843302268003318BF012392061FD5E118302081F843005A1C94F845102244023382F8431013E03046394604F19F
:400DC00019020123C047013007D00135E368D9F800209B1A9D42F0DBDBE74FF0FF30BDE8F8833046394604F14302C0470130F4D02268D9F80050E36802F00602042A08BF74
:400E00005D1B2269A3680CBF25EAE57500259342C4BF9B1AED184FF00009A9450ADA3046394604F11A020123C0470130D5D009F10109F2E70020BDE8F88300002DE9FF41A5
:400E40000C461746227E98466E2A06460A9B01F1430100F0B08012D8632A23D00AD8002A00F0BD80582A40F0CC8084F84520DFF804E257E0642A1ED0692A1CD0C1E0732AB7
:400E800000F0B18009D86F2A2ED0702A40F0B980226842F0200222603FE0752A24D0782A3BD0AEE01A6804F14205111D1960136884F84230A9E020681A6810F0800F02D087
:400EC000101D186008E010F0400F02F10400186002D0B2F9003000E01368002B3EDA2D225B4284F8432039E020681A6810F0800F02D0101D186007E010F0400F02F104003B
:400F0000186001D0138800E01368227EDFF864E16F2A0CBF08220A221CE07822DFF858E184F845202268186812F0800F00F104051D6003D1550601D5038800E00368D007B1
:400F400044BF42F0200222601BB9226822F0200222601022002084F8430002E0DFF814E10A226568002DA8BF2068A560A4BF20F00400206003B965B10D46B3FBF2F002FB02
:400F800010331EF8033005F8013D03460028F4D100E00D46082A0BD12368DA0708D5236962689A42DEBF302305F8013C05F1FF35491B21612EE025681A6815F0800F6069C4
:400FC00003D0151D1D60136808E015F0400F02F104051D60136801D0188000E01860002323610D4616E01A68111D1960156800212846626800F042F808B1401B606063684B
:4010000004E004F1420584F8422001232361002384F84330CDF800803046214603AA3B46FFF796FE013002D14FF0FF301FE0304639462A462369C0470130F5D023689B0792
:4010400005D4E068039B9842B8BF18460FE00025E368039A9B1A9D42F3DA3046394604F119020123C0470130DED00135F0E704B0BDE8F0811F1300003013000010B5C9B20A
:4010800002449042034605D01C7801308C42F8D1184610BD002010BD814210B501EB020301D3421E0BE09842FBD28118D21AD34204D013F8014D01F8014DF8E710BD9942B2
:4010C00004D011F8014B02F8014FF8E710BD000030B500293CD051F8042C0B1F1D49002AB8BF9B180A680C4612B95A600B6030BD93420DD219685818904201BF5A58521866
:401100001A60426823605A6030BD994203D80A4651680029F9D1146815199D420AD11B682344D0188842136012D10868034413604B680CE002D90C23036030BD1C68181981
:40114000884201BF08684968001918605960536030BD00BF1482FF1F70B5CC1C24F0030408340C2C38BF0C24002C064603DA0C233360002070BD8C42F9D3204A136810466B
:401180001946A1B10A68121B0ED40B2A03D90A608B188C501FE08B420BBF5A684A6802605A6018BF0B4616E00B464968E9E7144D2B681BB9304600F04BF828603046214617
:4011C00000F046F8421C0346D1D0C51C25F0030585420AD11C6003F10B001A1D20F00700821A0AD05142995070BD3046E91A00F02FF80130BBD02B46ECE770BD1482FF1F80
:401200001082FF1FF8B5074615460E4621B91146BDE8F840FFF7A0BF1AB9FFF759FF2846F8BD00F025F8A8420ED238462946FFF793FF044650B131462A46FFF705FC3846BB
:401240003146FFF745FF01E03046F8BD2046F8BD38B5064C002305460846236000F012F8431C02D1236803B12B6038BD3492FF1F51F8040C0028BEBF091851F8043CC018C9
:4012800004387047044A05491368002B08BF0B4618441060184670471882FF1F3892FF1F0000000025303258000000002C2000000A0D00000051004030006051004010005C
:4012C000C05100401000F0510040100000000140000480040140800B00140140000280160140800500400140000A004C014000020050014020000000000401402004004838
:40130000800000160140A004004880004300232D302B2000686C4C006566674546470030313233343536373839414243444546003031323334353637383961626364656634
:4013400000000000F8B500BFF8BC08BC9E4670474D000000C1020000F8B500BFF8BC08BC9E46704729000000781300000881FF1FE800000048100000000000000000FFFFC6
:40138000FFFFFFFFFFFFFFFFFFFFFFFFFFFFFFFFFFFFFFFFFFFFFFFFFFFFFFFFFFFFFFFFFFFFFFFFFFFFFFFFFFFFFFFFFFFF0000000000000000000000000000000000005B
:4013C000000000000000000000000000000000000000000000000000000000007F8000000F0000000000E02EC05D00001800000000366E01FFFFFFFF0000000000000000FB
:401400000000000000000000000000000000000000000000000000000C1300000000000000000000000000000000000000000000000000000000000000000000000000008D
:401440000000000000000000000000000000000000000000000000008881FF1F00000000000000000000000000000000000000000000000000000000000000000000000045
:40148000000000000000000000000000000000000000000000000000000000000000000000000000000000000000000000000000000000000000000000000000000000002C
:4014C00000000000000000000000000000000000000000000000000000000000000000000000000000000000000000000000000000000000000000000000000000000000EC
:4015000000000000000000000000000000000000000000000000000000000000000000000000000000000000000000000000000000000000000000000000000000000000AB
:40154000000000000000000000000000000000000000000000000000000000000000000000000000000000000000000000000000000000000000000000000000000000006B
:020000040003F7
:0200000480007A
:4000000004520040016400400165004002010140020301400904014039050140420601403A0701405C1401403E150140111601403C170140011B01400C4001400A410140C6
:4000400007420140044301400248014005490140044D014004500140015101402003210628012901873F840F8A10E2808711A6109601A001A202A602B203D207D804DB048D
:40008000DF01004401200A980B010E201002111113081508170119681A101B011E2020402240230429282A012B022C102F10310132043390384039113B044040421049251D
:4000C0004B015002510452015310581059445C085D046D0C6E406F168104870197209F01A610C007C22FC43FCA0FCC0FCE0FD003D204D60E0104020803400608073F0940FF
:400100000A1C0B010E101602174019021B401E041F3F20012108220223402510274029402A012B202D7F2E04301C3203357F377F580459045F0182FE8401864088018A807E
:400140008C018D018E02920196FE98FF9B019C019E109F01A001A220A401A608A701A801A901AA04B4FFB6FFB701BF40D602D724D804D904DB04DF010114038104400504E0
:400180000680070409040A400B050D080E0111011318160A170118041B801C401D081F022240269029202A042D152F02322033403510368037043B803D083F116008691522
:4001C0006A086B217110731981089240930494049511960898089B049F09A104A780C0FFC2AFC4DECAF6CC7CCEE8D804000A02040403060C09100D0C0F111003120413034D
:4002000019141D1C1F02212022082403260429102A052B0C2C102D092F103010311F3320340F3A203E013F044026410545EB46C0480B49FF4AFF4BFF4EF04F44500C540197
:40024000580459045A045B045C115D115F0166C06A406B0282068A058B089203930C99019B069D0C9F03A101A30EA602AA01AB03AC06AE01B10FB607BA80BB02C005C64038
:40028000C9FFCA07CBFFCC40CD20CEF0CF05D008D804D904DA04DC11DD01DF01E040E1A8E240E3200004034005220BC00F4010101224138216241740180419201B011F4094
:4002C0002102220423802740280129212F483020310233403401352237423A203B803E204004482449014B804E025220540456245708581059015A888B01928097809902A7
:400300009D209E049F40A202A620A820AB04C05CC218C4EFCAADCCBDCE2CD004D21CD60F820188018D0390019D02A701A802A903B003B103B802B902BF01D804D904DC0158
:40034000DF0101200340051007200B800D020E280F0112041511170819021DB71E011F282202264C29202A042E012F283340350136983B803D153E8045AA4D084E884F40EF
:40038000568257045C205D085E8087488E08911592809301960197809B289D2C9E8E9F40A108A210A620C06AC2F8C472CAE6CCF8CEF8D0F0D230D670E010E0803B023C40CF
:4003C0003D0442085420570158208B01CEE0D010D4C0D620842085049440950497029C209E08A420E240E64082088420944097029C209E08E690830194409702E6208E20D1
:4004000094400220A620A840C010EE205D108910D604E00100010A0110031A03105500000000000102000010350048013D6040088000002008005401008021000000080FAD
:4004400000002140812320440044212200001070800F07006670188000020000000040004603000000CFE0DB3BFFFFFF0000000004000000010000000404040400000001A5
:400480000000C0004001800030004010100040A8000000000000000000000000000000000000000400001B041B04A40000000002BF10400800001F20DB00243C11000A01AE
:4004C00000001B01090C12101B000002000000001C00803C0700600300080000000000404602510003CF0DCE37FFFFFF02200005040000000100000004040404000000014B
:4005000000004001400150014001701040100000000000000000000000000000000000000100000000000000000707000700000001000001010001000000000000000000BD
:40054000000000000000000000000000000000000000000000000000000000000000000000000000000000000000000000000000000000000000000000000000000000007B
:40058000000000000000000000000000000000000000000000000000000000000000000000000000000000000000000000000000000000000000000000000000000000003B
:4005C00000000000000000000000000000000000000000000000000000000000000000000000000000000000000000000000000000000000000000000000000000000000FB
:4006000000000000000000000000000000000000000000000000000000000000000000000000000000000000000000000000000000000000000000000000000000000000BA
:0200000490006A
:0400000000004005B7
:0200000490105A
:04000000BC90ACAF55
:0200000490303A
:02000000A07EE0
:0200000490402A
:4000000000000000000000000000000000000000000000000000000000000000000000000000000000000000000000000000000000000000000000000000000000000000C0
:400040000000000000000000000000000000000000000000000000000000000000000000000000000000000000000000000000000000000000000000000000000000000080
:400080000000000000000000000000000000000000000000000000000000000000000000000000000000000000000000000000000000000000000000000000000000000040
:4000C0000000000000000000000000000000000000000000000000000000000000000000000000000000000000000000000000000000000000000000000000000000000000
:0200000490501A
:0C00000000012E12306900012E1AD0E71A
:00000001FF