:020000040800F2
:10000000781C00203902000815270008172700086F
:100010001B2700081F2700082327000800000000F6
:10002000000000000000000000000000272700087A
:1000300029270008000000002B2700082D270008B2
:10004000530200085302000853020008530200083C
:10005000530200085302000853020008530200082C
:10006000530200085302000853020008530200081C
:10007000530200085302000853020008B92B00087D
:1000800053020008530200085302000853020008FC
:1000900053020008530200085302000853020008EC
:1000A00053020008530200085302000853020008DC
:1000B00053020008530200085302000853020008CC
:1000C00053020008530200085302000853020008BC
:1000D000530200082F2700085302000853020008AB
:1000E000530200085302000853020008530200089C
:1000F000530200085302000853020008530200088C
:10010000530200084F27000853020008530200085A
:10011000530200085302000853020008530200086B
:10012000530200085302000853020008530200085B
:10013000530200085302000853020008530200084B
:10014000530200085302000853020008530200083B
:10015000530200085302000853020008530200082B
:10016000530200085302000853020008530200081B
:10017000530200085302000853020008530200080B
:100180005302000800F002F800F047F80AA090E8D7
:10019000000C82448344AAF10107DA4501D100F042
:1001A0003CF8AFF2090EBAE80F0013F0010F18BFC8
:1001B000FB1A43F001031847DC6E0000FC6E0000E0
:1001C000103A24BF78C878C1FAD8520724BF30C883
:1001D00030C144BF04680C60704700000023002455
:1001E00000250026103A28BF78C1FBD8520728BF47
:1001F00030C148BF0B607047642906F0ED8578294F
:1002000006F02686632906F0BB86002070471FB5DE
:1002100006F024FF1FBD10B510BD06F0EBFE114621
:10022000FFF7F5FF02F004FA06F009FF03B4FFF749
:10023000F2FF03BC02F018FB094880470948004759
:10024000FEE7FEE7FEE7FEE7FEE7FEE7FEE7FEE786
:10025000FEE7FEE704480549054A064B70470000E3
:10026000431D00088501000878160020781C002036
:10027000781800207818002033490143334A116070
:10028000704770B5002100230F22C47824B32F4C8F
:10029000246804F4E064C4F5E064C4F30721C1F108
:1002A0000404E3B20A4144789C40E1B284781440EB
:1002B00021430C07210E264C05786155047804F083
:1002C0001F050124AC4005786D114FF0E02606EBC8
:1002D0008505C5F8004109E0047804F01F050124F4
:1002E000AC401C4D0678761145F8264070BD1A4A80
:1002F0000A400243154B1B1F1A60704739B1134A5D
:10030000121D12680243114B1B1D1A6006E00F4AB2
:10031000121D126882430D4B1B1D1A607047042882
:1003200008D14FF0E021096941F004014FF0E022CB
:10033000116107E04FF0E021096921F004014FF05D
:10034000E0221161704700000000FA050CED00E0AA
:1003500000E400E080E100E080FFFF1F016821F081
:10036000010101600021016041608160C1600161A3
:1003700021214161DA49884204D13D21D84A103A0D
:1003800091608CE0D6491831884205D14FF47461F0
:10039000D34A103A916082E0D1493031884205D188
:1003A0004FF47411CE4A103A916078E0CC4948314C
:1003B000884205D14FF07461C94A103A91606EE0ED
:1003C000C7496031884204D1C649C54A103AD16054
:1003D00065E0C3497831884204D1C349C04A103A24
:1003E000D1605CE0BE499031884204D1BF49BC4A2B
:1003F000103AD16053E0BA49A831884205D14FF094
:100400003D51B74A103AD16049E0B949884204D118
:100410003D21B74A083A116041E0B5491831884298
:1004200005D14FF47461B24A083A116037E0B0491F
:100430003031884205D14FF47411AD4A083A116049
:100440002DE0AB494831884205D14FF07461A84A8C
:10045000083A116023E0A6496031884204D1A149DD
:10046000A34A121F11601AE0A1497831884204D1D1
:100470009D499F4A121F116011E09D4990318842A9
:1004800004D19A499A4A121F116008E09849A8318C
:10049000884204D14FF03D51954A121F11607047B8
:1004A00010B500220268934B1A40CC680B682343B6
:1004B0004C6923438C692343CC6923430C6A23434F
:1004C0004C6A23438C6A23434C6B23438C6B23433A
:1004D0001A430260426922F00702D1E90B34234338
:1004E0001A4342610B6943604B6883608B68C36049
:1004F00010BD0021016041608160C1600161416106
:100500008161C161016241628162C16201634163D3
:100510008163704721B1026842F00102026003E08A
:10052000026822F001020260704721B1026842F4C1
:100530000042026003E0026822F400420260704759
:1005400021B1026842F02002026003E0026822F05A
:10055000200202607047416070470146486880B2DF
:10056000704722B1036843F40023036003E003688B
:1005700023F4002303600161704721B1026842F453
:100580008022026003E0026822F480220260704749
:100590000AB1016100E0C1607047014600200A68AD
:1005A00012F4002F01D0012000E000207047014626
:1005B00000200A6812F0010F01D0012000E00020A5
:1005C0007047014600204A6902F03800704730B594
:1005D00003460A4600200024454DAB4202D2404962
:1005E000103901E04249103912F0005F01D04C6827
:1005F00000E00C68404D2C40144201D0012000E086
:10060000002030BD02463A4B9A4202D2344810389C
:1006100001E03748103811F0005F03D0364B0B4033
:10062000C36002E0344B0B408360704710B511F09B
:10063000800F09D022B1436943F08003436103E096
:10064000436923F08003436180290BD02AB10368FA
:1006500001F01E042343036004E0036801F01E045C
:10066000A343036010BD70B502460020002400259E
:100670001F4EB24202D21A4B103B01E01C4B103B02
:100680001E4E314206D01E2606EAD124166806EA1E
:10069000040502E0566906F0800511F0005F01D004
:1006A0005C6800E01C68144E34400C4202D00DB16E
:1006B000012000E0002070BD02460D4B9A4202D29C
:1006C0000748103801E00A48103811F0005F03D0E5
:1006D000094B0B40C36002E0074B0B40836070473F
:1006E000106002403D000020400F002000003D202F
:1006F000106402403F801CF07D0F7D0F3C0F3C0FCB
:1007000010B504468848844208D10121084600F00B
:10071000FEFC0021012000F0FAFC5EE083488442E8
:1007200008D10121022000F0F2FC0021022000F09B
:10073000EEFC52E07E48844208D10121042000F002
:10074000E6FC0021042000F0E2FC46E07948844207
:1007500008D10121082000F0DAFC0021082000F077
:10076000D6FC3AE07448844208D10121102000F000
:10077000CEFC0021102000F0CAFC2EE06F4884421D
:1007800008D10121202000F0C2FC0021202000F02F
:10079000BEFC22E06A48844208D10121402000F0DA
:1007A000B6FC0021402000F0B2FC16E0654884420F
:1007B00008D10121802000F0AAFC0021802000F057
:1007C000A6FC0AE06048844207D10121801500F0B0
:1007D0009EFC0021A01500F09AFC10BDF0B50A4661
:1007E00000210023002400BF3DE0012505FA01F3AC
:1007F000156805EA03049C4234D105684F000326BE
:10080000BE40B543056015794E00B54006683543D6
:1008100005601579012D02D01579022D16D1856854
:100820004F000326BE40B543856055794E00B54064
:10083000866835438560456801268E40B54345602E
:10084000456896798E40B6B235434560C5684F001D
:100850000326BE40B543C560D5794E00B540C66895
:100860003543C560491C1029BFD3F0BD4FF6FF7159
:1008700001600021017141718171C17170474FF4B4
:1008800080320A43C261C161C261C269C2697047F4
:100890000246002013690B4201D0012000E0002035
:1008A00070470146086980B27047024600205369CC
:1008B0000B4201D0012000E000207047014648694A
:1008C00080B2704701837047418370470AB101834A
:1008D00000E0418370474161704742694A4042618C
:1008E0007047F0B5002300244D07ED0E02FA05F322
:1008F000CE1000F1200555F826504E07F70E0F26B2
:10090000BE40B543CF1000F1200646F82750CE1068
:1009100000F1200555F8265045EA0304CE1000F1F9
:10092000200545F82640F0BD0000024000040240CA
:1009300000080240000C0240001002400014024077
:1009400000180240001C02400020024010B504467E
:10095000F948844209D10121480500F01EFC00211C
:100960004FF4001000F019FC18E0F448844209D15B
:100970000121880500F011FC00214FF4800000F0F7
:100980000CFC0BE0EE48844208D10121C80500F0C0
:1009900004FC00214FF4000000F0FFFB10BD2DE926
:1009A000FF4704460D460026B1460427DFF894832E
:1009B000A6884FF6C0700640684600F0BEFADDF823
:1009C0000880E148B8FBF0F01FFA80F946EA090612
:1009D000A68020884FF6FE71084020800026DB4963
:1009E000286888420CD828684000B8FBF0F087B22D
:1009F000042F00DA04273E4309F10100208427E098
:100A0000E888A0F53F41FF3906D1286800EB400097
:100A1000B8FBF0F087B209E0286800EBC00101EBF9
:100A20000010B8FBF0F087B247F480473805000D9E
:100A300001D147F0010747F4004006434FF4967098
:100A400009FB00F04FF47A7190FBF1F0401C208418
:100A5000A683208840F00100208026884FF6F530DC
:100A60000640A8886989084306432680A889298901
:100A700008432081BDE8FF8741F2883101600021F1
:100A800081804BF6FF71C1800021018141814FF4CB
:100A900080418181704721B1028842F001020280C9
:100AA00004E002884FF6FE731A400280704721B1BD
:100AB000028842F48072028004E002884FF6FF63ED
:100AC0001A400280704721B1028842F4007202800D
:100AD00004E002884FF6FF531A400280704712B1BB
:100AE00041F0010101E001F0FE010182704721B1F6
:100AF000028842F48062028004E002884FF6FF33ED
:100B00001A40028070470A46002181894FF601731E
:100B1000194002F0FE0319438181704721B1828997
:100B200042F00102828104E082894FF6FE731A408E
:100B30008281704721B1028842F04002028004E0C5
:100B400002884FF6BF731A400280704721B10288B5
:100B500042F40042028003E00288C2F30E020280E7
:100B6000704721B9028842F08002028004E00288C6
:100B70004FF67F731A4002807047B1F5804F05D061
:100B8000828B4BF6FF731A40828303E0828B42F420
:100B9000804282837047B1F5006F04D1028842F42D
:100BA0000062028004E002884FF2FF731A40028064
:100BB0007047B1F5005F04D1028842F40052028010
:100BC00004E002884DF6FF731A400280704721B19D
:100BD000028842F01002028004E002884FF6EF73B0
:100BE0001A4002807047018270470146088AC0B2ED
:100BF000704721B1028842F48052028004E00288EA
:100C00004EF6FF731A4002807047B1F5006F04D1B1
:100C1000028842F40062028004E002884FF2FF730F
:100C20001A400280704721B1028842F020020280FF
:100C300004E002884FF6DF731A40028070470146D5
:100C4000088B0012704721B1828842F400628280D2
:100C500004E082884FF2FF731A408280704721B10E
:100C6000828842F48052828004E082884EF6FF73CC
:100C70001A40828070470246002313460B441888AE
:100C8000704710B51AB183880B43838004E08388D2
:100C9000CC43A4B22340838010BD70B5024600242B
:100CA000002500230020958A138B1B0445EA0306C8
:100CB00026F07F4404EA01068E4201D1012000E0C3
:100CC000002070BD10B501460020002300228B8A51
:100CD0000A8B120443EA020424F07F4010BD30B5B1
:100CE00003460020002400221A460C0F21F07F4109
:100CF0000CB1143201E0090C183215680D4201D014
:100D0000012000E0002030BD002221F07F42D343CB
:100D10008382704730B5024600200023948801F09A
:100D2000E06504EA154321F07F41948A0C420FD01C
:100D300073B101200DE00000005400400058004055
:100D4000005C004000127A0040420F00A0860100C3
:100D5000002030BD002221F07F42D34383827047C0
:100D6000F848006840F00100F64908600020F549A5
:100D700008310860F3480068F3490840F149086009
:100D8000F248091D0860081F006820F48020091F30
:100D900008600020EB490C31086070470021E94AE7
:100DA000921C117011460870704710B50146002260
:100DB000002300204A11012A02D1E24C236808E0F6
:100DC000022A03D1DF4C7034236802E0DD4C743416
:100DD000236801F01F02012494401C4201D001202D
:100DE00000E0002010BD70B500240025002600BFE3
:100DF0003120FFF7DAFF0646641CB4F5A06F01D07E
:100E0000002EF5D03120FFF7D0FF08B1012500E01A
:100E10000025284670BD01460020CA4A106820F00F
:100E2000F80040EAC10010607047C9490860704787
:100E30000021C44A703211701170012802D00428B8
:100E40000AD104E00121BF4A7032117005E005218A
:100E5000BC4A7032117000E000BF00BF7047BD494E
:100E60000860704770B5049C41EA82150126C6EB04
:100E7000530645EA0645054345EA0465B14E361D6D
:100E8000356070BDB24908667047820142EA01725E
:100E9000AC4B84331A607047AD4988667047AC49E3
:100EA000C864704702460020A64B0833186820F03B
:100EB000EC6042EA01031843A24B08331860704704
:100EC000024600209F4B0833186820F0784042EA21
:100ED000010318439B4B08331860704701460020FC
:100EE000984A0832106820F00300084310607047E9
:100EF00094480830006800F00C007047014600205C
:100F0000904A0832106820F0F000084310607047E3
:100F1000014600208B4A0832106820F4E050084354
:100F20001060704701460020864A0832106820F49D
:100F3000604040EAC10010607047F0B50021002217
:100F400000240225002602237E4F08373F6807F061
:100F50000C0121B1042905D0082937D105E07E4FC5
:100F6000076036E07D4F076033E0764F3F1D3F68F6
:100F7000C7F38056734F3F1D3F6807F03F036EB1C4
:100F8000764FB7FBF3F7DFF8BCC10CF1040CDCF8CB
:100F900000C0CCF3881C07FB0CF40CE06E4FB7FBD1
:100FA000F3F7DFF8A0C10CF1040CDCF800C0CCF3BF
:100FB000881C07FB0CF4634F3F1D3F68C7F30147D4
:100FC0007F1C7D00B4FBF5F7076002E0624F07600D
:100FD00000BF00BF5B4F08373F6807F0F001090909
:100FE0005F4F7A5C0768D7404760564F08373F68C5
:100FF00007F4E051890A5A4F7A5C4768D740876006
:10100000504F08373F6807F46041490B544F7A5CF2
:101010004768D740C760F0BD002100F44072B2F5C8
:10102000407F0AD1474A0832116821F4F8114D4A2D
:1010300002401143434A08321160424A703212683A
:10104000C0F30B031A433F4B70331A60704741499A
:101050004439086070473F49403908607047424949
:101060000860704739B1374A303212680243354B55
:1010700030331A6006E0334A303212688243314B13
:1010800030331A60704739B12E4A34321268024345
:101090002C4B34331A6006E02A4A343212688243F9
:1010A000284B34331A60704739B1264A38321268F7
:1010B0000243244B38331A6006E0224A3832126861
:1010C0008243204B38331A60704739B11D4A403291
:1010D000126802431B4B40331A6006E0194A403243
:1010E00012688243174B40331A60704739B1154A72
:1010F000443212680243134B44331A6006E0114A2B
:101100004432126882430F4B44331A60704739B13E
:101110000C4A1032126802430A4B10331A6006E080
:10112000084A103212688243064B10331A60704727
:10113000E1B1044A143212680243024B14331A60BC
:1011400019E0000000380240FFFFF6FE10300024D6
:1011500000004742800E47420024F40040787D01A1
:1011600000000020FFFCFF0F5C0147425C4A126850
:1011700082435B4B1A60704739B1594A121D12689D
:101180000243574B1B1D1A6006E0554A121D126898
:101190008243534B1B1D1A60704739B1504A0C32C1
:1011A000126802434E4B0C331A6006E04C4A0C3274
:1011B000126882434A4B0C331A60704739B1484A6F
:1011C000103212680243464B10331A6006E0444A5C
:1011D000103212688243424B10331A60704739B1A3
:1011E0003F4A3C32126802433D4B3C331A6006E0F2
:1011F0003B4A3C3212688243394B3C331A60704799
:1012000039B1374A403212680243354B40331A60D5
:1012100006E0334A403212688243314B40331A6051
:10122000704739B12E4A4432126802432C4B443382
:101230001A6006E02A4A443212688243284B44333B
:101240001A60704739B1264A4C3212680243244B67
:101250004C331A6006E0224A4C3212688243204B1B
:101260004C331A60704739B11D4A5032126802433C
:101270001B4B50331A6006E0194A50321268824301
:10128000174B50331A60704739B1154AD21F127884
:101290000243134BDB1F1A7008E0114AD21F127869
:1012A000C343DBB21A400E4BDB1F1A7070470C4869
:1012B0006030006840F08070094960310860704714
:1012C00001460020064A083A12680A4201D001206D
:1012D00000E0002070470249891F08707047000035
:1012E0001438024010B50121C802FFF767FF002142
:1012F0004FF40060FFF762FF10BD00216D4A1168D6
:1013000047F6FF629143027D83681A4343681A439C
:10131000C3681A4303681A4303691A431143654AB1
:101320001160704700210175016041608160C160FA
:10133000016170476049086070475E49091F09688C
:1013400021F003015B4A121F116011460968014335
:10135000116070475748001F006800F00300704795
:101360000021544B1B1D02681A601A1D11686FF38F
:101370000A01D0E901231A43C3681A4303691A43D7
:1013800011434C4A083211607047002101604160EE
:101390008160C1600161704746480C300068C0B28E
:1013A000704701460022434810300A181068704701
:1013B0000021404B203302681A601B1D42681A60EE
:1013C0001A1D116821F0F701D0E902231A430369BD
:1013D0001A4343691A431143364A28321160704751
:1013E0004FF0FF310160002141608160C160016107
:1013F000416170472F482C30006870472D487C3081
:10140000006870472B497C31086070472948443098
:10141000006870472949086070472849091D08601D
:101420007047264908310860704724490C3108602C
:1014300070472349086070472249086070470121BE
:101440008143214A116070472049086070471B4959
:1014500014390860704739B1164A383212680243AD
:10146000144B38331A6006E0124A3832126882434D
:10147000104B38331A607047014600200D4A303255
:1014800012680A4201D0012000E00020704709499B
:1014900034310860704701460020064A3032126835
:1014A0000A4201D0012000E0002070470149343198
:1014B00008607047042C0140A0802542A085254289
:1014C000AC812542B0812542B4812542B8812542B4
:1014D00010B50446E348844208D101218014FFF787
:1014E0006DFE0021A014FFF769FE16E0DE4884427D
:1014F00008D101210014FFF750FE00212014FFF74E
:101500004CFE0AE0D948844207D10121C013FFF7FD
:1015100044FE0021E013FFF740FE10BD10B500228D
:10152000028802F441520B884C8823438C88234361
:10153000CC8823430C8923434C8923438C89234340
:10154000CC8923431A430280838B4FF2FF742340DC
:1015500083830B8A038210BD2DE9F04F00250223FF
:101560000024012700220026944690469146B0F8B8
:101570001CA04FF2400B0AEA0B0AA0F81CA04FF087
:10158000020AA0F820A0858BD1F808A0BAF1020FBA
:1015900001D100BF67E0B1F804A0BAF1000F01D19A
:1015A000012700E00227DFF8C8A2DAF800A01AF449
:1015B000000F09D0DFF8B8A2DAF800A02AF4000A78
:1015C000DFF8ACB2CBF800A0DFF8A4A20AF17C0AE5
:1015D000DAF800A0CAF38818DFF894A20AF17C0AAE
:1015E000DAF800A0CAF30279DFF884A2AAF1040AAB
:1015F000DAF800A00AF03F0CDFF878A2BAFBFCFA98
:101600000AFB08FABAFBF9F6B1F806A0BAF5007FB2
:101610000ED14FEA162A0AEB8A0A4FEA4A0AD1F893
:1016200008B0BAFBFBFA0AF1050A1FFA8AF20FE0CA
:101630004FEA471AB6FBFAFA0AEB8A0A4FEA4A0A55
:10164000D1F808B0BAFBFBFA0AF1050A1FFA8AF2D0
:101650004FF00A0AB2FBFAF202F00104A2EB040A0C
:10166000CAF34F032402022B01DBFF2B01DD02230F
:101670000024B1F806A04AEA040A4AEA030AA0F8DC
:1016800020A0B1F804A0B1F80CB04AEA0B0AB1F8F6
:1016900002B04AEA0B0AB1F800B04AEA0B0A4AF46F
:1016A000006A4AEA05058583BDE8F08F00210180C4
:1016B00041808180C180018141818181C181072177
:1016C000018270470021018041808180C180022118
:1016D000816000218181704721B1028842F040027F
:1016E000028004E002884FF6BF731A400280704700
:1016F00021B1828B42F48062828304E0828B4FF6B8
:10170000FF331A408283704702884FF2FF731A40FA
:10171000028002880A4302807047B1F5804F04D1ED
:10172000028842F48042028004E002884BF6FF7394
:101730001A4002807047A1F57E42FF3A04D0028829
:1017400042F48072028004E002884FF6FF631A4080
:101750000280704721B1828842F00402828004E056
:1017600082884FF6FB731A408280704721B18288CD
:1017700042F01002828004E082884FF6EF731A4034
:10178000828070470146888970478181704721B106
:10179000028842F40052028004E002884DF6FF7392
:1017A0001A4002807047018841F4805101807047DF
:1017B00002460020012901D0108B00E0908A70477A
:1017C0000146088A704710B51AB183880B4383809D
:1017D00004E08388CC43A4B22340838010BD70B55D
:1017E000002400230C110125A540ABB21AB1858855
:1017F0001D43858004E08588DE43B6B23540858090
:1018000070BD0246002013890B4201D0012000E088
:1018100000207047CA4302817047F0B5024600209D
:1018200000240023002501F00F070126BE40B4B2BA
:101830000B1101269E40B3B2968806EA030516896D
:10184000264202D00DB1012000E00020F0BD10B50D
:10185000002201F00F040123A3409AB2D343038175
:1018600010BD00000030014000380040003C004046
:101870000838024040787D0110B50446F74884429C
:1018800008D101211020FFF799FC00211020FFF75B
:1018900095FC3EE0F248844209D101214804FFF75B
:1018A0007CFC00214FF40030FFF777FC31E0ED487D
:1018B000844209D101218804FFF76FFC00214FF415
:1018C0008020FFF76AFC24E0E748844209D1012127
:1018D000C804FFF762FC00214FF40020FFF75DFC15
:1018E00017E0E248844209D101210805FFF755FCC1
:1018F00000214FF48010FFF750FC0AE0DC488442DE
:1019000007D101212020FFF759FC00212020FFF7FB
:1019100055FC10BD2DE9FF4705460E460024A146A3
:1019200000BFA046B08900B100BF2C8A24F4405407
:10193000F08804432C82AC8941F20C608443B08867
:1019400031890843718908430443AC81AC8A24F48B
:101950004074B0890443AC826846FFF7EEFABF4892
:10196000854202D0C248854202D1DDF80C9001E0E8
:10197000DDF80890A88910F4004F08D009EBC900E1
:1019800000EB091031684900B0FBF1F707E009EB03
:10199000C90000EB091031688900B0FBF1F7642041
:1019A000B7FBF0F004012009642101FB1078A8893D
:1019B00010F4004F08D0322000EBC800B0FBF1F06B
:1019C00000F00700044308E0322000EB0810642117
:1019D000B0FBF1F000F00F0004432C81BDE8FF875D
:1019E0004FF41651016000218180C18001810C21DA
:1019F000418100218181704710B502460020108A84
:101A000020F470600B884C8823438C882343CC8857
:101A100023431843108210BD002101804180818042
:101A2000C180704721B1828942F40052828104E072
:101A300082894DF6FF731A4082817047028B02F44F
:101A40007F420283028B0A430283704721B182895D
:101A500042F40042828103E08289C2F30E02828155
:101A6000704721B1828A42F40062828204E0828A55
:101A70004FF2FF731A4082827047C1F308028280DE
:101A8000704701468888C0F308007047028A4FF605
:101A9000F0731A400282028A0A430282704721B11F
:101AA000828942F00202828104E082894FF6FD734E
:101AB0001A408281704782894FF2FF731A408281F7
:101AC00082890A4382817047028A4FF6DF731A4087
:101AD0000282028A0A430282704721B1028A42F4DA
:101AE0008042028204E0028A4BF6FF731A400282AF
:101AF0007047818941F001018181704721B1828A5B
:101B000042F00802828204E0828A4FF6F7731A409C
:101B100082827047028BD2B20283028B42EA012298
:101B20000283704721B1828A42F02002828204E05F
:101B3000828A4FF6DF731A408282704721B1828A0F
:101B400042F01002828204E0828A4FF6EF731A405C
:101B500082827047828A4FF6FB731A408282828AA1
:101B60000A438282704721B1828A42F00202828255
:101B700004E0828A4FF6FD731A408282704710B5E6
:101B80001AB1838A0B43838204E0838ACC43A4B2D4
:101B90002340838210BDF0B50346002400260025B3
:101BA0000020A1F510676A3F00D100BF1846C1F3BD
:101BB000421401F01F06012707FA06F5012C01D196
:101BC0000C3004E0022C01D1103000E014301AB1C6
:101BD00007682F43076002E00768AF430760F0BD66
:101BE00002460020B1F5007F00D100BF13880B42F0
:101BF00001D0012000E00020704701F40072B2F52E
:101C0000007F00D100BFCA430280704770B5024612
:101C10000024002300250020A1F510666A3E00D1B3
:101C200000BFC1F3421501F01F03012606FA03F3BA
:101C3000012D02D19689334006E0022D02D1168A89
:101C4000334001E0968A33400C12012606FA04F470
:101C50001688344073B16CB101200CE000100140D3
:101C60000044004000480040004C0040005000404C
:101C700000140140002070BD10B500220023A1F522
:101C800010646A3C00D100BF0A1201249440A3B240
:101C9000DC43048010BD000000210020674A126868
:101CA00042F48032654B1A6000BF644A126802F445
:101CB0000030491C10B9B1F5A06FF6D15F4A126827
:101CC00012F4003F01D0012000E00020012837D1AC
:101CD0005A4A08321268594B08331A601A46126879
:101CE00042F400421A601A46126842F4A0521A6086
:101CF000534A1B1F1A601A1F126842F080721B1F82
:101D00001A6000BF4D4A126812F0007FFAD040F20C
:101D100003724C4B1A60494A0832126822F00302DF
:101D2000464B08331A601A46126842F002021A60E3
:101D300000BF424A0832126802F00C02082AF8D1A9
:101D4000704710B53D48006840F001003B4908600D
:101D500000203A4908310860384800683A4908408C
:101D6000364908603948091D0860081F006820F4DA
:101D70008020091F0860002030490C310860FFF7FF
:101D80008BFF4FF000603249086010BD70B5002035
:101D90000022022300240221284D08352D6805F079
:101DA0000C0020B1042806D0082834D107E0294DC2
:101DB000294E356033E0294D274E35602FE01F4D09
:101DC0002D1D2D68C5F380541C4D2D1D2D6805F06B
:101DD0003F0154B1214DB5FBF1F5184E361D366863
:101DE000C6F3881605FB06F209E01A4DB5FBF1F5BE
:101DF000124E361D3668C6F3881605FB06F20F4DE7
:101E00002D1D2D68C5F301456D1C6B00B2FBF3F56C
:101E1000114E356003E00F4D0F4E356000BF00BF1F
:101E2000064D08352D68C5F303150D4E705D0A4D3E
:101E30002D68C540084E356070BD00000038024076
:101E4000193C4005003C0240FFFFF6FE1030002424
:101E500008ED00E00024F4001000002040787D012F
:101E60001400002008B54FF4C060FEF705FA3120D9
:101E70008DF8000000208DF8010001208DF802008F
:101E80008DF803006846FEF7FCF925208DF8000068
:101E900000208DF8010002208DF8020001208DF84D
:101EA00003006846FEF7EDF908BDF0B504460D469F
:101EB0000021002000BF05E06E18A65DCF00BE40E7
:101EC0003043491C9142F7D3012B00D100BAF0BD39
:101ED00070B5064600240025012304220021E148B4
:101EE000FFF7E3FF0446E048844201D0012070BDC3
:101EF0002146DEA004F006FF002304221146D94843
:101F0000FFF7D3FFDE49086008460168DDA004F052
:101F1000F9FE012304220821D248FFF7C6FF044638
:101F2000DE48844201D00220E1E72146DCA004F033
:101F3000E9FE012304220C21CA48FFF7B6FF04463C
:101F4000DD48844201D00320D1E72146DBA004F024
:101F5000D9FE002304221021C248FFF7A6FF044641
:101F6000102C00D001252146DAA004F0CBFE00237E
:101F700002221421BB48FFF798FFC1498880084618
:101F80008088012804D0D7A004F0BCFE0420AEE76E
:101F9000DDA004F0B7FE002302221621B148FFF7AE
:101FA00084FFB749C8800846C088012803D1DEA055
:101FB00004F0A8FE06E0B248C088022802D1E3A0DF
:101FC00004F0A0FE002304221821A648FFF76DFFAD
:101FD000AB49886008468168E6A004F093FE0023C0
:101FE00004221C219F48FFF760FFA549C8600846EE
:101FF000C168E8A004F086FE00230222202199484F
:10200000FFF753FF9E4908820023022222219548B0
:10201000FFF74BFF9A4948820846408A102804D0AF
:10202000E2A004F06FFE072061E79548418AECA02A
:1020300004F068FE2420F6490860012D23D1002316
:10204000022224218748FFF730FF04460CB1092003
:102050004DE70123042226218248FFF726FF04468C
:10206000EC48844201D00A2041E7002304222A21BF
:102070007C48FFF71AFF044604F10A00E4490968A6
:102080000844E349086001230422E1480068C1B222
:102090007448FFF70AFF0446DD480068001DDC496C
:1020A0000860DD48844201D0082020E70023042294
:1020B000D7480068C1B26B48FFF7F7FE7049486126
:1020C000D3480068001DD249086008460068D3491B
:1020D000086000200BE710B588B0D1A00068009020
:1020E000002002F063FE04462146CEA004F00AFE62
:1020F000D049002003F09CFE04462146CEA004F007
:1021000001FED1A004F0FEFD694601A804F09FFA8B
:1021100000282ED10122D3A1D54803F09CFE20B186
:10212000D4A004F0EFFD00BFFEE7D94B4FF480626E
:102130004C49CF4803F053FF20B1D6A004F0E2FD94
:1021400000BFFEE7DF48FFF7C3FEDF49087008461F
:10215000007850B94A484069DC490860DCA004F0C6
:10216000D1FDE0A004F0CEFD06E0E4A004F0CAFD3D
:1021700002E0EFA004F0C6FD08B010BD0122F64B4E
:102180001A60D24A12682AB1D04A1268A2F5806257
:10219000CE4B1A60CD4A1268B2F5806F02D200228F
:1021A000CA4B1A60704770B5044601250020EA4901
:1021B0000860EAA004F0A6FD98480168AC4804F065
:1021C00066F9B34BAA022749A94803F008FFB04BB0
:1021D000AA02EB49A64803F002FFEAA004F092FD30
:1021E000204600F019FCA9021E4800F0CBFC00F0CC
:1021F00055FDB64800684FF47A71B0FBF1F0B0FBC2
:10220000F1F63146E2A004F07DFD23E000BFD248A4
:1022100000680028FBD00020CF4908606DB94FF45A
:102220008061104800F0AEFC994B4FF48062D449B5
:102230008F4803F0D4FE01250CE04FF48061D048B4
:1022400000F0A0FC924B4FF480620649884803F0EE
:10225000C6FE00259D4800680028D7D1D3A004F011
:1022600051FD70BDB800002046464952203E5249FB
:1022700046465F49443A307825780D0A0000000050
:10228000B8100020203E524946466368756E6B7355
:10229000697A653A25640D0A0000000045564157E9
:1022A000203E574156455F466F726D61743A3078F3
:1022B00025780D0A0000000020746D66203E466FF0
:1022C000726D61744368756E6B5F49443A3078256E
:1022D000780D0A00203E666D7420646174613A25B1
:1022E000640D0A00203E556E737570706F726574D0
:1022F000645F466F726D61745461673A204E6F740B
:102300002050434D0D0A0000203E556E73757070CD
:102310006F726574645F466F726D61745461673A81
:102320002050434D0D0A0000203E6E756D626572AF
:10233000206F66206368616E6E656C733A204D6F26
:102340006E6FB5A5C9F9B5C00D0A0000203E6E75C7
:102350006D626572206F66206368616E6E656C7376
:102360003A2053746572656FC1A2CCE5C9F90D0AB4
:1023700000000000203E53616D706C652052617456
:1023800065B2C9D1F9C6B5C2CA3A202564487A0DEA
:102390000A000000203E427974652052617465B1E4
:1023A000C8CCD8C2CA3A2025640D0A00203E6E75FA
:1023B0006D626572206F6620626974732070657249
:1023C0002073616D706C65C3BFD7D6BDDAB1C8CC60
:1023D000D8CAFDB2BBCAC731366269740D0A0000A3
:1023E000203E6E756D626572206F6620626974733F
:1023F000207065722073616D706C65C3BFD7D6BDE8
:10240000DAB1C8CCD8CAFD3A2025640D0A00000014
:102410002C000020746361666174616438000020E0
:10242000303A2F00B4C5C5CCB3F5CABCBBAF3A2512
:10243000640D0A00D0100020B9D2D4D8B4C5C5CCE0
:102440003A25640D0A0000000D0ABFAACABCBDE20D
:10245000CEF6417564696F2E776176CEC4BCFEA35B
:10246000A10D0A00303A417564696F2E77617600DC
:10247000001300200D0A417564696F2E776176CED6
:10248000C4BCFEB4F2BFAACAA7B0DCA3A10D0A0067
:10249000400000200D0A2D2D2D2D2D2D2D2D2D2D03
:1024A000417564696F2E776176CEC4BCFEB6C1C833
:1024B000A1CAA7B0DCA3A12D2D2D2D2D2D2D2D2DA5
:1024C0002D0D0A00340000202800002024000020E8
:1024D000D3D0D0A7B5C4574156CEC4BCFE210D0AF7
:1024E00000000000574156CEC4BCFEBDE2CEF6CD82
:1024F000EAB1CFA3A10D0A0D0A0000002D2D2D2D4C
:102500002D2D2D2D2D2DCEDE574156CEC4BCFEBB1C
:10251000F2D5DF574156CEC4BCFEB4EDCEF3A3A135
:102520002D2D2D2D2D2D2D2D2D2D0D0A0D0A0000BB
:102530002D2D2D2D2D2D2D2D2D2DB4F2BFAA534433
:10254000BFA8CAA7B0DCA3A12D2D2D2D2D2D2D2D7B
:102550002D2D0D0A000000003000002057656C632F
:102560006F6D6520746F207573652055444131335C
:1025700038302049325320746573743A0D0A0000D4
:10258000B8080020BFAACABCB4ABCAE40D0A000058
:1025900020203E57617665446174614C656E6774B6
:1025A00068203A2025644D0D0A000000B4ABCAE44F
:1025B000CDEAB3C90D0A00007FB5AFF2B82004F030
:1025C000A1FBFEF795FC0446042C03D11FA004F0E8
:1025D00099FB09E01CB924A004F094FB04E0082C4A
:1025E00002D128A004F08EFB6846FEF7A6FC2C4919
:1025F0000098B0FBF1F529462AA004F083FB284996
:102600000198B0FBF1F529462CA004F07BFB24498E
:102610000298B0FBF1F529462FA004F073FB204986
:102620000398B0FBF1F5294632A004F06BFB7FBDA7
:10263000FFF718FC00F0BFF8FFF7BEFFFFF74BFDF8
:1026400033498868FFF7AFFD00BFFEE7203E5359CE
:1026500053434C4B536F7572636520697320485325
:1026600045210D0A00000000203E535953434C4BB6
:10267000536F7572636520697320485349210D0AB1
:1026800000000000203E535953434C4B536F75726A
:10269000636520697320504C4C210D0A0000000036
:1026A00040420F0020203E53595320636C6F636BF0
:1026B000203D2025644D487A200D0A0020203E4808
:1026C000434C4B20636C6F636B203D2025644D4869
:1026D0007A200D0A0000000020203E50434C4B3170
:1026E00020636C6F636B203D2025644D487A200D7C
:1026F0000A00000020203E50434C4B325F636C6F59
:10270000636B203D2025644D487A200D0A000000AF
:10271000B8100020704700BFFEE700BFFEE700BF13
:10272000FEE700BFFEE7704770477047704710B57F
:1027300040F225510848FFF769FA38B10648FFF71B
:10274000A0F9C4B2214605A004F0DCFA10BD10B512
:1027500002F0F1F910BD0000001001400A0D5553C0
:102760004152542048797065727465726D696E616A
:102770006C20496E74657272757074732052656353
:1027800065697665206120776F72643A2025630A57
:102790000D00000008B525208DF8000001208DF8FF
:1027A000010000208DF8020001208DF8030068462A
:1027B000FDF767FD08BD00B587B001210846FEF7AB
:1027C00051FC01210846FEF74DFC01211020FEF7C7
:1027D0008DFC072209212E48FEF783F807220921E4
:1027E0002B48FEF77EF84FF40070059002208DF81C
:1027F000180000208DF81A0002208DF81900012021
:102800008DF81B0005A92248FDF7E8FF4FF4806012
:10281000059001208DF81A0000208DF81B0005A9F5
:102820001B48FDF7DBFF4FF4E13001900020ADF8CD
:102830000800ADF80A00ADF80C00ADF810000C204F
:10284000ADF80E0001A91348FFF764F8012240F229
:1028500025511048FFF79FF901210E48FFF7E2F8D4
:10286000FFF798FF07B000BD014600BF704770B585
:1028700004460D46E1B20748FFF7FFF800BF4021CC
:102880000448FFF7ADF90028F9D0204670BD0000DC
:10289000000002400010014000B587B00121022075
:1028A000FEF7E0FB01214805FEF70FFC042207219B
:1028B0005348FEF716F8042206215148FEF711F896
:1028C0008020019002208DF8080001208DF80A0078
:1028D00002208DF8090000208DF80B0001A948485E
:1028E000FDF77CFF4020019001A94548FDF776FFE8
:1028F0004448FEF72BF80020ADF810004BF6FF70AF
:10290000ADF812003320ADF814004FF48060ADF83C
:1029100016000001ADF818003B48039003A93948A0
:10292000FEF73DF801213748FEF7B5F807B000BDC6
:102930002DE9F04180460E461446344805680027CC
:1029400001213048FEF7B3F83048056806E028005A
:10295000A5F1010502D1F220BDE8F0812C492948FA
:10296000FEF79BF90028F2D0002241462548FEF7E9
:10297000B6F82648056805E02800A5F1010501D153
:10298000F320E9E723491F48FEF787F90028F3D031
:1029900000272CE01D480568701EB84212DD217822
:1029A0001848FEF720F905E02800A5F1010501D13E
:1029B000F420D1E71749891E1248FEF76EF9002866
:1029C000F2D011E021780F48FEF70DF905E028005C
:1029D000A5F1010501D1F420BEE70E49891C094883
:1029E000FEF75BF90028F2D0641C781CC7B2B7422E
:1029F000D0DB01210348FEF766F80020ACE70000B9
:102A00000004024000540040A0860100480000205D
:102A1000010003008200070010B588B00446954805
:102A2000006820F4000093490860934891497C3184
:102A3000086090480838006840F080608D49083987
:102A4000086000BF8B480838006810F0006FF9D0AC
:102A500001210620FEF706FB4FF4007002900220D1
:102A60008DF80C008DF80D0000208DF80E008DF80B
:102A70000F0002A98148FDF7B1FE4FF4806002907B
:102A800002A97E48FDF7AAFE0820029002A97C4810
:102A9000FDF7A4FE052209217848FDF722FF052253
:102AA0000A217648FDF71DFF052203217448FDF732
:102AB00018FF01218803FEF708FB7248FEF708FDA6
:102AC00006940020ADF81200ADF81400ADF81C001B
:102AD0004FF40070ADF810000020ADF8160004A906
:102AE0006848FEF739FD002271216648FEF777FE3F
:102AF00001214805FEF7B6FA00216348FDF70AFDFB
:102B00006148FDF72BFC0020604908605D480C30EF
:102B10004860002088604020C8604FF6FE70086161
:102B2000002048614FF4806088614000C8618000E7
:102B30000862002048624FF4003088620420C862B6
:102B4000032008630020486388634F48FDF7A8FC12
:102B5000012210214C48FDF769FD0F208DF804007B
:102B600000208DF805008DF8060001208DF8070083
:102B700001A8FDF786FB012202214248FEF723FE51
:102B800008B010BD70B505460C4640488560600829
:102B90003E4908613C48FDF783FC01213A48FDF7B6
:102BA000B9FC38481C30008810F4806F03D1012133
:102BB0003448FEF79DFD70BD10B535493248FDF72C
:102BC00006FD002855D033480068002844D000BFD7
:102BD0002D48FDF7ECFC0028FAD12D492A48FDF7D5
:102BE00011FD2D480068294988602A480068B0F521
:102BF000803F02D22748006801E04FF6FF7023496A
:102C000008612148FDF74CFC01211F48FDF782FCBB
:102C100020480068B0F5803F02D21E48006801E0FD
:102C20004FF6FF701C49096801EB40001A49086023
:102C300018480068B0F5803F02D21648006801E0ED
:102C40004FF6FF7013490968081A124908600121FC
:102C50000D48FDF75FFC0CE000210B48FDF75AFC26
:102C60000B490948FDF7CEFC00210B480068FFF72F
:102C700085FA10BD08380240804000300004024050
:102C80000008024000380040706002402415002017
:102C900020000020800000208400002070B5302635
:102CA0000025FFF7F9FD12E005EB45002A4942181F
:102CB00003213046FFF73CFE044614B9681CC5B238
:102CC00005E0214625A004F01DF8002070BD05EBAD
:102CD00045002149085CFF28E6D125A004F012F840
:102CE0000120F3E770B505460C46264804604FF412
:102CF0008030B0EB940F01D9A00801E04FF6FF70CF
:102D000001462846FFF73EFF1E480068B0F5803FA9
:102D100002D21C48006801E04FF6FF70C0EB54007F
:102D20001949086017480068B0F5803F02D215487D
:102D3000006801E04FF6FF7005EB400013490860A2
:102D4000002070BD70B506460C461546611B304626
:102D5000FFF7C8FF002070BD4C00002049326320FF
:102D60004552524F52203A20307825780D0A000003
:102D70005544413133383020496E6974204F4B211E
:102D80000D0A00007C00002080000020840000204C
:102D900070B52A25FE48046801E0FD48046814F077
:102DA000450FFAD014F0040F05D003250420FEF7D8
:102DB0006EFB284670BD14F0010F05D001250120DF
:102DC000FEF765FB2846F5E740F2FF50FEF75FFB94
:102DD0002846EFE72DE9F04106460F464FF02A0856
:102DE000EB48056801E0EA48056815F0450FFAD0A0
:102DF00015F0040F07D04FF003080420FEF747FB3F
:102E00004046BDE8F08115F0010F06D04FF00108F3
:102E10000120FEF73CFB4046F3E7FEF7BDFAB04267
:102E200003D04FF010084046EBE740F2FF50FEF7AA
:102E30002EFB0020FEF7B5FA044614F4604F03D1D0
:102E4000200C38804046DCE714F4005F01D01320EA
:102E5000D7E714F4804F01D01020D2E714F4004FCC
:102E600001D00F20CDE74046CBE738B52A2401201A
:102E70000090FEF76FFA10B92524204638BDC548EA
:102E80000068042829D00020C34908600220486057
:102E9000C02088600020C8604FF480600861084648
:102EA000FEF75EFAFFF774FF04462A2C01D0204695
:102EB000E4E70020FEF775FAB84908600420FEF741
:102EC00070FAB64948600820FEF76BFAB34988608B
:102ED0000C20FEF766FAB149C860AE48006858B1E8
:102EE000AC480068012807D0AA480068062803D02B
:102EF000A8480068022817D10020A74908600320CD
:102F00004860402088600020C8604FF480600861FD
:102F10000846FEF725FA69460320FFF75BFF0446E3
:102F20002A2C01D02046A9E79A48006804282FD00F
:102F3000BDF800009A490860BDF8000000049649F9
:102F4000086009204860C02088600020C8604FF4F5
:102F5000806008610846FEF703FAFFF719FF044690
:102F60002A2C01D0204689E70020FEF71AFA8D4965
:102F700008600420FEF715FA8A4948600820FEF729
:102F800010FA884988600C20FEF70BFA8549C86062
:102F90002A24204672E770B52A257D48046801E09E
:102FA0007B48046814F0450FFAD014F0040F05D0E4
:102FB00003250420FEF76BFA284670BD40F2FF504F
:102FC000FEF765FA2846F8E72DE9F04106462A277C
:102FD0006F48056801E06E48056815F0450FFAD0A6
:102FE00015F0040F06D003270420FEF750FA3846E8
:102FF000BDE8F08115F0010F05D001270120FEF793
:1030000046FA3846F4E7FEF7C7F9B04202D0102777
:103010003846EDE740F2FF50FEF739FA0020FEF7A0
:10302000C0F904466048044201D13846E0E714F094
:10303000004F01D01C20DBE714F0804F01D00920A5
:10304000D6E714F0005F01D00A20D1E714F0805FCA
:1030500001D00B20CCE714F0006F01D00C20C7E7A3
:1030600014F0806F01D00D20C2E714F0807F01D0F2
:103070000E20BDE714F4000F01D00F20B8E714F4C0
:10308000800F01D01020B3E714F4001F01D01120ED
:10309000AEE714F4801F01D01220A9E714F4002F2A
:1030A00001D01320A4E714F4802F01D014209FE74F
:1030B00014F4003F01D015209AE714F4803F01D0AA
:1030C000162095E714F4004F01D0172090E714F470
:1030D000804F01D018208BE714F4005F01D0192035
:1030E00086E714F0080F01D01A2081E738467FE701
:1030F00070B52A2642F210752548046802E06D1E5C
:103100002348046814F0450F01D1002DF7D115B103
:1031100014F0040F05D003260420FEF7B8F930465A
:1031200070BD14F0400F05D02A264020FEF7AFF9FD
:103130003046F5E73046F3E770B52A2542F21074C1
:1031400000E0641E24B18020FEF796F90028F8D034
:1031500014B90325284670BD40F2FF50FEF797F9D9
:103160002846F8E72DE9F0412A240026002500270B
:103170004FF00008B2200D49087500200860486033
:103180008860C86008610846FEF7B7F803200FE0C2
:10319000342C014088000020981500207015002074
:1031A0008C0000206015002008E0FFFD8015002045
:1031B000FEF7C3F80120FEF7BDF80020FE490860C5
:1031C00048608860C8604FF4806008610846FEF778
:1031D000C7F8FFF7B1FF04462A2C02D02046BDE80D
:1031E000F0814FF4D570F449086008204860402011
:1031F00088600020C8604FF4806008610846FEF7D0
:10320000AFF8FFF775FF04462A2C05D10120EB49E2
:1032100008604FF0804812E00020E749086037203E
:103220004860402088600020C8604FF480600861DA
:103230000846FEF795F83720FFF7C6FE0446002043
:10324000DD49086037204860402088600020C86061
:103250004FF4806008610846FEF782F83720FFF7D8
:10326000B3FE04462A2C4CD138E00020D249086035
:1032700037204860402088600020C8604FF480609C
:1032800008610846FEF76CF83720FFF79DFE0446FC
:103290002A2C01D02046A2E7C94848EA0000C649C6
:1032A000086029204860402088600020C8604FF4F2
:1032B000806008610846FEF753F8FFF76CFE04468D
:1032C0002A2C01D020468AE70020FEF76AF806463D
:1032D000012080EAD67080F001076D1C1FB94FF6FF
:1032E000FF708542C1D34FF6FF70854202D31B2485
:1032F000204674E706F08040060002D00220AF4965
:10330000086020466BE71CB501210C20FDF7AAFEE2
:103310000C220821AB48FDF7E4FA0C220921A94848
:10332000FDF7DFFA0C220A21A648FDF7DAFA0C2293
:103330000B21A448FDF7D5FA0C221146A148FDF750
:10334000D0FA0C220221A048FDF7CBFA4FF47060AE
:10335000009001208DF8050002208DF80400002067
:103360008DF8060001208DF8070069469548FDF7A5
:1033700035FA0420009069469348FDF72FFA4FF480
:103380008050009000208DF8070069468D48FDF7B9
:1033900025FA0121C802FDF7A9FE01218805FDF7E4
:1033A00061FE1CBD10B52A24FFF7ADFFFDF79AFFA3
:1033B000FFF7D8FE04462A2C01D0204610BDFFF7A7
:1033C00054FD04462A2C01D02046F7E70A207F4905
:1033D00008750020086048608860C8600861084679
:1033E000FDF78BFF2046E9E710B52A240020FDF702
:1033F000A4FF204610BD30B501462A2000226F4BA5
:103400001B6881F84E30724B1B68A1F84C30714B31
:103410001B681A0E93090B70C2F383034B7002F002
:1034200003038B706B4B1B68C3F30742CA70694B75
:103430001B68C3F307220A71664B1B68DAB24A7134
:10344000644B5B681A0E1301CB80624B5B68C3F35D
:103450000742CB8843EA1213CB8002F00F030B72B2
:103460005C4B5B68C3F30722D3094B72C2F3801332
:103470008B72C2F34013CB72C2F300130B730023A1
:103480004B734E4B1B681BB14C4B1B68012B3DD142
:1034900093071B0D0B614F4B5B68DAB20B6943EA74
:1034A00082030B614B4B9B681A0E0B6943EA921324
:1034B0000B61C2F3C2030B7502F007034B75454B5A
:1034C0009B68C3F3074253098B75C2F38203CB7524
:1034D00093075B0F0B763F4B9B68C3F307220B7E72
:1034E00043EAD2130B760B695B1C4B640C7E4B6C6E
:1034F000A41C0125A5406B434B640C7A0123A34017
:103500008B64D1E9113463434B6422E02B4B1B687D
:10351000022B1ED12F4B5B68DAB293069B0A0B611C
:103520002C4B9B681A0E0B6943EA02230B61294B53
:103530009B68C3F307420B6913430B61254B9B68E0
:10354000C3F307220B695B1CDB044B644FF400736D
:103550008B64C2F3801301F8193F93065B0E4B7026
:103560001C4B9B68DAB24B7843EAD2134B7002F0E3
:103570007F038B70174BDB681A0ED309CB70C2F335
:1035800041130B71C2F382034B7193071B0F8B71B5
:10359000104BDB68C3F307428B7943EA92138B71BC
:1035A000C2F34013CB7100230B7202F001034B7284
:1035B000084BDB6810E00000981500208800002010
:1035C0000000108000080240000C0240801500201E
:1035D0008C00002060150020C3F30722D3098B72F2
:1035E000C2F38013CB72C2F340130B73C2F3001308
:1035F0004B73C2F381038B7302F00303CB73FB4B5A
:10360000DB68DAB253080B7401234B74F84B1B6868
:103610001A0ECA74A1F11901F54B1B68C3F30742D6
:103620004FEA0224CC85F24B1B68C3F30722CB8DF3
:1036300043EA0203CB85EE4B1B68DAB24FEA026421
:103640000C63EB4B5B684FEA13620B6B43EA02447B
:103650000C63E74B5B68C3F307420B6B43EA02243E
:103660000C63E34B5B68C3F307220B6B43EA020373
:103670000B63DF4B5B68DAB24FF034035A54DC4B18
:103680009B684FEA13624FF035035A54D84B9B683E
:10369000C3F307424FEA02648C63D54B9B68C3F3C4
:1036A00007228B6B43EA02448C63D14B9B68DAB2EE
:1036B0008B6B43EA02248C63CD4BDB684FEA1362C9
:1036C0008B6B43EA02038B63C94BDB68C3F307428E
:1036D0004FF03C035B5C43EA12144FF03C035C5434
:1036E0004FEA02734FEA1354CC87C14BDB68C3F334
:1036F0000722CB8F43EA0203CB87BD4BDB68DAB2EC
:103700004FEA52044FF040035C544FF001044FF075
:1037100041035C5430BD2DE9FC4107460D460026AF
:103720002A240020009001900820B249086010204F
:103730004860402088600020C8604FF480600861C5
:103740000846FDF70DFE1020FFF73EFC04462A2C2C
:1037500002D02046BDE8FC81A74800680004A549C6
:10376000086037204860402088600020C8604FF41F
:10377000806008610846FDF7F3FD3720FFF724FC61
:1037800004462A2C01D02046E4E74FF0FF309B4945
:10379000086008204860302088600220C86000204F
:1037A0000861012048610846FDF702FE00209149AA
:1037B000086033204860402088600020C8604FF4D3
:1037C000806008610846FDF7CBFD3320FFF7FCFB66
:1037D00004462A2C01D02046BCE709E04FF4001033
:1037E000FDF74AFE20B1FDF709FE4DF82600761CD4
:1037F0008348006840F22A610842EFD00820FDF7B4
:103800003BFE28B10820FDF742FE04242046A1E734
:103810000220FDF731FE28B10220FDF738FE022418
:10382000204697E72020FDF727FE28B12020FDF74E
:103830002EFE062420468DE74FF40070FDF71CFE97
:1038400030B14FF40070FDF722FE0724204681E7D7
:1038500040F2FF50FDF71BFE00980006009901F4AE
:103860007F4140EA0120009901F47F0140EA1120E4
:10387000009940EA1160686001980006019901F41E
:103880007F4140EA0120019901F47F0140EA1120C3
:10389000019940EA1160286020465BE77CB5054647
:1038A0002A24002000900190FDF77BFD10F0007F9E
:1038B00002D00E2420467CBD69464F48006880B285
:1038C000FFF729FF04462A2C01D02046F3E7012DFB
:1038D00037D1019810F4802F30D047480068000499
:1038E0004449086037204860402088600020C86054
:1038F000A80208610846FDF733FD3720FFF764FB97
:1039000004462A2C01D02046D5E702203949086018
:1039100006204860402088600020C8604FF4806026
:1039200008610846FDF71CFD0620FFF74DFB044625
:103930002A2C01D02046BEE72046BCE7252420469D
:10394000B9E7019810F4803F31D02B48006800049B
:103950002849086037204860402088600020C860FF
:103960004FF4806008610846FDF7FAFC3720FFF746
:103970002BFB04462A2C01D020469CE700201D4941
:10398000086006204860402088600020C8604FF42E
:10399000806008610846FDF7E3FC0620FFF714FB92
:1039A00004462A2C01D0204685E7204683E72524BB
:1039B000204680E770B504462A251248006803288F
:1039C00002D12725284670BD0E48006838B10D4841
:1039D0000068012803D00B48006802283FD1B4F5E5
:1039E000805F11D127252846EDE7000060150020F3
:1039F00070150020981500208C000020AC150020C8
:103A0000342C014088000020B4F5006F15D101204E
:103A1000FFF744FF05462A2D21D10120FE490875F4
:103A200000200860486088604FF40060C860002093
:103A300008610846FDF761FC11E00020FFF72EFF4A
:103A400005462A2D0BD10120F34908750020086096
:103A500048608860C86008610846FDF74EFC28464B
:103A6000B1E701462A2019B1012901D0022902D16A
:103A7000EA4A116000E02620704770B504462A2506
:103A8000E74804600720E64948604020886000203D
:103A9000C8604FF4806008610846FDF761FC0720AC
:103AA000FFF792FA0546284670BD30B58FB0044640
:103AB0000D464FF0FA51DB48FCF7A4FD0021D94830
:103AC000FCF728FDD748FCF749FC4FF00060009058
:103AD000D54801900294002003904FF6FE700490A8
:103AE000002005904FF480600690800007908000D1
:103AF0000890002009904FF440300A9004200B9069
:103B000003200C904FF400000D9080100E90694639
:103B1000C448FCF7C5FC2021C248FCF711FD012177
:103B2000C048FCF7F7FC0FB030BD0146002002E0B2
:103B30004910421CD0B20129FAD170472DE9F04753
:103B400007460D4614464FF02A084FF000092E464E
:103B50004FF0000A25B94FF026084046BDE8F0872F
:103B60002A20B24908700020B1490860B1490860B4
:103B7000401EB1490860002048608860C860086144
:103B800048610846FDF714FC0020FDF760FC0020AA
:103B9000FDF707FC10F0007F03D04FF00E08404601
:103BA000DCE7A6480068022801D104027F0A002C45
:103BB00021DDB4F5006F1EDC601E20421BD12046C3
:103BC000FFF7B3FF8246964804601020944948608E
:103BD000402088600020C8604FF48060086108467B
:103BE000FDF7BEFB1020FFF7EFF98046B8F12A0F72
:103BF00005D04046B2E74FF026084046AEE74FF00A
:103C0000FF308D490860084644604FEA0A1088601A
:103C10000220C86000200861012048610846FDF7C5
:103C2000C7FB84480460002085490860854805601A
:103C30007B48076011207A49486040208860002056
:103C4000C8604FF4806008610846FDF789FB1120C9
:103C5000FFF7BAF98046B8F12A0F01D040467DE758
:103C60006E480068022857D111E04FF40040FDF77C
:103C700003FC60B14FF0000905E0FDF7BFFB46F81B
:103C8000290009F10109B9F1080FF6D32036664879
:103C90004C38006840F22A610842E6D00820FDF75F
:103CA000EBFB30B10820FDF7F2FB4FF00408404673
:103CB00054E70220FDF7E0FB30B10220FDF7E7FBFF
:103CC0004FF00208404649E72020FDF7D5FB30B110
:103CD0002020FDF7DCFB4FF0060840463EE74FF49E
:103CE0000070FDF7C9FB38B14FF40070FDF7CFFB52
:103CF0004FF00708404631E703E0FDF77FFB3060F7
:103D0000361D4FF40010FDF7B7FB0028F5D140F247
:103D1000FF50FDF7BCFB2EE040480068012813D19E
:103D2000012148F22A30FDF796FB00BF40480068A9
:103D300018B93E4800782A28F8D03C4800782A284C
:103D400019D03A48007809E73448006898B9012149
:103D500040F22A30FDF77FFB0120FDF778FB21467A
:103D60002846FFF7A2FE00BF4FF0C0512D48FCF7D8
:103D70002EFC0028F8D04046F0E62DE9F05F8146A1
:103D80000E4614461D464FF02A084FF0000A3746EB
:103D90004FF0000B26B94FF026084046BDE8F09FD3
:103DA0002A20224908700020214908602149086022
:103DB000401E21490860002048608860C860086192
:103DC00048610846FDF7F4FA0020FDF740FB0020AB
:103DD000FDF7E7FA10F0007F03D04FF00E084046E1
:103DE000DCE716480068022802D104024FEA59298C
:103DF000002C3ADDB4F5006F37DC601E204234D170
:103E00002046FFF792FE83460548046010200449CF
:103E100048604020886017E0801500209000002056
:103E20009815002058640240802C01409C0000201E
:103E3000A000002094000020AC1500208800002085
:103E400098000020AC0000200020C8604FF4806083
:103E500008610846FDF784FA1020FFF7B5F88046A0
:103E6000B8F12A0F05D0404698E74FF026084046A3
:103E700094E7012D70D905FB04F0B0F1007F03D366
:103E80004FF02608404689E705FB04F0F849086032
:103E90000120F8490860F84806604FF0FF30F74904
:103EA000086005FB04F048604FEA0B1088600220B0
:103EB000C86000200861012048610846FDF778FAD3
:103EC000EF48C0F800901220ED494860402088601B
:103ED0000020C8604FF4806008610846FDF740FA92
:103EE0001220FFF771F88046B8F12A0F01D0404642
:103EF00054E7E448006802287AD111E04FF400400A
:103F0000FDF7BAFA60B14FF0000A05E0FDF776FA66
:103F100047F82A000AF1010ABAF1080FF6D3203750
:103F2000D948006840F22A310842E7D00820FDF75E
:103F3000A3FA30B10820FDF7AAFA4FF00408404672
:103F40002CE70220FDF798FA38B10220FDF79FFA1E
:103F50004FF00208404621E78FE02020FDF78CFA61
:103F600030B12020FDF793FA4FF00608404615E7E0
:103F70004FF40070FDF780FA38B14FF40070FDF790
:103F800086FA4FF00708404608E703E0FDF736FAE7
:103F900038603F1D4FF40010FDF76EFA0028F5D190
:103FA0004FF48070FDF768FA18B3B848006838B16C
:103FB000B6480068022803D0B4480068012818D128
:103FC0000020AF4908600C20486040208860002035
:103FD000C8604FF4806008610846FDF7C1F90C2005
:103FE000FEF7F2FF8046B8F12A0F02D04046D5E630
:103FF00004E040F2FF50FDF74AFA3EE0A1480068B5
:10400000012813D1012148F22A30FDF724FA00BF1C
:104010009F48006818B99F4800782A28F8D09D4822
:1040200000782A2829D09B480078B7E69548006890
:1040300018BB012140F22A30FDF70DFA0120FDF7EF
:1040400006FA05FB04F13046FFF72FFD00BF4FF0E5
:10405000C0519148FCF7BBFA0028F8D000BF8C484B
:10406000006818B98B4800782A28F8D08948007869
:104070002A2802D08748007890E640468EE62DE94F
:10408000F05F0746884691464FF02A0A0024002533
:10409000A34646462A207F49087000207C490860D4
:1040A000744908607849083908607848006802282F
:1040B00002D14FF400797F0A7148076018207049D7
:1040C0004860402088600020C8604FF4806008612C
:1040D0000846FDF745F91820FEF776FF8246BAF14B
:1040E0002A0F02D05046BDE8F09F4FF0FF306349E1
:1040F00008600846C0F80490902088600020C860DE
:104100000861012048610846FDF752F92BE04FF4A1
:104110008040FDF7B1F930B3C4F50070202817D204
:10412000604210F0030F03D1C4F50070800803E073
:10413000C4F500708008401C8346002505E0306807
:10414000FDF760F96D1C361D241D5D450BD2F6E7A9
:10415000002504E056F82500FDF754F96D1C082DE4
:10416000F8D3203620344848006840F21A610842EB
:10417000CDD00820FDF780F930B10820FDF787F990
:104180004FF0040A5046AEE70220FDF775F930B152
:104190000220FDF77CF94FF0020A5046A3E71020F9
:1041A000FDF76AF930B11020FDF771F94FF0050AFB
:1041B000504698E74FF40070FDF75EF938B14FF4C0
:1041C0000070FDF764F94FF0070A50468BE7504640
:1041D00089E72DE9F04106462A27002400252F48CB
:1041E00000680004264908600D204860402088606F
:1041F0000020C8604FF4806008610846FDF7B0F801
:104200002148056801E02048056815F0450FFAD0FF
:1042100015F0040F06D003270420FDF738F93846BF
:10422000BDE8F08115F0010F05D001270120FDF751
:104230002EF93846F4E7FDF7AFF805460D2D02D00C
:1042400010273846ECE740F2FF50FDF720F9002038
:10425000FDF7A7F80446C4F3432030701048044229
:1042600001D13846DCE714F0004F1BD01C20D7E703
:104270009400002098000020AC000020AC15002025
:104280009815002090000020342C01408800002068
:10429000A00000209C000020586402408C000020F8
:1042A00008E0FFFD14F0804F01D00920B8E714F0BA
:1042B000005F01D00A20B3E714F0805F01D00B202B
:1042C000AEE714F0006F01D00C20A9E714F0806F66
:1042D00001D00D20A4E714F0807F01D00E209FE7CD
:1042E00014F4000F01D00F209AE714F4800F01D0CE
:1042F000102095E714F4001F01D0112090E714F46A
:10430000801F01D012208BE714F4002F01D013205E
:1043100086E714F4802F01D0142081E714F4003FC5
:1043200001D015207CE714F4803F01D0162077E7F8
:1043300014F4004F01D0172072E714F4804F01D01D
:1043400018206DE714F4005F01D0192068E714F01D
:10435000080F01D01A2063E7384661E730B58FB007
:1043600004460D464FF0FA51FE48FCF74BF9002188
:10437000FC48FCF7CFF8FB48FBF7F0FF4FF000607C
:104380000090F94801900294402003904FF6FE708F
:104390000490002005904FF4806006908000079004
:1043A00080000890002009904FF440300A900420CB
:1043B0000B9003200C904FF400000D9080100E9095
:1043C0006946E848FCF76CF82021E648FCF7B8F8A5
:1043D0000121E448FCF79EF80FB030BD2DE9FE4FF7
:1043E0008346884614461E462A25002002900190E6
:1043F000002781460090C246B8F1000F03D1262560
:104400002846BDE8FE8F2A20D84908700020D849E8
:104410000860D8490860401ED749086000204860FD
:104420008860C860086148610846FCF7C1FF002049
:10443000FDF70DF80020FCF7B4FF10F0007F02D06C
:104440000E252846DDE7CD480068022802D1040287
:104450004FEA5B2B002C20DDB4F5006F1DDC601EE5
:1044600020421AD12046FFF760FB0290C448046046
:104470001020C3494860402088600020C8604FF485
:10448000806008610846FCF76BFF1020FEF79CFD7A
:1044900005462A2D04D02846B3E726252846B0E74E
:1044A000B84800680004B64908600D204860402004
:1044B00088600020C8604FF4806008610846FCF7FF
:1044C0004FFF0D20FEF780FD05462A2D01D028461E
:1044D00097E7012E7BD906FB04F0B0F1007F02D3F1
:1044E000262528468DE7A548006838B1A34800680E
:1044F000012803D0A148006802282FD1A1480068F4
:1045000000049F49086037204860402088600020F0
:10451000C8604FF4806008610846FCF721FF37202F
:10452000FEF752FD05462A2D01D0284669E794483A
:104530000660172092494860402088600020C860CB
:104540004FF4806008610846FCF70AFF1720FEF769
:104550003BFD05462A2D01D0284652E78848C0F881
:1045600000B0192086494860402088600020C8605B
:104570004FF4806008610846FCF7F2FE1920FEF750
:1045800023FD05462A2D01D028463AE706FB04F014
:104590007849086001207C4908607C48C0F80080A8
:1045A0004FF0FF307449086006FB04F04860029841
:1045B000000188600020C860086101204861084649
:1045C000FCF7F6FE7248006802287DD13AE0E1E08F
:1045D0004FF48040FCF750FFA0B366480068C01B52
:1045E00020280FD34FF0000905E05AF82900FCF706
:1045F00009FF09F10109B9F1080FF6D30AF1200A00
:1046000020371FE05B480068C01B10F0030F04D187
:1046100058480068C01B800804E056480068C01B6A
:104620008008401C00904FF0000908E0DAF8000014
:10463000FCF7E8FE09F101090AF1040A3F1D0098A0
:104640008145F3D348484C38006840F21A3108429B
:10465000BED00820FCF710FF28B10820FCF717FF98
:1046600004252846CDE60220FCF706FF28B10220EB
:10467000FCF70DFF02252846C3E61020FCF7FCFEE0
:1046800028B11020FCF703FF05252846B9E64FF4B2
:104690000070FCF7F1FE30B14FF40070FCF7F7FE4C
:1046A00007252846ADE64FF48070FCF7E5FE0028AC
:1046B0007CD03248006848B130480068012805D0F5
:1046C0002E480068022800E017E06FD100202C4936
:1046D00008600C204860402088600020C8604FF4CB
:1046E000806008610846FCF73BFE0C20FEF76CFC7E
:1046F00005462A2D5AD0284683E625480068012819
:1047000013D1012144F21A30FCF7A5FE00BF18486E
:10471000006818B9154800782A28F8D0134800789E
:104720002A2843D0114800786BE61948006888BBF6
:10473000012140F21A30FCF78EFE0120FCF787FEC3
:1047400006FB04F14046FFF709FE00BF4FF0C051E1
:104750000448FBF73CFF0028F8D000BF044800687D
:10476000E8B918E058640240802C01409C00002009
:10477000A000002094000020AC150020880000203C
:10478000981500208C00002098000020A800002030
:10479000900000200AE0F84800782A28DED0F64889
:1047A00000782A2802D0F44800782AE640F2FF5028
:1047B000FCF76DFE01A8FFF70CFD054603E001A81C
:1047C000FFF707FD05462A2D07D19DF804000728AD
:1047D000F5D09DF804000628F1D0284611E6E748F8
:1047E000006810F4405F01D0012070470020FCE712
:1047F00010B52A240020E24908600C2048604020BF
:1048000088600020C8604FF4806008610846FCF7AB
:10481000A7FD0C20FEF7D8FB0446204610BD2DE96D
:10482000F84305460E462A2400274FF000080020D2
:104830000090D4484068202111EA105F03D125245C
:104840002046BDE8F883CD4830380068C0B2801CEF
:10485000CD49B1FBF0F80020FCF7A3FD10F0007F7C
:1048600002D00E242046ECE7C8480068022801D197
:104870006D0A760AC548006838B1C4480068012846
:1048800003D0C248006802282DD1BD480560202011
:10489000BB494860402088600020C8604FF48060B9
:1048A00008610846FCF75CFD2020FEF78DFB0446FE
:1048B0002A2C01D02046C4E7B14806602120B04927
:1048C0004860402088600020C8604FF48060086124
:1048D0000846FCF745FD2120FEF776FB04462A2C0E
:1048E00001D02046ADE70020A54908602620486099
:1048F000402088600020C8604FF48060086108464E
:10490000FCF72EFD2620FEF75FFB04462A2C01D083
:10491000204696E7002700E07F1C4745FCD3684609
:10492000FFF757FC044603E06846FFF752FC0446D5
:104930002A2C07D19DF800000728F5D09DF800002B
:104940000628F1D020467CE770B504462A2514B924
:104950002625284670BD8E480068000488490860F6
:104960000D204860402088600020C8604FF48060BF
:1049700008610846FCF7F4FC0D20FEF725FB054610
:104980002A2D01D02846E5E70020FCF70AFD20602B
:104990002846DFE770B504462A2600250020FCF7EC
:1049A00000FD10F0007F02D00E26304670BD402082
:1049B0007349086010204860402088600020C8606B
:1049C0004FF4806008610846FCF7CAFC1020FEF72F
:1049D000FBFA06462A2E01D03046E7E76C4800680D
:1049E0000004674908603720486040208860002044
:1049F000C8604FF4806008610846FCF7B1FC3720BE
:104A0000FEF7E2FA06462A2E01D03046CEE74FF0F6
:104A1000FF306049086040204860602088600220C4
:104A2000C86000200861012048610846FCF7C0FC0E
:104A30000020534908600D20486040208860002015
:104A4000C8604FF4806008610846FCF789FC0D20BF
:104A5000FEF7BAFA06462A2E01D03046A6E70EE047
:104A60004FF40040FCF708FD48B1002504E0FCF7D6
:104A7000C5FC44F825006D1C082DF8D320343F48B0
:104A8000006840F22A610842EAD00820FCF7F4FCF2
:104A900028B10820FCF7FBFC0426304686E70220FC
:104AA000FCF7EAFC28B10220FCF7F1FC02263046B4
:104AB0007CE72020FCF7E0FC28B12020FCF7E7FC95
:104AC0000626304672E74FF40070FCF7D5FC30B193
:104AD0004FF40070FCF7DBFC0726304666E703E086
:104AE000FCF78CFC2060241D4FF40010FCF7C4FC84
:104AF0000028F5D140F2FF50FCF7C9FC403C0025EE
:104B000015E054F82500000654F8251001F47F4103
:104B100040EA012054F8251001F47F0140EA1120F9
:104B200054F8251040EA116044F825006D1C102D42
:104B3000E7D330463AE770B50024002516480068F0
:104B400001287ED1C003FCF7A6FC58B300BF06E0E5
:104B5000FCF754FC1149096841F82400641C082C36
:104B6000F6D30E48006820300C4908600C480068F5
:104B700020300B49086064E09C000020342C014088
:104B800098150020601500204019010088000020C1
:104B90008C000020AC15002090000020AC0000200C
:104BA000A4000020FFE74FF48040FCF774FC0028CD
:104BB00047D07648006876490968401A20282BD2E9
:104BC0007248006872490968401A10F0030F06D154
:104BD0006E4800686E490968401A800806E06B4814
:104BE00000686B490968401A8008401C054600248B
:104BF0000FE0684909680868FCF704FC641C654814
:104C00000068001D6349086061480068001D604934
:104C10000860AC42EDD314E0002406E05D49096869
:104C200051F82400FCF7EEFB641C082CF6D359481D
:104C300000682030574908605548006820305449C2
:104C400008604FF48070FCF726FCD8B35248006827
:104C5000D0B10EE0FCF7D2FB5049096808604F481C
:104C60000068001D4D49086049480068001D48491A
:104C700008604FF40010FCF7FFFB28B144480068BF
:104C8000424909688842E5D345480068012804D1B3
:104C9000FFF7AEFD4349087002E02A204149087041
:104CA0004FF48070FCF702FC00214CF23A30FCF724
:104CB000D2FB01203C490860002035490860394892
:104CC000007870BDFFE70220FCF7E5FB70B1022021
:104CD000FCF7ECFB00214CF23A30FCF7BCFB002067
:104CE0002B49086002202F490870EAE70820FCF7EA
:104CF000D2FB70B10820FCF7D9FB00214CF23A300E
:104D0000FCF7A9FB0020224908600420254908700F
:104D1000D7E72020FCF7BFFB70B12020FCF7C6FBD3
:104D200000214CF23A30FCF796FB0020184908604D
:104D300006201C490870C4E71020FCF7ACFB70B1DA
:104D40001020FCF7B3FB00214CF23A30FCF783FB58
:104D500000200F490860052012490870B1E74FF4A0
:104D60000070FCF798FB78B14FF40070FCF79EFBE5
:104D700000214CF23A30FCF76EFB00200449086039
:104D80000720084908709CE72A209AE79400002031
:104D9000A4000020A800002090000020AC0000200B
:104DA000980000209C000020A000002070B505465F
:104DB000002D46D1FEF7F6FA04462A2C01D0012038
:104DC00070BD8148FEF717FB04462A2C01D0012054
:104DD000F6E77D49B1F84C100804FEF74EFE044694
:104DE0002A2C01D00120EBE7002010B1012823D1AB
:104DF00011E04FF40060FEF7DDFD04462A2C01D0DF
:104E00000320DDE70020FEF72CFE04462A2C01D00B
:104E10000320D5E712E00020FEF7CCFD04462A2C43
:104E200001D00320CCE70120FEF71BFE04462A2C0C
:104E300001D00320C4E701E00320C1E700BF002048
:104E4000BEE70120BCE7014609B9002070470120F8
:104E5000FCE72DE9F0410746884615461E4616B97F
:104E60000420BDE8F0817FBB002010B1012824D1CF
:104E700011E0012E06D1680272024146FEF75EFE85
:104E8000044607E0680233464FF400724146FEF7DD
:104E900074FF044613E0012E06D1680272024146F7
:104EA000FEF74CFE044607E0680233464FF40072FA
:104EB0004146FEF762FF044601E0292400BF00BF1F
:104EC0002A2C02D10020CCE701E00120C9E7012013
:104ED000C7E72DE9F0410746884615461E4616B934
:104EE0000420BDE8F0817FBB002010B1012824D14F
:104EF00011E0012E06D1680272024146FFF7BFF8A9
:104F0000044607E0680233464FF400724146FFF75B
:104F100065FA044613E0012E06D16802720241468A
:104F2000FFF7ADF8044607E0680233464FF400721D
:104F30004146FFF753FA044601E0292400BF00BFB1
:104F40002A2C02D10020CCE701E00120C9E7012092
:104F5000C7E72DE9F04706460F4615467EBB27B149
:104F6000012F0ED0032F24D106E0FFF738FC08B93B
:104F7000002400E001241EE04FF40070288000248B
:104F800019E01148FEF737FA2A2810D10E480069B7
:104F900000F1010A0C48007E00F102080A48007A7C
:104FA00000EB08090AFA09F02860002400E0012457
:104FB00001E0042400BF00BF2046BDE8F087FFE702
:104FC0000120FAE700207047C415002070B50346A1
:104FD0000C4603E014F8015B03F8015B1500A2F135
:104FE0000102F7D170BD30B5034601E003F8011BA3
:104FF0001400A2F10102F9D130BDF0B503461C4600
:105000000D46002000BF1600A2F1010207D014F8DF
:10501000017B15F801CBA7EB0C063000F3D0F0BDF7
:10502000024600E0521C107810B110788842F9D185
:10503000107870472DE9F04104460D46E66AAE420D
:105040002FD0207908B360780123324604F1300173
:10505000FFF73FFF10B10120BDE8F0810020207173
:10506000A169206A0844B0420FD9E7780AE0A06934
:10507000064460780123324604F13001FFF729FF2E
:10508000781EC7B2012FF2DC00BF55B16078012352
:105090002A4604F13001FFF7DCFE08B10120DBE70E
:1050A000E5620020D8E770B5044600212046FFF7EE
:1050B000C1FF0546002D58D1207803284ED16079D4
:1050C00000284BD00020E0624FF40072002104F170
:1050D0003000FFF788FF552184F82E12AA2184F8AA
:1050E0002F1252213020015584F83110612184F8AB
:1050F0003210412184F83310722184F8141284F89C
:105100001512412184F81612612184F817122069C2
:1051100084F818022069010A84F819122069010C28
:1051200084F81A122069010E84F81B12E06884F8D2
:105130001C02E068010A84F81D12E068010C84F882
:105140001E12E068010E84F81F126078012304F13A
:1051500030016269FFF7BDFE0020607160780022B7
:105160001146FFF7F6FE00B10125284670BD2DE976
:10517000F04105460C46022C02D3E869A04202D851
:105180000120BDE8F0812F6A2878012804D0022888
:105190002AD0032876D142E0264606EB560607EBD6
:1051A00056212846FFF746FF00B16BE0C6F3080121
:1051B00005F1300010F80180761C07EB56212846D7
:1051C000FFF738FF00B15DE0C6F3080105F13000DC
:1051D000405C48EA002814F0010F02D04FEA181092
:1051E000CFE7C8F30B00CCE707EB14212846FFF705
:1051F00021FF00B146E0A0B240F2FF1101EA4001F8
:1052000005F13000415CA0B240F2FF1202EA400218
:1052100005F130001044407841EA0020B1E707EB87
:10522000D4112846FFF706FF00B12BE0A0B240F2F0
:10523000FF1101EA800105F130000844C078010641
:10524000A0B240F2FF1202EA800205F130001044E1
:10525000807841EA0041A0B240F2FF1202EA8002E7
:1052600005F130001044407841EA0020A1B240F23C
:10527000FF1202EA810205F13001895C084320F047
:1052800070407EE700BF4FF0FF307AE72DE9F0472E
:1052900005460C461646022C02D3E869A04201D806
:1052A000022799E0D5F820A02878012804D0022808
:1052B00041D003287ED159E0A04608EB58080AEBFC
:1052C00058212846FFF7B6FE074607B181E0C8F32C
:1052D000080105F1300001EB000914F0010F05D0C1
:1052E000F1B299F8000061F31F1000E0F0B289F804
:1052F000000008F10108012028710AEB5821284616
:10530000FFF798FE074607B163E0C8F3080105F10F
:10531000300001EB000914F0010F02D0C6F30710B2
:1053200006E099F8000000F0F000C6F303210843FE
:1053300089F800004DE00AEB14212846FFF77AFEB9
:10534000074607B145E0A0B240F2FF1202EA400270
:1053500005F130008654310AA0B240F2FF1202EA91
:10536000400205F130001044417032E00AEBD411E4
:105370002846FFF75FFE074607B12AE0A0B240F2D9
:10538000FF1202EA800205F130008654310AA0B211
:1053900040F2FF1202EA800205F130001044417031
:1053A000310CA0B240F2FF1202EA800205F1300097
:1053B000104400E00BE08170310EA0B240F2FF1209
:1053C00002EA800205F130001044C17001E00227BA
:1053D00000BF00BF012028713846BDE8F0872DE9E5
:1053E000F04104460E46022E02D3E069B04201D8D5
:1053F000022725E000271FE031462046FFF7B7FED1
:10540000054605B91BE0012D01D1022717E0681CF4
:1054100001D1012713E0002231462046FFF736FF75
:10542000074607B10BE02069401C04D02069401CEE
:105430002061012060712E46E069B042DCD800BFD7
:105440003846BDE8F0812DE9F04705468846D5F895
:105450001C90B8F1000F05D1EE680EB14E4510D387
:1054600001260EE041462846FFF781FE0746022F3F
:1054700002D20120BDE8F0874F4501D23846F9E756
:105480004646344600BF641C4C4504D30224B44253
:1054900001D90020EEE721462846FFF768FE0746BF
:1054A00007B909E0781C01D0012F01D13846E1E7A6
:1054B000B442E8D10020DDE700BF6FF07042214622
:1054C0002846FFF7E3FE10B14FF0FF30D2E7B8F106
:1054D000000F08D0224641462846FFF7D7FE10B1FC
:1054E0004FF0FF30C6E7EC602869401C04D0286903
:1054F000401E2861012068712046BBE70246891ED4
:10550000D069801E884201D8002070479378906A45
:1055100001FB0300F9E72DE9F04104460E46E68061
:10552000A568012D03D02068C069A84202D80220D6
:10553000BDE8F0812DB920680078032801D12068EA
:10554000456A65B9E56020680089B04201DC022047
:10555000EEE72068406A00EB1610206120E020682A
:105560008078070112E029462068FFF700FE054613
:10557000681C01D10120DBE7022D03D32068C0693C
:10558000A84201D80220D3E7F01B86B2BE42EADA75
:10559000E56029462068FFF7B1FF00EB1610206197
:1055A0002068303006F00F0100EB411060610020F0
:1055B000BEE72DE9F04104468846E088401C86B2EB
:1055C0000EB1206910B90420BDE8F08116F00F0F6C
:1055D0006ED12069401C2061E06828B920680089EC
:1055E000B04265DC0420EFE720688078401E10EAB6
:1055F000161F5DD1E1682068FFF7B9FD0546012D52
:1056000001D80220E0E7681C01D10120DCE7206816
:10561000C069A84246D8B8F1000F01D10420D3E7F1
:10562000E1682068FFF70FFF05460DB90720CBE7BB
:10563000012D01D10220C7E7681C01D10120C3E779
:1056400000212068FFF7F6FC08B10120BCE72168C3
:1056500001F130004FF400720021FFF7C4FC29462D
:105660002068FFF74BFF2168C862002710E0012087
:105670002168087100212068FFF7DCFC08B10120D7
:10568000A2E72068C06A401C2168C862781CC7B2C3
:1056900020688078B842EADC2068C06AC01B2168B4
:1056A000C86200BFE56029462068FFF727FF206138
:1056B000E6802068303006F00F0100EB4110606199
:1056C000002081E72DE9F041044600212046FFF744
:1056D00022FF054615B12846BDE8F08100BF2169CB
:1056E0002068FFF7A7FC054605B116E06669377824
:1056F0000FB9042511E0F07A10F0080F06D10B2243
:105700003046A169FFF779FC00B906E00021204688
:10571000FFF74FFF0546002DE1D000BF2846DBE72D
:105720002DE9F041044604251BE021692068FFF7BC
:1057300081FC054605B117E067693E780EB904257E
:1057400012E0E52E06D02E2E04D0F87A10F0080FC5
:1057500000D109E000212046FFF72BFF054605B1E7
:1057600002E020690028E0D100BF0DB100202061D7
:105770002846BDE8F0812DE9F0410446002120468D
:10578000FFF7C9FE0546ADB900BF21692068FFF7E4
:1057900051FC054605B10CE060690678E52E00D0A5
:1057A00006B906E001212046FFF703FF0546002D5C
:1057B000EBD000BFC5B921692068FFF73BFC054667
:1057C00095B96769202200213846FFF70CFC0B22AF
:1057D0003846A169FFF7FAFBA069C07A00F018000B
:1057E00038730120216808712846BDE8F08170B542
:1057F0000446E1882046FFF78EFE05465DB9216923
:105800002068FFF717FC05462DB9E520616908708F
:10581000012021680871284670BD2DE9F35F0098CA
:1058200086690B2220213046FFF7DDFB002005466C
:10583000804682464FF008090198D0F800B000BFBA
:1058400050460AF1010A1BF80040202C03DD2F2CE2
:1058500001D05C2C00D152E02E2C01D0C8450EDBCB
:10586000B9F1080F01D12E2C02D00620BDE8FC9F13
:105870004FF008084FF00B09A806050EE0E7802C52
:1058800001DB45F00305812C1DDBFE2C1BDC5046A3
:105890000AF1010A1BF80070402F01DB7E2F03DDA7
:1058A000802F05DBFE2F03DCA9F10100404501DC60
:1058B0000620DBE7404608F101083454404608F171
:1058C000010837541AE02146FEA0FFF7A9FB08B1F2
:1058D0000620CBE7412C04DB5A2C02DC45F0020504
:1058E00008E0612C06DB7A2C04DC45F00105A4F10C
:1058F0002000C4B2404608F101083454A0E700BFBC
:105900000BEB0A0101980160202C01DC042000E06F
:1059100000200446B8F1000F01D10620A6E7307838
:10592000E52801D105203070B9F1080F01D1A80692
:10593000050E05F00300012801D144F0100405F024
:105940000C00042801D144F00804F47200208DE713
:10595000F0B505460B4603F109022F69002F40D030
:105960006869067B00210AE0445C202C00D108E035
:10597000052C00D1E52400BF02F8014B491C082981
:10598000F2DB00BF077A202F0FD02E2702F8017B11
:10599000082107E0445C202C00D105E000BF02F89C
:1059A000014B491C0B29F5DB00BFC77A1F72C77F6B
:1059B0004FEA076C877F4CEA074C477F4CEA072782
:1059C00090F81CC047EA0C071F6090F818C0477E8B
:1059D0004CEA07279F8090F816C0C77D4CEA07273E
:1059E000DF8000271770F0BD2DE9F341044602E087
:1059F0000198401C0190019800782028F8D0019867
:105A000000782F2803D0019800785C2802D10198F3
:105A1000401C01900020A06001980078202807D247
:105A200000212046FFF777FD0646002060612BE04D
:105A300000BF01A92046FFF7F0FE064606B122E0AE
:105A40002046FFF73FFE0646A069C07A00F0040733
:105A500026B1042E01D107B9052614E007B112E0E2
:105A60006569E87A10F0100F01D105260BE0A97ED8
:105A7000E87E41EA00212A7D687D42EA002041EA71
:105A80000040A060D5E700BF3046BDE8FC8170B59E
:105A900004460D46607801232A4604F13001FFF7E1
:105AA000D8F908B1032070BD94F82E1294F82F0293
:105AB00041EA0020A0F52A41553901D00220F2E741
:105AC00094F86900010694F8680041EA004194F8EE
:105AD000670041EA002094F86610084320F07F40F8
