:400000000080002011000000FD010000FD01000008B5044B1A6803F53F5302331A6000F0EFF800BFFA46004010B5054C237833B9044B13B10448AFF300800123237010BD94
:400040009081FF1F00000000801B0000084B10B51BB108480849AFF300800848036803B910BD074B002BFBD0BDE81040184700BF00000000801B00009481FF1F0881FF1FFB
:400080000000000038B5022001214FF4804241F6FF7301F06FF80E4C207000F0AFFB02460C4D28704FF40041022300F0C1FB287844F61061084A92B200F0CEFB2078297824
:4000C00000F06CFB2078012100F020FB38BD00BFCC010020D0010020AC81FF1FF8B5022001214FF48042134601F062F81E4F3870022001214FF48042134601F077F81B4EED
:40010000307000F07BFB1A4D287000F077FB194C20702A7810460221002300F089FB227810460221002300F083FB287844F6106146F2414200F090FB207844F6106146F211
:40014000514200F089FB3878297800F027FB3078217800F023FB3878012100F0D7FA3078012100F0D3FAF8BDD5010020D1010020D8010020D401002070B584B000F03CFCA0
:4001800000F0B6FE00F0C8FE00F05EFAFFF77AFFFFF7A4FF00F07AFA00F064FA41F2883000F06AFB01F060F800241BE00F4B33F81420D6B20E4D68462946120A01F0C8F8B5
:4001C00002A82946324601F0C3F8684601F066F8084801F063F802A801F060F8064801F05DF80134B4F5804FE0D3FEE7AC81FF1F841B0000881B00008C1B0000FEE700BF85
:4002000008B5114B114D16E029686B68AC68002204E008681860043204330431A242F8D1E868002203E000211960043204338242F9D1103533465E1E002BE5D101F04EF860
:40024000FFF79AFFFEE700BF010000001C1D000008B5134A134B1A60134A136843F40073136000230AE0032B03D8104A52F8231000E00F490F4A42F8231001332F2BF2D9E6
:400280000D4B1A780D4B1A700A4A0D4B1A6000F007F900F021FA00220A4B1A6008BD00BF0004FA050CED00E014ED00E000000000FD0100000080FF1FBC7600400481FF1F6E
:4002C00008ED00E00081FF1FFEE700BFF0B40022174611E050F82760F3B226F0FF0608E001EB420511F812406D78A5550132013BDBB2002BF4D101371B2FEBD9F0BC704759
:400300000D4B1B78DBB203F007010C4A11701B090132137040220A4B1A70202203F674131A70012307490B706D310A70064A13704422064B1A707047CF0100496E5800401B
:400340001C510040935A00405B5B00407658004008B50A46002100F0F2FF08BD08B500F0E3FF08BD38B50024334B1C80502202331A70072202331A80192502331D700233EE
:400380001D8002331D7040F2F31202331A8002331D702A482A490422FFF7E0FF0622294B1A705222A3F580731A70274B1B78DBB2264A13704FF4E162254B1A8041F25122CC
:4003C000023B1A800CE0234B1B7803F0010343EA440404F003044FF4F07000F06DF9013D0DB1032CEFD115B90320FFF76DFF1A4A4FF48073138007231370002317490B70C3
:400400004820023108701370053213700222144B1A7004220A331A70124A137843F00F031370013A137843F001031370013A137843F08003137038BD8040004000410040CE
:40044000F8040048004300400F010049A14600402242004025420040044000400640004001400040A2430040012807D8044B53F820201844017A13780B431370704700BFAF
:40048000901B0000012808D8044B53F820201844017A137823EA010313707047901B000070B572B63F4A137843F00403137000240AE03D4963001A1952000A44D068118A9B
:4004C000FFF746FF0134E4B20B2CF2D9002410E03549A3001A1952000A4452F8540F23445B000B445168B3F85C20FFF737FF0134E4B2012CECD94FF090402C49FFF7E6FE07
:400500000A252B4B1D702B480421FFF721FF2A480421FFF71DFF29480421FFF719FF28480421FFF715FF27480421FFF711FF264A137843F0020313701032137843F002039A
:400540001370224C237843F040032370A2F58632513A137843F0100313701D481D490822FFF7FCFE1C481D490822FFF7F7FE1C481C492A46FFF7F2FE1B4A137843F00803A7
:4005800013701A4E01253570FFF7ECFE81233370174B1D70FFF7B4FE164821460E22FFF7DDFE70BDE8460040901B00007000004883580040007600400876004010760040AE
:4005C000187600402076004003500140A043004012510040DC04004842510040E404004850510040EC040048224300400048004004000840B043004008B500F065F8064AB3
:40060000137843F02003137000F062F8034A137843F00403137008BD9264004071640040084B1A7802F0F8021A701A78D2B21A7004331A7802F0F8021A701A78D2B21A708D
:40064000704700BF8164004008B5054B1B7823B9FFF7E6FF0122024B1A70FFF7CDFF08BDAC01002008B500F02FF8064A137843F01003137000F02CF8034A137843F001039F
:40068000137008BD916400407164004008B500F01BF8064A137843F01003137000F018F8034A137843F00203137008BD9564004071640040000000000230800803D000BF52
:4006C00001380046FCD17047EFF3108072B6704780F31088704700BF0B4A7F2313708021517007E0DA0002F1804202F5F042013BDBB21370002BF5D1DB0003F1804303F5E3
:40070000F04300221A7070470C81FF1F172815D831B103010A495A5C42F020025A5405E0030107495A5C02F0DF025A540001044A835C43F001038354002070470120704700
:400740001070004017280BD80001064A835C03F0F10301F0070143EA4101815400207047012070471070004041F6FF73994201D14FF4005141F6FF739A4201D14FF40052FE
:40078000172808D8C00000F1804000F5EC408180C280002070470120704700BF172805D8034B03EB0010417200207047012070471070004017281BD810B4C00000F18044E2
:4007C00004F5EC44D201D2B201F07F01114321709DF804201201D2B203F00F03134363709DF8083003F00F03A3700020E07001E0012070475DF8044B704700BF10B5FFF7C2
:4008000063FF0A4B5B78182B0BD9084A1478013B5370E30003F1804303F5F0431B78137000E0FF24FFF754FF204610BD0C81FF1F10F0800F0CD111F4704F0BD1C00000F168
:40084000804000F5F04001808270C37000207047012070470120704710F0800F08D1C00000F1804000F5F0408180C280002070470120704701BE704710B5044605E0084BB9
:400880001868FFF719FFA4F50044B4F5004FF6D8034B586800FB04F0FFF70EFF10BD00BF1481FF1F08B5034B1B7A03FB00F0FFF703FF08BD1481FF1F70B504460E46074BB5
:4008C0001D681F2802D90020FFF7D4FF04F01F04103455F8240045F8246070BD08ED00E038B504460D46072902D90020FFF7C2FF1F2C02D90020FFF7BDFF04F01F0000F171
:40090000604000F564406D01EDB2057038BD00BF10B500F0C9F8074C20780121FFF7F6FE60780121FFF7F2FE002000F0D9F800F071F810BDAD01002070B505460E46012041
:4009400001462A0C4FF4804300F072F8094C2070A278104631460123FFF76AFFA078A9B245F68232FFF778FF2078A178FFF716FF70BD00BFAD01002070B505460E46012021
:4009800001462A0C4FF4804300F070F8094C6070E278104631460123FFF74AFFE078A9B245F68232FFF758FF6078E178FFF7F6FE70BD00BFAD01002010B500F0B9F8022061
:4009C00000F080F8042000F0A3F8FFF717FF084CA070FFF713FFE070064C20466421FFF7ABFF04F164006421FFF7C6FF10BD00BFAD010020F81B000008B5054B1B7923B9B8
:400A0000FFF7DAFF0122024B1A71FFF781FF08BDAD010020054A137843F0080313701032137843F008031370704700BFA2430040F0B583B086460F4616461D460A4C0320EE
:400A4000207000230093019371463A46FFF7B2FE207831462A46FFF787FE20780221FFF771FE207803B0F0BD2481FF1FF0B583B086460F4616461D460A4C04202070002305
:400A80000093019371463A46FFF794FE207831462A46FFF769FE20780221FFF753FE207803B0F0BD2581FF1F054A137843F0040313701032137843F004031370704700BF1F
:400AC000A8430040054B1A7802F0FD021A701A7800F0020010431870704700BF28580040014B1870704700BF825B0040064B1B78C3F3810303F19243063393F82831DBB2E1
:400B0000024A1370704700BF285800400A46004008B5064B1A7802F0F3021A701A7800F00C0010431870FFF7E1FF08BD2858004008B50020074B187001331870064A1378FD
:400B400043F008031370FFF7E3FF0220FFF7BAFF08BD00BF28580040975A004010B59DF80840012C4AD10138092826D8DFE800F00525250525250D15251D0F2B02D921480D
:400B800000781BE02048007818E00F2B02D91F48007813E01E48007810E00F2B02D91D4800780BE01C48007808E00F2B02D91B48007803E01A48007800E0002040B201EB09
:400BC000401101FB02F1C90B8AB20D2B0BD8C3F10E0289B211418AB2124901EB8401013301F8023C05E00F4B03EB84030F2103F8021C013C0B4B23F8242010BD0020FFF7F4
:400C000039FE10BD180100491C010049190100491D0100491A0100491E0100491B0100491F010049B4010020F8B50746FFF74CFD06460D4D2B7843F003032B700B4C237867
:400C400043F0030323700A4B1F700320FFF72AFE2B7803F0FC032B70237803F0FC0323703046FFF735FDF8BDF8460040F946004092580040F8B50022314B1A7101285DD18C
:400C80003822304B1A70042202331A70062201331A70002401331C7001331C703F2201331A7002331C7001331C7001331C7001250A331D70502203F527631A700726013337
:400CC0001E70292201331A7001331C70552203331A705A2201331A7001331C70022702331F70122201331A70282201331A70EB2201331A705220FFF797FF5822124B1A705B
:400D000001331C70052205331A7001331F7001331C7001331C70204600F018F942F222220A4B1A602846294600F034F93046294600F0B4F91D200649FFF7BEFDF8BD00BFEC
:400D4000B4010020004E004094580040E0010020290F0000F0B583B0284D01272F70284E00247471102000F003F9102000F084F91D200721FFF7B4FD0422224B1A70013302
:400D80001C7007331C70204A137843F0180313701E4B1C7003F2F5231C7001331C700A22A3F209331A7001331C7002331C705B2205331A705E2201331A7004331C7014224F
:400DC000A3F68C231A700097032047F602714FF400421023FFF7C2FE2B7806EB830313F8022C0B4B1A702B78013B36F82320094B1A802878FFF73EFF03B0F0BD2681FF1FE0
:400E0000B401002096580040075B0040935800400E4E00400C4E004070B5FFF755FC06462A4B1B782A4B1A7842F001021A701A7842F010021A7010331A7842F001021A7032
:400E40001A7842F010021A70224D2B7843F002032B70214C237843F0020323701F4A137843F0030313700320FFF71CFD2B7803F0FD032B70237803F0FD032370184A137839
:400E800043F0060313707A22164B1A70164A137843F0010313701032137843F0010313700F3A137843F0010313701032137843F0010313704FF000530C4A1360A2F5C07287
:400EC00013603046FFF704FC70BD00BF2681FF1FAA430040F8460040F9460040915800407758004082580040A143004080E200E008B5084B9B794BB9064BDB7913F0FF0FA2
:400F000001D1FFF727FF0122024B9A71FFF784FF08BD00BFB4010020024A137843F0010313707047004E0040704700BF10B5002404E02046FFF7A6FA0134E4B2012CF8D998
:400F4000FF22014B1A7010BD2781FF1F10B50446FFF7ECFF2046FFF787FA014B1C7010BD2781FF1F014B188880B2704780400040034B1A7800F0F80010431870704700BFC1
:400F800082400040024B187800F00700704700BF8240004070B505460E46FFF7F3FF0446FFF7E0FF854256D02B4B1B7803F0010294B900B185B938B9284B1D80284A1378F2
:400FC00003F0BF03137070BD254A137843F040031370224B1D8070BD22B3002321490B7001240F310C7004310B700C390B7803F07F030B701A4B1B7813F0080F00D08DB914
:40100000194B18800721013B1970164B1B7813F0010FFAD110490B7803F0FE030B700021104B19700C4B1B7813F0010F0DD00E4B1D800EB1032200E001220A4B1A70094BBB
:401040001B7813F0010FFAD170BD044B1D8002490B7813430B7070BDA243004080400040824000400140004002400040014B188880B2704700410040034B1A7800F0F800D2
:4010800010431870704700BF02410040024B187800F00700704700BF0241004070B505460E46FFF7F3FF0446FFF7E0FF854256D02B4B1B7803F0010294B900B185B938B9AB
:4010C000284B1D80284A137803F0BF03137070BD254A137843F040031370224B1D8070BD22B3002321490B70012413310C7004390B7008390B7803F07F030B701A4B1B782E
:4011000013F0080F00D08DB9194B18800721013B1970164B1B7813F0010FFAD110490B7803F0FE030B700021104B19700C4B1B7813F0010F0DD00E4B1D800EB1032200E0E0
:4011400001220A4B1A70094B1B7813F0010FFAD170BD044B1D8002490B7813430B7070BDA143004000410040024100400140004002400040F0B583B086460F4616461D46E0
:401180000A4C0023237000930193184671463A46FFF710FB207831462A46FFF7E5FA20780221FFF7CFFA207803B0F0BD2881FF1FF0B583B086460F4616461D460A4C0120AA
:4011C000207000230093019371463A46FFF7F2FA207831462A46FFF7C7FA20780221FFF7B1FA207803B0F0BD2981FF1FF0B583B084468E4617461E460B4C0225257000233D
:4012000000930193284661467246FFF7D3FA207839463246FFF7A8FA20782946FFF792FA207803B0F0BD00BF2A81FF1F0622044B1A70472210331A7000224C331A707047AE
:401240002464004010B5FFF73FFA0446054A137843F01003137000F033F82046FFF738FA10BD00BF9064004008B5054B1B7823B9FFF7DCFF0122024B1A70FFF7E3FF08BD78
:40128000BC010020034B1B7813F0040FFAD1024B18707047606400404364004038B5074B1B782BB938BDFFF7EDFF0134A4B201E005460024285D0028F5D138BDBC0100206B
:4012C000054A137843F0040313701032137843F004031370704700BFA24300400E4B70B51E460E4C0025E41AA410A54204D056F8253098470135F8E700F0FEFC084B094C3B
:401300001E46E41AA4100025A54204D056F8253098470135F8E770BD041D0000041D0000041D00000C1D000010B5431E0A44914204D011F8014B03F8014FF8E710BD0346B7
:401340000244934202D003F8011BFAE7704700000EB400B54FF402719CB0ADF814106FF00041049107914FF6FF711DABADF81610084953F8042B02900690086802A90193D8
:4013800000F064F8029B00221A701CB05DF804EB03B070478C81FF1F2DE9F0478E688246B3420C469046994640D38A8912F4906F3AD02568096902236F1A656905EB450502
:4013C00095FBF3F57B1C4B449D4238BF1D4653050FD5294600F030FB064698B121693A46FFF7A2FFA38923F4906343F08003A38113E02A4600F076FB064670B950462169B1
:4014000000F0D6FA0C23CAF80030A3894FF0FF3043F04003A381BDE8F08726613E4426604E466561ED1BA560B14500D24E4632462068414600F0A0FAA36800209B1BA36034
:4014400023681E442660BDE8F08700002DE9F0439DB003938B8906461C060D4690460CD50B6953B9402100F0E7FA2860286110B90C233360CCE040236B61002309932023FA
:401480008DF8293030238DF82A3043461C4613F8012B1AB9B4EB08090FD002E0252AF5D1F8E73046294642464B46FFF775FF013000F0A980099B4B4409932378002B00F08B
:4014C000A28000234FF0FF3204930793059206938DF853301A9304F101084446DFF8489121784846052200F039FA08F10108049B30B1C9EB00000122824013430493ECE79D
:40150000D80644BF20228DF85320190744BF2B228DF8532022782A2A02D0079923460EE0039A0134111D12680391002ABBBF524243F0020307920792B8BF04930AE01C4667
:4015400022780133303A092A03D80A2000FB0121F5E7079123782E2B1AD163782A2B0AD1039B02341A1D1B680392002BB8BF4FF0FF3305930CE0611C00220C462378013108
:40158000303B092B03D80A2000FB0232F5E70592DFF8988021784046032200F0DFF938B1049AC8EB00004023834013430493013421781A48062204F101088DF8281000F09A
:4015C000CDF988B1164B33B9039B073323F007030833039313E003AB0093304604A92A46104BAFF3008007E003AB0093304604A92A460C4B00F092F8421C074603D0099BE7
:401600003B44099341E7AB895B0601D4099801E04FF0FF301DB0BDE8F08300BFCC1C00000000000099130000C21C0000C81C00002DE9F84391461F468A680B6906469342FF
:40164000B8BF1346C9F8003091F843200C46DDF8208012B10133C9F800302368990642BFD9F800300233C9F80030256815F006051CD094F843302268003318BF01239206E4
:401680001FD5E118302081F843005A1C94F845102244023382F8431013E03046394604F119020123C047013007D00135E368D9F800209B1A9D42F0DBDBE74FF0FF30BDE8A1
:4016C000F8833046394604F14302C0470130F4D02268D9F80050E36802F00602042A08BF5D1B2269A3680CBF25EAE57500259342C4BF9B1AED184FF00009A9450ADA304656
:40170000394604F11A020123C0470130D5D009F10109F2E70020BDE8F88300002DE9FF410C461746227E98466E2A06460A9B01F1430100F0B08012D8632A23D00AD8002A23
:4017400000F0BD80582A40F0CC8084F84520DFF804E257E0642A1ED0692A1CD0C1E0732A00F0B18009D86F2A2ED0702A40F0B980226842F0200222603FE0752A24D0782AE0
:401780003BD0AEE01A6804F14205111D1960136884F84230A9E020681A6810F0800F02D0101D186008E010F0400F02F10400186002D0B2F9003000E01368002B3EDA2D22E9
:4017C0005B4284F8432039E020681A6810F0800F02D0101D186007E010F0400F02F10400186001D0138800E01368227EDFF864E16F2A0CBF08220A221CE07822DFF858E1BC
:4018000084F845202268186812F0800F00F104051D6003D1550601D5038800E00368D00744BF42F0200222601BB9226822F0200222601022002084F8430002E0DFF814E157
:401840000A226568002DA8BF2068A560A4BF20F00400206003B965B10D46B3FBF2F002FB10331EF8033005F8013D03460028F4D100E00D46082A0BD12368DA0708D5236992
:4018800062689A42DEBF302305F8013C05F1FF35491B21612EE025681A6815F0800F606903D0151D1D60136808E015F0400F02F104051D60136801D0188000E018600023BD
:4018C00023610D4616E01A68111D1960156800212846626800F042F808B1401B6060636804E004F1420584F8422001232361002384F84330CDF800803046214603AA3B464B
:40190000FFF796FE013002D14FF0FF301FE0304639462A462369C0470130F5D023689B0705D4E068039B9842B8BF18460FE00025E368039A9B1A9D42F3DA3046394604F1DC
:4019400019020123C0470130DED00135F0E704B0BDE8F081D31C0000E41C000010B5C9B202449042034605D01C7801308C42F8D1184610BD002010BD814210B501EB020319
:4019800001D3421E0BE09842FBD28118D21AD34204D013F8014D01F8014DF8E710BD994204D011F8014B02F8014FF8E710BD000030B500293CD051F8042C0B1F1D49002A60
:4019C000B8BF9B180A680C4612B95A600B6030BD93420DD219685818904201BF5A5852181A60426823605A6030BD994203D80A4651680029F9D1146815199D420AD11B68E2
:401A00002344D0188842136012D10868034413604B680CE002D90C23036030BD1C681819884201BF08684968001918605960536030BD00BFC401002070B5CC1C24F00304FE
:401A400008340C2C38BF0C24002C064603DA0C233360002070BD8C42F9D3204A136810461946A1B10A68121B0ED40B2A03D90A608B188C501FE08B420BBF5A684A680260FA
:401A80005A6018BF0B4616E00B464968E9E7144D2B681BB9304600F04BF828603046214600F046F8421C0346D1D0C51C25F0030585420AD11C6003F10B001A1D20F00700C7
:401AC000821A0AD05142995070BD3046E91A00F02FF80130BBD02B46ECE770BDC4010020C0010020F8B5074615460E4621B91146BDE8F840FFF7A0BF1AB9FFF759FF2846A9
:401B0000F8BD00F025F8A8420ED238462946FFF793FF044650B131462A46FFF705FC38463146FFF745FF01E03046F8BD2046F8BD38B5064C002305460846236000F012F8AD
:401B4000431C02D1236803B12B6038BDE401002051F8040C0028BEBF091851F8043CC01804387047044A05491368002B08BF0B461844106018467047C8010020E8010020CF
:401B800000000000256400002C2000000A0D0000035B00402443004040000000005100401000205100402000605100401000C05100401000F051004010000000014080008E
:401BC00000010140800300050140000B00140140000800400140000A004C0140000200500140200080000140DC0300488000800401405C0400488000FCFCFCFCFCFCFCFC72
:401C0000FCFCFCFCFCFCFCFCFCFCFCFCFCFCFCFCFCFCFCFCFCFCFCFCFCFCFCFCFCFCFCFCFCFCFCFCFCFCFCFCFCFC030303030303030303030303030303030303030303030A
:401C400003030303030303030303030303030303030303030303030303030303FCFCFCFCFCFCFCFCFCFCFCFCFCFCFCFCFCFCFCFCFCFCFCFCFCFCFCFCFCFCFCFCFCFCFCFCA0
:401C8000FCFCFCFCFCFCFCFCFCFCFCFCFCFC0303030303030303030303030303030303030303030303030303030303030303030303030303030303030303030303030303C6
:401CC0004300232D302B2000686C4C006566674546470030313233343536373839414243444546003031323334353637383961626364656600000000F8B500BFF8BC08BCCA
:401D00009E4670474D00000051020000F8B500BFF8BC08BC9E46704729000000301D00000881FF1F880000005880000000000000000000007F8000001F0000000000E02E40
:401D4000C05D00001800000000366E01FFFF01FFFFFFFF000000000000000000000000000000000000000000000000000000000000000000C01C00000000000000000000B2
:401D8000000000000000000000000000000000000000000000000000000000000000000000000000000000000000000000000000000000002C81FF1F000000000000000058
:401DC00000000000000000000000000000000000000000000000000000000000000000000000000000000000000000000000000000000000000000000000000000000000E3
:401E000000000000000000000000000000000000000000000000000000000000000000000000000000000000000000000000000000000000000000000000000000000000A2
:401E40000000000000000000000000000000000000000000000000000000000000000000000000000000000000000000000000000000000000000000000000000000000062
:401E80000000000000000000000000000000000000000000000000000000000000000000000000000000000000000000000000000000000000000000000000000000000022
:020000040003F7
:0200000480007A
:4000000002520040015A004002640040110001403501014063020140510301402C0401403E05014002070140040C0140030D014002150140021B01400E4001400841014037
:400040000242014003430140024401400445014005460140034701400348014006490140034C0140074D01400350014001510140200321069701800F823F06040C050E0A7F
:4000800016021A011E08281032103403360C3E04540158045B045C015D205F010008030104020504070A09040A0A0D280E010F80120C151519081A0A1C011D281E441F08D0
:4000C00027422D052E802F08350437423D503E05452847024A044B204D014F0455045680574259095BA05E405F146C086D406E0882848804C0F5C2F7C472CAF0CCD0CEF0D7
:40010000D0E0D67FE02000FF0104034004010604073F080109400A400B010C010E10117F150216FE174019401AFE1B201C011D801E201F3F2001210822022340240125100C
:400140002608274028012A802B402E0132FF357F378056025728580459045B045C115D105F01841488208A038B088C108D038F14940995339610970C99409B159C0C9E11FB
:40018000A133A304A41CA50AA602A734A810AA0CB110B21FB30FB560B620B920BB08BE40BF01C032C104C50BC60CC70EC815C9FFCAFFCBFFCEF0CF44D00CD804D904DA0421
:4001C000DC22DD02DF01E6C0EA40EB020090010804200622074008800A200E19101013101550170918101B401D041E1020082118221023902406289029022B102C082D04F3
:400200002E013020310833203690370A388039203C043E2240804108432049085040520467206C106D146E216F017622770883409140920293209482951496019B409D0411
:400240009E049F89A008A284A840AB20AF01B204B316B401B501B608C0F7C2E5C4F6CAE3CCF6CEECD007D840E004EA80EEB00061020E0309061C0E081707185C1A031B0937
:400280001F0423122623271228612A16301A31183260340F370738083A223E043F014003454049FF4A074BFF4C404D204EF04F055008580459045A045C125D025F01604065
:4002C00061A862406320008801020405060207080A040D020E0910201310151419021A141B101C011DAE1E021F2222402342260C29042B402D042F02300832403320360989
:400300003A013C043D103E01421045AA48604E094F04560157445C205F4490049114920393109A029B089D029F02A00CA460A710C0FDC2D2C466CA53CCCECEE1D0F2D23016
:40034000D670A820AB0438203E1058045F011C088804E004E404EC10E404EC100C1039083C403E044380540156105B208810C280CEE0D010D4C0D6209440A780AE10B00192
:40038000B104B204B720EA409440A780A780A840EE207F08DE0180108B08A708E004321045089020CC08D00190209620A5082510A780C8201BA08320A780B510C640E4200E
:4003C00090209620A5085010821090209620B508D404EC08000608060A0610958000000102440022C0000101750008700060100810002C0F650018000000411000002040B7
:40040000000041010023414400000020307046000F00800F00800000000001004203000000DF0CEB37FFFFFF00000000040007000100000004040404111100010000C0005F
:400440004001800030004010100040A800000000000000000000000000000000BF00400100001F0F0901120011000A001B04A40200000008DB00240000001B0000000000F7
:4004800000001B011B000000000300040700800F60001C00000800000000000016043200050F0DCE35FFFFFF022000050400000001000000040404041111000100004001D7
:4004C0004001500140017010401000000000000000000000000000000000000000000000000040008007070007000000010000010100010000000000070018010000000060
:4005000000000000000000000000000000000000000000000000000000000000000000000000000000000000000000000000000000000000000000000000000000000000BB
:40054000000000000000000000000000000000000000000000000000000000000000000000000000000000000000000000000000000000000000000000000000000000007B
:40058000000000000000000000000000000000000000000000000000000000000000000000000000000000000000000000000000000000000000000000000000000000003B
:4005C00000000000000000000000000000000000000000000000000000000000000000000000000000000000000000000000000000000000000000000000000000000000FB
:0200000490006A
:0400000000004005B7
:0200000490105A
:04000000BC90ACAF55
:0200000490303A
:02000000A34912
:0200000490402A
:4000000000000000000000000000000000000000000000000000000000000000000000000000000000000000000000000000000000000000000000000000000000000000C0
:400040000000000000000000000000000000000000000000000000000000000000000000000000000000000000000000000000000000000000000000000000000000000080
:400080000000000000000000000000000000000000000000000000000000000000000000000000000000000000000000000000000000000000000000000000000000000040
:4000C0000000000000000000000000000000000000000000000000000000000000000000000000000000000000000000000000000000000000000000000000000000000000
:0200000490501A
:0C00000000012E12306900012E1DD3B249
:00000001FF