:400000000080002011000000110200001102000008B5044B1A6803F53F5302331A6000F0F9F800BFFA46004010B5054C237833B9044B13B10448AFF300800123237010BD60
:400040009081FF1F00000000A81B0000084B10B51BB108480849AFF300800848036803B910BD074B002BFBD0BDE81040184700BF00000000A81B00009481FF1F0881FF1FAB
:400080000000000038B5022001214FF4804241F6FF7301F083F80D4C207000F0C3FB02460B4D287002210B4600F0D6FB287846F24541084A92B200F0E3FB2078297800F006
:4000C00081FB2078012100F035FB38BDCC81FF1FD081FF1FD881FF1FF8B5022001214FF48042134601F078F81E4F3870022001214FF48042134601F08DF81B4E307000F08E
:4001000091FB1A4D287000F08DFB194C20702A7810460221002300F09FFB227810460221002300F099FB287844F6106146F2414200F0A6FB207844F6106146F2514200F0B0
:400140009FFB3878297800F03DFB3078217800F039FB3878012100F0EDFA3078012100F0E9FAF8BDD8010020D181FF1FDC010020D481FF1F002304E00021214A22F8131063
:400180000133B3F5804FF7D370B584B062B600F047FC00F0C1FE00F0D3FE00F069FAFFF771FFFFF799FF00F085FA00F06FFA44F6206000F075FB01F06BF800241BE0104BBF
:4001C00033F81420D6B20F4D68462946120A01F0D3F802A82946324601F0CEF8684601F071F8094801F06EF802A801F06BF8074801F068F80134B4F5804FE0D3FEE700BF2D
:40020000D881FF1FAC1B0000B41B0000B81B0000FEE700BF08B5114B114D16E029686B68AC68002204E008681860043204330431A242F8D1E868002203E0002119600432F3
:4002400004338242F9D1103533465E1E002BE5D101F058F8FFF78EFFFEE700BF01000000481D000008B5134A134B1A60134A136843F40073136000230AE0032B03D8104A79
:4002800052F8231000E00F490F4A42F8231001332F2BF2D90D4B1A780D4B1A700A4A0D4B1A6000F007F900F02BFA00220A4B1A6008BD00BF0004FA050CED00E014ED00E041
:4002C00000000000110200000080FF1FBC7600400481FF1F08ED00E00081FF1FFEE700BFF0B40022174611E050F82760F3B226F0FF0608E001EB420511F812406D78A55528
:400300000132013BDBB2002BF4D101371B2FEBD9F0BC70470D4B1B78DBB203F007010C4A11701B090132137040220A4B1A70202203F674131A70012307490B706D310A7070
:40034000064A13704422064B1A707047CF0100496E5800401C510040935A00405B5B00407658004008B50A46002100F0FCFF08BD08B500F0EDFF08BD38B50024334B1C804E
:40038000502202331A70072202331A80192502331D7002331D8002331D7040F2F31202331A8002331D702A482A490422FFF7E0FF0622294B1A705222A3F580731A70274BB7
:4003C0001B78DBB2264A13704FF4E162254B1A8041F25122023B1A800CE0234B1B7803F0010343EA440404F003044FF4F07000F077F9013D0DB1032CEFD115B90320FFF7B4
:400400006DFF1A4A4FF48073138007231370002317490B704820023108701370053213700222144B1A7004220A331A70124A137843F00F031370013A137843F001031370FF
:40044000013A137843F08003137038BD804000400041004010050048004300400F010049A14600402242004025420040044000400640004001400040A2430040012807D8A4
:40048000044B53F820201844017A13780B431370704700BFBC1B0000012808D8044B53F820201844017A137823EA010313707047BC1B000070B572B6424A137843F00403DD
:4004C000137000240AE0404963001A1952000A44D068118AFFF746FF0134E4B20B2CF2D9002410E03849A3001A1952000A4452F8540F23445B000B445168B3F85C20FFF732
:4005000037FF0134E4B2012CECD94FF090402F49FFF7E6FE0A252E4B1D702E480421FFF721FF2D480421FFF71DFF2C480421FFF719FF2B480421FFF715FF2A480421FFF7FF
:4005400011FF294A137843F0020313701032137843F002031370254C237843F040032370A2F58632513A137843F010031370204820490822FFF7FCFE1F4820492A46FFF7C6
:40058000F7FE1F481F490822FFF7F2FE1E481F490822FFF7EDFE1E4A137843F0080313701C4E01253570FFF7E7FE812333701A4B1D70FFF7AFFE194821460E22FFF7D8FE2A
:4005C00070BD00BFE8460040BC1B00007000004883580040007600400876004010760040187600402076004003500140A043004012510040EC04004820510040F404004896
:4006000042510040000500485251004008050048224300400048004004000840B043004008B500F065F8064A137843F02003137000F062F8034A137843F00403137008BD54
:400640009264004071640040084B1A7802F0F8021A701A78D2B21A7004331A7802F0F8021A701A78D2B21A70704700BF8164004008B5054B1B7823B9FFF7E6FF0122024BF3
:400680001A70FFF7CDFF08BDAC81FF1F08B500F02FF8064A137843F01003137000F02CF8034A137843F00103137008BD916400407164004008B500F01BF8064A137843F0E3
:4006C0001003137000F018F8034A137843F00203137008BD9564004071640040000000000230800803D000BF01380046FCD17047EFF3108072B6704780F31088704700BF9D
:400700000B4A7F2313708021517007E0DA0002F1804202F5F042013BDBB21370002BF5D1DB0003F1804303F5F04300221A7070470C81FF1F172815D831B103010A495A5C1B
:4007400042F020025A5405E0030107495A5C02F0DF025A540001044A835C43F00103835400207047012070471070004017280BD80001064A835C03F0F10301F0070143EAFD
:400780004101815400207047012070471070004041F6FF73994201D14FF4005141F6FF739A4201D14FF40052172808D8C00000F1804000F5EC408180C280002070470120F1
:4007C000704700BF172805D8034B03EB0010417200207047012070471070004017281BD810B4C00000F1804404F5EC44D201D2B201F07F01114321709DF804201201D2B268
:4008000003F00F03134363709DF8083003F00F03A3700020E07001E0012070475DF8044B704700BF10B5FFF763FF0A4B5B78182B0BD9084A1478013B5370E30003F180437F
:4008400003F5F0431B78137000E0FF24FFF754FF204610BD0C81FF1F10F0800F0CD111F4704F0BD1C00000F1804000F5F04001808270C3700020704701207047012070473E
:4008800010F0800F08D1C00000F1804000F5F0408180C280002070470120704701BE704710B5044605E0084B1868FFF719FFA4F50044B4F5004FF6D8034B586800FB04F05D
:4008C000FFF70EFF10BD00BF1481FF1F08B5034B1B7A03FB00F0FFF703FF08BD1481FF1F70B504460E46074B1D681F2802D90020FFF7D4FF04F01F04103455F8240045F80A
:40090000246070BD08ED00E038B504460D46072902D90020FFF7C2FF1F2C02D90020FFF7BDFF04F01F0000F1604000F564406D01EDB2057038BD00BF10B500F0C9F8074C91
:4009400020780121FFF7F6FE60780121FFF7F2FE002000F0D9F800F071F810BDAD81FF1F70B505460E46012001462A0C4FF4804300F072F8094C2070A278104631460123EE
:40098000FFF76AFFA078A9B245F68232FFF778FF2078A178FFF716FF70BD00BFAD81FF1F70B505460E46012001462A0C4FF4804300F070F8094C6070E278104631460123E5
:4009C000FFF74AFFE078A9B245F68232FFF758FF6078E178FFF7F6FE70BD00BFAD81FF1F10B500F0B9F8022000F080F8042000F0A3F8FFF717FF084CA070FFF713FFE0700F
:400A0000064C20466421FFF7ABFF04F164006421FFF7C6FF10BD00BFAD81FF1F241C000008B5054B1B7923B9FFF7DAFF0122024B1A71FFF781FF08BDAD81FF1F054A137880
:400A400043F0080313701032137843F008031370704700BFA2430040F0B583B086460F4616461D460A4C0320207000230093019371463A46FFF7B2FE207831462A46FFF72F
:400A800087FE20780221FFF771FE207803B0F0BD2481FF1FF0B583B086460F4616461D460A4C0420207000230093019371463A46FFF794FE207831462A46FFF769FE207897
:400AC0000221FFF753FE207803B0F0BD2581FF1F054A137843F0040313701032137843F004031370704700BFA8430040054B1A7802F0FD021A701A7800F002001043187052
:400B0000704700BF28580040014B1870704700BF825B0040064B1B78C3F3810303F19243063393F82831DBB2024A1370704700BF285800400A46004008B5064B1A7802F060
:400B4000F3021A701A7800F00C0010431870FFF7E1FF08BD2858004008B50020074B187001331870064A137843F008031370FFF7E3FF0220FFF7BAFF08BD00BF2858004036
:400B8000975A004010B59DF80840012C4AD10138092826D8DFE800F00525250525250D15251D0F2B02D9214800781BE02048007818E00F2B02D91F48007813E01E4800786B
:400BC00010E00F2B02D91D4800780BE01C48007808E00F2B02D91B48007803E01A48007800E0002040B201EB401101FB02F1C90B8AB20D2B0BD8C3F10E0289B211418AB2E1
:400C0000124901EB8401013301F8023C05E00F4B03EB84030F2103F8021C013C0B4B23F8242010BD0020FFF739FE10BD180100491C010049190100491D0100491A010049B1
:400C40001E0100491B0100491F010049B481FF1FF8B50746FFF74CFD06460D4D2B7843F003032B700B4C237843F0030323700A4B1F700320FFF72AFE2B7803F0FC032B7082
:400C8000237803F0FC0323703046FFF735FDF8BDF8460040F946004092580040F8B50022314B1A7101285DD13822304B1A70042202331A70062201331A70002401331C705F
:400CC00001331C703F2201331A7002331C7001331C7001331C7001250A331D70502203F527631A70072601331E70292201331A7001331C70552203331A705A2201331A703D
:400D000001331C70022702331F70122201331A70282201331A70EB2201331A705220FFF797FF5822124B1A7001331C70052205331A7001331F7001331C7001331C70204690
:400D400000F018F942F222220A4B1A602846294600F034F93046294600F0B4F91D200649FFF7BEFDF8BD00BFB481FF1F004E004094580040E4010020510F0000F0B583B0B4
:400D8000284D01272F70284E00247471102000F003F9102000F084F91D200721FFF7B4FD0422224B1A7001331C7007331C70204A137843F0180313701E4B1C7003F2F52348
:400DC0001C7001331C700A22A3F209331A7001331C7002331C705B2205331A705E2201331A7004331C701422A3F68C231A700097032047F602714FF400421023FFF7C2FE7F
:400E00002B7806EB830313F8022C0B4B1A702B78013B36F82320094B1A802878FFF73EFF03B0F0BD2681FF1FB481FF1F96580040075B0040935800400E4E00400C4E0040C5
:400E400070B5FFF755FC06462A4B1B782A4B1A7842F001021A701A7842F010021A7010331A7842F001021A701A7842F010021A70224D2B7843F002032B70214C237843F078
:400E8000020323701F4A137843F0030313700320FFF71CFD2B7803F0FD032B70237803F0FD032370184A137843F0060313707A22164B1A70164A137843F00103137010324C
:400EC000137843F0010313700F3A137843F0010313701032137843F0010313704FF000530C4A1360A2F5C07213603046FFF704FC70BD00BF2681FF1FAA430040F846004039
:400F0000F9460040915800407758004082580040A143004080E200E008B5084B9B794BB9064BDB7913F0FF0F01D1FFF727FF0122024B9A71FFF784FF08BD00BFB481FF1FE3
:400F4000024A137843F0010313707047004E0040704700BF10B5002404E02046FFF79CFA0134E4B2012CF8D9FF22014B1A7010BD2781FF1F10B50446FFF7ECFF2046FFF7C7
:400F80007DFA014B1C7010BD2781FF1F014B188880B2704780400040034B1A7800F0F80010431870704700BF82400040024B187800F00700704700BF8240004070B50546A3
:400FC0000E46FFF7F3FF0446FFF7E0FF854256D02B4B1B7803F0010294B900B185B938B9284B1D80284A137803F0BF03137070BD254A137843F040031370224B1D8070BDE1
:4010000022B3002321490B7001240F310C7004310B700C390B7803F07F030B701A4B1B7813F0080F00D08DB9194B18800721013B1970164B1B7813F0010FFAD110490B78CB
:4010400003F0FE030B700021104B19700C4B1B7813F0010F0DD00E4B1D800EB1032200E001220A4B1A70094B1B7813F0010FFAD170BD044B1D8002490B7813430B7070BDBC
:40108000A243004080400040824000400140004002400040014B188880B2704700410040034B1A7800F0F80010431870704700BF02410040024B187800F00700704700BFCA
:4010C0000241004070B505460E46FFF7F3FF0446FFF7E0FF854256D02B4B1B7803F0010294B900B185B938B9284B1D80284A137803F0BF03137070BD254A137843F04003A7
:401100001370224B1D8070BD22B3002321490B70012413310C7004390B7008390B7803F07F030B701A4B1B7813F0080F00D08DB9194B18800721013B1970164B1B7813F0BF
:40114000010FFAD110490B7803F0FE030B700021104B19700C4B1B7813F0010F0DD00E4B1D800EB1032200E001220A4B1A70094B1B7813F0010FFAD170BD044B1D80024985
:401180000B7813430B7070BDA143004000410040024100400140004002400040F0B583B086460F4616461D460A4C0023237000930193184671463A46FFF710FB20783146F3
:4011C0002A46FFF7E5FA20780221FFF7CFFA207803B0F0BD2881FF1FF0B583B086460F4616461D460A4C0120207000230093019371463A46FFF7F2FA207831462A46FFF7DA
:40120000C7FA20780221FFF7B1FA207803B0F0BD2981FF1FF0B583B084468E4617461E460B4C02252570002300930193284661467246FFF7D3FA207839463246FFF7A8FA86
:4012400020782946FFF792FA207803B0F0BD00BF2A81FF1F0622044B1A70472210331A70002254331A7070472064004010B5FFF73FFA0446054A137843F01003137000F0AF
:4012800033F82046FFF738FA10BD00BF9464004008B5054B1B7823B9FFF7DCFF0122024B1A70FFF7E3FF08BDBC81FF1F034B1B7813F0040FFAD1024B18707047646400401C
:4012C0004364004038B5074B1B782BB938BDFFF7EDFF0134A4B201E005460024285D0028F5D138BDBC81FF1F054A137843F0040313701032137843F004031370704700BF45
:40130000A24300400E4B70B51E460E4C0025E41AA410A54204D056F8253098470135F8E700F000FD084B094C1E46E41AA4100025A54204D056F8253098470135F8E770BDD4
:40134000301D0000301D0000301D0000381D000010B5431E0A44914204D011F8014B03F8014FF8E710BD03460244934202D003F8011BFAE7704700000EB400B54FF40271B8
:401380009CB0ADF814106FF00041049107914FF6FF711DABADF81610084953F8042B02900690086802A9019300F064F8029B00221A701CB05DF804EB03B070478C81FF1F27
:4013C0002DE9F0478E688246B3420C469046994640D38A8912F4906F3AD02568096902236F1A656905EB450595FBF3F57B1C4B449D4238BF1D4653050FD5294600F030FB5F
:40140000064698B121693A46FFF7A2FFA38923F4906343F08003A38113E02A4600F076FB064670B95046216900F0D6FA0C23CAF80030A3894FF0FF3043F04003A381BDE853
:40144000F08726613E4426604E466561ED1BA560B14500D24E4632462068414600F0A0FAA36800209B1BA36023681E442660BDE8F08700002DE9F0439DB003938B89064693
:401480001C060D4690460CD50B6953B9402100F0E7FA2860286110B90C233360CCE040236B610023099320238DF8293030238DF82A3043461C4613F8012B1AB9B4EB080920
:4014C0000FD002E0252AF5D1F8E73046294642464B46FFF775FF013000F0A980099B4B4409932378002B00F0A28000234FF0FF3204930793059206938DF853301A9304F140
:4015000001084446DFF8489121784846052200F039FA08F10108049B30B1C9EB00000122824013430493ECE7D80644BF20228DF85320190744BF2B228DF8532022782A2AAB
:4015400002D0079923460EE0039A0134111D12680391002ABBBF524243F0020307920792B8BF04930AE01C4622780133303A092A03D80A2000FB0121F5E7079123782E2BA3
:401580001AD163782A2B0AD1039B02341A1D1B680392002BB8BF4FF0FF3305930CE0611C00220C4623780131303B092B03D80A2000FB0232F5E70592DFF898802178404669
:4015C000032200F0DFF938B1049AC8EB00004023834013430493013421781A48062204F101088DF8281000F0CDF988B1164B33B9039B073323F007030833039313E003ABFB
:401600000093304604A92A46104BAFF3008007E003AB0093304604A92A460C4B00F092F8421C074603D0099B3B44099341E7AB895B0601D4099801E04FF0FF301DB0BDE84A
:40164000F08300BFF81C000000000000C1130000EE1C0000F41C00002DE9F84391461F468A680B6906469342B8BF1346C9F8003091F843200C46DDF8208012B10133C9F8F6
:4016800000302368990642BFD9F800300233C9F80030256815F006051CD094F843302268003318BF012392061FD5E118302081F843005A1C94F845102244023382F8431018
:4016C00013E03046394604F119020123C047013007D00135E368D9F800209B1A9D42F0DBDBE74FF0FF30BDE8F8833046394604F14302C0470130F4D02268D9F80050E3687D
:4017000002F00602042A08BF5D1B2269A3680CBF25EAE57500259342C4BF9B1AED184FF00009A9450ADA3046394604F11A020123C0470130D5D009F10109F2E70020BDE87E
:40174000F88300002DE9FF410C461746227E98466E2A06460A9B01F1430100F0B08012D8632A23D00AD8002A00F0BD80582A40F0CC8084F84520DFF804E257E0642A1ED09A
:40178000692A1CD0C1E0732A00F0B18009D86F2A2ED0702A40F0B980226842F0200222603FE0752A24D0782A3BD0AEE01A6804F14205111D1960136884F84230A9E02068A4
:4017C0001A6810F0800F02D0101D186008E010F0400F02F10400186002D0B2F9003000E01368002B3EDA2D225B4284F8432039E020681A6810F0800F02D0101D186007E095
:4018000010F0400F02F10400186001D0138800E01368227EDFF864E16F2A0CBF08220A221CE07822DFF858E184F845202268186812F0800F00F104051D6003D1550601D50F
:40184000038800E00368D00744BF42F0200222601BB9226822F0200222601022002084F8430002E0DFF814E10A226568002DA8BF2068A560A4BF20F00400206003B965B12C
:401880000D46B3FBF2F002FB10331EF8033005F8013D03460028F4D100E00D46082A0BD12368DA0708D5236962689A42DEBF302305F8013C05F1FF35491B21612EE02568BA
:4018C0001A6815F0800F606903D0151D1D60136808E015F0400F02F104051D60136801D0188000E01860002323610D4616E01A68111D1960156800212846626800F042F802
:4019000008B1401B6060636804E004F1420584F8422001232361002384F84330CDF800803046214603AA3B46FFF796FE013002D14FF0FF301FE0304639462A462369C0470D
:401940000130F5D023689B0705D4E068039B9842B8BF18460FE00025E368039A9B1A9D42F3DA3046394604F119020123C0470130DED00135F0E704B0BDE8F081FF1C000078
:40198000101D000010B5C9B202449042034605D01C7801308C42F8D1184610BD002010BD814210B501EB020301D3421E0BE09842FBD28118D21AD34204D013F8014D01F811
:4019C000014DF8E710BD994204D011F8014B02F8014FF8E710BD000030B500293CD051F8042C0B1F1D49002AB8BF9B180A680C4612B95A600B6030BD93420DD21968581836
:401A0000904201BF5A5852181A60426823605A6030BD994203D80A4651680029F9D1146815199D420AD11B682344D0188842136012D10868034413604B680CE002D90C23CF
:401A4000036030BD1C681819884201BF08684968001918605960536030BD00BFC481FF1F70B5CC1C24F0030408340C2C38BF0C24002C064603DA0C233360002070BD8C42B5
:401A8000F9D3204A136810461946A1B10A68121B0ED40B2A03D90A608B188C501FE08B420BBF5A684A6802605A6018BF0B4616E00B464968E9E7144D2B681BB9304600F0AF
:401AC0004BF828603046214600F046F8421C0346D1D0C51C25F0030585420AD11C6003F10B001A1D20F00700821A0AD05142995070BD3046E91A00F02FF80130BBD02B4683
:401B0000ECE770BDC481FF1FC081FF1FF8B5074615460E4621B91146BDE8F840FFF7A0BF1AB9FFF759FF2846F8BD00F025F8A8420ED238462946FFF793FF044650B1314685
:401B40002A46FFF705FC38463146FFF745FF01E03046F8BD2046F8BD38B5064C002305460846236000F012F8431C02D1236803B12B6038BDE801002051F8040C0028BEBF38
:401B8000091851F8043CC01804387047044A05491368002B08BF0B461844106018467047C881FF1FF00100200000000025640A0D000000002C2000000A0D0000035B00405C
:401BC0002443004040000000005100401000305100401000605100401000C05100401000F0510040100000000140800000010140800300050140000B001401400008004025
:401C00000140000A004C0140000200500140200080000140EC0300488000800401406C040048800080878F979FA6AEB5BCC2C9CFD5DBE0E5E9EDF1F4F6F9FAFCFCFCFCFCB4
:401C4000FAF9F6F4F1EDE9E5E0DBD5CFC9C2BCB5AEA69F978F87807870686059514A433D36302A241F1A16120E0B09060503030303030506090B0E12161A1F242A30363D6C
:401C8000434A515960687078FCFCFCFCFCFCFCFCFCFCFCFCFCFCFCFCFCFCFCFCFCFCFCFCFCFCFCFCFCFCFCFCFCFCFCFCFCFCFCFCFCFCFCFCFCFCFCFCFCFC030303030303F3
:401CC00003030303030303030303030303030303030303030303030303030303030303030303030303030303030303034300232D302B2000686C4C006566674546470030FE
:401D0000313233343536373839414243444546003031323334353637383961626364656600000000F8B500BFF8BC08BC9E4670474D00000065020000F8B500BFF8BC08BCB8
:401D40009E46704729000000581D00000881FF1F8800000060800000000000007F8000001F0000000000E02EC05D00001800000000366E01FFFF01FFFFFFFF00000000001A
:401D800000000000000000000000000000000000000000000000000000000000EC1C000000000000000000000000000000000000000000000000000000000000000000001B
:401DC000000000000000000000000000000000000000000000000000000000002C81FF1F000000000000000000000000000000000000000000000000000000000000000018
:401E000000000000000000000000000000000000000000000000000000000000000000000000000000000000000000000000000000000000000000000000000000000000A2
:401E40000000000000000000000000000000000000000000000000000000000000000000000000000000000000000000000000000000000000000000000000000000000062
:401E80000000000000000000000000000000000000000000000000000000000000000000000000000000000000000000000000000000000000000000000000000000000022
:401EC00000000000000000000000000000000000000000000000000000000000000000000000000000000000000000000000000000000000000000000000000000000000E2
:020000040003F7
:0200000480007A
:4000000003520040015A0040026400402200014039010140660201404C0301401A040140440501400307014001090140020B014002150140021B01400B4001400941014039
:400040000442014002430140024401400345014007460140054701400348014006490140034C0140074D014003500140015101401080200321069701823F840F064C0C318B
:400080000E461031120E146C16031A082A13304A320F343038203A0A3E104002450449FF4A074BFF4C404D204EF04F05500858045A045C025D025F01604061A86240632094
:4000C00001880448051006800AA00B080D080E010F0810081504160817821AA41C201D381E881F40274228082B082D502F10362437423C203D043E8142044528470249045C
:400100004B084D014E204F0850085680570A58205B105C085E805F106C206D406E106F108421C0F5C2EEC4F2CA70CCF0CEF0D0E4D67000FF04010604073F08010A080B40D8
:400140000C010D020E020F40110412FE13401401154016801720197F1AFE1C011E202001210822102340240125102640274029402B012D802E012F3F30FF318034FF357F9E
:4001800056025728580459045B045C115D105F01851486088C538E0C905392049303940A951096549880991C9B029C039D0C9E449F11A509A710A820AA45AD10AF0CB04072
:4001C000B11FB230B480B51FB60FB808B980BA80BE11BF40C056C101C5E0C60CC70BC816C9FFCAFFCBFFCEF0CF44D00CD804D904DA04DC22DD02DF01E6C0EA40EB020188DE
:4002000006200749080209A00AA00C200EA110081544170219881A401B201C401E801F10200221222404278029882C012D042E21310632503620370639083C043E103F80BB
:400240004002480849824A80518464206C046D956E216F057628770A83488701914092B09448951496019720982199049B409D889E089F80A028A302AF40B101B310B70886
:40028000C0F5C2FFC4B2CAFACCEFCE72D008D20CD840EA10EE800210060F0E08100412021A201C031D011E042201260128012C102E2033013430360F38803F0454015804D9
:4002C00059045B045C015D205F010004018003400445070809820A040E010F80119515141702180819801A061B401C411DAA1F24220426682E022F263280362837013E105F
:400300003F024020430845AA4C044D084E014F0256025708581059025A485C205D085E808308900491159251981099029B0BA140A280A302A620AB20AC10AD80B001C0FDA1
:40034000C29BC47FCAF0CCE8CEA0D0F0D230D67FEC04B208B740EE80EA10E880EC04E404EC10E404EC1039083E083F204380530254205D80CEE0D010D4C0D62084209D8099
:40038000A420A790AF02B104B608E240EA1083109D80A790E680A780B1807C20DE015D029C20D60132104508A902B020CC08D001E80196209F40A508B740EA082510A780D1
:4003C000C8201BA08320A780B510C640E42096209F40A5080340821096209F40B508C008EC08000608060A0610AA00000000200100004101652318440200004000600008CD
:4004000010442C220000102000004110750008000000410FC000010180000070307046000F00800F00800000000001004203000000EC0DBF37FFFFFF0000000004000700D9
:400440000100000004040404111100010000C0004001800030004010100040A8000000000000000000000000000000001B00A42400001F000900121CBF004000DB01240215
:40048000000000010000001000001B0011000A4800001B241B000048000000021C008003601C076000000000000000404501320006CF00DE33FFFFFF0220000504000000C1
:4004C00001000000040404041111000100004001400150014001701040100000000000000000000000000000000000000000000000004000800000808000800000000000A4
:400500000007070007000000010000000000000007001801000000000000000000000000000000000000000000000000000000000000000000000000000000000000000085
:40054000000000000000000000000000000000000000000000000000000000000000000000000000000000000000000000000000000000000000000000000000000000007B
:40058000000000000000000000000000000000000000000000000000000000000000000000000000000000000000000000000000000000000000000000000000000000003B
:4005C00000000000000000000000000000000000000000000000000000000000000000000000000000000000000000000000000000000000000000000000000000000000FB
:4006000000000000000000000000000000000000000000000000000000000000000000000000000000000000000000000000000000000000000000000000000000000000BA
:0200000490006A
:0400000000004005B7
:0200000490105A
:04000000BC90ACAF55
:0200000490303A
:02000000EC22F0
:0200000490402A
:4000000000000000000000000000000000000000000000000000000000000000000000000000000000000000000000000000000000000000000000000000000000000000C0
:400040000000000000000000000000000000000000000000000000000000000000000000000000000000000000000000000000000000000000000000000000000000000080
:400080000000000000000000000000000000000000000000000000000000000000000000000000000000000000000000000000000000000000000000000000000000000040
:4000C0000000000000000000000000000000000000000000000000000000000000000000000000000000000000000000000000000000000000000000000000000000000000
:0200000490501A
:0C00000000012E12306900012E1E1C8B26
:00000001FF