:020000040800F2
:100000001007002035020008811D0008831D00082C
:10001000871D00088B1D00088F1D000800000000D0
:10002000000000000000000000000000931D000818
:10003000951D000800000000971D0008991D00088C
:100040004F0200084F0200084F0200084F0200084C
:100050004F0200084F0200084F0200084F0200083C
:100060004F0200084F0200084F0200084F0200082C
:100070004F0200084F0200084F0200081B21000831
:100080004F0200084F0200084F0200084F0200080C
:100090004F0200084F0200084F0200084F020008FC
:1000A0004F0200084F0200084F0200084F020008EC
:1000B0004F0200084F0200084F0200084F020008DC
:1000C0004F0200084F0200084F0200084F020008CC
:1000D0004F0200084F0200084F0200084F020008BC
:1000E0004F0200084F0200084F0200084F020008AC
:1000F0004F0200084F0200084F0200084F0200089C
:100100004F0200084F0200084F0200084F0200088B
:100110004F0200084F0200084F0200084F0200087B
:100120004F0200084F0200084F0200084F0200086B
:100130004F0200084F0200084F0200084F0200085B
:100140004F0200084F0200084F0200084F0200084B
:100150004F0200084F0200084F0200084F0200083B
:100160004F0200084F0200084F0200084F0200082B
:100170004F0200084F0200084F0200084F0200081B
:100180004F02000800F002F800F044F80AA090E8DE
:10019000000C82448344AAF10107DA4501D100F042
:1001A00039F8AFF2090EBAE80F0013F0010F18BFCB
:1001B000FB1A43F001031847C8740F00E8740F00DE
:1001C000103A24BF78C878C1FAD8520724BF30C883
:1001D00030C144BF04680C60704700000023002455
:1001E00000250026103A28BF78C1FBD8520728BF47
:1001F00030C148BF0B607047642902F03F81782905
:1002000002F07881002070471FB502F063FA1FBD2D
:1002100010B510BD02F02AFA1146FFF7F5FF01F004
:100220002FFD02F048FA03B4FFF7F2FF03BC02F01F
:10023000CAF800000948804709480047FEE7FEE782
:10024000FEE7FEE7FEE7FEE7FEE7FEE7FEE7FEE786
:1002500004480549054A064B70470000531B000837
:100260008501000810010020100700201003002065
:100270001003002033490143334A1160704770B5C1
:10028000002100230F22C47824B32F4C246804F4E7
:10029000E064C4F5E064C4F30721C1F10404E3B2EF
:1002A0000A4144789C40E1B28478144021430C0711
:1002B000210E264C05786155047804F01F050124B1
:1002C000AC4005786D114FF0E02606EB8505C5F8CA
:1002D000004109E0047804F01F050124AC401C4DE6
:1002E0000678761145F8264070BD1A4A0A40024346
:1002F000154B1B1F1A60704739B1134A121D126843
:100300000243114B1B1D1A6006E00F4A121D1268B2
:1003100082430D4B1B1D1A607047042808D14FF013
:10032000E021096941F004014FF0E022116107E08A
:100330004FF0E021096921F004014FF0E022116142
:10034000704700000000FA050CED00E000E400E05A
:1003500080E100E080FFFF1F016821F001010160E2
:100360000021016041608160C16001612121416122
:10037000DA49884204D13D21D84A103A91608CE094
:10038000D6491831884205D14FF47461D34A103AE6
:10039000916082E0D1493031884205D14FF4741127
:1003A000CE4A103A916078E0CC494831884205D174
:1003B0004FF07461C94A103A91606EE0C7496031EC
:1003C000884204D1C649C54A103AD16065E0C349A4
:1003D0007831884204D1C349C04A103AD1605CE008
:1003E000BE499031884204D1BF49BC4A103AD1601D
:1003F00053E0BA49A831884205D14FF03D51B74A80
:10040000103AD16049E0B949884204D13D21B74A48
:10041000083A116041E0B5491831884205D14FF4DE
:100420007461B24A083A116037E0B049303188420D
:1004300005D14FF47411AD4A083A11602DE0AB4973
:100440004831884205D14FF07461A84A083A1160DA
:1004500023E0A6496031884204D1A149A34A121F72
:1004600011601AE0A1497831884204D19D499F4A20
:10047000121F116011E09D499031884204D19A49C0
:100480009A4A121F116008E09849A831884204D1A5
:100490004FF03D51954A121F1160704710B5002270
:1004A0000268934B1A40CC680B6823434C69234382
:1004B0008C692343CC6923430C6A23434C6A23434E
:1004C0008C6A23434C6B23438C6B23431A43026097
:1004D000426922F00702D1E90B3423431A434261F7
:1004E0000B6943604B6883608B68C36010BD00215B
:1004F000016041608160C160016141618161C161F0
:10050000016241628162C16201634163816370473C
:1005100021B1026842F00102026003E0026822F0A9
:1005200001020260704721B1026842F40042026099
:1005300003E0026822F400420260704721B10268C1
:1005400042F02002026003E0026822F02002026012
:100550007047416070470146486880B2704722B1D9
:10056000036843F40023036003E0036823F40023DB
:1005700003600161704721B1026842F48022026089
:1005800003E0026822F48022026070470AB1016130
:1005900000E0C1607047014600200A6812F4002F95
:1005A00001D0012000E000207047014600200A68C9
:1005B00012F0010F01D0012000E000207047014639
:1005C00000204A6902F03800704730B503460A46F9
:1005D00000200024454DAB4202D24049103901E0D1
:1005E0004249103912F0005F01D04C6800E00C68FD
:1005F000404D2C40144201D0012000E0002030BDCD
:1006000002463A4B9A4202D23448103801E0374849
:10061000103811F0005F03D0364B0B40C36002E08E
:10062000344B0B408360704710B511F0800F09D038
:1006300022B1436943F08003436103E0436923F03F
:100640008003436180290BD02AB1036801F01E04A6
:100650002343036004E0036801F01E04A343036026
:1006600010BD70B502460020002400251F4EB24286
:1006700002D21A4B103B01E01C4B103B1E4E314284
:1006800006D01E2606EAD124166806EA040502E012
:10069000566906F0800511F0005F01D05C6800E04B
:1006A0001C68144E34400C4202D00DB1012000E011
:1006B000002070BD02460D4B9A4202D20748103806
:1006C00001E00A48103811F0005F03D0094B0B40DD
:1006D000C36002E0074B0B4083607047106002402C
:1006E0003D000020400F002000003D20106402402B
:1006F0003F801CF07D0F7D0F3C0F3C0F10B5044672
:100700008848844208D10121084600F0FEFC0021FF
:10071000012000F0FAFC5EE08348844208D1012108
:10072000022000F0F2FC0021022000F0EEFC52E07A
:100730007E48844208D10121042000F0E6FC00211B
:10074000042000F0E2FC46E07948844208D101210F
:10075000082000F0DAFC0021082000F0D6FC3AE086
:100760007448844208D10121102000F0CEFC002101
:10077000102000F0CAFC2EE06F48844208D101210D
:10078000202000F0C2FC0021202000F0BEFC22E06E
:100790006A48844208D10121402000F0B6FC0021C3
:1007A000402000F0B2FC16E06548844208D10121E7
:1007B000802000F0AAFC0021802000F0A6FC0AE0C6
:1007C0006048844207D10121801500F09EFC002181
:1007D000A01500F09AFC10BDF0B50A4600210023D8
:1007E000002400BF3DE0012505FA01F3156805EA84
:1007F00003049C4234D105684F000326BE40B54334
:10080000056015794E00B5400668354305601579D9
:10081000012D02D01579022D16D185684F000326CF
:10082000BE40B543856055794E00B5408668354376
:100830008560456801268E40B543456045689679D8
:100840008E40B6B235434560C5684F000326BE40B2
:10085000B543C560D5794E00B540C6683543C5601F
:10086000491C1029BFD3F0BD4FF6FF710160002174
:10087000017141718171C17170474FF480320A4337
:10088000C261C161C261C269C2697047024600208B
:1008900013690B4201D0012000E00020704701469F
:1008A000086980B270470246002053690B4201D0AC
:1008B000012000E0002070470146486980B270477F
:1008C00001837047418370470AB1018300E041838F
:1008D00070474161704742694A4042617047F0B5D4
:1008E000002300244D07ED0E02FA05F3CE1000F1AF
:1008F000200555F826504E07F70E0F26BE40B5438B
:10090000CF1000F1200646F82750CE1000F1200548
:1009100055F8265045EA0304CE1000F1200545F8AD
:100920002640F0BD000002400004024000080240E2
:10093000000C024000100240001402400018024067
:10094000001C02400020024010B50446F9488442D1
:1009500009D10121480500F01EFC00214FF40010D0
:1009600000F019FC18E0F448844209D101218805FF
:1009700000F011FC00214FF4800000F00CFC0BE0B3
:10098000EE48844208D10121C80500F004FC002192
:100990004FF4000000F0FFFB10BD2DE9FF470446B7
:1009A0000D460026B1460427DFF89483A6884FF64B
:1009B000C0700640684600F0BEFADDF80880E148E5
:1009C000B8FBF0F01FFA80F946EA0906A6802088F5
:1009D0004FF6FE71084020800026DB4928688842D7
:1009E0000CD828684000B8FBF0F087B2042F00DA7A
:1009F00004273E4309F10100208427E0E888A0F5A0
:100A00003F41FF3906D1286800EB4000B8FBF0F009
:100A100087B209E0286800EBC00101EB0010B8FBC9
:100A2000F0F087B247F480473805000D01D147F058
:100A3000010747F4004006434FF4967009FB00F0AD
:100A40004FF47A7190FBF1F0401C2084A68320883B
:100A500040F00100208026884FF6F5300640A88837
:100A60006989084306432680A8892989084320818B
:100A7000BDE8FF8741F288310160002181804BF69B
:100A8000FF71C1800021018141814FF4804181814A
:100A9000704721B1028842F00102028004E002881E
:100AA0004FF6FE731A400280704721B1028842F46B
:100AB0008072028004E002884FF6FF631A400280D1
:100AC000704721B1028842F40072028004E002887B
:100AD0004FF6FF531A400280704712B141F00101F6
:100AE00001E001F0FE010182704721B1028842F469
:100AF0008062028004E002884FF6FF331A400280D1
:100B000070470A46002181894FF60173194002F0AF
:100B1000FE0319438181704721B1828942F00102AD
:100B2000828104E082894FF6FE731A408281704709
:100B300021B1028842F04002028004E002884FF6B0
:100B4000BF731A400280704721B1028842F400420C
:100B5000028003E00288C2F30E020280704721B9CE
:100B6000028842F08002028004E002884FF67F7320
:100B70001A4002807047B1F5804F05D0828B4BF64A
:100B8000FF731A40828303E0828B42F480428283A7
:100B90007047B1F5006F04D1028842F40062028010
:100BA00004E002884FF2FF731A4002807047B1F5EB
:100BB000005F04D1028842F40052028004E00288FF
:100BC0004DF6FF731A400280704721B1028842F04F
:100BD0001002028004E002884FF6EF731A40028090
:100BE0007047018270470146088AC0B2704721B140
:100BF000028842F48052028004E002884EF6FF73BD
:100C00001A4002807047B1F5006F04D1028842F4A7
:100C10000062028004E002884FF2FF731A400280F3
:100C2000704721B1028842F02002028004E002886D
:100C30004FF6DF731A40028070470146088B00129E
:100C4000704721B1828842F40062828004E0828889
:100C50004FF2FF731A408280704721B1828842F4BC
:100C60008052828004E082884EF6FF731A408280B0
:100C700070470246002313460B441888704710B58E
:100C80001AB183880B43838004E08388CC43A4B2E9
:100C90002340838010BD70B5024600240025002348
:100CA0000020958A138B1B0445EA030626F07F4437
:100CB00004EA01068E4201D1012000E0002070BD4F
:100CC00010B501460020002300228B8A0A8B1204F3
:100CD00043EA020424F07F4010BD30B503460020F3
:100CE000002400221A460C0F21F07F410CB114326F
:100CF00001E0090C183215680D4201D0012000E016
:100D0000002030BD002221F07F42D3438382704710
:100D100030B5024600200023948801F0E06504EA23
:100D2000154321F07F41948A0C420FD073B101200A
:100D30000DE000000054004000580040005C0040FE
:100D400000127A0040420F00A0860100002030BD52
:100D5000002221F07F42D34383827047F848006825
:100D600040F00100F64908600020F54908310860AC
:100D7000F3480068F3490840F1490860F248091D4A
:100D80000860081F006820F48020091F0860002008
:100D9000EB490C31086070470021E94A921C117040
:100DA00011460870704710B501460022002300204C
:100DB0004A11012A02D1E24C236808E0022A03D139
:100DC000DF4C7034236802E0DD4C7434236801F09A
:100DD0001F02012494401C4201D0012000E00020A9
:100DE00010BD70B500240025002600BF3120FFF79C
:100DF000DAFF0646641CB4F5A06F01D0002EF5D0D2
:100E00003120FFF7D0FF08B1012500E0002528467A
:100E100070BD01460020CA4A106820F0F80040EA80
:100E2000C10010607047C949086070470021C44A7A
:100E3000703211701170012802D004280AD104E028
:100E40000121BF4A7032117005E00521BC4A7032A1
:100E5000117000E000BF00BF7047BD4908607047D7
:100E600070B5049C41EA82150126C6EB530645EA9B
:100E70000645054345EA0465B14E361D356070BD33
:100E8000B24908667047820142EA0172AC4B843372
:100E90001A607047AD4988667047AC49C8647047AE
:100EA00002460020A64B0833186820F0EC6042EAA6
:100EB00001031843A24B0833186070470246002014
:100EC0009F4B0833186820F0784042EA010318432A
:100ED0009B4B08331860704701460020984A08323F
:100EE000106820F0030008431060704794480830F1
:100EF000006800F00C00704701460020904A08325C
:100F0000106820F0F0000843106070470146002090
:100F10008B4A0832106820F4E05008431060704794
:100F200001460020864A0832106820F4604040EAFA
:100F3000C10010607047F0B5002100220024022596
:100F4000002602237E4F08373F6807F00C0121B1CD
:100F5000042905D0082937D105E07E4F076036E027
:100F60007D4F076033E0764F3F1D3F68C7F38056E3
:100F7000734F3F1D3F6807F03F036EB1764FB7FBDD
:100F8000F3F7DFF8BCC10CF1040CDCF800C0CCF3C3
:100F9000881C07FB0CF40CE06E4FB7FBF3F7DFF88F
:100FA000A0C10CF1040CDCF800C0CCF3881C07FBDA
:100FB0000CF4634F3F1D3F68C7F301477F1C7D0062
:100FC000B4FBF5F7076002E0624F076000BF00BFA7
:100FD0005B4F08373F6807F0F00109095F4F7A5C03
:100FE0000768D7404760564F08373F6807F4E0511D
:100FF000890A5A4F7A5C4768D7408760504F083754
:101000003F6807F46041490B544F7A5C4768D7400A
:10101000C760F0BD002100F44072B2F5407F0AD1F4
:10102000474A0832116821F4F8114D4A0240114331
:10103000434A08321160424A70321268C0F30B030F
:101040001A433F4B70331A60704741494439086076
:1010500070473F494039086070474249086070470F
:1010600039B1374A303212680243354B30331A6097
:1010700006E0334A303212688243314B30331A6013
:10108000704739B12E4A3432126802432C4B343344
:101090001A6006E02A4A343212688243284B3433FD
:1010A0001A60704739B1264A383212680243244B1D
:1010B00038331A6006E0224A383212688243204BE5
:1010C00038331A60704739B11D4A40321268024302
:1010D0001B4B40331A6006E0194A403212688243C3
:1010E000174B40331A60704739B1154A44321268C1
:1010F0000243134B44331A6006E0114A443212682B
:1011000082430F4B44331A60704739B10C4A103296
:10111000126802430A4B10331A6006E0084A103284
:1011200012688243064B10331A607047E1B1044ADB
:10113000143212680243024B14331A6019E00000A3
:1011400000380240FFFFF6FE103000240000474246
:10115000800E47420024F40040787D01000000200A
:10116000FFFCFF0F5C0147425C4A126882435B4B05
:101170001A60704739B1594A121D12680243574B21
:101180001B1D1A6006E0554A121D12688243534B1C
:101190001B1D1A60704739B1504A0C321268024365
:1011A0004E4B0C331A6006E04C4A0C3212688243F4
:1011B0004A4B0C331A60704739B1484A10321268F2
:1011C0000243464B10331A6006E0444A103212685C
:1011D0008243424B10331A60704739B13F4A3C3268
:1011E000126802433D4B3C331A6006E03B4A3C32F6
:1011F00012688243394B3C331A60704739B1374A21
:10120000403212680243354B40331A6006E0334ADD
:10121000403212688243314B40331A60704739B113
:101220002E4A4432126802432C4B44331A6006E0C3
:101230002A4A443212688243284B44331A6070476A
:1012400039B1264A4C3212680243244B4C331A609F
:1012500006E0224A4C3212688243204B4C331A601B
:10126000704739B11D4A5032126802431B4B50334C
:101270001A6006E0194A503212688243174B503305
:101280001A60704739B1154AD21F12780243134BC6
:10129000DB1F1A7008E0114AD21F1278C343DBB279
:1012A0001A400E4BDB1F1A7070470C486030006804
:1012B00040F08070094960310860704701460020A5
:1012C000064A083A12680A4201D0012000E00020D4
:1012D00070470249891F08707047000014380240A7
:1012E00010B50446E348844208D101218014FFF779
:1012F00063FF0021A014FFF75FFF16E0DE48844281
:1013000008D101210014FFF746FF00212014FFF748
:1013100042FF0AE0D948844207D10121C013FFF7F8
:101320003AFF0021E013FFF736FF10BD10B5002291
:10133000028802F441520B884C8823438C88234353
:10134000CC8823430C8923434C8923438C89234332
:10135000CC8923431A430280838B4FF2FF742340CE
:1013600083830B8A038210BD2DE9F04F00250223F1
:101370000024012700220026944690469146B0F8AA
:101380001CA04FF2400B0AEA0B0AA0F81CA04FF079
:10139000020AA0F820A0858BD1F808A0BAF1020FAC
:1013A00001D100BF67E0B1F804A0BAF1000F01D18C
:1013B000012700E00227DFF8C8A2DAF800A01AF43B
:1013C000000F09D0DFF8B8A2DAF800A02AF4000A6A
:1013D000DFF8ACB2CBF800A0DFF8A4A20AF17C0AD7
:1013E000DAF800A0CAF38818DFF894A20AF17C0AA0
:1013F000DAF800A0CAF30279DFF884A2AAF1040A9D
:10140000DAF800A00AF03F0CDFF878A2BAFBFCFA89
:101410000AFB08FABAFBF9F6B1F806A0BAF5007FA4
:101420000ED14FEA162A0AEB8A0A4FEA4A0AD1F885
:1014300008B0BAFBFBFA0AF1050A1FFA8AF20FE0BC
:101440004FEA471AB6FBFAFA0AEB8A0A4FEA4A0A47
:10145000D1F808B0BAFBFBFA0AF1050A1FFA8AF2C2
:101460004FF00A0AB2FBFAF202F00104A2EB040AFE
:10147000CAF34F032402022B01DBFF2B01DD022301
:101480000024B1F806A04AEA040A4AEA030AA0F8CE
:1014900020A0B1F804A0B1F80CB04AEA0B0AB1F8E8
:1014A00002B04AEA0B0AB1F800B04AEA0B0A4AF461
:1014B000006A4AEA05058583BDE8F08F00210180B6
:1014C00041808180C180018141818181C181072169
:1014D000018270470021018041808180C18002210A
:1014E000816000218181704721B1028842F0400271
:1014F000028004E002884FF6BF731A4002807047F2
:1015000021B1828B42F48062828304E0828B4FF6A9
:10151000FF331A408283704702884FF2FF731A40EC
:10152000028002880A4302807047B1F5804F04D1DF
:10153000028842F48042028004E002884BF6FF7386
:101540001A4002807047A1F57E42FF3A04D002881B
:1015500042F48072028004E002884FF6FF631A4072
:101560000280704721B1828842F00402828004E048
:1015700082884FF6FB731A408280704721B18288BF
:1015800042F01002828004E082884FF6EF731A4026
:10159000828070470146888970478181704721B1F8
:1015A000028842F40052028004E002884DF6FF7384
:1015B0001A4002807047018841F4805101807047D1
:1015C00002460020012901D0108B00E0908A70476C
:1015D0000146088A704710B51AB183880B4383808F
:1015E00004E08388CC43A4B22340838010BD70B54F
:1015F000002400230C110125A540ABB21AB1858847
:101600001D43858004E08588DE43B6B23540858081
:1016100070BD0246002013890B4201D0012000E07A
:1016200000207047CA4302817047F0B5024600208F
:1016300000240023002501F00F070126BE40B4B2AC
:101640000B1101269E40B3B2968806EA030516895F
:10165000264202D00DB1012000E00020F0BD10B5FF
:10166000002201F00F040123A3409AB2D343038167
:1016700010BD00000030014000380040003C004038
:101680000838024040787D0110B50446F74884428E
:1016900008D101211020FFF78FFD00211020FFF756
:1016A0008BFD3EE0F248844209D101214804FFF756
:1016B00072FD00214FF40030FFF76DFD31E0ED4881
:1016C000844209D101218804FFF765FD00214FF410
:1016D0008020FFF760FD24E0E748844209D1012122
:1016E000C804FFF758FD00214FF40020FFF753FD19
:1016F00017E0E248844209D101210805FFF74BFDBC
:1017000000214FF48010FFF746FD0AE0DC488442D8
:1017100007D101212020FFF74FFD00212020FFF7F6
:101720004BFD10BD2DE9FF4705460E460024A1469E
:1017300000BFA046B08900B100BF2C8A24F44054F9
:10174000F08804432C82AC8941F20C608443B08859
:1017500031890843718908430443AC81AC8A24F47D
:101760004074B0890443AC826846FFF7E4FBBF488D
:10177000854202D0C248854202D1DDF80C9001E0DA
:10178000DDF80890A88910F4004F08D009EBC900D3
:1017900000EB091031684900B0FBF1F707E009EBF5
:1017A000C90000EB091031688900B0FBF1F7642033
:1017B000B7FBF0F004012009642101FB1078A8892F
:1017C00010F4004F08D0322000EBC800B0FBF1F05D
:1017D00000F00700044308E0322000EB0810642109
:1017E000B0FBF1F000F00F0004432C81BDE8FF874F
:1017F0004FF41651016000218180C18001810C21CC
:10180000418100218181704710B502460020108A75
:1018100020F470600B884C8823438C882343CC8849
:1018200023431843108210BD002101804180818034
:10183000C180704721B1828942F40052828104E064
:1018400082894DF6FF731A4082817047028B02F441
:101850007F420283028B0A430283704721B182894F
:1018600042F40042828103E08289C2F30E02828147
:10187000704721B1828A42F40062828204E0828A47
:101880004FF2FF731A4082827047C1F308028280D0
:10189000704701468888C0F308007047028A4FF6F7
:1018A000F0731A400282028A0A430282704721B111
:1018B000828942F00202828104E082894FF6FD7340
:1018C0001A408281704782894FF2FF731A408281E9
:1018D00082890A4382817047028A4FF6DF731A4079
:1018E0000282028A0A430282704721B1028A42F4CC
:1018F0008042028204E0028A4BF6FF731A400282A1
:101900007047818941F001018181704721B1828A4C
:1019100042F00802828204E0828A4FF6F7731A408E
:1019200082827047028BD2B20283028B42EA01228A
:101930000283704721B1828A42F02002828204E051
:10194000828A4FF6DF731A408282704721B1828A01
:1019500042F01002828204E0828A4FF6EF731A404E
:1019600082827047828A4FF6FB731A408282828A93
:101970000A438282704721B1828A42F00202828247
:1019800004E0828A4FF6FD731A408282704710B5D8
:101990001AB1838A0B43838204E0838ACC43A4B2C6
:1019A0002340838210BDF0B50346002400260025A5
:1019B0000020A1F510676A3F00D100BF1846C1F3AF
:1019C000421401F01F06012707FA06F5012C01D188
:1019D0000C3004E0022C01D1103000E014301AB1B8
:1019E00007682F43076002E00768AF430760F0BD58
:1019F00002460020B1F5007F00D100BF13880B42E2
:101A000001D0012000E00020704701F40072B2F51F
:101A1000007F00D100BFCA430280704770B5024604
:101A20000024002300250020A1F510666A3E00D1A5
:101A300000BFC1F3421501F01F03012606FA03F3AC
:101A4000012D02D19689334006E0022D02D1168A7B
:101A5000334001E0968A33400C12012606FA04F462
:101A60001688344073B16CB101200CE000100140C5
:101A70000044004000480040004C0040005000403E
:101A800000140140002070BD10B500220023A1F514
:101A900010646A3C00D100BF0A1201249440A3B232
:101AA000DC43048010BD000000210020674A12685A
:101AB00042F48032654B1A6000BF644A126802F437
:101AC0000030491C10B9B1F5A06FF6D15F4A126819
:101AD00012F4003F01D0012000E00020012837D19E
:101AE0005A4A08321268594B08331A601A4612686B
:101AF00042F400421A601A46126842F4A0521A6078
:101B0000534A1B1F1A601A1F126842F080721B1F73
:101B10001A6000BF4D4A126812F0007FFAD040F2FE
:101B200003724C4B1A60494A0832126822F00302D1
:101B3000464B08331A601A46126842F002021A60D5
:101B400000BF424A0832126802F00C02082AF8D19B
:101B5000704710B53D48006840F001003B490860FF
:101B600000203A4908310860384800683A4908407E
:101B7000364908603948091D0860081F006820F4CC
:101B80008020091F0860002030490C310860FFF7F1
:101B90008BFF4FF000603249086010BD70B5002027
:101BA0000022022300240221284D08352D6805F06B
:101BB0000C0020B1042806D0082834D107E0294DB4
:101BC000294E356033E0294D274E35602FE01F4DFB
:101BD0002D1D2D68C5F380541C4D2D1D2D6805F05D
:101BE0003F0154B1214DB5FBF1F5184E361D366855
:101BF000C6F3881605FB06F209E01A4DB5FBF1F5B0
:101C0000124E361D3668C6F3881605FB06F20F4DD8
:101C10002D1D2D68C5F301456D1C6B00B2FBF3F55E
:101C2000114E356003E00F4D0F4E356000BF00BF11
:101C3000064D08352D68C5F303150D4E705D0A4D30
:101C40002D68C540084E356070BD00000038024068
:101C5000193C4005003C0240FFFFF6FE1030002416
:101C600008ED00E00024F4001000002040787D0121
:101C70001400002000BF0100A0F10100FBD170475B
:101C800000F03AFB1AA000F0B7FB6FF07E40FFF7C0
:101C9000F1FF204820490860084601681FA000F0B5
:101CA000ABFB00F065F922A000F0A6FB3A221A482F
:101CB0000168284800F0FAFA00F0A4FA16E000BF24
:101CC000254800780028FBD000202349087023A075
:101CD00000F092FB0F481049086015A000F08CFB43
:101CE0003A220D4801681B4800F0E0FAE7E70000DF
:101CF0002057656C636F6D6520746F207573652068
:101D0000554441313338302049325320746573745F
:101D10003A0D0A003C4F0F00240000205761766501
:101D2000446174614C656E6774683A25640D0A00FD
:101D3000205374617274656420746F205472616EF4
:101D4000736D697373696F6E20646174612E0D0A1F
:101D5000000000005627000828000020204461747D
:101D600061207472616E736D697373696F6E207434
:101D70006F20636F6D706C6574652E0D0A00000036
:101D8000704700BFFEE700BFFEE700BFFEE700BFF1
:101D9000FEE77047704770477047000000B587B096
:101DA00001210220FFF75CF901214805FFF78BF9BB
:101DB000042207216848FEF792FD042206216648A6
:101DC000FEF78DFD8020019002208DF80800012093
:101DD0008DF80A0002208DF8090000208DF80B0014
:101DE00001A95D48FEF7F8FC4020019001A95A487E
:101DF000FEF7F2FC5948FEF7A7FD0020ADF81000F1
:101E00004BF6FF70ADF81200FE20ADF814004FF451
:101E10008060ADF816000001ADF8180047F23050B0
:101E2000039003A94D48FEF7B8FD01214B48FEF78A
:101E300030FE07B000BD2DE9F04180460E46144645
:101E400047480568002701214448FEF72EFE444814
:101E5000056806E02800A5F1010502D1F220BDE8E1
:101E6000F08140493D48FEF716FF0028F2D00022DD
:101E700041463A48FEF731FE3948056805E028003A
:101E8000A5F1010501D1F320E9E737493348FEF711
:101E900002FF0028F3D000272AE031480568701EB1
:101EA000B84212DD21782D48FEF79BFE641C00BF6E
:101EB0002D49891E2948FEF7EEFE0028F8D028009B
:101EC000A5F1010512D1F420C9E721782348FEF7D6
:101ED00088FE00BF25492148FEF7FFFE0028F9D003
:101EE0002800A5F1010501D1F420B8E7781CC7B29C
:101EF000B742D2DB01211948FEF7E3FD0020AEE72F
:101F00001FB501211548FEF7DCFD01211348FEF73E
:101F10001BFE00211148FEF717FE0020ADF804005B
:101F20004BF6FF70ADF80600FE20ADF808004FF448
:101F30008060ADF80A000001ADF80C0047F23050A7
:101F4000009001210548FEF7A4FD69460348FEF70D
:101F500024FD002004B010BD0004024000540040E5
:101F60002C00002001000300820007000400001084
:101F700000B587B09848006820F4000096490860D2
:101F8000964895497C31086093480838006840F0CD
:101F9000806091490839086000BF8F4808380068A0
:101FA00010F0006FF9D001210620FFF759F84FF427
:101FB0000070019002208DF808008DF809000020C3
:101FC0008DF80A008DF80B0001A98548FEF704FC86
:101FD0004FF48060019001A98148FEF7FDFB0820C5
:101FE000019001A97F48FEF7F7FB052209217C48F3
:101FF000FEF775FC05220A217948FEF770FC0522E0
:1020000003217848FEF76BFC01218803FFF75BF89A
:102010007548FFF765F94AF6444005900020ADF891
:102020000E00ADF81000ADF818004FF40070ADF8D8
:102030000C000020ADF8120003A96B48FFF794F9DB
:10204000002271216848FFF7D2FA01214805FFF705
:1020500007F800216548FEF75BFA6448FEF77CF953
:1020600000206349086060480C30486000208860A8
:102070004020C8604FF6FE700861002048614FF4B0
:10208000806088614000C86180000862002048626A
:102090004FF4003088620420C862032008630020E7
:1020A000486388635148FEF7F9F9012210214F482F
:1020B000FEF7BAFA0F208DF8000000208DF801001D
:1020C0008DF8020001208DF803006846FEF7D7F86E
:1020D000012202214448FFF77EFA07B000BD70B527
:1020E00005460C46424885606008414908613F4802
:1020F000FEF7D4F901213D48FEF70AFA3A481C30B0
:10210000008810F4806F03D101213748FFF7F8F9F8
:1021100070BD0122374B1A70704710B536493348ED
:10212000FEF753FA002855D034480068002844D000
:1021300000BF2E48FEF739FA0028FAD12E492B4865
:10214000FEF75EFA2E480068294988602B4800682F
:10215000B0F5803F02D22948006801E04FF6FF70D9
:10216000234908612148FEF799F901211F48FEF72C
:10217000CFF922480068B0F5803F02D21F480068BE
:1021800001E04FF6FF701E49096801EB40001C4951
:1021900008601A480068B0F5803F02D2174800680E
:1021A00001E04FF6FF7015490968081A13490860E5
:1021B00001210E48FEF7ACF90CE000210B48FEF7B8
:1021C000A7F90D490948FEF71BFA00210C480068E1
:1021D000FFF79FFF10BD000008380240804000302C
:1021E00000040240000802400038004070600240D5
:1021F0007000002028000020200000206400002043
:102200006800002070B530260025FFF7C7FD12E0FA
:1022100005EB45002A49421803213046FFF70BFE23
:10222000044614B9681CC5B205E0214625A000F09B
:10223000E3F8002070BD05EB45002149085CFF284C
:10224000E6D125A000F0D8F80120F3E770B50546E7
:102250000C46264804604FF48030B0EB940F01D94F
:10226000A00801E04FF6FF7001462846FFF737FF50
:102270001E480068B0F5803F02D21C48006801E0AB
:102280004FF6FF70C0EB540019490860174800680A
:10229000B0F5803F02D21548006801E04FF6FF70AC
:1022A00005EB400013490860002070BD70B506467C
:1022B0000C461546611B3046FFF7C8FF002070BD75
:1022C00030000020493263204552524F52203A20BC
:1022D000307825780D0A00005544413133383020DC
:1022E000496E6974204F4B210D0A000060000020E8
:1022F000640000206800002000B587B00121084676
:10230000FEF7AEFE01210846FEF7AAFE01211020CD
:10231000FEF7EAFE072209213448FEF7E0FA072219
:1023200009213248FEF7DBFA4FF4007005900220D5
:102330008DF8180000208DF81A0002208DF8190081
:1023400001208DF81B0005A92848FEF745FA4FF437
:102350008060059001208DF81A0000208DF81B0088
:1023600005A92248FEF738FA4FF4E1300190002029
:10237000ADF80800ADF80A00ADF80C00ADF810009B
:102380000C20ADF80E0001A91948FFF7CBF9012286
:1023900040F225511648FFF706FB01211448FFF7CC
:1023A00049FA07B000BD08B525208DF800000020CF
:1023B0008DF801008DF8020001208DF803006846B9
:1023C000FDF75DFF08BD014600BF704770B50446CC
:1023D0000D46E1B20648FFF758FA00BF4021044815
:1023E000FFF706FB0028F9D0204670BD0000024030
:1023F00000100140704700000FB4044910B503AA53
:10240000029800F005F910BC5DF814FB6C00002088
:102410002DE9F04104460E4600200AE0E16820461E
:10242000884738B3252806D0D4E901219047206A8F
:10243000401C2062F2E7E16820460027884705003B
:1024400018D0A5F14100192802D820354FF40067B3
:102450003246294620462760FDF7CEFE40B10128CE
:1024600004D0F61D26F007060836D7E7361DD5E757
:102470002846D9E7206ABDE8F08100002DE9F04147
:102480000746002510687529394616A411D0AFF308
:102490000080002803DAC0F1000013A407E03968C7
:1024A0008A0701D511A402E0490704D510A401252B
:1024B00001E0AFF3008000210A2307F1240607E0C2
:1024C000B0FBF3F203FB1200303070541046491C8D
:1024D0000028F5D12B4622463846BDE8F04100F0F1
:1024E0003BB80000000000002D0000002B000000A1
:1024F0002000000070B504460D4621461068AFF379
:1025000000802168090502D5104A7A4402E00F4A8A
:102510007A440E32002104F1240307E000F00F0694
:102520004FEA1010965D5E5401F101010028F5D1CB
:1025300003462068000704D5702D02D009B111327E
:1025400002232046BDE8704000F006B84A510F0053
:1025500070477047704770472DE9F0470D460446B5
:102560009246994600F124080168880604D5E0697E
:1025700021F01001216000E00120A84202DDA0EB63
:10258000050700E00027A16907EB050202EB09003F
:10259000A1EB0000A0612068C00602D42046AFF382
:1025A0000080002608E0D4E901211AF806009047CF
:1025B000206A401C761C20624E45F4DB2068C00671
:1025C0000AD52046AFF3008006E0D4E9012130208F
:1025D0009047206A401C2062381EA7F10107F4DCF6
:1025E00007E0D4E9012118F805009047206A401C53
:1025F0002062281EA5F10105F3DC2046AFF3008020
:102600002068000602D50220BDE8F0870120FBE724
:10261000074B70B50C467B4400F011F80546204688
:1026200000F020F810B14FF0FF3070BD284670BDAB
:10263000B3FDFFFF01694A1C02610878704700B5CD
:102640008FB0CDE901310021059105497944CDE9EB
:10265000031011466846FFF7DBFE0FB000BD000017
:10266000E5FFFFFFC06800F080007047754600F08E
:1026700029F8AE4605006946534620F00700854616
:1026800018B020B5FDF7E4FDBDE820404FF000068E
:102690004FF000074FF000084FF0000B21F007014A
:1026A000AC46ACE8C009ACE8C009ACE8C009ACE88D
:1026B000C0098D4670470446AFF300802046FDF701
:1026C000B2FD000000487047AC0000200048704791
:1026D000B000002010B5FFF7F9FF4FF000010160D6
:1026E00010BD524946466E4F0F0057415645666D24
:1026F0007420120000000100020080BB000000EE08
:102700000200040010000000666163740400000011
:10271000CFD30300646174613C4F0F0000000000E0
:1027200000000000000000000000000000000000A9
:102730000000000000000000000000000000000099
:102740000000000000000000000000000000000089
:102750000000000000000000000000000000000079
:1088800000000000000000000000000000000100E7
:1088900000000100000001000000010000000100D4
:1088A00000000100000001000000000000000000C6
:1088B00000000000000000000000000000000000B8
:1088C00000000000000000000000010000000100A6
:1088D0000000010001000100010001000100010091
:1088E0000100010000000000000000000000000086
:1088F0000000000000000000000000000000000078
:108900000000000000000000000000000000000067
:108910000000000000000000000000000000000057
:108920000000000000000000000000000000000047
:108930000000000000000000000000000000000037
:108940000000000000000000000000000000000027
:108950000000000000000000000000000000000017
:108960000000000000000000000000000000000007
:1089700000000000000000000000000000000000F7
:1089800000000000000000000000000000000000E7
:1089900000000000000000000000000000000000D7
:1089A00000000000000000000000000000000000C7
:1089B00000000000000000000000000000000000B7
:1089C00000000000000000000000000000000000A7
:1089D0000000000000000000000000000000000097
:1089E0000000000000000000000000000000000087
:1089F0000000000000000000000000000000000077
:108A00000000000000000000000000000000000066
:108A10000000000000000000000000000000000056
:108A20000000000000000000000000000000000046
:108A30000000000000000000000000000000000036
:108A40000000000000000000000000000000000026
:108A50000000000000000000000000000000000016
:108A60000000000000000000000000000000000006
:108A700000000000000000000000000000000000F6
:108A800000000000000001000000010000000100E3
:108A900000000000000000000000000000000000D6
:108AA00000000000000000000000000000000000C6
:108AB00000000000000000000000000000000000B6
:108AC00000000000000000000000000000000000A6
:108D40000000000000000000000001000000010021
:108D5000000001000000010000000100000001000F
:108D60000000000000000000000000000000000003
:108D700000000000FFFF0000FFFF0000FFFFFFFFFB
:108D8000FFFFFFFFFFFFFFFFFFFFFFFF00000000EF
:108D900000000000000000000000000000000000D3
:108DA00001000000010000000100000001000000BF
:108DB00000000000000000000000000000000000B3
:108DC00000000000000000000000000000000000A3
:108DD0000000000000000000000000000100000092
:108DE000010000000100010001000100010001007C
:108DF0000100010000000000000000000000000071
:108E00000000000000000000000000000000000062
:108E10000000000000000000000001000000010050
:108E20000000000000000000000000000000000042
:108E30000000000000000000000000000000000032
:108E40000000000000000000000000000000000022
:108E5000000000000000010000000100000001000F
:108E60000000010000000100000000000000000000
:108E700000000000000000000000000000000000F2
:108E800000000000000000000000000000000000E2
:108E900000000000000000000000000001000100D0
:108EA00001000100010001000100010001000100BA
:108EB00001000100010000000100000001000000AD
:108EC00001000000010000000000000000000000A0
:108ED0000000000000000000010000000100000090
:108EE000010000000100000001000100010001007C
:108EF000010001000100010001000100010000006B
:108F0000010000000000FFFF0000FFFF0000000064
:108F100000000000FFFFFFFFFFFFFFFF0000000059
:108F20000000000000000000000000000000000041
:108F3000010001000100010000000000000000002D
:108F40000000000000000000FFFF0000FFFF000025
:108F5000FFFFFFFFFFFFFFFFFFFFFFFF000000001D
:108F600000000000FFFF0000FFFF0000FFFF000007
:108F7000FFFF0000FFFF0000FFFF000000000000F7
:108F800000000000FFFFFFFFFFFFFFFFFFFFFFFFED
:108F9000FFFF0000FFFF0000FFFF0000FFFF0000D9
:108FA00000000000000000000000000000000000C1
:108FB00000000000000000000000010000000100AF
:108FC000000001000100010001000100010001009A
:108FD000010001000000000000000000010001008D
:108FE000010001000000000000000000000000007F
:108FF0000000000000000000FFFF0000FFFF000075
:10900000FFFF0000FFFF0000FEFF0000FEFF00006A
:10901000FEFF0000FEFF0000FEFF0000FEFF00005C
:10902000FEFF0000FEFF0000FEFF0000FEFF00004C
:10903000FEFF0000FFFF0100FFFF0100FFFF000037
:10904000FFFF00000000010000000100000001001F
:10905000000001000000010000000100000001000C
:10906000FFFF0000FFFF0000000001000000010002
:1090700000000000000000000100010001000100EC
:1090800001000100010001000100010000000000DA
:1090900000000000FFFF0000FFFF0000FDFFFEFFDB
:1090A000FDFFFEFFFEFFFFFFFEFFFFFFFDFFFEFFD8
:1090B000FDFFFEFFFDFFFEFFFEFFFFFFFEFFFFFFC8
:1090C000FCFFFDFFFCFFFDFFFEFF0000FEFF0000B8
:1090D000FDFFFEFFFDFFFEFFFEFFFFFFFEFFFFFFA8
:1090E000FFFF0000FFFF0000FFFF00000100020083
:1090F000010002000000010000000100FFFF00006D
:10910000FFFF00000000010000000100FFFF000061
:10911000FFFF0000FFFF0000000001000000010051
:10912000FFFF0100FFFF010001000200010002003B
:10913000FEFFFFFFFEFFFFFF010002000100020033
:10914000FEFFFFFFFEFFFFFFFEFFFFFF010002002B
:109150000100020001000100010001000200020004
:1091600002000200010001000100010002000200F3
:1091700002000200000000000000000000000000EB
:1091800001000100010001000200020002000200D3
:10919000FEFFFFFFFEFFFFFFFDFFFFFFFDFFFFFFE5
:1091A000FCFFFEFFFCFFFEFFFCFFFEFFFDFF0000DB
:1091B000FDFF0000F7FFFAFFF7FFFAFFFAFFFDFFE0
:1091C000FAFFFDFFF6FFF9FFF6FFF9FFFAFFFDFFDB
:1091D000FAFFFDFFF8FFF9FFF8FFF9FFF8FFF9FFCD
:1091E000FDFFFDFFFDFFFDFF0000FFFF0000FFFF93
:1091F0000100FFFF0100FFFF02000000020000006D
:109200000100FEFF0100FEFF03000000030000005C
:10921000030000000200000002000000050004003E
:10922000050004000100020001000200000003002C
:1092300000000300FAFFFEFFFAFFFEFFFAFFFEFF49
:10924000FBFF0100FBFF0100FAFF0000FAFF000036
:10925000F7FFFEFFF7FFFEFFFCFF0200FCFF02002E
:10926000F9FFFEFFF9FFFEFFF8FFFDFFF8FFFDFF2E
:10927000F8FFFDFFFFFF0200FFFF020001000400F6
:1092800001000400060008000600080002000400B7
:1092900002000400050008000500080005000800A1
:1092A000FEFF0200FEFF0200FDFF0300FDFF0300C2
:1092B00002000A0002000A00FFFF0900FFFF090088
:1092C000FDFF0800FDFF0800F9FF0500F9FF05009C
:1092D000F9FF0500F7FF0400F7FF0400F5FF0100A8
:1092E000F5FF0100FBFF0600FBFF0600F4FFFEFF99
:1092F000F4FFFEFFFDFF0600FDFF0600FAFF010080
:10930000FAFF0100FAFF0100FCFF0100FCFF010071
:10931000FDFF0100FDFF0100FCFF0000FCFF00005D
:10932000F7FFFBFFF7FFFBFFFAFFFFFFFAFFFFFF6F
:10933000FAFFFFFFFDFF0200FDFF0200FBFF02003E
:10934000FBFF0200FEFF0600FEFF0600FEFF070017
:10935000FEFF0700F9FF0400F9FF0400F5FF00001D
:10936000F5FF0000F5FF000000000B0000000B00FF
:10937000F4FF0000F4FF0000FCFF0800FCFF080001
:10938000FDFF0800FDFF0800FDFF0800FDFF0800CD
:10939000F5FF0100F5FF0100F5FF0100FDFF0800EA
:1093A000FDFF0800F6FF0000F6FF0000FAFF0400D2
:1093B000FAFF040004000E0004000E0000000A0082
:1093C00000000A0000000A00FBFF0400FBFF04008D
:1093D000FBFF0400FBFF0400000008000000080081
:1093E000F7FFFFFFF7FFFFFFFEFF0600FEFF06008F
:1093F000F5FFFEFFF5FFFEFFF5FFFEFFFAFF04009D
:10940000FAFF0400F5FF0100F5FF0100050012005E
:1094100005001200FDFF0B00FDFF0B00060015000C
:1094200006001500F7FF0600F7FF0600F7FF06002D
:10943000F9FF0800F9FF0800020010000200100008
:10944000F6FF0200F6FF02000C0014000C001400EE
:10945000F9FFFFFFF9FFFFFFF9FFFFFF0E0010000C
:109460000E0010000B000A000B000A000200FEFFB5
:109470000200FEFF0A0003000A0003000300FBFFD6
:109480000300FBFF0400FBFF0400FBFF0400FBFFE5
:109490000600FDFF0600FDFF0A0001000A000100B2
:1094A0000B0003000B000300FBFFF4FFFBFFF4FFC6
:1094B00012000B0012000B000600FFFF0600FFFF6A
:1094C0000600FFFF09000100090001000F0006006F
:1094D0000F0006000A0000000A0000000F00030051
:1094E0000F0003000300F6FF0300F6FF0300F6FF82
:1094F0000D0000000D0000000500F9FF0500F9FF58
:109500000F0005000F000500FBFFF4FFFBFFF4FF59
:109510000600020006000200FEFFFEFFFEFFFEFF47
:10952000FEFFFEFFF9FFFCFFF9FFFCFF0100080052
:109530000100080004000D0004000D0009001300E4
:109540000900130009001400090014000A001400A7
:109550000A0014000A0014000000080000000800BF
:1095600004000900040009000600090006000900C3
:109570000F000F000F000F00FAFFF8FFFAFFF8FFCF
:10958000FAFFF8FF08000400080004000A000600C3
:109590000A000600FBFFF6FFFBFFF6FF05000000D8
:1095A000050000000400FEFF0400FEFFFDFFF6FFC3
:1095B000FDFFF6FFFDFFF6FF0600FEFF0600FEFFC3
:1095C0000A0001000A00010014000900140009004B
:1095D0000500F7FF0500F7FF0A00F9FF0A00F9FF91
:1095E0001600030016000300160003001B0008000D
:1095F0001B00080020000D0020000D0013000200D9
:109600001300020011000200110002000800FDFF1B
:109610000800FDFF0800FDFF0C0005000C00050020
:10962000F7FFF4FFF7FFF4FF0B000C000B000C003A
:10963000030008000300080005000C0005000C00F2
:1096400016002000160020001600200013001E0047
:1096500013001E0003000F0003000F0003000F00A3
:1096600003000F000C001A000C001A00FEFF0D0092
:10967000FEFF0D000E001F000E001F000E001F0059
:10968000FEFF1200FEFF1200F6FF0D00F6FF0D00B8
:10969000FDFF1800FDFF1800F0FF0E00F0FF0E00A8
:1096A000F6FF1600F6FF1600F6FF16000800290068
:1096B00008002900FFFF1F00FFFF1F00FBFF18002D
:1096C000FBFF1800F6FF0F00F6FF0F00FEFF120071
:1096D000FEFF1200FAFF0900FAFF0900FAFF090075
:1096E000070011000700110005000A0005000A002C
:1096F00008000A0008000A00110012001100120000
:10970000040005000400050007000B0007000B0023
:1097100007000B001B0023001B0023001700210083
:1097200017002100060014000600140004001400B5
:1097300004001400ECFFFDFFECFFFDFFECFFFDFF5C
:10974000FBFF0A00FBFF0A0003000F0003000F00ED
:109750000B0013000B00130009000C0009000C00A3
:1097600015001300150013001C0016001C00160045
:109770001C00160021001900210019000900010039
:109780000900010010000900100009000E000D0082
:109790000E000D001300180013001800130018002D
:1097A0000A0017000A001700F2FF0700F2FF070087
:1097B0000300200003002000F1FF1400F1FF14005B
:1097C000F8FF2000F8FF2000EFFF1900EFFF19005D
:1097D000EFFF19000C0035000C003500F5FF1B00F1
:1097E000F5FF1B001A003B001A003B000900240093
:1097F0000900240007001C0007001C000F001F00C8
:109800000F001F000F001F00F6FF0000F6FF000012
:109810000B0010000B001000F6FFF8FFF6FFF8FF3A
:109820000C000D000C000D00F3FFF3FFF3FFF3FF3E
:10983000F3FFF3FFF1FFF1FFF1FFF1FFECFFECFFAE
:10984000ECFFECFFF3FFF4FFF3FFF4FF060007006B
:10985000060007000A000B000A000B00F9FFFCFFDE
:10986000F9FFFCFFF9FFFCFF0C000F000C000F00DC
:10987000FAFFFEFFFAFFFEFF08000D0008000D00D2
:10988000FFFF0500FFFF0500F8FF0000F8FF0000E4
:10989000FEFF0700FEFF0700FEFF070004000E00AA
:1098A00004000E00FAFF0500FAFF0500D8FFE3FFF1
:1098B000D8FFE3FF0C0017000C001700E6FFF0FFD5
:1098C000E6FFF0FFE6FFF0FF0900120009001200BA
:1098D00011001900110019001200190012001900DE
:1098E00007000D0007000D0005000A0005000A0032
:1098F000F7FFFDFFF7FFFDFFF7FFFDFFF4FFFAFFA6
:10990000F4FFFAFF24002A0024002A0016001C009D
:1099100016001C0018001E0018001E0016001C0077
:1099200016001C000F0013000F0013000F0013009F
:1099300010001100100011001B0017001B00170081
:1099400012000900120009001100020011000200BB
:109950001000FAFF1000FAFF1000FAFF2E001300AB
:109960002E00130025000600250006003900170010
:10997000390017000D00EBFF0D00EBFF1D00FDFF90
:109980001D00FDFF27000C0027000C0027000C0025
:109990001000FBFF1000FBFF330025003300250003
:1099A0000B0004000B0004001B001B001B001B002D
:1099B00005000B0005000B00F8FF0100F8FF010097
:1099C000F8FF0100060010000600100001000A0068
:1099D00001000A00FBFF0000FBFF0000FDFFFEFF8F
:1099E000FDFFFEFFE9FFE3FFE9FFE3FFE9FFE3FF20
:1099F000F6FFEAFFF6FFEAFF0100EFFF0100EFFFCD
:109A00001300FBFF1300FBFF29000D0029000D00D0
:109A1000220003002200030029000700290007009C
:109A2000290007002000FDFF2000FDFF0D00E9FFD9
:109A30000D00E9FF1C00F7FF1C00F7FF26000000E7
:109A4000260000002500FDFF2500FDFF2F0003007C
:109A50002F0003002F0003002800F8FF2800F8FF64
:109A60001900E5FF1900E5FF0700CFFF0700CFFF52
:109A70001A00DFFF1A00DFFF0A00CEFF0A00CEFF48
:109A80000A00CEFF0D00D1FF0D00D1FFFAFFC1FF8C
:109A9000FAFFC1FF2100EEFF2100EEFF0D00E1FF04
:109AA0000D00E1FFE5FFC2FFE5FFC2FFE9FFD1FFC7
:109AB000E9FFD1FFE9FFD1FFDDFFD0FFDDFFD0FFE0
:109AC000EFFFEDFFEFFFEDFFD9FFE3FFD9FFE3FF6E
:109AD000E3FFF6FFE3FFF6FFDCFFF7FFDCFFF7FF36
:109AE000CBFFEDFFCBFFEDFFCBFFEDFFD8FFFFFF7F
:109AF000D8FFFFFFEAFF1500EAFF1500DDFF0D00AC
:109B0000DDFF0D000000330000003300F7FF2F00E1
:109B1000F7FF2F00F7FF2F00EFFF2A00EFFF2A00CB
:109B2000F6FF3700F6FF3700E1FF2700E1FF2700CF
:109B3000CFFF1900CFFF1900DBFF2900DBFF290051
:109B4000CDFF1E00CDFF1E00CDFF1E00CDFF20006B
:109B5000CDFF2000D0FF2000D0FF2000BDFF0B0074
:109B6000BDFF0B00B9FF0000B9FF00009FFFDEFF43
:109B70009FFFDEFFDEFF1400DEFF1400DEFF140097
:109B8000D2FFFDFFD2FFFDFFCAFFE9FFCAFFE9FFD9
:109B9000C9FFDFFFC9FFDFFFD2FFDEFFD2FFDEFF1D
:109BA000D2FFD6FFD2FFD6FFD2FFD6FFC2FFC1FF42
:109BB000C2FFC1FFCFFFC9FFCFFFC9FFE2FFDAFF3E
:109BC000E2FFDAFFEEFFE4FFEEFFE4FFECFFE1FF70
:109BD000ECFFE1FFFEFFF1FFFEFFF1FFFEFFF1FFF3
:109BE000E8FFDAFFE8FFDAFFE1FFD0FFE1FFD0FF97
:109BF000F6FFE0FFF6FFE0FFFBFFE1FFFBFFE1FF09
:109C00000B00ECFF0B00ECFF230000002300000022
:109C1000230000001300ECFF1300ECFF1600EEFF22
:109C20001600EEFFF6FFCFFFF6FFCFFFEDFFC9FFF7
:109C3000EDFFC9FFEEFFCFFFEEFFCFFFEEFFCFFF3F
:109C4000E5FFCEFFE5FFCEFFE9FFDAFFE9FFDAFF30
:109C5000E6FFE0FFE6FFE0FFC2FFC3FFC2FFC3FF76
:109C6000E3FFEBFFE3FFEBFFD0FFDCFFD0FFDCFF08
:109C7000D0FFDCFFE0FFECFFE0FFECFFF9FF0300AB
:109C8000F9FF0300D2FFD7FFD2FFD7FF0A0007007A
:109C90000A000700D1FFC6FFD1FFC6FFD1FFC6FFF4
:109CA000F0FFDCFFF0FFDCFF0100E5FF0100E5FF56
:109CB0000F00EDFF0F00EDFF1A00F3FF1A00F3FF96
:109CC0000400DAFF0400DAFFFCFFD3FFFCFFD3FF40
:109CD000FCFFD3FF0200DAFF0200DAFF0B00E6FF11
:109CE0000B00E6FF0200E1FF0200E1FF0200E5FFDA
:109CF0000200E5FF0E00F4FF0E00F4FF0600EEFF89
:109D00000600EEFF0600EEFF2800110028001100FB
:109D10003D0026003D002600FDFFE5FFFDFFE5FFBD
:109D20001300FAFF1300FAFFFEFFE3FFFEFFE3FF5D
:109D3000FEFFE3FF1600FBFF1600FBFF0E00F2FF25
:109D40000E00F2FF3F0023003F0023000B00EFFF57
:109D50000B00EFFF1D0003001D00030020000800A2
:109D60002000080020000800D8FFC1FFD8FFC1FF75
:109D70000900F4FF0900F4FFFDFFE9FFFDFFE9FF23
:109D80000700F4FF0700F4FFE7FFD4FFE7FFD4FF6D
:109D90000C00F8FF0C00F8FF0C00F8FFF6FFE2FFE4
:109DA000F6FFE2FF0300EEFF0300EEFF0300EEFF0D
:109DB0000300EEFFF7FFE1FFF7FFE1FF1500FEFFF5
:109DC0001500FEFF1500FEFF1A0001001A00010039
:109DD000F7FFDCFFF7FFDCFFF8FFDAFFF8FFDAFF41
:109DE000D5FFB4FFD5FFB4FFF0FFCAFFF0FFCAFFF5
:109DF000EFFFC5FFEFFFC5FFEFFFC5FFE1FFB2FFBC
:109E0000E1FFB2FFF0FFBDFFF0FFBDFFCBFF96FF0C
:109E1000CBFF96FF0500D1FF0500D1FFD1FFA0FFCA
:109E2000D1FFA0FF1100E6FF1100E6FF1100E6FFE1
:109E3000FDFFDBFFFDFFDBFF0400EEFF0400EEFF94
:109E40000800000008000000F0FFF4FFF0FFF4FF3E
:109E5000EBFFFAFFEBFFFAFFEBFFFAFFE2FFFBFF7E
:109E6000E2FFFBFFE8FF0600E8FF0600BCFFDBFFA8
:109E7000BCFFDBFFE8FF0400E8FF0400DEFFF3FFA8
:109E8000DEFFF3FFEFFFFAFFEFFFFAFFEFFFFAFF4E
:109E9000DAFFDAFFDAFFDAFFE5FFD9FFE5FFD9FFE6
:109EA0000400EFFF0400EFFF1100F5FF1100F5FFC4
:109EB0000600E8FF0600E8FF0A00EDFF0A00EDFFDC
:109EC0000A00EDFF0F00F6FF0F00F6FF150003007C
:109ED00015000300EFFFE5FFEFFFE5FFD4FFD3FF21
:109EE000D4FFD3FFE2FFE6FFE2FFE6FFE2FFE6FF7B
:109EF000DCFFE4FFDCFFE4FF0C0012000C001200AA
:109F00001400160014001600F4FFEFFFF4FFEFFF3B
:109F10000200F4FF0200F4FF180000001800000027
:109F2000180000000600E5FF0600E5FF1900F1FF3C
:109F30001900F1FF1000E4FF1000E4FF1300E9FF37
:109F40001300E9FF0500DEFF0500DEFFFCFFDDFF7B
:109F5000FCFFDDFFFCFFDDFFF6FFE2FFF6FFE2FFA7
:109F60000800FEFF0800FEFF19001A0019001A0081
:109F7000F0FFFBFFF0FFFBFFEDFF0000EDFF000037
:109F8000EDFF0000F4FF0C00F4FF0C00CFFFEAFF30
:109F9000CFFFEAFFF1FF0E00F1FF0E00EBFF09001B
:109FA000EBFF0900E3FF0200E3FF0200FAFF1B00E2
:109FB000FAFF1B00FAFF1B00D0FFF4FFD0FFF4FFF5
:109FC000DCFF0500DCFF0500FBFF2900FBFF29008B
:109FD0000E0041000E004100E0FF1800E0FF1800F5
:109FE00001003D0001003D0001003D00E1FF1D00BA
:109FF000E1FF1D00D5FF0F00D5FF0F00DFFF1300AD
:10A00000DFFF1300D9FF0400D9FF0400E1FF0100C6
:10A01000E1FF0100E1FF0100EDFF0100EDFF0100A4
:10A020001800200018002000150012001500120072
:10A030002A001E002A001E00FBFFE9FFFBFFE9FFCC
:10A040001000FAFF1000FAFF1000FAFF29001100BB
:10A05000290011001E0006001E0006001200FAFF73
:10A060001200FAFF0000E8FF0000E8FF1500FBFF08
:10A070001500FBFF0300E7FF0300E7FF0300E7FF16
:10A08000F2FFD2FFF2FFD2FF2900040029000400F2
:10A09000F9FFD0FFF9FFD0FFFAFFCDFFFAFFCDFFA8
:10A0A0001B00ECFF1B00ECFF1B00ECFF1100E3FFAB
:10A0B0001100E3FFFEFFD5FFFEFFD5FF0300E3FF26
:10A0C0000300E3FF16000000160000000F0006006A
:10A0D0000F0006001B001F001B001F001B001F00BD
:10A0E0000F001E000F001E000F0028000F002800A8
:10A0F000DBFFF8FFDBFFF8FF0B002A000B002A0054
:10A10000E1FFFCFFE1FFFCFFF2FF0700F2FF0700A9
:10A11000F2FF070003000F0003000F000C000C000B
:10A120000C000C000800FEFF0800FEFFF2FFDEFF3F
:10A13000F2FFDEFF0D00F2FF0D00F2FF0D00F2FF57
:10A140000B00EBFF0B00EBFF30000D0030000D00AB
:10A15000FEFFD9FFFEFFD9FF3800120038001200C1
:10A160002300FCFF2300FCFF0800DFFF0800DFFFE7
:10A170000800DFFF2300F5FF2300F5FF2600F1FFB5
:10A180002600F1FF2900EBFF2900EBFF1600CEFFB0
:10A190001600CEFF2300CFFF2300CFFF2300CFFF09
:10A1A0002F00D2FF2F00D2FF1100ACFF1100ACFF37
:10A1B0006A0002006A0002004000D9FF4000D9FF97
:10A1C0004600E3FF4600E3FF5400FAFF5400FAFFA5
:10A1D0005400FAFF1D00CFFF1D00CFFF51001100FA
:10A1E00051001100F2FFC0FFF2FFC0FF2200FCFF90
:10A1F0002200FCFF1300F8FF1300F8FF36002100D7
:10A20000360021003600210031001F0031001F0000
:10A2100019000700190007001100FBFF1100FBFFE8
:10A220001300F8FF1300F8FF1500F3FF1500F3FF0C
:10A230001500F3FF0D00E5FF0D00E5FF2D00FFFF0A
:10A240002D00FFFF1000DEFF1000DEFF1500E1FF14
:10A250001500E1FF2D00F9FF2D00F9FF5800250042
:10A2600058002500580025001400E4FF1400E4FF06
:10A2700033000800330008001B00F5FF1B00F5FF4A
:10A280000400E5FF0400E5FF0C00F2FF0C00F2FF04
:10A290002E001A002E001A002E001A000B00FDFFDF
:10A2A0000B00FDFF0B0001000B0001002D0028003A
:10A2B0002D002800F1FFEFFFF1FFEFFF0500050083
:10A2C00005000500050005000F000E000F000E0040
:10A2D00024002000240020001E0017001E0017008C
:10A2E00028001A0028001A001F000B001F000B0096
:10A2F0000000E5FF0000E5FF0000E5FFF8FFD7FFE5
:10A30000F8FFD7FF0C00E9FF0C00E9FFF8FFD3FFCF
:10A31000F8FFD3FF1000EFFF1000EFFFFEFFE4FF98
:10A32000FEFFE4FFF1FFE3FFF1FFE3FFF1FFE3FFD7
:10A330000000FFFF0000FFFFD9FFE8FFD9FFE8FFA3
:10A34000D8FFF8FFD8FFF8FFE9FF1800E9FF180071
:10A35000DAFF1600DAFF1600DAFF1600F3FF360008
:10A36000F3FF3600EFFF3600EFFF3600C0FF0500B9
:10A37000C0FF0500DCFF1D00DCFF1D00F2FF2B000D
:10A38000F2FF2B000300330003003300030033000F
:10A390002C0053002C005300410062004100620079
:10A3A0002700450027004500F8FF1700F8FF1700B9
:10A3B000FDFF2100FDFF21001500420015004200B5
:10A3C00015004200DCFF1300DCFF1300F5FF37002F
:10A3D000F5FF3700DEFF2B00DEFF2B00F2FF46000B
:10A3E000F2FF4600F1FF4A00F1FF4A00F1FF4A0088
:10A3F00003005D0003005D00EDFF4400EDFF44003D
:10A40000FAFF4B00FAFF4B00EDFF3600EDFF360080
:10A41000F1FF3200F1FF32000D0045000D00450054
:10A420000D004500F5FF2700F5FF27003A00660004
:10A430003A006600CAFFF2FFCAFFF2FFF9FF1F00F1
:10A44000F9FF1F00D4FFF6FFD4FFF6FFE4FF03007F
:10A45000E4FF0300E4FF0300BCFFD5FFBCFFD5FF12
:10A46000C7FFD6FFC7FFD6FFD0FFD4FFD0FFD4FF72
:10A47000E0FFD6FFE0FFD6FF0200E7FF0200E7FFA4
:10A480000200E7FF63003700630037000B01CE00D6
:10A490000B01CE004E0102014E0102010A02B10180
:10A4A0000A02B1013702D4013702D401B7024C02CB
:10A4B000B7024C02B7024C02F9028702F902870286
:10A4C000B0033903B00339032604A7032604A70306
:10A4D000A5041D04A5041D04ED045904ED0459044C
:10A4E0002D058A042D058A042D058A045705A2042A
:10A4F0005705A2048D05C7048D05C704C705F104DF
:10A50000C705F10432065205320652053C065805CD
:10A510003C0658053C0658052A064D052A064D05F9
:10A5200046067A0546067A058705D9048705D904C3
:10A53000DC045704DC04570490033D0390033D03FF
:10A54000E602CB02E602CB02E602CB028E01AE01AE
:10A550008E01AE018700E1008700E1000EFF9DFF44
:10A560000EFF9DFFE8FDA3FEE8FDA3FEA1FC7FFD1D
:10A57000A1FC7FFDF0FBE6FCF0FBE6FCF0FBE6FC5B
:10A5800070FB74FC70FB74FCE0FAE9FBE0FAE9FB99
:10A59000B8FABFFBB8FABFFB2FFA33FB2FFA33FB35
:10A5A00026FA25FB26FA25FB26FA25FB9AF998FAC6
:10A5B0009AF998FA1CFA1DFB1CFA1DFB10FA19FBFC
:10A5C00010FA19FB3BFA52FB3BFA52FBF9F922FB5A
:10A5D000F9F922FBC1F900FBC1F900FBC1F900FB4D
:10A5E00079F9CDFA79F9CDFA2CF995FA2CF995FA91
:10A5F0006EF8E8F96EF8E8F9E9F770F9E9F770F93B
:10A60000E8F676F8E8F676F899F52AF799F52AF754
:10A6100099F52AF7C3F453F6C3F453F60FF49BF5F8
:10A620000FF49BF55EF4E4F55EF4E4F578F4FAF5E6
:10A6300078F4FAF5E5F466F6E5F466F6E5F466F620
:10A6400008F58CF608F58CF662F5EDF662F5EDF698
:10A6500057F5EFF657F5EFF665F50EF765F50EF7DA
:10A66000C5F482F6C5F482F671F445F671F445F648
:10A6700071F445F6A2F38EF5A2F38EF5FCF2FEF42A
:10A68000FCF2FEF4F0F107F4F0F107F432F158F3C4
:10A6900032F158F35EF18FF35EF18FF35EF18FF3D9
:10A6A000AAF1E0F3AAF1E0F330F264F430F264F4DA
:10A6B00051F27DF451F27DF4B8F2D7F4B8F2D7F448
:10A6C0006AF279F46AF279F488F284F488F284F414
:10A6D00088F284F414F2FEF314F2FEF315F2EFF3B1
:10A6E00015F2EFF39DF16BF39DF16BF39AF162F3C9
:10A6F0009AF162F31EF1E7F21EF1E7F2E6F0B7F22B
:10A70000E6F0B7F2E6F0B7F220F100F320F100F343
:10A7100014F109F314F109F31EF12CF31EF12CF3DB
:10A72000BCF0E5F2BCF0E5F2B8F0FDF2B8F0FDF2F5
:10A73000B8F0FDF27FF0DDF27FF0DDF240F0B3F231
:10A7400040F0B3F26EEFF2F16EEFF2F115EFA4F11B
:10A7500015EFA4F1A7EE3CF1A7EE3CF1EDED85F08D
:10A76000EDED85F0EDED85F037EDD0EF37EDD0EF85
:10A77000BEEC58EFBEEC58EF72EC0EEF72EC0EEF41
:10A7800060EC01EF60EC01EF2CECD4EE2CECD4EE9D
:10A7900087EC39EF87EC39EF87EC39EF22ECDEEE0E
:10A7A00022ECDEEE8FEC54EF8FEC54EF8FEC5AEF8F
:10A7B0008FEC5AEFA7EC73EFA7EC73EF40ED04F0CA
:10A7C00040ED04F040ED04F081ED37F081ED37F01D
:10A7D00095ED34F095ED34F04AEDCDEF4AEDCDEF47
:10A7E000F9ED5DF0F9ED5DF014EE58F014EE58F06F
:10A7F00006EF2DF106EF2DF106EF2DF114EF24F108
:10A8000014EF24F163F064F263F064F2C7F0C4F271
:10A81000C7F0C4F24CF14DF34CF14DF384F192F3D7
:10A8200084F192F340F160F340F160F340F160F3A2
:10A8300001F134F301F134F352F096F252F096F252
:10A840007EF0CFF27EF0CFF20CF060F20CF060F20E
:10A850001EF06CF21EF06CF21EF06CF28AEFCAF180
:10A860008AEFCAF101F029F201F029F245F050F225
:10A8700045F050F223F10FF323F10FF344F113F3FA
:10A8800044F113F392F148F392F148F392F148F353
:10A8900094F137F394F137F395F12EF395F12EF30C
:10A8A000C7F15EF3C7F15EF354F1EEF254F1EEF24C
:10A8B00005F1A8F205F1A8F261F00DF261F00DF2D8
:10A8C00061F00DF2D5F08AF2D5F08AF268F023F249
:10A8D00068F023F226F0E2F126F0E2F194F04DF276
:10A8E00094F04DF21AF1CDF21AF1CDF21AF1CDF247
:10A8F000D2F07EF2D2F07EF2F9F09EF2F9F09EF202
:10A9000081F122F381F122F347F1E8F247F1E8F215
:10A9100097F03BF297F03BF226F0D1F126F0D1F11F
:10A9200026F0D1F1EAF09DF2EAF09DF2ABF062F28E
:10A93000ABF062F27CF031F27CF031F24AF2F3F3E8
:10A940004AF2F3F3DFF36FF5DFF36FF5E0F549F764
:10A95000E0F549F7E0F549F7B1F7E5F8B1F7E5F8C3
:10A9600057F948FA57F948FAEEF993FAEEF993FADB
:10A9700088FBDAFB88FBDAFBD1FDCEFDD1FDCEFDF5
:10A98000D1FDCEFD9DFF49FF9DFF49FF4E02AE0167
:10A990004E02AE010A0426030A0426035A063805AD
:10A9A0005A0638054507EC054507EC05DF08520750
:10A9B000DF085207DF085207AE09EE07AE09EE07BF
:10A9C000730C7D0A730C7D0A7D0F4A0D7D0F4A0DB5
:10A9D0005B11E70E5B11E70EAF12F40FAF12F40F2D
:10A9E000A810A40DA810A40DA810A40D3311E90DF2
:10A9F0003311E90D8713FF0F8713FF0FA916F2120A
:10AA0000A916F212C016ED12C016ED12E6150E12BE
:10AA1000E6150E12E6150E12E1151D12E1151D12B6
:10AA2000F3145A11F3145A117014151170141511EE
:10AA300044133310441333106212A10F6212A10F9A
:10AA4000951221109512211095122110E413B011C6
:10AA5000E413B0119A1396119A139611C612DE10D0
:10AA6000C612DE108712A5108712A5103511460FE9
:10AA70003511460F27121D1027121D1027121D1009
:10AA8000D612A810D612A8100713B4100713B410CA
:10AA9000E2147012E2147012181592121815921224
:10AAA0003C14B0113C14B0113C14B0115F13DC1015
:10AAB0005F13DC105413E8105413E8102211D60E63
:10AAC0002211D60EEC0FC60DEC0FC60DE00FDF0DF8
:10AAD000E00FDF0DA50CC40AA50CC40AA50CC40A1E
:10AAE000370C6C0A370C6C0A7A0BBA097A0BBA0964
:10AAF000570B9709570B97090A0C400A0A0C400A92
:10AB0000B90AE108B90AE108BF0BD909BF0BD90995
:10AB1000BF0BD9096D0A7D086D0A7D088E0A9F0852
:10AB20008E0A9F0865098407650984078B07C60597
:10AB30008B07C605D2053604D2053604D205360485
:10AB40003702D1003702D10046021D0146021D0125
:10AB500020FF37FE20FF37FE08FE5FFD08FE5FFD89
:10AB60003DFDCCFC3DFDCCFCCCFA8DFACCFA8DFA47
:10AB7000CCFA8DFA71FA57FA71FA57FA74F976F934
:10AB800074F976F92DFA41FA2DFA41FA98FAB8FAE1
:10AB900098FAB8FAB3FAD9FAB3FAD9FAB3FAD9FAF1
:10ABA000E1F90CFAE1F90CFA0BF83CF80BF83CF877
:10ABB00052F78BF752F78BF7CBF50EF6CBF50EF677
:10ABC00033F582F533F582F52BF488F42BF488F411
:10ABD0002BF488F49FF209F39FF209F345F2B8F2DF
:10ABE00045F2B8F238F1B1F138F1B1F1F5F06FF1A9
:10ABF000F5F06FF1C2F036F1C2F036F1C6F032F185
:10AC0000C6F032F1C6F032F15AF0B9F05AF0B9F0AC
:10AC100020F071F020F071F04CF18FF14CF18FF1D8
:10AC200016F14CF116F14CF182F0ADF082F0ADF07E
:10AC300082F0ADF006F127F106F127F15AF072F03B
:10AC40005AF072F0EBF0FCF0EBF0FCF0C8F0D1F051
:10AC5000C8F0D1F087F185F187F185F1D4F1C4F125
:10AC6000D4F1C4F1D4F1C4F1D6F1B4F1D6F1B4F118
:10AC700040F305F340F305F34BF3F5F24BF3F5F234
:10AC80006CF5F6F46CF5F6F424F68AF524F68AF5FC
:10AC900005F947F805F947F805F947F8DBFAF7F938
:10ACA000DBFAF7F9F2FBE8FAF2FBE8FA46FE16FDEA
:10ACB00046FE16FD62FF0EFE62FF0EFE8E011400C0
:10ACC0008E0114008E011400A1020301A1020301F0
:10ACD00032046C0232046C02F7050A04F7050A0418
:10ACE000FF06E804FF06E80480093F0780093F07E4
:10ACF000FE0B9209FE0B9209FE0B9209CD0D370B4C
:10AD0000CD0D370B0410450D0410450DB012CB0FBF
:10AD1000B012CB0FC015B912C015B9129B1777141A
:10AD20009B1777143A1AFE163A1AFE163A1AFE16AE
:10AD30002C1DDC192C1DDC19D81E7A1BD81E7A1B81
:10AD4000BC20521DBC20521DFC22891FFC22891FE1
:10AD50006323E91F6323E91F6323E91F3625B82115
:10AD60003625B8219225122292251222F326742329
:10AD7000F3267423E6246A21E6246A211C23A91FF2
:10AD80001C23A91F1423AF1F1423AF1F1423AF1FAD
:10AD9000D21F821CD21F821CE21FAE1CE21FAE1CFF
:10ADA0006F1D5E1A6F1D5E1AA51EBD1BA51EBD1B65
:10ADB000401D851A401D851A031D771A031D771A39
:10ADC000031D771AFC1C9F1AFC1C9F1A221BF218E9
:10ADD000221BF218BE1BB819BE1BB819FD1B1B1A8B
:10ADE000FD1B1B1A151E501C151E501C151E501C39
:10ADF000F71C4A1BF71C4A1B151C791A151C791ADB
:10AE0000521BC219521BC2198319FC178319FC1754
:10AE10002218A2162218A216D7165E15D7165E158E
:10AE2000D7165E15B3164315B3164315C81563142C
:10AE3000C8156314A4134E12A4134E12B4126F114A
:10AE4000B4126F111110E30E1110E30EE20FCC0ECD
:10AE5000E20FCC0EE20FCC0E1310190F1310190FC6
:10AE6000C811EB10C811EB10441185104411851066
:10AE70006C10CB0F6C10CB0F3F10BD0F3F10BD0FF0
:10AE80003F10BD0FFA0E950EFA0E950E600D180DBF
:10AE9000600D180D8A0C5E0C8A0C5E0CD40DC30D6F
:10AEA000D40DC30D310C3A0C310C3A0C1B0B3E0B7C
:10AEB0001B0B3E0B1B0B3E0B340770073407700750
:10AEC0009005E5059005E5052C0199012C019901F6
:10AED000AD003301AD003301D3FE73FFD3FE73FF2A
:10AEE000D3FC8CFDD3FC8CFDD3FC8CFD22FAF4FA50
:10AEF00022FAF4FA42F72DF842F72DF866F768F8CF
:10AF000066F768F8DBF3F3F4DBF3F3F473F59DF61F
:10AF100073F59DF673F59DF654F48DF554F48DF5A7
:10AF200077F5B9F677F5B9F6DAF120F3DAF120F32F
:10AF300011F055F111F055F1E1EE1CF0E1EE1CF0CD
:10AF400052EC81ED52EC81ED52EC81ED76EC94ED1A
:10AF500076EC94ED79EA85EB79EA85EB57EA50EBEC
:10AF600057EA50EBF1E9DBEAF1E9DBEA03EBE0EB6E
:10AF700003EBE0EBCEECA3EDCEECA3EDCEECA3ED3A
:10AF800056EC2BED56EC2BED66EC40ED66EC40ED0F
:10AF90006FED54EE6FED54EE66EE5BEF66EE5BEF39
:10AFA000FCEF04F1FCEF04F1FCEF04F173F091F11C
:10AFB00073F091F184F1B8F284F1B8F253F09CF19E
:10AFC00053F09CF1C5F021F2C5F021F2C2F030F24D
:10AFD000C2F030F2D5F152F3D5F152F3D5F152F37C
:10AFE000E6F170F3E6F170F303F499F503F499F5E3
:10AFF0005FF402F65FF402F6DDF28CF4DDF28CF41D
:10B00000A1F15EF3A1F15EF3B9F184F3B9F184F338
:10B01000B9F184F3A1F37CF5A1F37CF5DDF2C8F47A
:10B02000DDF2C8F43BF436F63BF436F6E3F3EDF527
:10B03000E3F3EDF586F69EF886F69EF886F69EF822
:10B040001DF540F71DF540F77AF4A7F67AF4A7F658
:10B0500018F34CF518F34CF528F362F528F362F574
:10B0600016F657F816F657F88AF6D1F88AF6D1F898
:10B070008AF6D1F8D4F323F6D4F323F6EDF045F3B2
:10B08000EDF045F34BF0ADF24BF0ADF280F1EDF3A6
:10B0900080F1EDF34EF1C8F34EF1C8F34EF1C8F371
:10B0A0004BF0D1F24BF0D1F240F1D0F340F1D0F3BC
:10B0B00052EEEBF052EEEBF035EFD4F135EFD4F188
:10B0C00019EDBEEF19EDBEEFC6EE6EF1C6EE6EF1F4
:10B0D000C6EE6EF164F00FF364F00FF300F3AEF51B
:10B0E00000F3AEF515F3C8F515F3C8F5FFEFB9F2A7
:10B0F000FFEFB9F240EF04F240EF04F21FF0EFF27D
:10B100001FF0EFF21FF0EFF2C3F2A3F5C3F2A3F5C5
:10B110009BF18BF49BF18BF477F17AF477F17AF46D
:10B12000DDEFF1F2DDEFF1F28EEEB1F18EEEB1F185
:10B130008EEEB1F115ED45F015ED45F0BDECF7EFF4
:10B14000BDECF7EF8EEACFED8EEACFEDB0EBF5EE8A
:10B15000B0EBF5EE1EED65F01EED65F082EFCAF284
:10B1600082EFCAF282EFCAF286ECD0EF86ECD0EF23
:10B1700081EBCDEE81EBCDEE27ED76F027ED76F08D
:10B180002CED7FF02CED7FF009F15EF409F15EF417
:10B19000A7EFFEF2A7EFFEF2A7EFFEF2C0F116F561
:10B1A000C0F116F567F2B7F567F2B7F50FF354F68D
:10B1B0000FF354F67BF2B0F57BF2B0F591F1B1F4F8
:10B1C00091F1B1F491F1B1F4A0F3A7F6A0F3A7F6D1
:10B1D0009BF387F69BF387F64DF41DF74DF41DF7AF
:10B1E000A4F25AF5A4F25AF5F1EF90F2F1EF90F2D1
:10B1F000D9EE67F1D9EE67F1D9EE67F131EDB1EF34
:10B2000031EDB1EF8DED04F08DED04F037EAA7ECF0
:10B2100037EAA7EC6DEBD6ED6DEBD6EDFDEC5CEF10
:10B22000FDEC5CEF5EEDAFEF5EEDAFEF5EEDAFEF2F
:10B230007CEBB8ED7CEBB8ED3DE75BE93DE75BE926
:10B24000FFE6F7E8FFE6F7E861E52CE761E52CE7C4
:10B250001BE7B4E81BE7B4E81BE7B4E82DE58FE68D
:10B260002DE58FE6E1E50DE7E1E50DE7E3E5DCE659
:10B27000E3E5DCE6DDE8A7E9DDE8A7E9D4E775E882
:10B28000D4E775E858E6D5E658E6D5E658E6D5E6BB
:10B2900017E775E717E775E73BE97EE93BE97EE9E4
:10B2A00020EE47EE20EE47EE55EF5DEF55EF5DEFF8
:10B2B000B3F197F1B3F197F136F1EFF036F1EFF02A
:10B2C00036F1EFF075F4FCF375F4FCF317F663F563
:10B2D00017F663F553F860F753F860F722F8ECF6C9
:10B2E00022F8ECF684FC0CFB84FC0CFB84FC0CFBCD
:10B2F00073FFBDFD73FFBDFDDEFEF2FCDEFEF2FC62
:10B30000690152FF690152FFBA0184FFBA0184FF4B
:10B31000B7046E02B7046E028C063D048C063D0431
:10B320008C063D0467061A0467061A041008CC054B
:10B330001008CC0595075F0595075F05500A28089A
:10B34000500A28088A0B6F098A0B6F097E0A6C085D
:10B350007E0A6C087E0A6C08440E370C440E370CCB
:10B360003B0B2F093B0B2F09260C180A260C180A39
:10B37000B409A107B409A10769085306690853066F
:10B380006908530674085A0674085A0687096D0737
:10B3900087096D07710D5A0B710D5A0B650D530B13
:10B3A000650D530BEF0FE50DEF0FE50DBC10BB0E58
:10B3B000BC10BB0EBC10BB0EAD12B510AD12B5105B
:10B3C000D013E011D013E011E213F811E213F811D9
:10B3D00061157A1361157A133816521438165214FF
:10B3E00084179C1584179C1584179C15CB18E016A0
:10B3F000CB18E01677178A1577178A151E1931179B
:10B400001E1931170C1B21190C1B2119571C721AFC
:10B41000571C721A571C721A481C6C1A481C6C1A5A
:10B420006E1D9F1B6E1D9F1BED1D301CED1D301CE6
:10B43000B81F0F1EB81F0F1E671ED41C671ED41C1A
:10B44000BC1A4019BC1A4019BC1A40196017FC15E7
:10B450006017FC15F417A816F417A816711B3C1AF0
:10B46000711B3C1AC217A416C217A4162919241856
:10B470002919241815182917151829171518291707
:10B480009317C0169317C016A316EB15A316EB154A
:10B490004115A3144115A314F7147514F71475146A
:10B4A000F0148914F0148914F0148914E8149A140F
:10B4B000E8149A140A15D4140A15D41441111E1153
:10B4C00041111E11360C240C360C240C3A0B340B93
:10B4D0003A0B340B730A750A730A750A730A750AF4
:10B4E0008E0A950A8E0A950A7E0687067E068706CC
:10B4F000FE030804FE030804D8FFE0FFD8FFE0FFC6
:10B50000AFFEB6FEAFFEB6FEE5FDE9FDE5FDE9FDE9
:10B51000E5FDE9FDE9FCECFCE9FCECFCFDFCFDFCD7
:10B52000FDFCFDFC87FE83FE87FE83FE25FE1CFEE0
:10B5300025FE1CFE0DFCFDFB0DFCFDFB0DFCFDFBCB
:10B5400080FB65FB80FB65FB76F94DF976F94DF9DB
:10B5500058F91CF958F91CF98BFA3AFA8BFA3AFAAD
:10B5600075F90BF975F90BF9EEF768F7EEF768F76F
:10B57000EEF768F7CAF826F8CAF826F85FF89CF7DD
:10B580005FF89CF72AF846F72AF846F7D7F7D4F67B
:10B59000D7F7D4F64CFA29F94CFA29F94CFA29F9DB
:10B5A000A5F962F8A5F962F8ADFA4BF9ADFA4BF9D5
:10B5B00086FA04F986FA04F9E2F940F8E2F940F86B
:10B5C00072F9B1F772F9B1F7F9FA18F9F9FA18F94D
:10B5D000F9FA18F93EFF3BFD3EFF3BFDCEFFA9FD0A
:10B5E000CEFFA9FD1102CBFF1102CBFF1F03B80054
:10B5F0001F03B800A6042002A604200212066D0351
:10B6000012066D0312066D031A0759041A0759042E
:10B610008C09B2068C09B206B50BC308B50BC3087A
:10B620003B0C35093B0C3509900D780A900D780AD2
:10B63000900D780A770D500A770D500A5B12260F8D
:10B640005B12260FF313B310F313B31076152B12FE
:10B6500076152B1260180D1560180D15AF195316BD
:10B66000AF195316AF195316791B1718791B1718F2
:10B670000D1BA6170D1BA617751A0A17751A0A17A0
:10B680004E18E1144E18E114E3197616E3197616F4
:10B69000EE198216EE198216EE198216C01B581882
:10B6A000C01B58184D19EA154D19EA155A18FF1400
:10B6B0005A18FF140E19BE150E19BE150617C2131F
:10B6C0000617C2130617C2139B1766149B1766143E
:10B6D00061173D1461173D14441734144417341492
:10B6E0000C1710140C17101402161E1302161E133A
:10B6F000BB16F113BB16F113BB16F1135314A411AF
:10B700005314A411B0131F11B0131F11F515821398
:10B71000F5158213DD148B12DD148B12A916771424
:10B72000A91677144014311240143112401431120A
:10B73000DE11F10FDE11F10F4010770E4010770E81
:10B74000C70E220DC70E220D970C160B970C160B69
:10B75000DA0B7E0ADA0B7E0ADA0B7E0A8E0C580BA5
:10B760008E0C580B920C810B920C810BAD0BC10A05
:10B77000AD0BC10A3C0C760B3C0C760B480BA80AAF
:10B78000480BA80AE30B690BE30B690BE30B690B8E
:10B79000330EDE0D330EDE0D0C0EDC0D0C0EDC0D4B
:10B7A000480F3C0F480F3C0F4D0B650B4D0B650BC5
:10B7B0003D0C780C3D0C780C750AD10A750AD10A3B
:10B7C000750AD10AB7083309B70833091909B4094A
:10B7D0001909B4095F0819095F0819099B0772085C
:10B7E0009B077208C504B905C504B905C504B905A8
:10B7F000DC00EB01DC00EB012DFD56FE2DFD56FEBD
:10B8000019FB5CFC19FB5CFCA7FA03FCA7FA03FC20
:10B8100004FA77FB04FA77FBB5F83EFAB5F83EFA7E
:10B82000B5F83EFA06FBA4FC06FBA4FC7EF730F953
:10B830007EF730F932F5F6F632F5F6F6B1F385F526
:10B84000B1F385F580F064F280F064F23DEF2EF103
:10B850003DEF2EF13DEF2EF1E2EEDFF0E2EEDFF014
:10B8600026ED2EEF26ED2EEF14ED25EF14ED25EF4E
:10B8700013EE2CF013EE2CF09AEEBAF09AEEBAF02A
:10B880009AEEBAF0AAECD1EEAAECD1EEECEA17ED02
:10B89000ECEA17EDCCEBFCEDCCEBFCEDC3EBF7EDFC
:10B8A000C3EBF7ED3EEE75F03EEE75F0F5EE2EF1E2
:10B8B000F5EE2EF1F5EE2EF108EE44F008EE44F030
:10B8C00024EB61ED24EB61ED45E983EB45E983EB86
:10B8D0004EEA8DEC4EEA8DECB5EBF4EDB5EBF4ED04
:10B8E000EFEA2EEDEFEA2EEDEFEA2EED04ED42EF5A
:10B8F00004ED42EF69ECA7EE69ECA7EE09ED45EF28
:10B9000009ED45EFBDEEF9F0BDEEF9F05EEE99F010
:10B910005EEE99F05EEE99F043ED7EEF43ED7EEF43
:10B9200057EC92EE57EC92EEB2EEEEF0B2EEEEF095
:10B9300037ED74EF37ED74EF08ED46EF08ED46EFA5
:10B94000BCEBFCEDBCEBFCEDBCEBFCED08EC4BEE1A
:10B9500008EC4BEEB5EDFBEFB5EDFBEFA0EEEAF03A
:10B96000A0EEEAF0F9EE47F1F9EE47F1EEED41F025
:10B97000EEED41F09FECF6EE9FECF6EE9FECF6EE6E
:10B98000A5EC01EFA5EC01EF7BEADCEC7BEADCEC5B
:10B9900045EBACED45EBACED61ECCFEE61ECCFEE01
:10B9A0008FED03F08FED03F08FED03F066EDE0EF28
:10B9B00066EDE0EF03EC84EE03EC84EE81ED09F03C
:10B9C00081ED09F0CAEC59EFCAEC59EFF0EF86F2BD
:10B9D000F0EF86F278EF15F278EF15F278EF15F2C6
:10B9E000CEF072F3CEF072F31EEFC9F11EEFC9F183
:10B9F0004EF0FFF24EF0FFF2FDEFB5F2FDEFB5F2C3
:10BA000017F0D5F217F0D5F2AFF373F6AFF373F684
:10BA1000AFF373F6CEF197F4CEF197F419F5E7F79B
:10BA200019F5E7F745F518F845F518F822F5FAF78E
:10BA300022F5FAF745F420F745F420F745F420F70E
:10BA4000FFF2DEF5FFF2DEF56CF34DF66CF34DF62A
:10BA5000FEF4E2F7FEF4E2F71EF803FB1EF803FB28
:10BA600040F927FC40F927FCD5F8BCFBD5F8BCFB16
:10BA7000D5F8BCFB50F837FB50F837FBB7F89DFB07
:10BA8000B7F89DFB0CFBF0FD0CFBF0FD36FC17FF3F
:10BA900036FC17FF97FE750197FE750197FE75013D
:10BAA00075FD4E0075FD4E00D7FDAB00D7FDAB0018
:10BAB00011FEDF0011FEDF0067FD2E0067FD2E0086
:10BAC000CDFF8C02CDFF8C025DFF14025DFF1402DE
:10BAD0005DFF14021502C1041502C104A9014B0443
:10BAE000A9014B04AF024605AF024605F3017D04F0
:10BAF000F3017D04B0FD2D00B0FD2D00F6FA64FDCC
:10BB0000F6FA64FDF6FA64FD68F9C7FB68F9C7FB4D
:10BB1000E2F831FBE2F831FB69F8A7FA69F8A7FA15
:10BB2000A1F7CCF9A1F7CCF91FF737F91FF737F9CF
:10BB30001FF737F931F535F731F535F799F588F70E
:10BB400099F588F7E5F3BEF5E5F3BEF586F048F222
:10BB500086F048F212F0BDF112F0BDF11CEFAEF02C
:10BB60001CEFAEF01CEFAEF008F181F208F181F2AB
:10BB700028EF87F028EF87F07EEEC2EF7EEEC2EF6F
:10BB8000F5ED1FEFF5ED1FEF59EF67F059EF67F097
:10BB900086EF77F086EF77F086EF77F0CDF0A1F1C2
:10BBA000CDF0A1F130F2E7F230F2E7F2C9F362F43E
:10BBB000C9F362F43AF4B5F43AF4B5F408F365F372
:10BBC00008F365F308F365F3A3F4E1F4A3F4E1F4F7
:10BBD0008FF5AFF58FF5AFF50BF90DF90BF90DF901
:10BBE000F0F7D3F7F0F7D3F722FAE8F922FAE8F9F9
:10BBF000E2FA89FAE2FA89FAE2FA89FA2FFBB9FA4B
:10BC00002FFBB9FAFBFD69FDFBFD69FD060058FF3E
:10BC1000060058FF06013C0006013C00540170007C
:10BC2000540170002401260024012600240126006E
:10BC3000F600E0FFF600E0FFEE01C100EE01C100FA
:10BC400070032E0270032E023D05E7033D05E70356
:10BC50005A04F1025A04F1025A04F102A4052B0419
:10BC6000A4052B04A8051F04A8051F04A6040F03A0
:10BC7000A6040F03B4031102B40311029901EDFFEE
:10BC80009901EDFF080154FF080154FF080154FF1A
:10BC90009701DEFF9701DEFF470189FF470189FF1A
:10BCA000B302F400B302F400B102F200B102F200F8
:10BCB0005304960253049602C5050C04C5050C04F2
:10BCC000C5050C045706A5045706A50439088F06B8
:10BCD00039088F06880AE808880AE808310B9D09A8
:10BCE000310B9D09270BA109270BA109270BA109DE
:10BCF000930C1C0B930C1C0B720C0C0B720C0C0B8E
:10BD0000B10D5D0CB10D5D0CE90DA90CE90DA90C8F
:10BD1000890E5E0D890E5E0D500F3B0E500F3B0ECF
:10BD2000500F3B0EAA13AC12AA13AC122A154314DF
:10BD30002A15431427155814271558147013BA12CE
:10BD40007013BA120A126C110A126C114F12CB1135
:10BD50004F12CB114F12CB11C5115911C5115911E9
:10BD60007B1228127B1228129C1160119C11601109
:10BD7000BC129712BC1297127A136C137A136C13BD
:10BD80007A136C134C1353134C135313CB12E61248
:10BD9000CB12E612C412F212C412F2124B118A1123
:10BDA0004B118A110713561307135613B4111112AE
:10BDB000B4111112B41111125D10C6105D10C6102D
:10BDC000FC0E6F0FFC0E6F0F120D8D0D120D8D0DF1
:10BDD0000C0D8C0D0C0D8C0D850B090C850B090CB5
:10BDE000500AD50A500AD50A500AD50A2D08B108BA
:10BDF0002D08B1084A05CA054A05CA05E6006101D1
:10BE0000E600610161FFD3FF61FFD3FF4EFDB4FD8A
:10BE10004EFDB4FD4EFDB4FDE9FD42FEE9FD42FEDE
:10BE2000B6FE00FFB6FE00FF62FF9AFF62FF9AFFB8
:10BE3000BDFEE0FEBDFEE0FE78FB86FB78FB86FBE8
:10BE40004AFA40FA4AFA40FA4AFA40FAE9F9C4F9D9
:10BE5000E9F9C4F900FABFF900FABFF9ACF94DF9F4
:10BE6000ACF94DF96BF8EDF76BF8EDF7F6F757F71E
