:400000000080002011000000CD010000CD01000008B5044B1A6803F53F5302331A6000F0D7F800BFFA46004010B5054C237833B9044B13B10448AFF300800123237010BD0C
:400040005082FF1F00000000A0110000084B10B51BB108480849AFF300800848036803B910BD074B002BFBD0BDE81040184700BF00000000A01100005482FF1F0881FF1F4D
:40008000000000002DE9F0410120014641F6FF724FF4804300F05CFBDFF8988088F800000120014641F6FF724FF4804300F06EFB1C4F387000F0FAFA1B4D287000F0F6FAE7
:4000C0001A4C20702A7810466021012300F008FB227810466021012300F002FB144E2878B1B246F2414200F00FFB06F16001207889B246F2514200F007FB98F800002978C5
:4001000000F0A4FA3878217800F0A0FA98F80000012100F053FA3878012100F04FFABDE8F08100BF7D82FF1F8882FF1F8482FF1F0C81FF1F8582FF1F62B6002305E0002115
:400140001E4A22F8131001339BB2B3F5806FF6D370B584B0FFF796FF00F0E2F900F0ACFB00F0B8FB00F0EAF940F6B83000F0DAFA00F048FB00241CE0104B33F81420D6B2C6
:400180000F4D68462946120A00F0F2FB02A82946324600F0EDFB684600F04EFB094800F04BFB02A800F048FB074800F045FB0134A4B2B4F5806FDFD3FEE700BF8C82FF1FF5
:4001C000A4110000AC110000B0110000FEE700BF08B5114B114D16E029686B68AC68002204E008681860043204330431A242F8D1E868002203E000211960043204338242E6
:40020000F9D1103533465E1E002BE5D100F076FBFFF792FFFEE700BF010000005812000008B5134A134B1A60134A136843F40073136000230AE0032B03D8104A52F823100E
:4002400000E00F490F4A42F8231001332F2BF2D90D4B1A780D4B1A700A4A0D4B1A6000F0B5F800F091F900220A4B1A6008BD00BF0004FA050CED00E014ED00E000000000EC
:40028000CD0100000080FF1FBC7600400481FF1F08ED00E00081FF1FFEE700BFF0B40022174611E050F82760F3B226F0FF0608E001EB420511F812406D78A5550132013B3E
:4002C000DBB2002BF4D10137112FEBD9F0BC7047064B1B78DBB203F00701054A11701B09013213704422034B1A707047CF0100496E5800407658004008B50A46002100F08C
:400300002EFB08BD38B51722254B1A80192502331D7002331D8002331D70062203F27A231A705222A3F580731A701E4B1B78DBB21D4A13704FF4E1621C4B1A8041F251229E
:40034000023B1A8000240CE0194B1B7803F0010343EA440404F003044FF4F07000F004F9013D0DB1032CEFD115B90320FFF794FF104A4FF4807313800723137000230E49F9
:400380000B7048200231087013700532137002220A4B1A700A4A137843F00303137038BD804000400F010049A1460040224200402542004004400040064000400140004089
:4003C000A243004008B500F0BFFA08BD70B572B6344A137843F00403137000240CE0324963001A1952000A4423445B00C8589188FFF782FF0134E4B2092CF0D900240BE08F
:400400002949A3001A1952000A44D06B116C8022FFF7D8FF0134E4B2002CF1D04FF090402249FFF73BFF22480421FFF765FF21480421FFF761FF204A137843F002031370CE
:400440001032137843F0020313701C4C237843F040032370A2F58632513A137843F010031370174817490822FFF7ACFF164817490A22FFF7A7FF164A137843F008031370FE
:40048000144E01253570FFF73DFF81233370124B1D70FFF71DFF114821460E22FFF792FF70BD00BFE8460040B411000048000048007600400876004003500140A043004049
:4004C00042510040B404004850510040BC040048224300400048004004000840B043004008B500F049F8064A137843F02003137000F046F8034A137843F00403137008BD6A
:400500009064004071640040044B1A7802F0F8021A701A78D2B21A70704700BF8164004008B5054B1B7823B9FFF7EEFF0122024B1A70FFF7D5FF08BD6C82FF1F08B500F03F
:400540001BF8064A137843F01003137000F018F8034A137843F00103137008BD9164004071640040000000000230800803D000BF01380046FCD17047EFF3108072B6704783
:4005800080F31088704700BF0B4A7F2313708021517007E0DA0002F1804202F5F042013BDBB21370002BF5D1DB0003F1804303F5F04300221A707047CC81FF1F172815D84B
:4005C00031B103010A495A5C42F020025A5405E0030107495A5C02F0DF025A540001044A835C43F00103835400207047012070471070004017280BD80001064A835C03F0AA
:40060000F10301F0070143EA4101815400207047012070471070004041F6FF73994201D14FF4005141F6FF739A4201D14FF40052172808D8C00000F1804000F5EC40818092
:40064000C280002070470120704700BF172805D8034B03EB0010417200207047012070471070004017281BD810B4C00000F1804404F5EC44D201D2B201F07F0111432170FF
:400680009DF804201201D2B203F00F03134363709DF8083003F00F03A3700020E07001E0012070475DF8044B704700BF10B5FFF763FF0A4B5B78182B0BD9084A1478013B0E
:4006C0005370E30003F1804303F5F0431B78137000E0FF24FFF754FF204610BDCC81FF1F10F0800F0CD111F4704F0BD1C00000F1804000F5F04001808270C3700020704753
:40070000012070470120704710F0800F08D1C00000F1804000F5F0408180C280002070470120704710B5044605E0084B1868FFF71BFFA4F50044B4F5004FF6D8034B586891
:4007400000FB04F0FFF710FF10BD00BFD481FF1FF0B583B086460F4616461D460A4C0023237000930193184671463A46FFF77AFF207831462A46FFF74FFF20780221FFF723
:4007800039FF207803B0F0BDE481FF1FF0B583B086460F4616461D460A4C0120207000230093019371463A46FFF75CFF207831462A46FFF731FF20780221FFF71BFF2078ED
:4007C00003B0F0BDE581FF1F0622044B1A70472210331A70002250331A7070472564004010B5FFF7C9FE0446054A137843F01003137000F033F82046FFF7C2FE10BD00BFFD
:400800009564004008B5054B1B7823B9FFF7DCFF0122024B1A70FFF7E3FF08BD6D82FF1F034B1B7813F0040FFAD1024B18707047656400404464004038B5074B1B782BB999
:4008400038BDFFF7EDFF0134A4B201E005460024285D0028F5D138BD6D82FF1F054A137843F0020313701032137843F002031370704700BFA243004008B5FFF77DFE064A1B
:40088000137843F020031370FFF77AFE034A137843F00403137008BD9364004074640040044B1A7802F0F8021A701A7842F006021A7070478264004008B5054B1B7823B9B7
:4008C000FFF7EEFF0122024B1A70FFF7D5FF08BD6F82FF1F08B5FFF74FFE064A137843F010031370FFF74CFE034A137843F00203137008BD92640040746400400E4B70B575
:400900001E460E4C0025E41AA410A54204D056F8253098470135F8E700F08CFC084B094C1E46E41AA4100025A54204D056F8253098470135F8E770BD401200004012000052
:40094000401200004812000010B5431E0A44914204D011F8014B03F8014FF8E710BD03460244934202D003F8011BFAE7704700000EB400B54FF402719CB0ADF814106FF0DE
:400980000041049107914FF6FF711DABADF81610084953F8042B02900690086802A9019300F064F8029B00221A701CB05DF804EB03B070474882FF1F2DE9F0478E688246DD
:4009C000B3420C469046994640D38A8912F4906F3AD02568096902236F1A656905EB450595FBF3F57B1C4B449D4238BF1D4653050FD5294600F030FB064698B121693A46D5
:400A0000FFF7A2FFA38923F4906343F08003A38113E02A4600F076FB064670B95046216900F0D6FA0C23CAF80030A3894FF0FF3043F04003A381BDE8F08726613E442660F6
:400A40004E466561ED1BA560B14500D24E4632462068414600F0A0FAA36800209B1BA36023681E442660BDE8F08700002DE9F0439DB003938B8906461C060D4690460CD577
:400A80000B6953B9402100F0E7FA2860286110B90C233360CCE040236B610023099320238DF8293030238DF82A3043461C4613F8012B1AB9B4EB08090FD002E0252AF5D180
:400AC000F8E73046294642464B46FFF775FF013000F0A980099B4B4409932378002B00F0A28000234FF0FF3204930793059206938DF853301A9304F101084446DFF84891DD
:400B000021784846052200F039FA08F10108049B30B1C9EB00000122824013430493ECE7D80644BF20228DF85320190744BF2B228DF8532022782A2A02D0079923460EE02F
:400B4000039A0134111D12680391002ABBBF524243F0020307920792B8BF04930AE01C4622780133303A092A03D80A2000FB0121F5E7079123782E2B1AD163782A2B0AD180
:400B8000039B02341A1D1B680392002BB8BF4FF0FF3305930CE0611C00220C4623780131303B092B03D80A2000FB0232F5E70592DFF8988021784046032200F0DFF938B193
:400BC000049AC8EB00004023834013430493013421781A48062204F101088DF8281000F0CDF988B1164B33B9039B073323F007030833039313E003AB0093304604A92A46B5
:400C0000104BAFF3008007E003AB0093304604A92A460C4B00F092F8421C074603D0099B3B44099341E7AB895B0601D4099801E04FF0FF301DB0BDE8F08300BF081200002E
:400C400000000000B9090000FE110000041200002DE9F84391461F468A680B6906469342B8BF1346C9F8003091F843200C46DDF8208012B10133C9F800302368990642BFF2
:400C8000D9F800300233C9F80030256815F006051CD094F843302268003318BF012392061FD5E118302081F843005A1C94F845102244023382F8431013E03046394604F1A0
:400CC00019020123C047013007D00135E368D9F800209B1A9D42F0DBDBE74FF0FF30BDE8F8833046394604F14302C0470130F4D02268D9F80050E36802F00602042A08BF75
:400D00005D1B2269A3680CBF25EAE57500259342C4BF9B1AED184FF00009A9450ADA3046394604F11A020123C0470130D5D009F10109F2E70020BDE8F88300002DE9FF41A6
:400D40000C461746227E98466E2A06460A9B01F1430100F0B08012D8632A23D00AD8002A00F0BD80582A40F0CC8084F84520DFF804E257E0642A1ED0692A1CD0C1E0732AB8
:400D800000F0B18009D86F2A2ED0702A40F0B980226842F0200222603FE0752A24D0782A3BD0AEE01A6804F14205111D1960136884F84230A9E020681A6810F0800F02D088
:400DC000101D186008E010F0400F02F10400186002D0B2F9003000E01368002B3EDA2D225B4284F8432039E020681A6810F0800F02D0101D186007E010F0400F02F104003C
:400E0000186001D0138800E01368227EDFF864E16F2A0CBF08220A221CE07822DFF858E184F845202268186812F0800F00F104051D6003D1550601D5038800E00368D007B2
:400E400044BF42F0200222601BB9226822F0200222601022002084F8430002E0DFF814E10A226568002DA8BF2068A560A4BF20F00400206003B965B10D46B3FBF2F002FB03
:400E800010331EF8033005F8013D03460028F4D100E00D46082A0BD12368DA0708D5236962689A42DEBF302305F8013C05F1FF35491B21612EE025681A6815F0800F6069C5
:400EC00003D0151D1D60136808E015F0400F02F104051D60136801D0188000E01860002323610D4616E01A68111D1960156800212846626800F042F808B1401B606063684C
:400F000004E004F1420584F8422001232361002384F84330CDF800803046214603AA3B46FFF796FE013002D14FF0FF301FE0304639462A462369C0470130F5D023689B0793
:400F400005D4E068039B9842B8BF18460FE00025E368039A9B1A9D42F3DA3046394604F119020123C0470130DED00135F0E704B0BDE8F0810F1200002012000010B5C9B22D
:400F800002449042034605D01C7801308C42F8D1184610BD002010BD814210B501EB020301D3421E0BE09842FBD28118D21AD34204D013F8014D01F8014DF8E710BD9942B3
:400FC00004D011F8014B02F8014FF8E710BD000030B500293CD051F8042C0B1F1D49002AB8BF9B180A680C4612B95A600B6030BD93420DD219685818904201BF5A58521867
:401000001A60426823605A6030BD994203D80A4651680029F9D1146815199D420AD11B682344D0188842136012D10868034413604B680CE002D90C23036030BD1C68181982
:40104000884201BF08684968001918605960536030BD00BF7482FF1F70B5CC1C24F0030408340C2C38BF0C24002C064603DA0C233360002070BD8C42F9D3204A136810460C
:401080001946A1B10A68121B0ED40B2A03D90A608B188C501FE08B420BBF5A684A6802605A6018BF0B4616E00B464968E9E7144D2B681BB9304600F04BF828603046214618
:4010C00000F046F8421C0346D1D0C51C25F0030585420AD11C6003F10B001A1D20F00700821A0AD05142995070BD3046E91A00F02FF80130BBD02B46ECE770BD7482FF1F21
:401100007082FF1FF8B5074615460E4621B91146BDE8F840FFF7A0BF1AB9FFF759FF2846F8BD00F025F8A8420ED238462946FFF793FF044650B131462A46FFF705FC38465C
:401140003146FFF745FF01E03046F8BD2046F8BD38B5064C002305460846236000F012F8431C02D1236803B12B6038BD8C8AFF1F51F8040C0028BEBF091851F8043CC0187A
:4011800004387047044A05491368002B08BF0B4618441060184670477882FF1F908AFF1F0000000025303258000000002C2000000A0D00000051004040006051004010009D
:4011C000C05100401000F0510040100000000140800000010140000F00140140000800400140000A004C014000020050014020008000014034040048800000004300232D6F
:40120000302B2000686C4C006566674546470030313233343536373839414243444546003031323334353637383961626364656600000000F8B500BFF8BC08BC9E4670478C
:401240004D00000021020000F8B500BFF8BC08BC9E46704729000000681200000881FF1F4801000040080000000000000000FFFFFFFFFFFFFFFFFFFFFFFFFFFFFFFFFFFFB6
:40128000FFFFFFFFFFFFFFFFFFFFFFFFFFFFFFFFFFFFFFFFFFFFFFFFFFFFFFFFFFFF000000000000000000000000000000000000000000000000000000000000000000004C
:4012C0000000000000000000000000000000FFFFFFFFFFFFFFFFFFFFFFFFFFFFFFFFFFFFFFFFFFFFFFFFFFFFFFFFFFFFFFFFFFFFFFFFFFFFFFFFFFFFFFFFFFFFFFFF00001E
:4013000000000000000000000000000000000000000000000000000000000000000000000000000000000000000000007F800000030000000000E02EC05D00001800000068
:4013400000366E01FFFF00000000000000000000000000000000000000000000000000000000000000000000FC1100000000000000000000000000000000000000000000BD
:4013800000000000000000000000000000000000000000000000000000000000000000000000000000000000E881FF1F0000000000000000000000000000000000000000A6
:4013C00000000000000000000000000000000000000000000000000000000000000000000000000000000000000000000000000000000000000000000000000000000000ED
:4014000000000000000000000000000000000000000000000000000000000000000000000000000000000000000000000000000000000000000000000000000000000000AC
:40144000000000000000000000000000000000000000000000000000000000000000000000000000000000000000000000000000000000000000000000000000000000006C
:40148000000000000000000000000000000000000000000000000000000000000000000000000000000000000000000000000000000000000000000000000000000000002C
:020000040003F7
:0200000480007A
:4000000004520040036400402C00014047010140560201404F0301406804014041050140010B0140104001400F410140014201400246014001470140014C0140034D014009
:4000400003500140025101402013211A28012901803F833F850F000101FF022004010510068007C009C00B200D800EFE0F40120113BF16FE174018011A401B3F1CFF1D08BF
:400080001FC02001221024012502260827C0280129C02A042B012C012D042E022FC031FF36FF56025724580459045B045F0100080181040205100602072009440A480D187C
:4000C0000F82100A130A1501171819801B401C401D381E021F18220225402688272029402A282D802E022F183202336435023688371039543B013C083D013E4045284D0A06
:400100004E084F0256865C605D08600464206604680669216A086B116D086E407008730A7C047D088D40C0FDC2FFC47FCAFECCFFCEDFD060D220D670D804E2400208050182
:4001400008100C040E08101016041E02220128202C012E023020320C34103603370154015604580459045B045F01821B84BF86408701880989018A128E1F930F941B95033A
:4001800096A4970498DB9A249B089C119E0A9F01A504A61BA702A81BB060B207B41CB50FB680B920C026C103C214C405C50FC6EDC70CC81DC9FFCAFFCBFFCC02CD20CF05ED
:4001C000D004D602D724D804D904DA04DB04DF01E240E301E440E501E650E701E840E901EA70EB10EC40ED10000401200202034005200688070109800A100B040D020E222C
:400200001114140815401702184419051A131B101C021D021E2A20082210230424022B103104321233403620372039143D084044421148054908504452205D085F606008A4
:40024000660169546B4071C07228820186108E049402955497019A809B019D409E289F44A104A202A720A908AA04AF01B601C0DFC2B7C4D6CA02CC0FCE46D00FD20CD670A0
:40028000D884E240EA10001002AC0304060307090C0C0E710F1213121410164017071A201C091ED0230928DC2A222C143118341F36E037073A803F014012410545E046C0BD
:4002C00047B0482A49FF4AFF4BFF4EF04F44500C5206580459045A045B045C015D015F0166C06A406B028040840A8580861487138C138E04930C9420992C9A159B439C135B
:400300009E0CA171A208A306A803AA14AB08AD71AF0EB010B130B220B30FB440B60FB7C0B982BA80BB08BE15BF01C001C704C9FFCA07CBFFCC40CD20CEF0CF05D008D40160
:40034000D804D904DA04DB04DC11DD11DF01E040E1A8E240E3200004018003800582071009640E020F281002120815301702180419801B101E4A1F8423412540260827523F
:4003800029012D802F8832013304371238883B013F0841204380474049824F0850025110552457085D125E4869046B047C087D047F208B0490889202974199019C089F04D8
:4003C000A720B302C0BDC2E7C453CAB1CCA3CE4BD01CD208D6F0E820E0800F4033103B023E10500456105701591066028D10C220CC10CE60D4E0D620D880831087018E0217
:4004000093409E029F10A701AA10AB01AE10B404E220E610EAC0EE20B3408A10E001A210A2105E20A210D604000308010A03000310050000800000013D00400135004800DD
:4004400000000870020000400860540800002101000010100000212081442022002321440000000F1800070F6600807000080000000001006203000000DF0BCE37FFFFFFFF
:4004800000000000040005000100000004040404000000010000C0004001800030004010100040A800000000000000000000000000000000201F1F001F00000001000001A9
:4004C00001000100000000000000000000000000000000000000000000000000000000000000000000000000000000000000000000000000000000000000000000000000FA
:4005000000000000000000000000000000000000000000000000000000000000000000000000000000000000000000000000000000000000000000000000000000000000BB
:40054000000000000000000000000000000000000000000000000000000000000000000000000000000000000000000000000000000000000000000000000000000000007B
:40058000000000000000000000000000000000000000000000000000000000000000000000000000000000000000000000000000000000000000000000000000000000003B
:4005C00000000000000000000000000000000000000000000000000000000000000000000000000000000000000000000000000000000000000000000000000000000000FB
:0200000490006A
:0400000000004005B7
:0200000490105A
:04000000BC90ACAF55
:0200000490303A
:02000000705D31
:0200000490402A
:4000000000000000000000000000000000000000000000000000000000000000000000000000000000000000000000000000000000000000000000000000000000000000C0
:400040000000000000000000000000000000000000000000000000000000000000000000000000000000000000000000000000000000000000000000000000000000000080
:400080000000000000000000000000000000000000000000000000000000000000000000000000000000000000000000000000000000000000000000000000000000000040
:4000C0000000000000000000000000000000000000000000000000000000000000000000000000000000000000000000000000000000000000000000000000000000000000
:0200000490501A
:0C00000000012E12306900012E1AA0C66B
:00000001FF