:400000000080002011000000950200009502000008B5044B1A6803F53F5302331A6000F03BF900BFFA46004010B5054C237833B9044B13B10448AFF300800123237010BD15
:40004000F081FF1F000000000C130000084B10B51BB108480849AFF300800848036803B910BD074B002BFBD0BDE81040184700BF000000000C130000F481FF1F0881FF1F33
:4000800000000000F8B5012001464FF4804241F6FF7300F081FC204F3870012001464FF4804241F6FF7300F059FC1C4E307000F06DFB1B4D287000F069FB1A4C2070287852
:4000C0004FF40061FE22822300F07AFB20784FF40061FE22822300F073FB287846F24341114B1A8800F080FB207846F253410F4B1A8800F079FB3878297800F017FB30784F
:40010000217800F013FB3878012100F0C7FA3078012100F0C3FAF8BD9482FF1F9982FF1F7C82FF1F8082FF1F8882FF1F9082FF1FF8B50120014641F6FF724FF4804300F0C5
:4001400077FB1F4F38700120014641F6FF724FF4804300F08DFB1B4E307000F017FB1A4D287000F013FB194C20702A7810466021012300F025FB227810466021012300F03A
:400180001FFB2878124989B246F2414200F02CFB2078104989B246F2514200F025FB3878297800F0C3FA3078217800F0BFFA3878012100F073FA3078012100F06FFAF8BD27
:4001C0008C82FF1F7D82FF1F9882FF1F8482FF1F0C82FF1F0C81FF1F70B584B04FF4006000F060FC264B18604FF4006000F05AFC244B186062B6002305E0214A126822F8E3
:40020000133001339BB2B3F5806FF6D3FFF73AFFFFF78EFF00F0F4F900F0FCFB00F008FC00F0FCF940F6B83000F0ECFA00F05CFB002420E0134B1B6833F8142033F814501D
:40024000EDB2114E68463146C2F3072200F0F0FC02A831462A4600F0EBFC684600F05EFB0A4800F05BFB02A800F058FB084800F055FB0134A4B2B4F5806FDBD3FEE700BFB8
:400280008882FF1F9082FF1F10130000181300001C130000FEE700BF08B5114B114D16E029686B68AC68002204E008681860043204330431A242F8D1E868002203E000212D
:4002C0001960043204338242F9D1103533465E1E002BE5D100F0C0FBFFF77EFFFEE700BF01000000C413000008B5134A134B1A60134A136843F40073136000230AE0032BB3
:4003000003D8104A52F8231000E00F490F4A42F8231001332F2BF2D90D4B1A780D4B1A700A4A0D4B1A6000F0B5F800F09DF900220A4B1A6008BD00BF0004FA050CED00E04E
:4003400014ED00E000000000950200000080FF1FBC7600400481FF1F08ED00E00081FF1FFEE700BFF0B40022174611E050F82760F3B226F0FF0608E001EB420511F8124021
:400380006D78A5550132013BDBB2002BF4D10137102FEBD9F0BC7047064B1B78DBB203F00701054A11701B09013213704422034B1A707047CF0100496E580040765800409C
:4003C00008B50A46002100F080FB08BD38B51722254B1A80192502331D7002331D8002331D70062203F27A231A705222A3F580731A701E4B1B78DBB21D4A13704FF4E16215
:400400001C4B1A8041F25122023B1A8000240CE0194B1B7803F0010343EA440404F003044FF4F07000F010F9013D0DB1032CEFD115B90320FFF794FF104A4FF480731380AC
:400440000723137000230E490B7048200231087013700532137002220A4B1A700A4A137843F00303137038BD804000400F010049A1460040224200402542004004400040A8
:400480000640004001400040A243004008B500F011FB08BD70B572B6384A137843F00403137000240CE0364963001A1952000A4423445B00C8589188FFF782FF0134E4B279
:4004C000092CF0D900240BE02D49A3001A1952000A44D06B116C8022FFF7D8FF0134E4B2002CF1D04FF090402649FFF73BFF26480421FFF765FF25480421FFF761FF244835
:400500000421FFF75DFF23480421FFF759FF224A137843F0020313701032137843F0020313701E4C237843F040032370A2F58632513A137843F01003137019481949082203
:40054000FFF7A4FF184819490A22FFF79FFF184A137843F008031370164E01253570FFF735FF81233370144B1D70FFF715FF134821460E22FFF78AFF70BD00BFE846004051
:4005800020130000440000480076004008760040107600401876004003500140A0430040425100408C0400485051004094040048224300400048004004000840B0430040A5
:4005C00008B500F049F8064A137843F02003137000F046F8034A137843F00403137008BD9064004071640040044B1A7802F0F8021A701A78D2B21A70704700BF81640040F6
:4006000008B5054B1B7823B9FFF7EEFF0122024B1A70FFF7D5FF08BD6C82FF1F08B500F01BF8064A137843F01003137000F018F8034A137843F00103137008BD91640040D6
:4006400071640040000000000230800803D000BF01380046FCD17047EFF3108072B6704780F31088704700BF0B4A7F2313708021517007E0DA0002F1804202F5F042013B8D
:40068000DBB21370002BF5D1DB0003F1804303F5F04300221A7070476C81FF1F172815D831B103010A495A5C42F020025A5405E0030107495A5C02F0DF025A540001044A32
:4006C000835C43F00103835400207047012070471070004017280BD80001064A835C03F0F10301F0070143EA4101815400207047012070471070004041F6FF73994201D163
:400700004FF4005141F6FF739A4201D14FF40052172808D8C00000F1804000F5EC408180C280002070470120704700BF172805D8034B03EB0010417200207047012070470D
:400740001070004017281BD810B4C00000F1804404F5EC44D201D2B201F07F01114321709DF804201201D2B203F00F03134363709DF8083003F00F03A3700020E07001E0C4
:40078000012070475DF8044B704700BF10B5FFF763FF0A4B5B78182B0BD9084A1478013B5370E30003F1804303F5F0431B78137000E0FF24FFF754FF204610BD6C81FF1F99
:4007C00010F0800F0CD111F4704F0BD1C00000F1804000F5F04001808270C37000207047012070470120704710F0800F08D1C00000F1804000F5F0408180C2800020704712
:400800000120704710B5044605E0084B1868FFF71BFFA4F50044B4F5004FF6D8034B586800FB04F0FFF710FF10BD00BF7481FF1FF0B583B084468E4617461E460B4C022510
:400840002570002300930193284661467246FFF779FF207839463246FFF74EFF20782946FFF738FF207803B0F0BD00BF8481FF1FF0B583B086460F4616461D460A4C03204D
:40088000207000230093019371463A46FFF75AFF207831462A46FFF72FFF20780221FFF719FF207803B0F0BD8581FF1F0622044B1A70472210331A70002251331A70704732
:4008C0002464004010B5FFF7C7FE0446054A137843F01003137000F033F82046FFF7C0FE10BD00BF9564004008B5054B1B7823B9FFF7DCFF0122024B1A70FFF7E3FF08BDE5
:400900006D82FF1F034B1B7813F0040FFAD1024B18707047656400404564004038B5074B1B782BB938BDFFF7EDFF0134A4B201E005460024285D0028F5D138BD6D82FF1F8D
:40094000054A137843F0020313701032137843F002031370704700BFA2430040F0B583B086460F4616461D460A4C0120207000230093019371463A46FFF7E4FE2078314698
:400980002A46FFF7B9FE20780221FFF7A3FE207803B0F0BD8681FF1FF0B583B086460F4616461D460A4C0023237000930193184671463A46FFF7C6FE207831462A46FFF7FC
:4009C0009BFE20780221FFF785FE207803B0F0BD8781FF1F08B5FFF73FFE064A137843F020031370FFF73CFE034A137843F00403137008BD9264004074640040044B1A78AF
:400A000002F0F8021A701A78D2B21A70704700BF8464004008B5054B1B7823B9FFF7EEFF0122024B1A70FFF7D5FF08BD6F82FF1F08B5FFF711FE064A137843F010031370A5
:400A4000FFF70EFE034A137843F00203137008BD94640040746400400E4B70B51E460E4C0025E41AA410A54204D056F8253098470135F8E700F094FC084B094C1E46E41ADD
:400A8000A4100025A54204D056F8253098470135F8E770BDAC130000AC130000AC130000B4130000024B0146186800F05BB800BFE881FF1F10B5431E0A44914204D011F859
:400AC000014B03F8014FF8E710BD03460244934202D003F8011BFAE77047000030B500293CD051F8042C0B1F1D49002AB8BF9B180A680C4612B95A600B6030BD93420DD202
:400B000019685818904201BF5A5852181A60426823605A6030BD994203D80A4651680029F9D1146815199D420AD11B682344D0188842136012D10868034413604B680CE0F7
:400B400002D90C23036030BD1C681819884201BF08684968001918605960536030BD00BF7482FF1F70B5CC1C24F0030408340C2C38BF0C24002C064603DA0C233360002004
:400B800070BD8C42F9D3204A136810461946A1B10A68121B0ED40B2A03D90A608B188C501FE08B420BBF5A684A6802605A6018BF0B4616E00B464968E9E7144D2B681BB929
:400BC000304600F025F828603046214600F020F8421C0346D1D0C51C25F0030585420AD11C6003F10B001A1D20F00700821A0AD05142995070BD3046E91A00F009F801309A
:400C0000BBD02B46ECE770BD7482FF1F7082FF1F38B5064C002305460846236000F068FB431C02D1236803B12B6038BD9C82FF1F0EB400B54FF402719CB0ADF814106FF0F5
:400C40000041049107914FF6FF711DABADF81610084953F8042B02900690086802A9019300F064F8029B00221A701CB05DF804EB03B07047E881FF1F2DE9F0478E6882467B
:400C8000B3420C469046994640D38A8912F4906F3AD02568096902236F1A656905EB450595FBF3F57B1C4B449D4238BF1D4653050FD52946FFF756FF064698B121693A46E2
:400CC000FFF7F8FEA38923F4906343F08003A38113E02A4600F0DBFA064670B950462169FFF7FCFE0C23CAF80030A3894FF0FF3043F04003A381BDE8F08726613E4426604B
:400D00004E466561ED1BA560B14500D24E4632462068414600F0A0FAA36800209B1BA36023681E442660BDE8F08700002DE9F0439DB003938B8906461C060D4690460CD5B4
:400D40000B6953B94021FFF70DFF2860286110B90C233360CCE040236B610023099320238DF8293030238DF82A3043461C4613F8012B1AB9B4EB08090FD002E0252AF5D18C
:400D8000F8E73046294642464B46FFF775FF013000F0A980099B4B4409932378002B00F0A28000234FF0FF3204930793059206938DF853301A9304F101084446DFF848911A
:400DC00021784846052200F039FA08F10108049B30B1C9EB00000122824013430493ECE7D80644BF20228DF85320190744BF2B228DF8532022782A2A02D0079923460EE06D
:400E0000039A0134111D12680391002ABBBF524243F0020307920792B8BF04930AE01C4622780133303A092A03D80A2000FB0121F5E7079123782E2B1AD163782A2B0AD1BD
:400E4000039B02341A1D1B680392002BB8BF4FF0FF3305930CE0611C00220C4623780131303B092B03D80A2000FB0232F5E70592DFF8988021784046032200F0DFF938B1D0
:400E8000049AC8EB00004023834013430493013421781A48062204F101088DF8281000F0CDF988B1164B33B9039B073323F007030833039313E003AB0093304604A92A46F2
:400EC000104BAFF3008007E003AB0093304604A92A460C4B00F092F8421C074603D0099B3B44099341E7AB895B0601D4099801E04FF0FF301DB0BDE8F08300BF74130000FF
:400F000000000000790C00006A130000701300002DE9F84391461F468A680B6906469342B8BF1346C9F8003091F843200C46DDF8208012B10133C9F800302368990642BF91
:400F4000D9F800300233C9F80030256815F006051CD094F843302268003318BF012392061FD5E118302081F843005A1C94F845102244023382F8431013E03046394604F1DD
:400F800019020123C047013007D00135E368D9F800209B1A9D42F0DBDBE74FF0FF30BDE8F8833046394604F14302C0470130F4D02268D9F80050E36802F00602042A08BFB2
:400FC0005D1B2269A3680CBF25EAE57500259342C4BF9B1AED184FF00009A9450ADA3046394604F11A020123C0470130D5D009F10109F2E70020BDE8F88300002DE9FF41E4
:401000000C461746227E98466E2A06460A9B01F1430100F0B08012D8632A23D00AD8002A00F0BD80582A40F0CC8084F84520DFF804E257E0642A1ED0692A1CD0C1E0732AF5
:4010400000F0B18009D86F2A2ED0702A40F0B980226842F0200222603FE0752A24D0782A3BD0AEE01A6804F14205111D1960136884F84230A9E020681A6810F0800F02D0C5
:40108000101D186008E010F0400F02F10400186002D0B2F9003000E01368002B3EDA2D225B4284F8432039E020681A6810F0800F02D0101D186007E010F0400F02F1040079
:4010C000186001D0138800E01368227EDFF864E16F2A0CBF08220A221CE07822DFF858E184F845202268186812F0800F00F104051D6003D1550601D5038800E00368D007F0
:4011000044BF42F0200222601BB9226822F0200222601022002084F8430002E0DFF814E10A226568002DA8BF2068A560A4BF20F00400206003B965B10D46B3FBF2F002FB40
:4011400010331EF8033005F8013D03460028F4D100E00D46082A0BD12368DA0708D5236962689A42DEBF302305F8013C05F1FF35491B21612EE025681A6815F0800F606902
:4011800003D0151D1D60136808E015F0400F02F104051D60136801D0188000E01860002323610D4616E01A68111D1960156800212846626800F042F808B1401B6060636889
:4011C00004E004F1420584F8422001232361002384F84330CDF800803046214603AA3B46FFF796FE013002D14FF0FF301FE0304639462A462369C0470130F5D023689B07D1
:4012000005D4E068039B9842B8BF18460FE00025E368039A9B1A9D42F3DA3046394604F119020123C0470130DED00135F0E704B0BDE8F0817B1300008C13000010B5C9B290
:4012400002449042034605D01C7801308C42F8D1184610BD002010BD814210B501EB020301D3421E0BE09842FBD28118D21AD34204D013F8014D01F8014DF8E710BD9942F0
:4012800004D011F8014B02F8014FF8E710BDF8B5074615460E4621B91146BDE8F840FFF761BC1AB9FFF71AFC2846F8BD00F015F8A8420ED238462946FFF754FC044650B1FE
:4012C00031462A46FFF7F6FB38463146FFF706FC01E03046F8BD2046F8BD51F8040C0028BEBF091851F8043CC018043870470000044A05491368002B08BF0B461844106073
:40130000184670477882FF1FA082FF1F0000000025303258000000002C2000000A0D0000005100404000605100401000C05100401000F05100401000000001408000000178
:401340000140000F00140140000800400140000A004C01400002005001402000800001400C040048800000004300232D302B2000686C4C0065666745464700303132333430
:401380003536373839414243444546003031323334353637383961626364656600000000F8B500BFF8BC08BC9E4670474D000000E9020000F8B500BFF8BC08BC9E467047ED
:4013C00029000000D81300000881FF1FE8000000B000000000000000000000000000FFFFFFFFFFFFFFFFFFFFFFFFFFFFFFFFFFFFFFFFFFFFFFFFFFFFFFFFFFFFFFFFFFFFBC
:40140000FFFFFFFFFFFFFFFFFFFFFFFFFFFF000000000000000000000000000000000000000000000000000000000000000000000000000000000000000000007F800000BB
:401440000F0000000000E02EC05D00001800000000366E01FFFFFFFF00000000000000000000000000000000000000000000000000000000000000006813000000000000FE
:4014800000000000000000000000000000000000000000000000000000000000000000000000000000000000000000000000000000000000000000008881FF1F0000000005
:4014C00000000000000000000000000000000000000000000000000000000000000000000000000000000000000000000000000000000000000000000000000000000000EC
:4015000000000000000000000000000000000000000000000000000000000000000000000000000000000000000000000000000000000000000000000000000000000000AB
:40154000000000000000000000000000000000000000000000000000000000000000000000000000000000000000000000000000000000000000000000000000000000006B
:40158000000000000000000000000000000000000000000000000000000000000000000000000000000000000000000000000000000000000000000000000000000000002B
:020000040003F7
:0200000480007A
:400000000352004003640040180001403E010140640201404503014067040140450501400507014001090140104001401341014001470140014C0140034D0140035001404A
:4000400001510140201321192901803F823F850F0001022006FE08010A800EFE120118011A401CFF200122102401260828012A042C012E0236FF5602572458045B045F015E
:400080000195040205100602071009400A480D1A108811401304150216081748180219801C501D781E08240825502680274028202B102D852F08368437123C183E424528E2
:4000C0004C044D084F01560A57185C605D086008680469736A086B116D046E407088730C780879048820C0FFC27BC4FFCAF0CCF0CEF0D060D220D670D804E280000802C0DF
:400100000302041006C008C00A200B080C040EC0110112BF1302151016401A3F1B011D1020FF240226C0270428C029202A012C802D042E402F0830FF3110330C3503372076
:4001400056025724580459045B045F0180DB8224830184BF86408701881B89018AA48C118E0A8F08921B930F9503961B97049E1FA409A504A612A702A81BB060B207B41CF4
:40018000B680B70FB980C021C103C254C406C5DFC60CC70EC817C9FFCAFFCBFFCC02CD20CF05D004D804D904DA04DF01E240E301E440E501E650E701E840E901EA70EB1091
:4001C000EC40ED1000860308075609050B020D020E141110130815421728180419401B1B1D021F0120022140245026A42B102D402F143102330836A0370939953C103F0156
:4002000040044140430A49454A04504052046020620467086D5F6F547440772A8140820487108C408D0493019B01A620A804A91AAB02AD40AF01B220C0FFC27DC4F6CA7201
:40024000CCF3CEAFD00FD20CD820E250EA20044C06130A4C0B070C110E0E0F09130418111A461F122312242026032A082F0931073230340F364A371838083AA03F404004C9
:40028000470449FF4A074BFF4C404D204EF04F05500852065401580459045A045B045C015D015F01604061A862406320800C8211840986108755881C8A028D038F4491805F
:4002C0009203981099739A0C9B0CA020A410A52AA744A814AB08AD73AF04B01FB130B380B420B50FB740B902BB20BE10BF45C023C105C5E0C60CC70BC816C9FFCAFFCBFFF3
:40030000CEF0CF44D00CD401D804D904DA04DB04DC11DD11DF01E6C0EA40EB02018003280402051809200C010D200E401008121015091608180219981B281E48210322405D
:40034000244025202660272029012B012D802F28314234013620388039103F844040452046104B044D81500851045210548056085740582059045A805D015E885F106910E0
:400380006A1C7E047F04908095029614970898209945A301C077C252C476CA79CCA9CE5CD061D210D6FE83209B20B080B310E001E0010F4038013F22400852805301560872
:4003C0005F8066028B01C220CEE0D010D4E0D620D8808001830187408E028F109340940197029E02A710A808AE80AF80B208E280E440E620EA40EE3083209B205B209B2036
:40040000D401000308010A0310550000020000200000210135234844000008703D6040080844542200002101000000100000210181802000000010408000000F188007002F
:40044000660F807000200000000001006203000000BFE0CD3BFFFFFF00000000040005000100000004040404000000010000C0004001800030004010100040A800000000D9
:40048000000000000000000000000000201F1F001F0000000100000101000100000000000000000000000000000000000000000000000000000000000000000000000000BB
:4004C00000000000000000000000000000000000000000000000000000000000000000000000000000000000000000000000000000000000000000000000000000000000FC
:4005000000000000000000000000000000000000000000000000000000000000000000000000000000000000000000000000000000000000000000000000000000000000BB
:40054000000000000000000000000000000000000000000000000000000000000000000000000000000000000000000000000000000000000000000000000000000000007B
:40058000000000000000000000000000000000000000000000000000000000000000000000000000000000000000000000000000000000000000000000000000000000003B
:0200000490006A
:0400000000004005B7
:0200000490105A
:04000000BC90ACAF55
:0200000490303A
:02000000E17AA3
:0200000490402A
:4000000000000000000000000000000000000000000000000000000000000000000000000000000000000000000000000000000000000000000000000000000000000000C0
:400040000000000000000000000000000000000000000000000000000000000000000000000000000000000000000000000000000000000000000000000000000000000080
:400080000000000000000000000000000000000000000000000000000000000000000000000000000000000000000000000000000000000000000000000000000000000040
:4000C0000000000000000000000000000000000000000000000000000000000000000000000000000000000000000000000000000000000000000000000000000000000000
:0200000490501A
:0C00000000012E12306900012E1B11E3DC
:00000001FF