:020000040000FA
:100000002805001019020000210200002302000050
:100010002502000027020000290200000000000065
:100020000000000000000000000000002B020000A3
:100030002D020000000000002F020000152E00001D
:1000400033020000330200003302000033020000DC
:1000500033020000330200003302000033020000CC
:1000600033020000330200003302000033020000BC
:1000700033020000330200003302000033020000AC
:10008000330200003302000033020000330200009C
:10009000330200003302000033020000330200008C
:1000A000330200003302000033020000330200007C
:1000B000330200003302000033020000330200006C
:1000C00033020000330200003302000000F002F8A7
:1000D00000F092F80AA090E8000C82448344AAF150
:1000E0000107DA4501D100F087F8AFF2090EBAE84E
:1000F0000F0013F0010F18BFFB1A43F0010318475C
:100100007047000090470000103A24BF78C878C1BB
:10011000FAD8520724BF30C830C144BF04680C600D
:10012000704700000023002400250026103A28BF55
:1001300078C1FBD8520728BF30C148BF0B60704759
:100140006E2903F0C980702903F01282662904F039
:100150002083652904F01D83672904F01A8361292F
:10016000AFF3008003681B0A28BF41F080016929B2
:1001700003F07680642903F07380752903F07080A2
:100180006F2903F09D81782903F0DE81E92903F0CE
:100190003581E42903F03281F52903F02F81EF291D
:1001A00003F09A81F82903F0DD810368DB0928BF99
:1001B00041F08001632903F06885732903F06D85A0
:1001C000E32903F07885F32903F07D85002070474B
:1001D0001FB504F0D7FA03F0C7FD0400002000218A
:1001E00004F0BAFA401C60600020002104F09EFA7E
:1001F000E0601FBD10B510BD03F089FD1146FFF78B
:10020000E7FF00F027F803F065FE03B4FFF7F2FF05
:1002100003BC03F0A9FE00000948804709480047D5
:10022000FEE7FEE7FEE7FEE7FEE7FEE7FEE7FEE7A6
:10023000FEE7FEE704480549034A054B7047000006
:1002400039040000CD00000028030010280500102C
:100250002803001000F058FB02F0E2FD09A000F0B6
:1002600040FB02F05BFE17A000F03BFB02F07CFEBF
:100270001BA000F036FB02F00FFE00BFFEE700BF40
:10028000FEE7000057656C636F6D6520746F207525
:100290007365204F70656E3137363820646576653A
:1002A0006C6F706D656E7420626F617264206F6632
:1002B000207468652049325320746573743A0D0ABE
:1002C0000000000049324320696E697469616C69FD
:1002D0007A6174696F6E204F4B200D0A0000000098
:1002E00049325320496E697469616C697A61746935
:1002F0006F6E204F4B3A0D0A00000000FFFFFFFF1A
:1003000094480068C0F30160032864D192480068F3
:1003100010F0030006D0012823D002283FD0032884
:1003200058D100E000BF8B480068C0F30E0000F118
:1003300001004FEA4000894900FB01F08849D1F8EB
:100340008810C1F3074101F10101B0FBF1F18548CB
:100350000068C0B200F10100B1FBF0F08249086012
:1003600038E07C480068C0F30E0000F101004FEA5D
:1003700040007E4900FB01F07949D1F88810C1F3B3
:10038000074101F10101B0FBF1F176480068C0B20C
:1003900000F10100B1FBF0F0734908601AE06D480C
:1003A0000068C0F30E0000F101004FEA00416C4804
:1003B000D0F88800C0F3074000F10100B1FBF0F174
:1003C00068480068C0B200F10100B1FBF0F0664976
:1003D000086000BF2FE06048006810F0030006D0FE
:1003E000012810D0022819D0032823D100E000BF33
:1003F0005C480068C0B200F101005849B1FBF0F060
:100400005949086016E057480068C0B200F1010081
:100410005649B1FBF0F0544908600BE051480068C0
:10042000C0B200F101004FF40041B1FBF0F04E49C1
:10043000086000BF00BF704720204D490860484851
:10044000D0F8A00110F0200F05D000BF4848006888
:1004500010F0400FFAD00320424908604FF000002E
:100460003F49C1F8A801434908604FF001003A49EB
:1004700008604148414908604FF0AA0040490860BF
:100480004FF0550008604FF001003E4908604FF002
:10049000AA003B4908604FF055003149C1F88C0073
:1004A00000BF2C48006810F0806FFAD00320354957
:1004B00008604FF0AA002A49C1F88C004FF055009F
:1004C0002F49086000BF2348006810F0407FFAD031
:1004D00023202D4908604FF0AA002149C1F8AC0043
:1004E0004FF05500294908604FF001002849086085
:1004F0004FF0AA00254908604FF055001849C1F88F
:10050000AC0000BF2348006810F4806FFAD00320CD
:100510001F4908604FF0AA001149C1F8AC004FF024
:1005200055001A49086000BF1A48006810F4407F5F
:10053000FAD01948194908604FF000000849C1F87D
:10054000C80143F23A0008604FF000001449086007
:100550007047000088C00F400CC10F4000093D00EB
:1005600000C00F4004C10F4000000010001BB70086
:10057000A0C10F40ACC10F406300050084C00F4014
:100580008CC00F4080C00F40A4C00F40ACC00F40D3
:10059000A0C00F40A8C00F40DE872804C4C00F4091
:1005A00008ED00E013B5044601231A4601A92046D0
:1005B00000F0FEFC1CBD38B504460020009001236D
:1005C0001A466946204600F03EFD9DF8000038BD01
:1005D00070B506460D462C4604E014F8011B304663
:1005E000FFF7E0FF20780028F7D170BD70B5044612
:1005F0000D4629462046FFF7EBFFEBA12046FFF70B
:10060000E7FF70BD2DE9F04105460C460A2094FB3A
:10061000F0F100FB1140C6B20A2094FBF0F00A2171
:1006200090FBF1F201FB1200C7B2642094FBF0F0E2
:1006300090FBF1F201FB120000F0FF0808F130001E
:10064000C1B22846FFF7AEFF07F13000C1B228461D
:10065000FFF7A8FF06F13000C1B22846FFF7A2FF5E
:10066000BDE8F0812DE9F04705460C460A2094FBD1
:10067000F0F100FB1140C6B20A2094FBF0F00A2111
:1006800090FBF1F201FB1200C7B2642094FBF0F082
:1006900090FBF1F201FB120000F0FF084FF47A70BA
:1006A00094FBF0F090FBF1F201FB120000F0FF0967
:1006B00042F2107094FBF0F090FBF1F201FB12009B
:1006C00000F0FF0A0AF13000C1B22846FFF76AFFC6
:1006D00009F13000C1B22846FFF764FF08F130008D
:1006E000C1B22846FFF75EFF07F13000C1B22846CD
:1006F000FFF758FF06F13000C1B22846FFF752FF5E
:10070000BDE8F0872DE9F34F83B00C460A20B4FB17
:10071000F0F100FB1145B4FBF0F00A21B0FBF1F25F
:1007200001FB12066420B4FBF0F0B0FBF1F201FB18
:1007300012074FF47A70B4FBF0F0B0FBF1F201FB5A
:10074000120842F21070B4FBF0F0B0FBF1F201FBC2
:1007500012099648B4FBF0F0B0FBF1F201FB120A6B
:100760009348B4FBF0F0B0FBF1F201FB120B91489F
:10077000B4FBF0F0B0FBF1F201FB120002908E48E6
:10078000B4FBF0F0B0FBF1F201FB120001908B48DA
:10079000B4FBF0F0B0FBF1F201FB12000090009806
:1007A0003030C1B20398FFF7FDFE01983030C1B27E
:1007B0000398FFF7F7FE02983030C1B20398FFF7B5
:1007C000F1FE0BF13000C1B20398FFF7EBFE0AF126
:1007D0003000C1B20398FFF7E5FE09F13000C1B265
:1007E0000398FFF7DFFE08F13000C1B20398FFF76E
:1007F000D9FE07F13000C1B20398FFF7D3FE06F12E
:100800003000C1B20398FFF7CDFE05F13000C1B250
:100810000398FFF7C7FE05B0BDE8F08F2DE9F04162
:1008200007460D4666A13846FFF7D2FE012600BFF7
:10083000B00045FA00F000F00F04092C02DD04F1CD
:10084000370001E004F13000C1B23846FFF7AAFEDC
:100850003000A6F10101CEB2EAD1BDE8F0812DE968
:10086000F04107460D4656A13846FFF7B1FE032674
:1008700000BFB00045FA00F000F00F04092C02DDC3
:1008800004F1370001E004F13000C1B23846FFF74F
:1008900089FE3000A6F10101CEB2EAD1BDE8F081B7
:1008A0002DE9F04107460D4645A13846FFF790FE79
:1008B000072600BFB00025FA00F000F00F04092C55
:1008C00002DD04F1370001E004F13000C1B2384626
:1008D000FFF768FE3000A6F10101CEB2EAD1BDE813
:1008E000F0810FB408B503A800903648009A029929
:1008F00002F03CFC0020009032493348334A126831
:10090000904701B05DF814FB1FB501208DF802007F
:1009100000208DF804008DF8030002208DF80100FE
:1009200000208DF80000684601F022F803208DF8C1
:100930000100684601F01CF802A800F0F7FA4FF435
:10094000E130029002A9204800F05EF901211E4822
:1009500000F072FAAFF287301C490860AFF27330D2
:100960001B490860AFF2C3301A490860AFF2531058
:1009700019490860AFF2191018490860AFF2DF009A
:1009800017490860AFF2833016490860AFF22B3088
:1009900015490860AFF2932014490860AFF2E930BE
:1009A000134908601FBD00000A0D0000A086010069
:1009B00040420F008096980000E1F50500CA9A3B7E
:1009C000307800006400001000C0004004000010F7
:1009D000080000100C0000101C0000102000001087
:1009E0002400001010000010140000101800001067
:1009F000280000102DE9F04F93B080468B46002070
:100A00000A90F948804504D1062001F00AF8814691
:100A100016E0F648804504D1082001F002F881462E
:100A20000EE0F348804504D1302000F0FAFF814603
:100A300006E0F048804503D1322000F0F2FF814605
:100A40004FF0FF30049000200890079000242546C6
:100A50004FF0010A55E00020099049E00998504400
:100A600000FB0BF0029000201C22CDE90D09484646
:100A70000D9902F054FB0022A0FB0A3C01FB0AC1C5
:100A800000FB0210CDE9003000239DE8070002F0D2
:100A9000CFFA06460F460596202230463946CDE964
:100AA0000B7602F04FFB06900598B0F1004F05D988
:100AB0000598404205900698401C0690069818B18B
:100AC0000698B0F5803F00D90FE0DDE904108842B8
:100AD0000AD2059804900025069C09980890CDF844
:100AE0001CA0049800B906E000BF0998401C0990BA
:100AF00009985045B2D300BF049800B904E00AF148
:100B0000010ABAF10F0FA6D900BF002184EA010043
:100B10006940084302D113B0BDE8F08F4FEA1910C5
:100B2000079900FB01FC0846089908440021A0FB36
:100B3000042301FB043100FB05100346CDE900202E
:100B40006046002102F074FA03900398834504D9AB
:100B50000398ABEB0000049003E00398A0EB0B00BC
:100B60000490642104984843B0FBFBF0049004987F
:100B7000032847D29D48804521D198F80C0040F0C9
:100B8000800088F80C00082220462946CDE90F5441
:100B900002F0D8FA88F8040088F8004098F80C00B1
:100BA00000F07F0088F80C00F021079801EA00109F
:100BB000089901F00F010843C8F8280020E098F8D0
:100BC0000C0040F0800088F80C00082220462946DE
:100BD000CDE9115402F0B6FA88F8040088F8004014
:100BE00098F80C0000F07F0088F80C00F0210798BE
:100BF00001EA0010089901F00F01084388F8280065
:100C000001200A900A9886E770B504460D4676489A
:100C1000844208D07548844205D07548844202D089
:100C20007448844200D103E0C92173A0FFF727FB79
:100C3000687940B16879012805D06879022802D026
:100C40006879032800D103E0CA216BA0FFF717FBE6
:100C5000A87910B1A879012800D103E0CB2166A0C2
:100C6000FFF70DFB287958B12879012808D0287999
:100C7000022805D02879032802D02879042800D139
:100C800003E0CC215CA0FFF7FAFA5748844203D175
:100C90000121082000F0E2FE5448844203D10121E2
:100CA000102000F0DBFE5248844203D101210806E7
:100CB00000F0D4FE4F48844203D10121480600F0E1
:100CC000CDFE4A48844221D10720207200202072A4
:100CD00000E02678207D10F0010FFAD1802084F802
:100CE000300000BF207D10F0200FFBD0002084F8E2
:100CF0003000606020732062207484F84C0084F817
:100D0000540084F85000267E267D18E007202072CB
:100D10000020207200E02678207D10F0010FFAD12B
:100D2000802084F8300000BF207D10F0200FFBD021
:100D3000002084F83000606020732062267D2D48FA
:100D4000844202D1002084F8240020462968FFF75D
:100D500051FE2648844203D1207B00F0C00602E009
:100D6000207B00F0C006687930B1012806D0022847
:100D700007D0032808D108E000BF09E046F00106CB
:100D800006E046F0020603E000BF46F0030600BF9F
:100D900000BF2879C0B146F008062879012806D09E
:100DA000022806D0032807D004280BD107E000BF93
:100DB00009E046F0100606E046F0200603E046F0A3
:100DC000300600E000BF00BFA87928B1012802D199
:100DD00046F0040601E000BF00BF00BF03488442A4
:100DE00028D1267327E0000000C000400000014029
:100DF0000080094000C009402E2E5C4C696272617F
:100E0000726965735C4C4350313736385F53746494
:100E10005065726970685F4472697665725C736F61
:100E2000757263655C6C7063313778785F75617279
:100E3000742E6300267370BD70B504460D46FA48E3
:100E4000844208D0F948844205D0F948844202D04F
:100E5000F848844200D105E040F2EA31AFF2680080
:100E6000FFF70DFA0DB1012D00D105E040F2EB3195
:100E7000AFF27C00FFF703FA012D10D1EB4884425A
:100E800006D194F8300040F0800084F8300014E07F
:100E900094F8300040F0800084F830000DE0E34822
:100EA000844205D194F83000002084F8300004E03A
:100EB00094F83000002084F8300070BD10B504466E
:100EC000D948844208D0D948844205D0D8488442C1
:100ED00002D0D848844200D105E040F29511AFF22B
:100EE000E800FFF7CCF900212046FFF7A5FFCE4828
:100EF000844203D10021082000F0B0FDCB48844299
:100F000003D10021102000F0A9FDC948844204D17A
:100F100000214FF0807000F0A1FDC648844204D14A
:100F200000214FF0007000F099FD10BD4FF41651F4
:100F3000016003214171002101718171704770B519
:100F400004460D46B848844208D0B848844205D0CB
:100F5000B748844202D0B748844200D105E040F24D
:100F6000D911AFF26C10FFF78AF9B048844201D171
:100F7000257000E0257070BD10B50446AA48844273
:100F800008D0AA48844205D0A948844202D0A94882
:100F9000844200D105E04FF4F971AFF2A410FFF7DD
:100FA0006EF9A248844201D1207810BD2078FCE778
:100FB0002DE9FF5F80468A46934657465C46039874
:100FC000012824D100251FE04FF0FF3905E0B9F1D9
:100FD000000F00D106E0A9F1010998F8140010F003
:100FE000200FF4D000BFB9F1000F00D10EE01026A1
:100FF00007E017F8011B4046FFF7A1FF761E641EAD
:101000006D1C0EB1002CF4D1002CDDD117E00025B1
:1010100012E098F8140010F0200F00D10EE0102616
:1010200007E017F8011B4046FFF789FF641E761E94
:101030006D1C0EB1002CF4D1002CEAD100BF284663
:1010400004B0BDE8F09F2DE9F05F0746894692465F
:101050009B464E465546BBF1010F1DD1002418E0BA
:101060004FF0FF3805E0B8F1000F00D105E0A8F11E
:101070000108387D10F0010FF5D000BFB8F1000F66
:1010800000D108E03846FFF777FF06F8010B6D1E28
:10109000641C002DE4D110E000240BE0387D10F03A
:1010A000010F00D108E03846FFF766FF06F8010B94
:1010B000641C6D1E002DF1D100BF2046BDE8F09FDD
:1010C00010B504465848844208D05848844205D098
:1010D0005748844202D05748844200D105E04FF47B
:1010E0002171AFF2EC20FFF7CAF85048844204D1D6
:1010F000207B40F04000207303E0207B40F0400064
:10110000207310BD2DE9F04104460D4617464648B0
:10111000844208D04548844205D04548844202D0E4
:101120004448844200D105E040F2AB21AFF23830B0
:10113000FFF7A5F80FB1012F00D105E04FF42B7197
:10114000AFF24C30FFF79BF8072D15D2DFE805F022
:101150000406080A0C0E110001260DE002260BE021
:10116000042609E0082607E0802605E04FF4807693
:1011700002E04FF4007600BF00BF2C48844214D137
:101180005DB1012D09D0022D07D0052D05D0062D0A
:1011900003D0032D01D0042D00D116E04FF432719D
:1011A000AFF2AC30FFF76BF80FE03DB1012D05D089
:1011B000022D03D0052D01D0062D00D105E04FF4FE
:1011C0003371AFF2CC30FFF75AF8012F0AD117482C
:1011D000844203D160683043606013E0606830434C
:1011E00060600FE01148844206D1606840F28F31A0
:1011F000B1430840606005E0606840F20731B143E8
:1012000008406060BDE8F08110B50446064884429D
:1012100008D00648844205D00548844202D00548DB
:10122000844209D10EE0000000C0004000000140EF
:101230000080094000C0094040F2FA21AFF2484066
:10124000FFF71DF8F648844201D1007D10BD207DD6
:10125000FCE710B50446F348844208D0F0488442C5
:1012600005D0F148844202D0F048844200D105E024
:1012700040F21131AFF28040FFF701F8A06840F270
:10128000CF31084010BD0146087D10F0400F01D05D
:10129000002070470120FCE770B506460C4600258B
:1012A000E048864208D0DE48864205D0DE488642C5
:1012B00002D0DE48864200D105E040F23731AFF27D
:1012C000C840FEF7DCFFE07840B1E078012805D0A7
:1012D000E078022802D0E078032800D105E04FF43E
:1012E0004E71AFF2EC40FEF7CAFFA07810B1A078C3
:1012F000012800D105E040F23931AFF20450FEF789
:10130000BEFF207810B12078012800D105E040F21E
:101310003A31AFF21C50FEF7B2FF607810B160783E
:10132000012800D105E040F23B31AFF23450FEF726
:10133000A6FF45F00105E07830B1012806D002286B
:1013400007D0032808D108E000BF09E045F04005B8
:1013500006E045F0800503E000BF45F0C00500BF92
:1013600000BF6078012801D145F0040520780128EC
:1013700001D145F00205A078012801D145F008050A
:10138000A748864203D105F0CF00307202E005F095
:10139000CF00307270BD00218170C17001210170D9
:1013A000417070472DE9F04104460F4615469D48AF
:1013B000844208D09A48844205D09B48844202D097
:1013C0009A48844200D105E040F29231AFF2D85001
:1013D000FEF755FF0DB1012D00D105E040F293312C
:1013E000AFF2EC50FEF74BFF0026012D09D1387803
:1013F000012801D146F002067878012801D146F093
:1014000004068748844215D1012D10D1207B40F07D
:1014100080002073002020702071207B20F080004D
:1014200020731020A06246F00100206218E0002026
:10143000206215E0012D11D1207B40F08000207347
:10144000002020702071207B20F08000207310206D
:1014500084F8280046F00100206201E000202062AC
:10146000BDE8F08170B504460D466E48844208D050
:101470006B48844205D06C48844202D06B48844259
:1014800000D105E040F2D331AFF29460FEF7F7FEF1
:101490006348844203D1206A2843206202E0206A24
:1014A0002843206270BD70B504460D465F488442F3
:1014B00000D105E040F21441AFF2C460FEF7DFFE58
:1014C0000DB1012D00D105E040F21541AFF2D86019
:1014D000FEF7D5FE012D06D194F8240040F002005D
:1014E00084F8240006E02DB994F8240000F03D00B3
:1014F00084F8240070BD70B504460D464B48844204
:1015000000D105E040F22C41AFF21470FEF7B7FEB7
:101510000DB1012D00D105E040F22D41AFF2287050
:10152000FEF7ADFE012D06D194F8240040F0010035
:1015300084F8240005E094F8240000F03E0084F8CC
:10154000240070BD2DE9F04105460C463748854220
:1015500000D105E040F24D41AFF26470FEF78FFE1E
:101560006CB1012C0BD0022C09D0032C07D0042C19
:1015700005D0052C03D0062C01D0072C00D105E0A6
:1015800040F24E41AFF29070FEF779FE6007870E91
:1015900095F8240020F0380647F00400064306F0D2
:1015A0003F0085F82400BDE8F0812DE9F0410446B4
:1015B0000D46164600271A48844200D105E040F245
:1015C0006D41AFF2CC70FEF75AFE0DB1012D00D186
:1015D00005E040F26E41AFF2E070FEF750FE0EB152
:1015E000012E00D105E040F26F41AFF2F470FEF73A
:1015F00046FE15B1012D04D101E0012702E00227CA
:1016000000E000BF00BF012E03D1207C38432074CE
:1016100004E0207CF321B94308402074BDE8F08148
:101620000000014000C000400080094000C00940A7
:101630002DE9F04104460D4617469648844200D1F4
:1016400005E040F29541AFF65000FEF718FE1DB1DF
:10165000012D01D0022D00D105E040F29641AFF6F8
:101660006800FEF70CFE0FB1012F00D105E040F23B
:101670009741AFF67C00FEF702FE25B1012D04D0A4
:10168000022D06D103E0102604E0402602E0802669
:1016900000E000BF00BF012F03D1207C3043207445
:1016A00004E0207CF321B14308402074BDE8F081C0
:1016B00010B504467748844200D105E04FF49861A4
:1016C000AFF6CC00FEF7DBFD207E10BD70B5064600
:1016D0000C467048864200D105E040F2D441AFF696
:1016E000E800FEF7CCFDA07810B1A078012800D169
:1016F00005E040F2D541AFF60010FEF7C0FDE078FE
:1017000010B1E078012800D105E040F2D641AFF6F3
:101710001810FEF7B4FDE079FF2800DA05E040F28A
:10172000D741AFF62C10FEF7AAFD607910B16079B1
:10173000012800D105E04FF49B61AFF64410FEF79D
:101740009EFD207910B12079012800D105E040F2FA
:10175000D941AFF65C10FEF792FDA079FF2800DAC0
:1017600005E040F2DA41AFF67010FEF788FD207810
:1017700010B12078012800D105E040F2DB41AFF63E
:101780008810FEF77CFD607810B16078012800D1E8
:1017900005E040F2DC41AFF6A010FEF770FD002539
:1017A000E07801280ED145F010056079012801D1BB
:1017B00045F020052079012801D145F00805E079A0
:1017C00086F854002078012801D145F00105A07861
:1017D000012804D145F00405A07986F8500060780E
:1017E00008B945F0020505F03F0086F84C00307B53
:1017F00040F03800307370BD012906D190F84C20BC
:1018000022F0020280F84C2005E090F84C2042F0D3
:10181000020280F84C2070472DE9F04704468946C3
:1018200092461F469FB1257BA84628F0100884F8F1
:101830000C800123524649462046FFF7B9FB064675
:1018400000BF207D10F0400FFBD025730BE001237B
:10185000524649462046FFF7ABFB064600BF207DB7
:1018600010F0400FFBD03046BDE8F08713B50446BA
:1018700001231A4601A92046FFF7CEFF1CBD70B513
:1018800004460D4616460023324629462046FFF7F9
:10189000C3FF70BD00000140F0B504460B4615467D
:1018A000194660003B4A102901D31039401C52F8F8
:1018B00020604FEA410C032707FA0CF7BE4342F8B9
:1018C000206052F820604F0005FA07F73E4342F8C7
:1018D0002060F0BDF0B504460B4615461946600081
:1018E0002C4A4032102901D31039401C52F8206094
:1018F0004FEA410C032707FA0CF7BE4342F8206079
:1019000052F820604F0005FA07F73E4342F8206086
:10191000F0BD30B50B461F496831012A07D151F897
:10192000204001259D402C4341F8204006E051F81D
:10193000204001259D40AC4341F8204030BD0128A6
:1019400006D11449896A41F00801124A916206E001
:1019500028B91049896A21F008010E4A916270473E
:10196000012800D1052201B90A220A4BDA67704723
:1019700010B50446A27861782078FFF78DFFE278F1
:1019800061782078FFF7A6FF227961782078FFF749
:10199000C0FF10BD00C0024010B50A46202801D289
:1019A000034601E0A0F120031946202814D2464B3B
:1019B0001B684FF0030404FA01F423EA0403434CC8
:1019C000C4F8A831404B1B6802FA01F443EA04034F
:1019D0003E4CC4F8A83113E03D4B1B684FF00304A4
:1019E00004FA01F423EA0403384CC4F8AC31384B50
:1019F0001B6802FA01F443EA0403344CC4F8AC3126
:101A000010BD0146202903D20A462F4B186803E077
:101A1000A1F120022E4B186820FA02F303F0030014
:101A2000704770B506462B4804683046FFF7E9FF5B
:101A3000054635B1012D06D0022D06D0032D08D163
:101A400005E0042505E0012503E0022501E0082565
:101A500000BF00BFB4FBF5F4204670BD01290AD1D8
:101A60001D4A12681D4B00EA030342EA0302174BAA
:101A7000C3F8C4200AE049B9174A1268174B23EA91
:101A8000000302EA0302114BC3F8C4207047002090
:101A90001349086030BF70470420124908600820CD
:101AA0000F49086030BF704704200E4908600920C4
:101AB0000B49086030BF704704200A4908600320C2
:101AC0000749086030BF7047A8C10F4000C00F40F1
:101AD000ACC10F4000000010C4C00F40DEF7EFEFB4
:101AE000C0C00F4010ED00E00146F748814201D12F
:101AF00000207047F548814201D10120F9E7F44800
:101B0000814201D10220F4E74FF0FF30F1E70146B6
:101B1000202008600820886100BF086810F0080FC6
:101B2000FBD020208861486800F0F8007047016809
:101B300011F0200F01D020218161102101600821C6
:101B4000816170470246106810F0200F01D02020FC
:101B5000906191600820906100BF106810F0080F3C
:101B6000FBD0506800F0F80070470346012A02D10C
:101B70000420186001E0042098610820986100BFEB
:101B8000186810F0080FFBD098680870586800F0CB
:101B9000F800704770B504460E46CB48844205D025
:101BA000CA48844202D0CA48844200D103E0DF21FF
:101BB000C8A0FEF764FBC448844205D10E20FFF79D
:101BC00030FFB0FBF6F510E0C048844205D1262076
:101BD000FFF727FFB0FBF6F507E0BD48844204D1CC
:101BE0003420FFF71EFFB0FBF6F56808206120697E
:101BF000281A606170BD70B504460D46B248844233
:101C000005D0B248844202D0B148844200D104E0F9
:101C100040F20711AFA0FEF732FBAB48844208D177
:101C200001218020FFF71AFF02210E20FFF7B4FEEA
:101C300018E0A648844208D10121C804FFF70EFF2E
:101C400002212620FFF7A8FE0CE0A148844208D11B
:101C500001218806FFF702FF02213420FFF79CFED6
:101C600000E070BD29462046FFF794FF6420A06184
:101C700000BFF6E710B504469348844205D0934868
:101C8000844202D09248844200D104E040F23711ED
:101C900090A0FEF7F4FA4020A0618B48844204D162
:101CA00000218020FFF7DAFE10E08848844205D149
:101CB00000214FF40020FFF7D1FE07E08448844262
:101CC00004D100214FF08060FFF7C8FE10BD70B551
:101CD00004460D460DB1012D00D104E04FF4AC7166
:101CE0007CA0FEF7CCFA7848844205D0774884423D
:101CF00002D07748844200D104E040F2591175A027
:101D0000FEF7BDFA012D02D14020206001E0402005
:101D1000A06170BD70B504460D46A5B16A48844205
:101D200003D10A2000F087FC21E06848844203D1F7
:101D30000B2000F080FC1AE06548844217D10C208B
:101D400000F079FC13E06048844203D10A2000F0DF
:101D50007EFC0CE05D48844203D10B2000F077FC50
:101D600005E05B48844202D10C2000F070FC70BD9D
:101D70002DE9F04105462846FFF7B6FE06466448C1
:101D800050F83640686800F0F8076762F82F03D112
:101D90000820A861BDE8F0815D4800EBC6004068FE
:101DA000002857D1202F48D006DC082F0BD0102F49
:101DB0000AD0182F4CD115E0282F14D0302F3DD049
:101DC000382F45D13FE000BF2020A861606838B1BE
:101DD000A06828B120684000A8600820A86100E041
:101DE00012E036E000BFD4E9021088420BD26068EE
:101DF00048B1E1686068405CA860E068401CE06051
:101E00000820A86118E000BF0120414901EBC6018C
:101E10004860606958B1206948B1A06830B1606815
:101E200020B1202028600C20A86105E031E0606A24
:101E300040F480606062B5E00BE000BF606A40F48F
:101E4000007060629FE0606A40F48070606200BF72
:101E500099E0B4E02E4800EBC60040680128F8D1B4
:101E6000402F24D006DC082F0BD0102F0AD0382F9B
:101E70007CD182E0482F7BD0502F4BD0582F75D18A
:101E800062E000BF2020A861206950B1606940B1C4
:101E900000BF0121206801EB4000A8600820A86174
:101EA00004E0606A40F4806060627BE086E0D4E930
:101EB0000501401E814202D20420286001E0042076
:101EC000A8610820A86179E000C0014000C0054079
:101ED00000000A402E2E5C4C696272617269657363
:101EE0005C4C4350313736385F53746450657269C7
:101EF00070685F4472697665725C736F7572636552
:101F00005C6C7063313778785F6932632E630000F0
:101F100068020010206950B1D4E90510884206D249
:101F2000A868A26921698854A069401CA061D4E90D
:101F30000501401E814202D20420286001E00420F5
:101F4000A8610820A86139E0206950B1D4E90510E2
:101F5000884206D2A868A26921698854A069401CF9
:101F6000A061606A40F4806060621BE00AE0FFE705
:101F7000606A40F40070606205E0606A40F480705E
:101F8000606200BF00BFD4E90710884209D2002078
:101F9000E060202028600C20A861206A401C20629C
:101FA0000BE000BF00212846FFF7B4FE2846FFF7EC
:101FB000BEFD0120FE4941F8260000BF00BF00BF62
:101FC000E8E62DE9F04104462046FFF78DFD804606
:101FD000F84850F83850606800F0F806AE61F82E06
:101FE00003D10820A061BDE8F08116F0070F68D189
:101FF000F0100C38142864D2DFE800F00F6310638F
:10200000152816292C4763485A6363636363630A80
:10201000042020600820A0615FE000BF0420206051
:102020000820A06159E000BFD5E90410884208D219
:10203000E86830B1A0686A69E96888546869401C3A
:102040006861042020600820A06146E000BF0820ED
:10205000A06142E000212046FFF75CFE0820A0615D
:1020600047030FE0206810F0080F04D0012120463C
:10207000FFF750FE07E07F1E27B9A86940F4806093
:10208000A8611FE0EEE700BF27E000BFD5E901101F
:10209000884208D2286830B1A9682868405CA060EE
:1020A000A868401CA860042020600820A06114E0FB
:1020B000042020600820A061A86940F48060A86125
:1020C00000E000BF00212046FFF724FE2C20A06185
:1020D0000120B94941F8280000BF00BF00BF82E7D6
:1020E0002DE9F84306460C461746D4F80480D4F888
:1020F00010900020E060A0616062002F7ED120621D
:1021000000BFD4F80480D4F810900020E060A061F3
:1021100000253046FFF7FBFC0546082D0BD0102D9F
:1021200009D0206A401C2062D4E90710884201D9F6
:102130006562ABE0E5E7A068A0B3606890B3206893
:102140004006010E3046FFF7FDFC0546182D0BD06A
:10215000206A401C2062D4E90710884203D945F464
:102160000070606292E0CCE718E098F8001030460A
:10217000FFF7E8FC0546282D0BD0206A401C2062A2
:10218000D4E90710884203D945F4007060627DE00D
:10219000B7E708F10108E068401CE060D4E90210EC
:1021A0008842E2D3A068B8B16068A8B1606998B10C
:1021B000206988B13046FFF7AAFC0546082D0BD0F0
:1021C000102D09D0206A401C2062D4E907108842F3
:1021D00001D965625AE094E76069002850D020690F
:1021E00000284DD00122206802EB4000C1B23046E9
:1021F000FFF7A8FC0546402D0DD000E04BE0206A1B
:10220000401C2062D4E90710884203D945F40070CD
:1022100060623BE075E72FE0D4E90501401E814292
:1022200011D2012269463046FFF79FFC0546502D2A
:102230001BD0206A401C2062D4E90710884201D9D3
:10224000656223E05DE7002269463046FFF78DFCBA
:102250000546582D09D0206A401C2062D4E9071099
:10226000884201D9656211E04BE79DF8000009F84A
:10227000010BA069401CA061D4E905108842CBD3B2
:102280003046FFF754FC0120BDE8F8833046FFF7E5
:102290004EFC0020F8E7012F1AD13046FFF724FC4E
:1022A000C0B2009043489DF8001040F83140002033
:1022B00040499DF8002001EBC20148600820B06150
:1022C0002020306001213046FFF724FD0120DBE7AC
:1022D0000020D9E72DE9F84F04460D461646D5F8FB
:1022E0000090D5F80CA00020A8606861A861002EBD
:1022F0005DD1042020602820A0610020009083464A
:1023000072E0206810F0080F65D00020009060682F
:1023100000F0F80717F0070F59D1F8100C381428FF
:1023200055D2DFE800F00F541054152716282B3231
:1023300054334B5454545454540A042020600820FD
:10234000A06147E000BF042020600820A06141E0B8
:1023500000BFD5E90410884207D2E86828B1A06818
:102360000AF8010B6869401C68610420206008209D
:10237000A0612FE000BF0820A0612BE00820A06131
:10238000012000904FF0000B24E000BFD5E90110C0
:10239000884207D2286828B119F8010BA060A86804
:1023A000401CA860042020600820A06112E029E001
:1023B00080020010680200108C02001004202060CF
:1023C0000820A061012000904FF0000B02E00820DF
:1023D000A06112E008E0009830B158460BF1010B03
:1023E000B0F5803F00D900E08BE70420A06147F4FE
:1023F0008060A8610120BDE8F88F0420A061AF6172
:102400000020F8E7012E15D12046FFF76DFB80462E
:10241000934840F838500120914901EBC8014860C9
:10242000042020602820A06101212046FFF772FCD3
:102430000120E0E70020DEE770B504460D4689483C
:10244000844205D08848844202D08848844200D122
:1024500005E04FF49461AFF28450FDF710FF287847
:10246000002803DB2878032800DC05E040F2A141C6
:10247000AFF2A050FDF703FFA87810B1A8780128AB
:1024800000D105E040F2A241AFF2B850FDF7F7FEEF
:10249000A878012800D100E00020697840EA4100D6
:1024A000C6B2287830B101280AD002280ED00328FD
:1024B00018D111E0E660E87800F0FE00206311E03A
:1024C0002662E87800F0FE0060630BE06662E87860
:1024D00000F0FE00A06305E0A662E87800F0FE00D0
:1024E000E06300BF00BF70BD70B504460D461646E0
:1024F0005C48844205D05C48844202D05B488442F8
:1025000000D105E040F2D441AFF23860FDF7B7FEEC
:10251000022D00D000BF00BF0EB1012E00D105E09A
:1025200040F2D641AFF25460FDF7A9FE012E03D16F
:10253000E0692843E06104E0E0690721A94308401D
:10254000E06170BD70B504460D464648844205D032
:102550004548844202D04548844200D105E04FF40A
:102560009E61AFF29060FDF78AFE0DB1012D00D1A2
:1025700005E040F2F141AFF2A460FDF780FE012DCD
:1025800008D1E06940F00100E061042020602820CB
:10259000A06105E0E06900F00600E0612C20A06188
:1025A00000203349086070BD10B504462D488442B0
:1025B00005D02D48844202D02C48844200D105E049
:1025C00040F21351AFF2F460FDF759FEE06AC0B279
:1025D00010BD30B50346002008249C61DC6A244D00
:1025E0002D684C55224C2468641C214D2C602C46CF
:1025F0002468944200D3012030BD70B505462846BA
:10260000FFF772FA04461B4850F82460002019496D
:1026100041F82400304670BD70B505462846FFF7E6
:1026200063FA0446144850F824600020124941F827
:102630002400304670BD00F01F0201219140420984
:102640004FF0E02303EB8202C2F80011704700F064
:102650001F0201219140094A430942F823107047A3
:102660006802001000C0014000C0054000000A40A0
:102670002C000010800200108C02001080E100E0AD
:1026800070B504460D46F848844200D103E042216B
:10269000F6A0FDF7F4FD0DB1012D00D103E04321BB
:1026A000F2A0FDF7ECFD1DB9206800F0030602E082
:1026B000606800F0030616B1012E04D101E0082085
:1026C00070BD1020FCE72020FAE770B504460D46E7
:1026D000E548844200D103E05F21E4A0FDF7CFFD8F
:1026E0000DB1012D00D103E06021E0A0FDF7C7FD91
:1026F0001DB92068C0F3800602E06068C0F3800660
:10270000012E01D1012070BD0220FCE710B5044666
:10271000D548844200D103E07A21D4A0FDF7AFFD73
:102720000121C806FFF79AF90020CF4908604860E8
:1027300010BD2DE9F04106460F461446CA488642B0
:1027400000D103E09221C9A0FDF799FD207828B1BE
:102750002078012802D02078032800D103E09421BA
:10276000C2A0FDF78CFD607810B16078012800D11F
:1027700003E09521BDA0FDF782FDA078012801D0DE
:10278000A07800B903E09621B8A0FDF778FDE078C5
:10279000012801D0E07800B903E09721B3A0FDF74C
:1027A0006EFD207910B12079012800D103E0982135
:1027B000AEA0FDF764FD6079012801D0607900B911
:1027C00003E09921A9A0FDF75AFD2078401C4FEAAB
:1027D000C008A8F101008001217940EA4110E178A8
:1027E00040EA0110A17840EAC100617840EA810026
:1027F000217840EA0105012F02D19B48456001E0A4
:1028000099480560BDE8F08110B5044696488442B9
:1028100000D103E0AF2195A0FDF731FD00214FF07D
:102820000060FFF71BF910BD70B504460D468E48D9
:10283000844200D103E0BF218CA0FDF720FD0DB143
:10284000012D00D103E0C02188A0FDF718FD1DB9BE
:102850002069C0F3074070BD2069C0F30720FAE784
:10286000016821F010010160416821F01001416010
:10287000016821F008010160416821F00801416010
:10288000016821F400410160704770B504460D46AF
:102890007548844200D103E0E22174A0FDF7EFFC0B
:1028A000A56070BD10B504466F48844200D103E0B6
:1028B000ED216EA0FDF7E3FCE06810BD70B50446A5
:1028C0000D466948844200D103E0FC2167A0FDF772
:1028D000D6FC0DB1012D00D103E0FD2163A0FDF771
:1028E000CEFC25B9206840F00800206003E0606855
:1028F00040F00800606070BD70B504460D465A484F
:10290000844200D104E040F2111158A0FDF7B7FC59
:102910000DB1012D00D104E04FF4897153A0FDF7F2
:10292000AEFC25B9206840F40040206003E06068F8
:1029300040F40040606070BD70B504460D464A48E2
:10294000844200D104E04FF4937148A0FDF797FC56
:102950000DB1012D00D104E040F2271143A0FDF795
:102960008EFC65B9206820F400402060206840F0AB
:1029700008002060206840F01000206007E06068D8
:1029800040F008006060606840F01000606070BD5A
:102990002DE9F04704460E4615463348844200D1DF
:1029A00004E04FF4A27131A0FDF769FCB6F57A5F3F
:1029B00003D33D48864200D804E040F245112BA0E5
:1029C000FDF75DFC0DB1012D00D104E04FF4A371C2
:1029D00026A0FDF754FC3620FFF723F84FEA500AF3
:1029E00040F201102062606255B900212046FFF7D5
:1029F0006CFE814600212046FFF742FE074609E0B3
:102A000001212046FFF761FE814601212046FFF7A4
:102A100037FE074606FB09F07843BAFBF0F0401E8C
:102A200000F0FF0815B9C4F8288001E0C4F82C8034
:102A30000120BDE8F08770B504460E4615460A48E9
:102A4000844200D104E040F26D1108A0FDF717FCAC
:102A50003F2E00DC04E04FF4B77104A0FDF70FFC3B
:102A60000DB1012D22D127E000800A402E2E5C4CB2
:102A700069627261726965735C4C435031373638F4
:102A80005F5374645065726970685F4472697665FB
:102A9000725C736F757263655C6C706331377878E4
:102AA0005F6932732E6300000077010040F26F11FE
:102AB000AFF24800FDF7E3FB0DB9A66200E0E66265
:102AC00070BD70B504460D461646D148844200D10B
:102AD00005E04FF4C471AFF26C00FDF7D0FB28782D
:102AE00010B12878022800D105E040F28911AFF238
:102AF0008400FDF7C4FB6878012801D0687800B92C
:102B000005E04FF4C571AFF29C00FDF7B8FBA87863
:102B1000012801D0A87800B905E040F28B11AFF28E
:102B2000B400FDF7ACFB0EB1012E00D105E04FF46F
:102B3000C671AFF2C800FDF7A2FBCEB9206B20F042
:102B40000F0020632878022803D1206B40F0020098
:102B500020636878012803D1206B40F004002063D3
:102B6000A87801281DD1206B40F00800206318E0F0
:102B7000606B20F00F0060632878022803D1606B3F
:102B800040F0020060636878012803D1606B40F078
:102B900004006063A878012803D1606B40F008004E
:102BA000606370BD70B506460C461546984886426F
:102BB00000D105E040F2B311AFF25010FDF75FFB1A
:102BC000207810B12078012800D105E04FF4DA71A7
:102BD000AFF26810FDF753FB60781F2800DC05E0BA
:102BE00040F2B511AFF27C10FDF749FB0DB1012D9C
:102BF00000D105E04FF4DB71AFF29010FDF73FFB21
:102C0000012D0BD1207820B96078000280494861FD
:102C10000FE0607800027E4988610AE0207820B9E0
:102C2000607800047A49486103E0607800047849DC
:102C3000886170BD2DE9F04104460E4617461D46D9
:102C40007348844200D105E04FF4EC71AFF2E41018
:102C5000FDF715FB0DB1012D00D105E040F2D911B2
:102C6000AFF2F810FDF70BFB0EB1012E00D105E01D
:102C70004FF4ED71AFF20C20FDF701FB0FB1012F06
:102C800000D105E040F2DB11AFF22020FDF7F7FAAA
:102C9000012F18D15EB9012D04D1606940F0010007
:102CA000606128E0606920F00100606123E0012D8F
:102CB00004D1A06940F00100A0611CE0A06920F0EF
:102CC0000100A06117E05EB9012D04D1606940F0F8
:102CD000020060610FE0606920F0020060610AE0BC
:102CE000012D04D1A06940F00200A06103E0A069B9
:102CF00020F00200A061BDE8F08170B504460D46E9
:102D000016464348844200D105E040F20221AFF26A
:102D1000A420FDF7B4FA0DB1012D00D105E040F279
:102D20000321AFF2B820FDF7AAFA1F2E00DC05E060
:102D30004FF40171AFF2CC20FDF7A1FA012D04D1BF
:102D4000E06940EA0620E06103E0E06940EA06400D
:102D5000E06170BD70B504460E4615462C488442AD
:102D600000D105E040F21921AFF20030FDF787FAFB
:102D70000DB1012D00D105E040F21A21AFF214305F
:102D8000FDF77DFA012E0BD1012D04D1E06940F051
:102D90000100E0610FE0E06920F00100E0610AE07D
:102DA000012D04D1E06940F00200E06103E0E06938
:102DB00020F00200E06170BD70B504460D46144875
:102DC000844200D105E040F23721AFF26030FDF7D8
:102DD00056FA1DB9E069C0F3400070BDE06900F02B
:102DE0000100FAE770B504460D460948844200D157
:102DF00005E04FF41271AFF28C30FDF740FA1DB9C7
:102E0000E069C0F3074070BDE069C0F30720FAE74E
:102E100000800A401C480068401C1B49086070473D
:102E200030B51A4800684FF47A72B0FBF2F0411ED8
:102E3000B1F1807F00D31DE021F07F40401E4FF0B4
:102E4000E022506150171F22002807DAD3061D0E1A
:102E50000F4B00F00F04241F1D5503E0D3061C0E7A
:102E60000C4B1C5400BF00204FF0E0229061072063
:102E7000106100BF30BD044A116800BF024A1268E9
:102E8000521A8242FAD3704730000010000000103E
:102E900018ED00E000E400E070B5002500241825DE
:102EA00020E004EB44001149085CFF2800D11AE03F
:102EB0000F48056004EB44000C4908440C49486085
:102EC00003208860C86100220A48FFF709F9012839
:102ED00005D1601CC4B208A0FDF703FD02E009A003
:102EE000FDF7FFFCDDE700BF70BD000034000010FF
:102EF0009802001000000A4053656E6473204F4B27
:102F00000D0A000053656E6473206F757420746839
:102F100065206661696C7572650D0A001CB501203B
:102F20008DF8040000208DF8030002208DF80200C7
:102F300000208DF800000A208DF801006846FEF799
:102F400017FD0B208DF801006846FEF711FD47F2D2
:102F500030510448FEF74FFE01210248FEF7B7FE4C
:102F60001CBD000000000A4000B585B003208DF8AC
:102F7000020002208DF800000B208DF80100684649
:102F8000FEF7F6FC0C208DF801006846FEF7F0FC19
:102F90000D208DF801006846FEF7EAFC2248FFF795
:102FA000B5FB01208DF8080000208DF809008DF890
:102FB0000A0001208DF80B0000208DF80C008DF820
:102FC0000D0002AA00211848FFF7B3FB01208DF87D
:102FD0000C0002AA01211448FFF7ABFB00208DF87A
:102FE00010008DF811008DF81200002204A90E487F
:102FF000FFF767FD00208DF80D0002AA00210A48A6
:10300000FFF797FB01208DF81100012204A9064863
:10301000FFF757FD002205490348FFF7B9FC0248B6
:10302000FFF71EFC05B000BD00800A4000770100DC
:1030300053EA020C00F069802DE9F04B4FF00006D6
:10304000002B1FBFB3FA83F503FA05F424FA05F643
:103050005E4012BF1643B2FA82F502FA05F4C5F1DA
:1030600020051EBF22FA05FC44EA0C04203556EA6E
:10307000044C4FEA144418BF641C4FF000084FF092
:103080000009904271EB030C39D3002919BFB1FA42
:1030900081F701FA07F6B0FA80F700FA07F6C7F1F0
:1030A00020071EBF20FA07FC46EA0C062037B6FBB5
:1030B000F4FCA7EB0507103F07F01F0BCBF1200630
:1030C0000CFA0BFB2CFA06F644BFB3460026202F61
:1030D000A4BF5E464FF0000B5BEA060C08BF4FF042
:1030E000010B19EB0B09ABFB027C48EB0608C01B7C
:1030F00006FB02CC0BFB03CC71EB0C01C1E70B46CA
:10310000024641464846BDE8F08B13B54FF000003B
:103110004FF00001AFF30080BDE81C407047B2F1F2
:1031200020030AD5C2F1200301FA02F120FA03F3C9
:1031300000FA02F041EA0301704700FA03F14FF090
:1031400000007047B2F120030AD5C2F1200320FA33
:1031500002F001FA03F321FA02F140EA030070479A
:1031600021FA03F04FF00001704700001CB50C4637
:10317000064B7B4469460090204600F0C8F80446A0
:103180000020694600F0D6F820461CBDBF010000B3
:1031900070477047704770B5044685690068C1067E
:1031A00001D5302600E02026C00708D070BDD4E944
:1031B000012130469047206A00F1010020626D1E17
:1031C000F5D570BD70B5044685690068C00708D1A3
:1031D00070BDD4E9012120209047206A00F1010050
:1031E00020626D1EF5D570BD09684A0501D540B253
:1031F0007047C905FCD500B2704709684A0501D57A
:10320000C0B27047C905FCD580B2704770B505469D
:103210000C46012A05D02868800600D5EA690023FB
:1032200002E0012305E05B1C934202D2E05C00282F
:10323000F9D1A869E618C01AA861286A184428625A
:103240002846FFF7A8FF04E0D5E9012114F8010B97
:103250009047B442F8D32846FFF7B4FF70BD000092
:103260002DE9F0410746002510687529394616A456
:1032700011D0FFF7B9FF002803DAC0F1000013A452
:1032800007E039688A0701D511A402E0490704D58F
:1032900010A4012501E0FFF7B0FF00210A2307F188
:1032A000240607E0B0FBF3F203FB12003030705449
:1032B0001046491C0028F5D12B4622463846BDE869
:1032C000F04100F06CBA0000000000002D0000008A
:1032D0002B0000002000000011680268006A5305FE
:1032E00001D508700BE0D30501D5088007E013066F
:1032F00003D5C217C1E9000201E0520608600120AF
:103300007047000001694A1C02610878704700B5E7
:103310008FB0CDE901310021059105497944CDE90E
:1033200003101146684600F02FF90FB000BD0000F1
:10333000E5FFFFFF0A6802F8010B0A607047000012
:103340002DE9FF5F04468A461546DFF8AC80F84455
:103350000027D8E900103E46CDE9001011E03AF808
:1033600016106A4602A800F0B2FC411C07D0216882
:10337000890603D5E269391891420ED8074406F14F
:1033800001062068800602D5E069B84205DDAE423C
:10339000E5DB3AF816000028E1D1A069C01BA06166
:1033A0002046FFF7F8FED8E90010CDE90010002014
:1033B00016E03AF818106A4602A800F088FC814628
:1033C000401C0BD000250DF1080B05E0D4E90121CC
:1033D0001BF8050090476D1C4D45F7D308F101001F
:1033E000B0428046E5DB206A384420622046FFF781
:1033F000E9FEBDE8FF9F0000461400002DE9F04102
:103400008046D21D22F007020026D2E90002F529EB
:1034100014A512D0002A06DA0023D0EB030063EBD8
:10342000020211A508E0D8F800108B0701D50FA5FE
:1034300002E0490701D50EA501261146002408F136
:10344000240704E000F066F930323A55641C50EA73
:103450000102F7D133462A4621464046BDE8F041F5
:1034600000F09DB9000000002D0000002B000000BE
:103470002000000030B4002100F124040CE002F030
:10348000070505F130054FEAD20242EA437265545E
:1034900001F101014FEAD30352EA0305EFD10468B9
:1034A000002310A2250708D504F020040C4304D003
:1034B000C46901230CA2641EC46130BC00F06FB962
:1034C00010B5044621461068FFF797FE02462046D5
:1034D000BDE810400023CDE7D21D22F00701D1E95D
:1034E0000023C7E70000000030000000F0B40F46E2
:1034F0000168090502D5234C7C4402E0214C7C4440
:103500000E34002100F124050BE002F00F064FEA13
:103510001212A65D42EA03724FEA13136E5401F1D0
:10352000010152EA0306F0D1224604680023240771
:1035300004D5702F05D009B111320223F0BC00F080
:103540002EB910320123F9E770B504460D46214625
:103550001068FFF752FE024629462046BDE870403B
:103560000023C3E7D21D22F00703D3E90023BDE700
:103570000368126843F0200303600823C36100233B
:10358000B4E70000A41200002DE9F05F044689466C
:103590004FF0000ADFF878B1FB44C0F820A02046C5
:1035A000E1688847002875D0252806D0D4E9012194
:1035B0009047206A401C2062F1E700265F462046C3
:1035C000E16888472028054608DB312D06D207EB45
:1035D000050010F8200C08B10643F0E7B00701D54C
:1035E00026F00406C4F81CA00027C4F818A02A2D51
:1035F00009D0284601F092F838B304EB8708303D33
:10360000C8F8185019E059F8041B204604EB87024B
:103610009161E1688847012F054618D1E0690028CB
:1036200020DA26F020061DE0D8F8180000EB800014
:1036300005EB40003038C8F818002046E16888479C
:10364000054601F06BF80028EED1012F0AD02E2D8F
:1036500008D12046E16888477F1C0546022F46F0C6
:103660002006C4DBA069002803DA404246F00106C8
:10367000A061F00701D026F010066C2D0BD0682D4C
:1036800009D04C2D39D06A2D35D0742D35D07A2DF6
:1036900033D016E038E0E1682F4620468847B8422C
:1036A000054609D16C2F26D04FF48060E1680643AF
:1036B00020468847054604E06C2F1AD04FF48070EE
:1036C00006430DB3A5F14100192802D8203546F470
:1036D00000664A462946204626604E46FCF730FDE5
:1036E00080B101280BD0F61D26F0070000F1080973
:1036F00055E74020E4E78020D8E70020D6E706F130
:1037000004094CE7284651E7206ABDE8F09F000015
:103710002C12000030B5B0F10A024FEA900E71F1A0
:1037200000034EEA817EB0EB0E0061EB91014FEA9F
:10373000101E4EEA017E10EB0E0041EB11114FEA14
:10374000102E4EEA016E10EB0E0041EB11214FEAF4
:10375000104E4EEA014E10EB0E0041EB11414018A5
:1037600041F100014FEAD00040EA41704FEAD10137
:1037700010EB80054FEA810444EA907444EB0104A5
:103780006D1944EB0404521BA3414FF0000348BFE2
:103790000A3200D530BD401C41F1000130BD2DE999
:1037A000F0470D4604469246994600F12408016808
:1037B000880604D5E06921F01001216000E00120B5
:1037C000A84202DDA0EB050700E00027A16907EB96
:1037D000050202EB0900A1EB0000A0612068C00611
:1037E00002D42046FFF7D7FC002608E0D4E90121E7
:1037F0001AF806009047206A401C761C20624E454D
:10380000F4DB2068C0060AD52046FFF7C4FC06E0BA
:10381000D4E9012130209047206A401C2062381EE4
:10382000A7F10107F4DC07E0D4E9012118F805004D
:103830009047206A401C2062281EA5F10105F3DC98
:103840002046FFF7BFFC2068000602D50220BDE835
:10385000F0870120FBE770472DE9FF4F0C461E461D
:103860004FF0FF378BB0D2E90001DDF860800A909D
:103870008A46C1F30A5505B93D46002108464FF076
:103880000000BAF1000F00F4400005DA00EB800000
:103890004FF4400101EA50004FEA9059B9F1010F8D
:1038A00000DDB9460A9850EA4A000FD044F610509D
:1038B000A5F2FF3545432F14B8F1000F1FD0754214
:1038C000291E1FDD4846C9F100021CE0B8F1010FB6
:1038D0004FF0000001D1F24307E0302101E0215414
:1038E000401CB042FBDB30460022002121540B99E2
:1038F000C1F80880C1E900200FB0BDE8F08FBD1B02
:103900006D1CDDE74A4600DA694206A800F070FA4D
:1039100006AB07CB03AB07C350460A9900F02FFB59
:103920008DE80700A0F500501F3800900398002D87
:1039300009DD42F21F014A46084403A90390684684
:1039400000F08EFD08E0A0F500504A461F3803A99C
:103950000390684600F098FD8DE807000004000C15
:1039600003D04FF0FF30410800E01046B8F1000FDF
:1039700003D00022009215461FE0751E06D4FFF703
:10398000C9FE02F1300262556D1EF8D5B346012220
:10399000084302D000227F1C04E02078302801D1A7
:1039A00000227F1E002A099786D01DE0112D07DA1C
:1039B000FFF7B0FE303262556D1C50EA0102F5D1BE
:1039C00008430FD10021681E05E0235C625C63544C
:1039D000491C2254401E8142F7DBAB46A81B401E07
:1039E000099001E0009848B1002004F80B000B9802
:1039F000099AC0F80880C0E9002B7DE711264FF036
:103A0000000859E72DE9F04F88460446D21D22F000
:103A1000070191B0D1E90001CDE90A0100F06AFE89
:103A200002460B98C00F01D02D2007E020688107C7
:103A300001D52B2002E0202101EAC000032A0990D1
:103A400001D0072A05DB03464146204600F090F9E5
:103A50000EE12068800601D5E06900E00620B8F19B
:103A6000650F814606D0B8F1660F18D0B8F1670F20
:103A700072D132E00020B9F1110F009001DB112367
:103A800001E009F101030AAA01A90CA8FFF7E4FE6D
:103A9000DDE90C70002609F10105834648E00120AC
:103AA0004B4600904FF000470AAA01A90CA8FFF767
:103AB000D3FEDDE90C050E990026AB4619B909F1D4
:103AC000010100EB0105B9EB050003D4C0F1FF369D
:103AD00009F10105A5EB09002BE0B9F1010F01DAAD
:103AE0004FF001090020B9F1110F0090484601DDA7
:103AF000112300E003460AAA01A90CA8FFF7ACFEB7
:103B0000DDE90C704D4600268346206800070AD484
:103B1000AB4500DA5D4601A8012D04DD411911F81D
:103B2000011C302907D04F4502DA17F1040F04DADF
:103B30000120824610E06D1EEEE7002F02DCED1B37
:103B40003E4403E0781CA84200DD0546A7EB0600D2
:103B500000F1010A4FF000472068000703D4AA458E
:103B600001DB4FF0FF3A0021B7F1004F0DF14308A0
:103B70008DF8431022D002202B23002F01DA7F4240
:103B80002D230A22011EA0F1010000DC4FB197FB9A
:103B9000F2F102FB117C0F460CF1300C08F801CD5C
:103BA000F0E7A8F1010003702168090501D545215E
:103BB00000E06521A0F1010800F8011C09980FA997
:103BC000A1EB080707F1070700B1012000EB050191
:103BD00001EBEA70A1693844A1EB0000A0F10100FB
:103BE000A0612068C00602D42046FFF7D4FA0998E5
:103BF00030B1D4E901219047206A00F10100206230
:103C00002068C00620D52046FFF7C5FA1CE0002E2C
:103C100004DBB34502DD01A8805D00E03020D4E97B
:103C200001219047206A761C401CBAF1010A2062EB
:103C30000AD100F099F8C0680168405CD4E901211C
:103C40009047206A401C2062281EA5F10105DEDC99
:103C500007E0D4E9012118F8010B9047206A401CC5
:103C60002062381EA7F10107F3DC2046FFF7AAFA0D
:103C7000022011B041E610B5436913B1AFF30080E3
:103C800001E0FFF7C3FA012010BD126800F1240122
:103C90000A7000224A700122EDE711684FF0FF32EE
:103CA000E9E710B5436913B1AFF3008001E0FFF716
:103CB00047FB012010BD126800F12401828400221C
:103CC000C2840122EDE711684FF0FF32E9E770B5D9
:103CD00005460C46164600F03FF8036893F80101CC
:103CE000012806D0FF2C0FD8185D68B101202C7078
:103CF00070BDD3F807013246214603442846BDE88B
:103D0000704003F2071318474FF0FF3070BD75463F
:103D100000F0E6F8AE4605006946534620F007007D
:103D2000854618B020B5FCF785FABDE820404FF075
:103D300000064FF000074FF000084FF0000B21F095
:103D40000701AC46ACE8C009ACE8C009ACE8C00962
:103D5000ACE8C0098D46704710B500F005F8001DAD
:103D600010BD00BFF509000000487047E4020010D4
:103D70002DE9F04104461F4603260168072A01F495
:103D8000006004DB08B116A505E016A503E008B144
:103D900015A500E015A521F010002060A069C01E47
:103DA000A0610FB1401EA0612046FFF7F4F94FB1AA
:103DB000D4E9012138469047206A401C2062C01C8B
:103DC000206206E0206AFAE7D4E9012115F8010B28
:103DD0009047761EF8D22046FFF7F4F9BDE8F0814F
:103DE0004E414E006E616E00494E4600696E66009F
:103DF0002DE9F047814616468AB035487844D0E927
:103E0000002380680092CDE90130314878440C38B5
:103E1000D0E90223006903924FF03702CDE9043064
:103E200041F69B30014491FBF2F0A0F1800502FBCA
:103E300010141B3C02D56442012000E00020DFF892
:103E400090A080460027FA44AAF1C60A0DE0E007D8
:103E500009D03246684607EB47010AEB810100F0C2
:103E600013FB8DE8070064107F1C002CEFD1184F66
:103E70007F44B43F17E0E80713D007EB04100DF1BF
:103E8000180A90E80E00AAE80E00C068F04201D1BE
:103E900098190890324606A903A800F0F5FA03AB7A
:103EA00007C36D10641C002DE5D132466946B8F198
:103EB000000F03A802D000F0D3FA01E000F0E4FA0A
:103EC000C9E90001C9F808200AB0BDE8F087000080
:103ED000580A00000446AFF300802046FCF795F92D
:103EE00000487047C40200104FF0013C50F8042B0A
:103EF00051F8043B9A4221D1A2EB0C03934313EAFD
:103F0000CC1317D150F8042B51F8043B9A4215D129
:103F1000A2EB0C03934313EACC130BD150F8042B00
:103F200051F8043B9A4209D1A2EB0C03934313EAE4
:103F3000CC13DBD04FF00000704700BFD01A01BA9D
:103F4000B1FA81F101F0180122FA01F0CB40C1F180
:103F50002001DBB2C0B2C01A2CFA01F3D11A91438E
:103F600011EAC311E6D1704701491820ABBEFEE744
:103F70002600020000487047C802001070475FEA40
:103F8000400C08BF91F0000F4FEA8C234FEAC1228A
:103F900043EA51514FEA1C5018BF00F5F0404FEA78
:103FA000300018BF41F000415FEA6C5C00F02980EE
:103FB000BCF1FF3F08BF40F080407047130C06BFC4
:103FC00012044FF0100C4FF0000C130E04BF12023D
:103FD0000CF1080C130F04BF12010CF1040C930F29
:103FE00004BF92000CF1020CD30F04BF52000CF17D
:103FF000010C11464FF00002A0F11F00A0EB0C00D5
:10400000704711F0004F08BF704731F000413FF496
:10401000D5AF0B0C06BF09044FF0100C4FF0000C8D
:104020000B0E04BF09020CF1080C0B0F04BF0901B1
:104030000CF1040C8B0F04BF89000CF1020CCB0FA8
:1040400004BF49000CF1010CCCF12003A0EB0C00E3
:1040500022FA03F302FA0CF241EA030100F1010033
:10406000704720F07F4C80EA030023F07F47ACEBE1
:10407000070303F57C5300F0004003F1FF032DE933
:1040800080494FEA154B09B44FEA144325EA0B4E19
:1040900024EA03480FF2042606EB132749083E786A
:1040A0005FEA320203FB0667C7F5000707FB06F667
:1040B0004FEA54374FEAD64606F1020607FB066C74
:1040C000CCF1005C4FEA1C472CEA074C07FB06F4D6
:1040D0000CFB06F504EB15464FEA961634BF00209C
:1040E0004FF000404FEAD13706FB07FC4FEA1C4C6B
:1040F0000CFB0BF7D21B03FB0CF761EB07010CFB6E
:104100000EF7B0EB074072EB17420CFB08F734BF19
:10411000A2EB0742B2EB074261EB17414FEA0C44B6
:104120004FEA910706FB07FC4FEA1C4C0CFB0BF710
:10413000B0EBC74072EB573203FB0CF734BFA2EB76
:10414000C742B2EBC74261EB57310CFB0EF7B0EB45
:10415000C70072EB57720CFB08F734BFA2EBC70223
:10416000B2EBC70261EB5771039F4FEA816141EAED
:10417000921104EBCC044FEAD1374FEA826206FB7E
:1041800007FC42EA90124FEA80604FEA1C4C0CFB9D
:104190000BF7D21B03FB0CF761EB07010CFB0EF7CF
:1041A000B0EB074072EB17420CFB08F734BFA2EBF1
:1041B0000742B2EB074261EB17414FEA8C554FEAD9
:1041C000910704EB9C2406FB07FC4FEA1C4C0CFBFC
:1041D0000BF7B0EBC74072EB573203FB0CF734BF61
:1041E000A2EBC742B2EBC74261EB57310CFB0EF7B3
:1041F000B0EBC70072EB57720CFB08F734BFA2EBB1
:10420000C702B2EBC70261EB577115EB4C254FEAC1
:10421000816141EA92114FEA82624FEAD13742EA64
:10422000901206FB07FC44F100044FEA80604FEA5D
:104230001C4C0CFB0BF7D21B03FB0CF761EB0701CB
:104240000CFB0EF7B0EB074072EB17420CFB08F7C4
:1042500034BFA2EB0742B2EB074261EB174115EB0B
:104260001C154FEA813141EA92414FEA823242EA1B
:1042700090424FEA80304FEA0C7644F1000448EA5D
:1042800003434EEA0B484FF0000EB2EB080C71EB03
:10429000030724BF624639464EEB0E0E4FF0000B6B
:1042A0000018524149414BEB0B0BB2EB080C71EB80
:1042B00003077BF1000B24BF624639464EEB0E0E1E
:1042C0004FF0000B0018524149414BEB0B0BB2EB86
:1042D000080C71EB03077BF1000B24BF62463946E3
:1042E0004EEB0E0E51EA020718BF46F0010616EB20
:1042F0000E7655F1000254F1000103D5BDE88901A5
:10430000BDE80088BDE88901BDE80048B619524102
:1043100041EB0101A3F10103704780807F7E7D7C2A
:104320007B7A7978777676757473727171706F6E47
:104330006E6D6C6C6B6A6A696868676666656464F2
:10434000636362616160605F5F5E5E5D5D5C5C5B7C
:104350005B5A5A59595858575756565555555454EB
:10436000535352525251515050504F4F4F4E4E4D49
:104370004D4D4C4C4C4B4B4B4A4A4A494949484895
:1043800048474747474646464545454444444443D5
:1043900043434342424242414141002B26D47700ED
:1043A00021D01CB54FEA370703B44FF010004FF08F
:1043B00010014FF000000FBCBDE810400BF1010BE5
:1043C000BBF1010F08BF5FEA170722BF12F101021C
:1043D00011F101014FF0004143F1000300F00040F2
:1043E00043EA00007047F9D35708DAE746EA064681
:1043F00013F1400F4FEA16461FDD13F1200FDFBF08
:1044000016430A46002120335B42C8D0C3F120077F
:1044100046EA064602FA07F74FEA164646EA070654
:10442000C3F1200722FA03F201FA07F721FA03F198
:104430004FF0000342EA0702B1E746EA020646EA05
:1044400006464FEA164646EA0106BCBF46EA06465D
:10445000360C4FF000034FF000024FF000019EE7D2
:104460002DE9C048934630B491E8380007C831EAD6
:10447000400C48BF34EA430C03D5FFF7F2FDFFF7C9
:104480008CFFF0BCBDE800882DE9C048934630B4ED
:1044900091E8380007C810F0804F08BF13F0804F34
:1044A00003D100F005F8FFF778FFF0BCBDE8008805
:1044B00020F07F4780EA030023F07F4C07EB0C03DA
:1044C000A3F57C5300F00040A3F1FE0392F0000F2F
:1044D00000F0B38095F0000F00F077802DE90149DE
:1044E0004FEA11404FEA144621EA004800FB06FC5F
:1044F00024EA064708FB06F607FB08F800FB07F767
:1045000018EB06484CEB164C4FEA124B18EB0748D9
:104510004FEA15464CEB174022EA0B4E0BFB06FC0C
:1045200025EA06470EFB06F607FB0EFE0BFB07F718
:104530001EEB064E4CEB164C4FF000061EEB074EE2
:104540004CEB174B18EB0B0840F1000018EB0E0B6F
:1045500058EB000840F100008F1A4FF000013CBFFB
:10456000C943661B14BFB5EB040C00213CBFC94313
:10457000F61B4FEA17444EEA8E0E27EA04454FEA2F
:104580001C4704FB07622CEA074C05FB07F70CFBF2
:1045900005F604FB0CFC16EB074642EB174216EB44
:1045A0000C4642EB1C421BEB060658EB0202414153
:1045B00046EA9E0601D5BDE80189B619524141EB94
:1045C0000101A3F10103BDE801894FEA14454FEA57
:1045D000114724EA054621EA074C05FB07F406FBD0
:1045E00007F70CFB06F105FB0CFC11EB074144EB54
:1045F00017444FEA124711EB0C4144EB1C4422EAEA
:10460000074C05FB07F206FB07F70CFB06F605FB5C
:104610000CFC16EB074642EB174216EB0C4642EB3E
:104620001C456A1854F1000148BF7047B619524141
:1046300041EB0101A3F10103704795F0000F37D062
:104640004FEA11424FEA144721EA024624EA074C96
:1046500002FB07F106FB07F70CFB06F402FB0CFC60
:1046600014EB074441EB17414FEA154714EB0C4498
:1046700041EB1C4125EA074C02FB07F506FB07F757
:104680000CFB06F602FB0CFC16EB074645EB174548
:1046900016EB0C4645EB1C42121951F1000148BFC4
:1046A0007047B619524141EB0101A3F10103704774
:1046B0004FEA14454FEA114724EA054621EA074C20
:1046C00005FB07F106FB07F70CFB06F24FF00006AF
:1046D00005FB0CFC12EB074241EB174112EB0C42BD
:1046E00051EB1C4148BF7047921841EB0101A3F107
:1046F00001037047490050EAC12018BF04204A0D49
:1047000018BF40F0010040F2FF72B2EB515F08BFEA
:1047100040F00200012808BF0520704730380A2801
:1047200001D20120704700207047000010B5002919
:104730000AD00878002807D005487844FFF7D4FB52
:10474000002801D0002010BD0248784410BD0000B0
:10475000560100004E01000010B500290AD008786B
:10476000002807D005487844FFF7BEFB002801D099
:10477000002010BD0248784410BD00004601000032
:104780003E01000010B5FFF7F5FB4FF0000101609E
:1047900010BDFFF737B90000000000000000000066
:1047A0003031323334353637383941424344454667
:1047B0004030580030313233343536373839616261
:1047C0006364656640307800040000080000000063
:1047D0000000000200010000100000000240000084
:1047E000000000A00000000005400000000000C81C
:1047F000000000000C4000000000409C0000000091
:10480000194000000020BCBE000000003440000041
:10481000BFC91B8E00000004B5400000504BCFD034
:104820006607E2CF010000006C4100003E8251AA01
:10483000DFEEA73401000000D9420000DCB5A0E2A1
:104840003A301F97FFFFFFFFB4450000FD25A0C8C9
:10485000E9A3C14FFFFFFFFFFF3F00000000008002
:1048600000000000FF3F000000000080000000008A
:10487000BC490000000000106400000008010000B6
:10488000204A000064000010C4040000240100005D
:104890001C00000043000000F8FFFFFF0C000000B8
:1048A0000E0000000F0000002E00000010010000AC
:1048B00043000000F8FFFFFF004040404040404000
:1048C00040404141414141404040404040404040E3
:1048D0004040404040404040400502020202020287
:1048E00002020202020202020220202020202020D6
:1048F00020202002020202020202909090909090EA
:1049000010101010101010101010101010101010A7
:10491000101010100202020202028888888888881B
:104920000808080808080808080808080808080807
:10493000080808080202020240000000000000000F
:104940000000000000000000000000000000000067
:104950000000000000000000000000000000000057
:104960000000000000000000000000000000000047
:104970000000000000000000000000000000000037
:104980000000000000000000000000000000000027
:104990000000000000000000000000000000000017
:1049A0000000000000000000000000000000000007
:1049B00000000000000000000000000000E1F5051C
:1049C00000000000000000000000000000000000E7
:1049D00000000000000000000000000000000000D7
:1049E00000000000000000000000000000000000C7
:1049F0007F000002A5DF000F390100000300000462
:104A000002021000001100001255151300001400DE
:104A100000200000210000220F02230000FFFFFF02
:04000005000000CD2A
:00000001FF
