:400000000080002011000000650200006502000008B5044B1A6803F53F5302331A6000F023F900BFFA46004010B5054C237833B9044B13B10448AFF300800123237010BD8D
:400040009081FF1F0000000084170000084B10B51BB108480849AFF300800848036803B910BD074B002BFBD0BDE81040184700BF00000000841700009481FF1F0881FF1FFB
:4000800000000000F8B5012001464FF4804241F6FF7300F007FF204F3870012001464FF4804241F6FF7300F0DFFE1C4E307000F0C1FB1B4D287000F0BDFB1A4C2070287899
:4000C0004FF48041FE22022300F0CEFB20784FF48041FE22022300F0C7FB287846F24541114A92B200F0D4FB207846F255410F4A92B200F0CDFB3878297800F06BFB3078A5
:40010000217800F067FB3878012100F01BFB3078012100F017FBF8BDD0010020D5010020C4C1FF1FC8C1FF1FAC81FF1FD0C1FF1FF8B5022001214FF48042134600F02AFDEA
:400140001E4F3870022001214FF48042134600F041FD1B4E307000F06DFB1A4D287000F069FB194C20702A7810460221002300F07BFB227810460221002300F075FB287817
:4001800045F6A23146F2414200F082FB207845F6A23146F2514200F07BFB3878297800F019FB3078217800F015FB3878012100F0C9FA3078012100F0C5FAF8BDCDC1FF1F3D
:4001C000C5C1FF1FD4010020CCC1FF1F62B6002303E0204A22F813300133B3F5005FF8D370B584B000F024FC00F01CFE00F028FEFFF748FFFFF79CFF00F044FA00F064FAFD
:4002000000F04EFA4FF4FA6000F052FB00F01EFD00241BE00F4B33F81420D6B20E4D68462946120A00F096FE02A82946324600F091FE684600F024FD084800F021FD02A852
:4002400000F01EFD064800F01BFD0134B4F5005FE0D3FEE7AC81FF1F881700009017000094170000FEE700BF08B5114B114D16E029686B68AC68002204E00868186004325F
:4002800004330431A242F8D1E868002203E000211960043204338242F9D1103533465E1E002BE5D100F01CFEFFF790FFFEE700BF010000001419000008B5134A134B1A60CD
:4002C000134A136843F40073136000230AE0032B03D8104A52F8231000E00F490F4A42F8231001332F2BF2D90D4B1A780D4B1A700A4A0D4B1A6000F0E5F800F009FA0022F1
:400300000A4B1A6008BD00BF0004FA050CED00E014ED00E000000000650200000080FF1FBC7600400481FF1F08ED00E00081FF1FFEE700BFF0B40022174611E050F8276098
:40034000F3B226F0FF0608E001EB420511F812406D78A5550132013BDBB2002BF4D101371C2FEBD9F0BC704770B4164B1B78DBB215480278D2B2154C2178C9B203F007065D
:40038000134D2E701B0901352B7042F00303037041F00303237040250E4B1D70802503F2ED731D70012503F5C1731D702125A0331D70217002704422A3F2B5231A7070BCF2
:4003C000704700BFCF010049F8460040F94600406E5800401C51004008B50A46002100F0B0FD08BD38B501222B4B1A80192502331D70072202331A8002331D7002331D8082
:4004000002331D7040F2F31202331A8002331D70062203F272231A705222A3F580731A701E4B1B78DBB21E4A13704FF4E1621D4B1A8041F25122023B1A8000240CE01A4B7F
:400440001B7803F0010343EA440404F003044FF4F07000F04DF9013D0DB1032CEFD115B90320FFF765FF114A4FF4807313800723137000230E490B70482002310870137017
:400480000532137002220B4B1A700B4A137843F00F03137038BD00BF804000400F010049A14600402242004025420040044000400640004001400040A243004008B500F0FA
:4004C00035FD08BD70B572B6434A137843F00403137000240CE0414963001A1952000A4423445B00C8589188FFF776FF0134E4B20A2CF0D9002410E03849A3001A19520026
:400500000A4452F8440F23445B000B445168B3F84C20FFF7D3FF0134E4B2012CECD94FF090402F49FFF706FF2E480421FFF754FF2D480421FFF750FF2C480421FFF74CFF4B
:400540002B480421FFF748FF2A480421FFF744FF29480421FFF740FF284A137843F0020313701032137843F002031370244C237843F040032370A2F58632513A137843F01F
:40058000100313701F4820490822FFF797FF1F481F490822FFF792FF1E481F490822FFF78DFF1E481E490A22FFF788FF1D4A137843F0080313701C4E01253570FFF712FFC0
:4005C00081233370194B1D70FFF7CEFE184821460E22FFF773FF70BDE84600409817000074000048007600400876004010760040187600402076004028760040035001404C
:40060000A043004002510040F404004812510040FC0400484251004004050048505100400C050048224300400048004004000840B043004008B500F063F8064A137843F0B9
:400640002003137000F060F8034A137843F00403137008BD9264004071640040084B1A7802F0F8021A701A78D2B21A7004331A7802F0F8021A701A78D2B21A70704700BF97
:400680008164004008B5054B1B7823B9FFF7E6FF0122024B1A70FFF7CDFF08BDACC1FF1F08B500F02DF8064A137843F01003137000F02AF8034A137843F00103137008BDD3
:4006C000916400407164004008B500F019F8064A137843F01003137000F016F8034A137843F00203137008BD95640040716400400230800803D000BF01380046FCD170475B
:40070000EFF3108072B6704780F31088704700BF0B4A7F2313708021517007E0DA0002F1804202F5F042013BDBB21370002BF5D1DB0003F1804303F5F04300221A7070470F
:400740000C81FF1F172815D831B103010A495A5C42F020025A5405E0030107495A5C02F0DF025A540001044A835C43F00103835400207047012070471070004017280BD874
:400780000001064A835C03F0F10301F0070143EA4101815400207047012070471070004041F6FF73994201D14FF4005141F6FF739A4201D14FF40052172808D8C00000F1D0
:4007C000804000F5EC408180C280002070470120704700BF172805D8034B03EB0010417200207047012070471070004017281BD810B4C00000F1804404F5EC44D201D2B2F2
:4008000001F07F01114321709DF804201201D2B203F00F03134363709DF8083003F00F03A3700020E07001E0012070475DF8044B704700BF10B5FFF763FF0A4B5B78182B34
:400840000BD9084A1478013B5370E30003F1804303F5F0431B78137000E0FF24FFF754FF204610BD0C81FF1F10F0800F0CD111F4704F0BD1C00000F1804000F5F04001808F
:400880008270C37000207047012070470120704710F0800F08D1C00000F1804000F5F0408180C280002070470120704701BE704710B5044605E0084B1868FFF719FFA4F5B8
:4008C0000044B4F5004FF6D8034B586800FB04F0FFF70EFF10BD00BF1481FF1F08B5034B1B7A03FB00F0FFF703FF08BD1481FF1F70B504460E46074B1D681F2802D90020D5
:40090000FFF7D4FF04F01F04103455F8240045F8246070BD08ED00E038B504460D46072902D90020FFF7C2FF1F2C02D90020FFF7BDFF04F01F0000F1604000F564406D0150
:40094000EDB2057038BD00BF10B500F0C9F8074C20780121FFF7F6FE60780121FFF7F2FE002000F0D9F800F071F810BDADC1FF1F70B505460E46012001462A0C4FF4804367
:4009800000F072F8094C2070A278104631460123FFF76AFFA078A9B245F68132FFF778FF2078A178FFF716FF70BD00BFADC1FF1F70B505460E46012001462A0C4FF4804324
:4009C00000F070F8094C6070E278104631460123FFF74AFFE078A9B245F68132FFF758FF6078E178FFF7F6FE70BD00BFADC1FF1F10B500F0B9F8022000F080F8042000F06B
:400A0000A3F8FFF717FF084CA070FFF713FFE070064C20466421FFF7ABFF04F164006421FFF7C6FF10BD00BFADC1FF1FF017000008B5054B1B7923B9FFF7DAFF0122024B02
:400A40001A71FFF781FF08BDADC1FF1F054A137843F0080313701032137843F008031370704700BFA2430040F0B583B086460F4616461D460A4C0420207000230093019354
:400A800071463A46FFF7B2FE207831462A46FFF787FE20780221FFF771FE207803B0F0BD2481FF1FF0B583B086460F4616461D460A4C0520207000230093019371463A4640
:400AC000FFF794FE207831462A46FFF769FE20780221FFF753FE207803B0F0BD2581FF1F054A137843F0020313701032137843F002031370704700BFA8430040054B1A7834
:400B000002F0FD021A701A7800F0020010431870704700BF24580040014B1870704700BF815B0040064B1B78C3F3810303F19243063393F83031DBB2024A1370704700BF65
:400B4000245800400946004008B5064B1A7802F0F3021A701A7800F00C0010431870FFF7E1FF08BD2458004008B50020074B187001331870064A137843F008031370FFF754
:400B8000E3FF0220FFF7BAFF08BD00BF245800408F5A0040F0B583B084468E4617461E460B4C02252570002300930193284661467246FFF71BFE207839463246FFF7F0FD37
:400BC00020782946FFF7DAFD207803B0F0BD00BF2681FF1FF0B583B086460F4616461D460A4C0320207000230093019371463A46FFF7FCFD207831462A46FFF7D1FD207899
:400C00000221FFF7BBFD207803B0F0BD2781FF1F0622044B1A70472210331A7000224D331A7070472364004010B5FFF769FD0446054A137843F01003137000F033F82046B5
:400C4000FFF762FD10BD00BF9064004008B5054B1B7823B9FFF7DCFF0122024B1A70FFF7E3FF08BDB2C1FF1F034B1B7813F0040FFAD1024B187070476064004044640040B0
:400C800038B5074B1B782BB938BDFFF7EDFF0134A4B201E005460024285D0028F5D138BDB2C1FF1F054A137843F0040313701032137843F004031370704700BFA243004017
:400CC00008B50A280FD00C2802D0082806D102E04FF4805209E04FF4807206E00020FFF7E5FD002201E04FF480620021084B198042F2107303FB02F313F5806301D503F291
:400D0000FF73DB12034A13600022034B1A8008BDD8010020DC010020DA01002010B5FFF7EFFC04461E4A137843F0020313701032137843F002031370193A137843F0010399
:400D400013701032137843F00103137002F5AA521932137843F0030313700422114B1A70013B1A7802F0BF021A701A7842F003021A700822053B1A700222A3F59753123B93
:400D80001A70094A137843F0080313700A20FFF7A5FD0122054B1A602046FFF7B5FC10BDAB4300400E5900402F5B004080E200E010B504460A280DD00C2802D0082804D177
:400DC00001E0C42207E0442205E00020FFF76EFDC42200E08422034B1A702046FFF770FF10BD00BF0A59004008B5102000F032F800200721FFF790FD00200749FFF778FD8E
:400E0000064A137843F0060313700C20FFF7D0FF0022034B1A8008BD510E000009590040E001002008B5054B1B7823B9FFF7DCFF0122024B1A70FFF771FF08BDB4C1FF1F51
:400E4000024A137843F001031370704708590040704700BF034B1A7800F0F80010431870704700BF82400040F0B583B086460F4616461D460A4C01202070002300930193EF
:400E800071463A46FFF7B2FC207831462A46FFF787FC20780221FFF771FC207803B0F0BD2881FF1FF0B583B086460F4616461D460A4C0023237000930193184671463A4602
:400EC000FFF794FC207831462A46FFF769FC20780221FFF753FC207803B0F0BD2981FF1F0E4B70B51E460E4C0025E41AA410A54204D056F8253098470135F8E700F0F8FC89
:400F0000084B094C1E46E41AA4100025A54204D056F8253098470135F8E770BDFC180000FC180000FC1800000419000010B5431E0A44914204D011F8014B03F8014FF8E75C
:400F400010BD03460244934202D003F8011BFAE7704700000EB400B54FF402719CB0ADF814106FF00041049107914FF6FF711DABADF81610084953F8042B02900690086805
:400F800002A9019300F064F8029B00221A701CB05DF804EB03B070478C81FF1F2DE9F0478E688246B3420C469046994640D38A8912F4906F3AD02568096902236F1A656901
:400FC00005EB450595FBF3F57B1C4B449D4238BF1D4653050FD5294600F030FB064698B121693A46FFF7A2FFA38923F4906343F08003A38113E02A4600F076FB064670B99B
:401000005046216900F0D6FA0C23CAF80030A3894FF0FF3043F04003A381BDE8F08726613E4426604E466561ED1BA560B14500D24E4632462068414600F0A0FAA3680020D1
:401040009B1BA36023681E442660BDE8F08700002DE9F0439DB003938B8906461C060D4690460CD50B6953B9402100F0E7FA2860286110B90C233360CCE040236B61002324
:40108000099320238DF8293030238DF82A3043461C4613F8012B1AB9B4EB08090FD002E0252AF5D1F8E73046294642464B46FFF775FF013000F0A980099B4B4409932378CB
:4010C000002B00F0A28000234FF0FF3204930793059206938DF853301A9304F101084446DFF8489121784846052200F039FA08F10108049B30B1C9EB0000012282401343F0
:401100000493ECE7D80644BF20228DF85320190744BF2B228DF8532022782A2A02D0079923460EE0039A0134111D12680391002ABBBF524243F0020307920792B8BF04934D
:401140000AE01C4622780133303A092A03D80A2000FB0121F5E7079123782E2B1AD163782A2B0AD1039B02341A1D1B680392002BB8BF4FF0FF3305930CE0611C00220C468D
:4011800023780131303B092B03D80A2000FB0232F5E70592DFF8988021784046032200F0DFF938B1049AC8EB00004023834013430493013421781A48062204F101088DF8F9
:4011C000281000F0CDF988B1164B33B9039B073323F007030833039313E003AB0093304604A92A46104BAFF3008007E003AB0093304604A92A460C4B00F092F8421C07463A
:4012000003D0099B3B44099341E7AB895B0601D4099801E04FF0FF301DB0BDE8F08300BFC4180000000000009D0F0000BA180000C01800002DE9F84391461F468A680B69D1
:4012400006469342B8BF1346C9F8003091F843200C46DDF8208012B10133C9F800302368990642BFD9F800300233C9F80030256815F006051CD094F843302268003318BF83
:40128000012392061FD5E118302081F843005A1C94F845102244023382F8431013E03046394604F119020123C047013007D00135E368D9F800209B1A9D42F0DBDBE74FF0BD
:4012C000FF30BDE8F8833046394604F14302C0470130F4D02268D9F80050E36802F00602042A08BF5D1B2269A3680CBF25EAE57500259342C4BF9B1AED184FF00009A945E0
:401300000ADA3046394604F11A020123C0470130D5D009F10109F2E70020BDE8F88300002DE9FF410C461746227E98466E2A06460A9B01F1430100F0B08012D8632A23D0D9
:401340000AD8002A00F0BD80582A40F0CC8084F84520DFF804E257E0642A1ED0692A1CD0C1E0732A00F0B18009D86F2A2ED0702A40F0B980226842F0200222603FE0752A6E
:4013800024D0782A3BD0AEE01A6804F14205111D1960136884F84230A9E020681A6810F0800F02D0101D186008E010F0400F02F10400186002D0B2F9003000E01368002BBE
:4013C0003EDA2D225B4284F8432039E020681A6810F0800F02D0101D186007E010F0400F02F10400186001D0138800E01368227EDFF864E16F2A0CBF08220A221CE0782269
:40140000DFF858E184F845202268186812F0800F00F104051D6003D1550601D5038800E00368D00744BF42F0200222601BB9226822F0200222601022002084F8430002E017
:40144000DFF814E10A226568002DA8BF2068A560A4BF20F00400206003B965B10D46B3FBF2F002FB10331EF8033005F8013D03460028F4D100E00D46082A0BD12368DA0733
:4014800008D5236962689A42DEBF302305F8013C05F1FF35491B21612EE025681A6815F0800F606903D0151D1D60136808E015F0400F02F104051D60136801D0188000E0F3
:4014C0001860002323610D4616E01A68111D1960156800212846626800F042F808B1401B6060636804E004F1420584F8422001232361002384F84330CDF8008030462146E2
:4015000003AA3B46FFF796FE013002D14FF0FF301FE0304639462A462369C0470130F5D023689B0705D4E068039B9842B8BF18460FE00025E368039A9B1A9D42F3DA304626
:40154000394604F119020123C0470130DED00135F0E704B0BDE8F081CB180000DC18000010B5C9B202449042034605D01C7801308C42F8D1184610BD002010BD814210B5B2
:4015800001EB020301D3421E0BE09842FBD28118D21AD34204D013F8014D01F8014DF8E710BD994204D011F8014B02F8014FF8E710BD000030B500293CD051F8042C0B1F03
:4015C0001D49002AB8BF9B180A680C4612B95A600B6030BD93420DD219685818904201BF5A5852181A60426823605A6030BD994203D80A4651680029F9D1146815199D42B4
:401600000AD11B682344D0188842136012D10868034413604B680CE002D90C23036030BD1C681819884201BF08684968001918605960536030BD00BFBCC1FF1F70B5CC1C09
:4016400024F0030408340C2C38BF0C24002C064603DA0C233360002070BD8C42F9D3204A136810461946A1B10A68121B0ED40B2A03D90A608B188C501FE08B420BBF5A68F7
:401680004A6802605A6018BF0B4616E00B464968E9E7144D2B681BB9304600F04BF828603046214600F046F8421C0346D1D0C51C25F0030585420AD11C6003F10B001A1DCE
:4016C00020F00700821A0AD05142995070BD3046E91A00F02FF80130BBD02B46ECE770BDBCC1FF1FB8C1FF1FF8B5074615460E4621B91146BDE8F840FFF7A0BF1AB9FFF7F0
:4017000059FF2846F8BD00F025F8A8420ED238462946FFF793FF044650B131462A46FFF705FC38463146FFF745FF01E03046F8BD2046F8BD38B5064C0023054608462360E5
:4017400000F012F8431C02D1236803B12B6038BDE401002051F8040C0028BEBF091851F8043CC01804387047044A05491368002B08BF0B461844106018467047C0C1FF1F2C
:40178000E80100200000000025303258000000002C2000000A0D0000205100402000605100401000C05100401000F05100401000000001408000000101408003000501404E
:4017C000000B00140140000800400140000A004C01400002005001402000000080000140F40300488000800401407404004880005E5E5E5E5E5E5E5E5E5E5E5E5E5E5E5E51
:401800005E5E5E5E5E5E5E5E5E5E5E5E5E5E5E5E5E5E5E5E5E5E5E5E5E5E5E5E5E5E5E5E5E5E1F1F1F1F1F1F1F1F1F1F1F1F1F1F1F1F1F1F1F1F1F1F1F1F1F1F1F1F1F1F8A
:401840001F1F1F1F1F1F1F1F1F1F1F1F1F1F1F1F1F1F1F1FFCFCFCFCFCFCFCFCFCFCFCFCFCFCFCFCFCFCFCFCFCFCFCFCFCFCFCFCFCFCFCFCFCFCFCFCFCFCFCFCFCFCFCFCAC
:40188000FCFCFCFCFCFC03030303030303030303030303030303030303030303030303030303030303030303030303030303030303030303030303034300232D302B20009C
:4018C000686C4C006566674546470030313233343536373839414243444546003031323334353637383961626364656600000000F8B500BFF8BC08BC9E4670474D000000F4
:40190000B9020000F8B500BFF8BC08BC9E46704729000000281900000881FF1F880000005880000000000000000000007F8000003F0000000000E02EC05D0000180000007B
:4019400000366E01FFFFFFFFFFFF00000000000000000000000000000000000000000000000000000000000000000000B818000000000000000000000000000000000000F8
:4019800000000000000000000000000000000000000000000000000000000000000000000000000000000000000000002C81FF1F000000000000000000000000000000005C
:4019C00000000000000000000000000000000000000000000000000000000000000000000000000000000000000000000000000000000000000000000000000000000000E7
:401A000000000000000000000000000000000000000000000000000000000000000000000000000000000000000000000000000000000000000000000000000000000000A6
:401A40000000000000000000000000000000000000000000000000000000000000000000000000000000000000000000000000000000000000000000000000000000000066
:401A80000000000000000000000000000000000000000000000000000000000000000000000000000000000000000000000000000000000000000000000000000000000026
:020000040003F7
:0200000480007A
:4000000004520040015A0040015B004002640040110001403601014062020140450301402F0401404505014003070140010B0140021501400117014001190140021B014054
:40004000114001400C41014005420140034301400245014003460140024701400348014006490140094C0140074D0140035001400351014020032106280129018F012F8465
:40008000800F823F0C050E0A1A011E0826022A042C1032103403360C3E04540158045B045C015D205F01030104020504070A0A0A0D280E010F8010011128120115151908FA
:4000C0001A0A1C021D281E841F0827422D052E802F08350437423D503E05452847024A044B204D014F04550456805742581159085A405E805F146C086D406E088040820444
:400100008604C0F1C2F3C477CAF0CCD0CEF0D0E0D67F00FF0104034004010604073F080109400A400B010C010D800E100F3F150216FE174019401AFE1B201C011D7F1E200C
:400140002001210822022340240125102608274028012A802B402E0132FF357F378056025728580459045B045C115D105F01840986D087088C108EAC8F13900C912C927147
:40018000930395409A039CDC9E22A131A220A30EA414A70CA810AA40AD31AF06B0E0B10FB330B41FB540B908BA02BB02BF14C003C704C9FFCA07CBFFCC40CD20CEF0CF0596
:4001C000D008D804D904DA04DC22DD02DF01E040E1A8E240E320018804200622074008800A880E19108012241550170919011A881D041E1021062210240629892C082D04B8
:400200002E01310232043690370838803A043C443E224080410650C05204534067206C106D146E216F017622770890409140920293209402951496419B409C109D049E01EC
:400240009F09A008A204A910AC01AF01B316C0F5C2EBC4FECAEBCC73CEFAD002D840EEA0030906080C330E0C1033120417071B091C0A1E341F04204022152312240326147B
:400280002712301031183260360F370738083A803E013F0140454101450C46B047E0482949FF4AFF4BFF4EF04F44500C580459045A045C125D025F0166C06A406B0200407F
:4002C000018804050602070808820A800D020E0910B0151419881A401C011DAE1E021F2222802340260C29042B402D042F02300832803320360939013C043D103E014042B9
:4003000045AA48204B804C104D014E094F04522157445C205F448C109004911492A39380964098809A029B089C109D889E01A088A6A0C0F5C2D9C46CCA53CCCECEE1D0F943
:40034000D238D670E640EE089220A820AB04EE08E404E810B610E840E404E8100D40338038043C403E0141105401561058408401C280CC10CEE0D010D4C0D620E6103F8039
:400380009444A780A940AC40AE10B110B201CE20E880EA40EE108C049444A740AF80EE10A740A840EE203210CC089620A720AF209620A7202408A740C8201B608320A74081
:4003C000B404C640E4201F20340291409620A720B540C601CC01E8025D40821091409620B402D604E808000608060A060003105511020000800000010244002281002001A5
:400400003D004070006008080800540F350048000000211000001040000021010023214400000020187007006600800F00800000000001004203000000DF0CEB37FFFFFFD8
:4004400000000000040007000100000004040404111100010000C0004001800030004010100040A800000000000000000000000000000000BF00400100001F0F09011200FA
:4004800011000A001B04A40200000008DB00240000001B000000000000001B011B000000000300040700800F60001C0000080000000000001604320005CF0D0E17FFFFFF93
:4004C00002200005040000000100000004040404111100010000400140015001400170104010000000000000000000000000000000000000000000000000040000000000B5
:4005000000004000800707000700000001000001010001000000000000000000000000000000000000000000000000000000000000000000000000000000000000000000E2
:40054000000000000000000000000000000000000000000000000000000000000000000000000000000000000000000000000000000000000000000000000000000000007B
:40058000000000000000000000000000000000000000000000000000000000000000000000000000000000000000000000000000000000000000000000000000000000003B
:4005C00000000000000000000000000000000000000000000000000000000000000000000000000000000000000000000000000000000000000000000000000000000000FB
:4006000000000000000000000000000000000000000000000000000000000000000000000000000000000000000000000000000000000000000000000000000000000000BA
:0200000490006A
:0400000000004005B7
:0200000490105A
:04000000BC90ACAF55
:0200000490303A
:02000000A3BF9C
:0200000490402A
:4000000000000000000000000000000000000000000000000000000000000000000000000000000000000000000000000000000000000000000000000000000000000000C0
:400040000000000000000000000000000000000000000000000000000000000000000000000000000000000000000000000000000000000000000000000000000000000080
:400080000000000000000000000000000000000000000000000000000000000000000000000000000000000000000000000000000000000000000000000000000000000040
:4000C0000000000000000000000000000000000000000000000000000000000000000000000000000000000000000000000000000000000000000000000000000000000000
:0200000490501A
:0C00000000012E12306900012E1CD428D3
:00000001FF