:400000000080002011000000710200007102000008B5044B1A6803F53F5302331A6000F029F900BFFA46004010B5054C237833B9044B13B10448AFF300800123237010BD6F
:40004000F081FF1F0000000090120000084B10B51BB108480849AFF300800848036803B910BD074B002BFBD0BDE81040184700BF0000000090120000F481FF1F0881FF1F2D
:4000800000000000F8B5012001464FF4804241F6FF7300F08DFC204F3870012001464FF4804241F6FF7300F065FC1C4E307000F079FB1B4D287000F075FB1A4C2070287822
:4000C0004FF40061FE22822300F086FB20784FF40061FE22822300F07FFB287846F24541114A92B200F08CFB207846F255410F4A92B200F085FB3878297800F023FB3078CD
:40010000217800F01FFB3878012100F0D3FA3078012100F0CFFAF8BD2C92FF1F3192FF1F1C82FF1F2082FF1F2882FF1F2C8AFF1F2DE9F0410120014641F6FF724FF4804323
:4001400000F082FBDFF8948088F800000120014641F6FF724FF4804300F096FB1B4F387000F020FB1A4D287000F01CFB194C20702A7810466021012300F02EFB2278104652
:400180006021012300F028FB134EB6B22878314646F2414200F034FB2078314646F2514200F02EFB98F80000297800F0CBFA3878217800F0C7FA98F80000012100F07AFAE4
:4001C0003878012100F076FABDE8F0811D82FF1F3092FF1F2482FF1F0C81FF1F288AFF1F62B6002304E000211D4A22F813100133B3F5806FF7D370B584B0FFF743FFFFF7DB
:4002000097FF00F0F7F900F017FA00F001FA40F6B83000F003FB00F073FB00241BE0104B33F81420D6B20F4D68462946120A00F017FC02A82946324600F012FC684600F0CC
:4002400079FB094800F076FB02A800F073FB074800F070FB0134B4F5806FE0D3FEE700BF2882FF1F941200009C120000A0120000FEE700BF08B5114B114D16E029686B683F
:40028000AC68002204E008681860043204330431A242F8D1E868002203E000211960043204338242F9D1103533465E1E002BE5D100F09CFBFFF794FFFEE700BF0100000033
:4002C0005813000008B5134A134B1A60134A136843F40073136000230AE0032B03D8104A52F8231000E00F490F4A42F8231001332F2BF2D90D4B1A780D4B1A700A4A0D4BF0
:400300001A6000F0B5F800F0BBF900220A4B1A6008BD00BF0004FA050CED00E014ED00E000000000710200000080FF1FBC7600400481FF1F08ED00E00081FF1FFEE700BF92
:40034000F0B40022174611E050F82760F3B226F0FF0608E001EB420511F812406D78A5550132013BDBB2002BF4D10137142FEBD9F0BC7047064B1B78DBB203F00701054A3C
:4003800011701B09013213704422034B1A707047CF0100496E5800407658004008B50A46002100F054FB08BD38B50722254B1A80192502331D7002331D8002331D700622B2
:4003C00003F27A231A705222A3F580731A701E4B1B78DBB21D4A13704FF4E1621C4B1A8041F25122023B1A8000240CE0194B1B7803F0010343EA440404F003044FF4F070D0
:4004000000F02EF9013D0DB1032CEFD115B90320FFF794FF104A4FF4807313800723137000230E490B7048200231087013700532137002220A4B1A700A4A137843F0030310
:40044000137038BD804000400F010049A14600402242004025420040044000400640004001400040A243004008B500F0E5FA08BD70B572B63A4A137843F0040313700024FB
:400480000CE0384963001A1952000A4423445B00C8589188FFF782FF0134E4B20A2CF0D9002410E02F49A3001A1952000A4452F8440F23445B000B445168B3F84C20FFF7E7
:4004C000D3FF0134E4B2012CECD94FF090402649FFF736FF25480421FFF760FF24480421FFF75CFF23480421FFF758FF22480421FFF754FF214A137843F002031370103253
:40050000137843F0020313701D4C237843F040032370A2F58632513A137843F010031370184819490822FFF79FFF184818490A22FFF79AFF174A137843F008031370164E2D
:4005400001253570FFF730FF81233370134B1D70FFF710FF124821460E22FFF785FF70BDE8460040A412000054000048007600400876004010760040187600400350014060
:40058000A043004042510040900400485051004098040048224300400048004004000840B043004008B500F063F8064A137843F02003137000F060F8034A137843F00403E2
:4005C000137008BD9264004071640040084B1A7802F0F8021A701A78D2B21A7004331A7802F0F8021A701A78D2B21A70704700BF8164004008B5054B1B7823B9FFF7E6FF9C
:400600000122024B1A70FFF7CDFF08BD0C82FF1F08B500F02DF8064A137843F01003137000F02AF8034A137843F00103137008BD916400407164004008B500F019F8064A56
:40064000137843F01003137000F016F8034A137843F00203137008BD95640040716400400230800803D000BF01380046FCD17047EFF3108072B6704780F31088704700BF61
:400680000B4A7F2313708021517007E0DA0002F1804202F5F042013BDBB21370002BF5D1DB0003F1804303F5F04300221A7070476C81FF1F172815D831B103010A495A5C3C
:4006C00042F020025A5405E0030107495A5C02F0DF025A540001044A835C43F00103835400207047012070471070004017280BD80001064A835C03F0F10301F0070143EA7E
:400700004101815400207047012070471070004041F6FF73994201D14FF4005141F6FF739A4201D14FF40052172808D8C00000F1804000F5EC408180C28000207047012071
:40074000704700BF172805D8034B03EB0010417200207047012070471070004017281BD810B4C00000F1804404F5EC44D201D2B201F07F01114321709DF804201201D2B2E8
:4007800003F00F03134363709DF8083003F00F03A3700020E07001E0012070475DF8044B704700BF10B5FFF763FF0A4B5B78182B0BD9084A1478013B5370E30003F1804300
:4007C00003F5F0431B78137000E0FF24FFF754FF204610BD6C81FF1F10F0800F0CD111F4704F0BD1C00000F1804000F5F04001808270C3700020704701207047012070475F
:4008000010F0800F08D1C00000F1804000F5F0408180C280002070470120704710B5044605E0084B1868FFF71BFFA4F50044B4F5004FF6D8034B586800FB04F0FFF710FF4C
:4008400010BD00BF7481FF1FF0B583B084468E4617461E460B4C02252570002300930193284661467246FFF779FF207839463246FFF74EFF20782946FFF738FF207803B0B9
:40088000F0BD00BF8481FF1FF0B583B086460F4616461D460A4C0320207000230093019371463A46FFF75AFF207831462A46FFF72FFF20780221FFF719FF207803B0F0BDB4
:4008C0008581FF1F0622044B1A70472210331A7000224F331A7070472464004010B5FFF7C7FE0446054A137843F01003137000F033F82046FFF7C0FE10BD00BF936400408B
:4009000008B5054B1B7823B9FFF7DCFF0122024B1A70FFF7E3FF08BD0D82FF1F034B1B7813F0040FFAD1024B18707047636400404364004038B5074B1B782BB938BDFFF749
:40094000EDFF0134A4B201E005460024285D0028F5D138BD0D82FF1F054A137843F0020313701032137843F002031370704700BFA2430040F0B583B086460F4616461D462B
:400980000A4C0120207000230093019371463A46FFF7E4FE207831462A46FFF7B9FE20780221FFF7A3FE207803B0F0BD8681FF1FF0B583B086460F4616461D460A4C00230B
:4009C000237000930193184671463A46FFF7C6FE207831462A46FFF79BFE20780221FFF785FE207803B0F0BD8781FF1F0E4B70B51E460E4C0025E41AA410A54204D056F872
:400A0000253098470135F8E700F094FC084B094C1E46E41AA4100025A54204D056F8253098470135F8E770BD4013000040130000401300004813000010B5431E0A449142F0
:400A400004D011F8014B03F8014FF8E710BD03460244934202D003F8011BFAE7704700000EB400B54FF402719CB0ADF814106FF00041049107914FF6FF711DABADF816101A
:400A8000084953F8042B02900690086802A9019300F064F8029B00221A701CB05DF804EB03B07047E881FF1F2DE9F0478E688246B3420C469046994640D38A8912F4906FCC
:400AC0003AD02568096902236F1A656905EB450595FBF3F57B1C4B449D4238BF1D4653050FD5294600F030FB064698B121693A46FFF7A2FFA38923F4906343F08003A38154
:400B000013E02A4600F076FB064670B95046216900F0D6FA0C23CAF80030A3894FF0FF3043F04003A381BDE8F08726613E4426604E466561ED1BA560B14500D24E46324661
:400B40002068414600F0A0FAA36800209B1BA36023681E442660BDE8F08700002DE9F0439DB003938B8906461C060D4690460CD50B6953B9402100F0E7FA2860286110B925
:400B80000C233360CCE040236B610023099320238DF8293030238DF82A3043461C4613F8012B1AB9B4EB08090FD002E0252AF5D1F8E73046294642464B46FFF775FF013093
:400BC00000F0A980099B4B4409932378002B00F0A28000234FF0FF3204930793059206938DF853301A9304F101084446DFF8489121784846052200F039FA08F10108049B42
:400C000030B1C9EB00000122824013430493ECE7D80644BF20228DF85320190744BF2B228DF8532022782A2A02D0079923460EE0039A0134111D12680391002ABBBF5242FA
:400C400043F0020307920792B8BF04930AE01C4622780133303A092A03D80A2000FB0121F5E7079123782E2B1AD163782A2B0AD1039B02341A1D1B680392002BB8BF4FF0C1
:400C8000FF3305930CE0611C00220C4623780131303B092B03D80A2000FB0232F5E70592DFF8988021784046032200F0DFF938B1049AC8EB000040238340134304930134FD
:400CC00021781A48062204F101088DF8281000F0CDF988B1164B33B9039B073323F007030833039313E003AB0093304604A92A46104BAFF3008007E003AB0093304604A985
:400D00002A460C4B00F092F8421C074603D0099B3B44099341E7AB895B0601D4099801E04FF0FF301DB0BDE8F08300BF0813000000000000A90A0000FE120000041300001A
:400D40002DE9F84391461F468A680B6906469342B8BF1346C9F8003091F843200C46DDF8208012B10133C9F800302368990642BFD9F800300233C9F80030256815F0060514
:400D80001CD094F843302268003318BF012392061FD5E118302081F843005A1C94F845102244023382F8431013E03046394604F119020123C047013007D00135E368D9F8C3
:400DC00000209B1A9D42F0DBDBE74FF0FF30BDE8F8833046394604F14302C0470130F4D02268D9F80050E36802F00602042A08BF5D1B2269A3680CBF25EAE57500259342D8
:400E0000C4BF9B1AED184FF00009A9450ADA3046394604F11A020123C0470130D5D009F10109F2E70020BDE8F88300002DE9FF410C461746227E98466E2A06460A9B01F139
:400E4000430100F0B08012D8632A23D00AD8002A00F0BD80582A40F0CC8084F84520DFF804E257E0642A1ED0692A1CD0C1E0732A00F0B18009D86F2A2ED0702A40F0B980C3
:400E8000226842F0200222603FE0752A24D0782A3BD0AEE01A6804F14205111D1960136884F84230A9E020681A6810F0800F02D0101D186008E010F0400F02F104001860D8
:400EC00002D0B2F9003000E01368002B3EDA2D225B4284F8432039E020681A6810F0800F02D0101D186007E010F0400F02F10400186001D0138800E01368227EDFF864E18B
:400F00006F2A0CBF08220A221CE07822DFF858E184F845202268186812F0800F00F104051D6003D1550601D5038800E00368D00744BF42F0200222601BB9226822F0200241
:400F400022601022002084F8430002E0DFF814E10A226568002DA8BF2068A560A4BF20F00400206003B965B10D46B3FBF2F002FB10331EF8033005F8013D03460028F4D170
:400F800000E00D46082A0BD12368DA0708D5236962689A42DEBF302305F8013C05F1FF35491B21612EE025681A6815F0800F606903D0151D1D60136808E015F0400F02F195
:400FC00004051D60136801D0188000E01860002323610D4616E01A68111D1960156800212846626800F042F808B1401B6060636804E004F1420584F84220012323610023AE
:4010000084F84330CDF800803046214603AA3B46FFF796FE013002D14FF0FF301FE0304639462A462369C0470130F5D023689B0705D4E068039B9842B8BF18460FE00025D9
:40104000E368039A9B1A9D42F3DA3046394604F119020123C0470130DED00135F0E704B0BDE8F0810F1300002013000010B5C9B202449042034605D01C7801308C42F8D11A
:40108000184610BD002010BD814210B501EB020301D3421E0BE09842FBD28118D21AD34204D013F8014D01F8014DF8E710BD994204D011F8014B02F8014FF8E710BD000025
:4010C00030B500293CD051F8042C0B1F1D49002AB8BF9B180A680C4612B95A600B6030BD93420DD219685818904201BF5A5852181A60426823605A6030BD994203D80A4631
:4011000051680029F9D1146815199D420AD11B682344D0188842136012D10868034413604B680CE002D90C23036030BD1C681819884201BF0868496800191860596053602D
:4011400030BD00BF1482FF1F70B5CC1C24F0030408340C2C38BF0C24002C064603DA0C233360002070BD8C42F9D3204A136810461946A1B10A68121B0ED40B2A03D90A6066
:401180008B188C501FE08B420BBF5A684A6802605A6018BF0B4616E00B464968E9E7144D2B681BB9304600F04BF828603046214600F046F8421C0346D1D0C51C25F0030550
:4011C00085420AD11C6003F10B001A1D20F00700821A0AD05142995070BD3046E91A00F02FF80130BBD02B46ECE770BD1482FF1F1082FF1FF8B5074615460E4621B911466A
:40120000BDE8F840FFF7A0BF1AB9FFF759FF2846F8BD00F025F8A8420ED238462946FFF793FF044650B131462A46FFF705FC38463146FFF745FF01E03046F8BD2046F8BD6D
:4012400038B5064C002305460846236000F012F8431C02D1236803B12B6038BD3492FF1F51F8040C0028BEBF091851F8043CC01804387047044A05491368002B08BF0B4654
:4012800018441060184670471882FF1F3892FF1F0000000025303258000000002C2000000A0D0000005100404000605100401000C05100401000F051004010000000014066
:4012C000800000010140800300050140000B00140140000800400140000A004C01400002005001402000000080000140900300488000800401401004004880004300232DE0
:40130000302B2000686C4C006566674546470030313233343536373839414243444546003031323334353637383961626364656600000000F8B500BFF8BC08BC9E4670478B
:401340004D000000C5020000F8B500BFF8BC08BC9E46704729000000681300000881FF1FE800000048100000000000000000AB0A55150020AB2A55350040AA4A5555006073
:40138000AA6A55750080AA8A5595FF9FAAAA55B5FFBFAACA54D5FFDFAAEA54F5FFFF54F5AAEAFFDF55D5AACAFFBF55B5AAAAFF9F5595AA8A00805575AA6A00605555AA4A14
:4013C00000405535AB2A00205515AB0A7F8000000F0000000000E02EC05D00001800000000366E01FFFFFFFF0000000000000000000000000000000000000000000000001D
:401400000000000000000000FC120000000000000000000000000000000000000000000000000000000000000000000000000000000000000000000000000000000000009E
:4014400000000000000000008881FF1F0000000000000000000000000000000000000000000000000000000000000000000000000000000000000000000000000000000045
:40148000000000000000000000000000000000000000000000000000000000000000000000000000000000000000000000000000000000000000000000000000000000002C
:4014C00000000000000000000000000000000000000000000000000000000000000000000000000000000000000000000000000000000000000000000000000000000000EC
:4015000000000000000000000000000000000000000000000000000000000000000000000000000000000000000000000000000000000000000000000000000000000000AB
:40154000000000000000000000000000000000000000000000000000000000000000000000000000000000000000000000000000000000000000000000000000000000006B
:020000040003F7
:0200000480007A
:40000000035200400264004010000140380101406202014057030140290401404305014002070140010D01400F4001400741014003420140024301400345014001460140B4
:4000400001470140014C0140034D01400350014001510140200321062801823F830F020109020A0812041C051E0A22022D0130033302340C37013F44580459045F0101227B
:4000800004400514068009400B800E110F08108015141601170219221C081D7C1E80200122042502274228082B092D142F023504362037423B203C083E91452847024A04AD
:4000C0004B104C804E204F08568257085C285E806C096E086F02850288208A02C0FAC2E9C4F8CA78CCF0CEF4D0E0D670E280020104010604073F080109400A400B010C011E
:400100000E1010FF11041340150216FE174019401AFE1B201C011D7F1E2021082340240125102608274028012A802B402C012D802E022F3F318032FF357F5602572858040B
:4001400059045B045F01841086AC881089738A408B0C8C0C8D2A8E718F449203941498099AD09B559D039F44A0DCA222A620A708AD73AF04B01FB140B330B50FB6E0B90886
:40018000BA80BB20BF05C062C105C6ECC70BC81CC9FFCAFFCBFFCEF0CF44D00CD401D804D904DA04DB04DC11DD11DF01E6C0EA40EB02002801800422062007010810090825
:4001C0000A400D020E19102012401550170819C01A401B011E1020082110220823802444281029482C082D042E012F0130A0332036903709388039203A403C043E2043204C
:40020000480449405080510853105A085B9267106C106DD46E216F407620770982018308900292089312944095149611972099209E01A008A102A204A540A701AD40AF401A
:40024000B140B401B604B709C0F7C2FEC4ECCAFACCFCCE6CD004D20CD60FD840EA10EE2003010411060607020A080C110E0E0F01100C1213160C17071F04230224202603FB
:40028000300F3230370738083A024006450449FF4A074BFF4C404D204EF04F055008580459045A045C015D015F01604061A86240632000280180044407480A500D200E02B7
:4002C000102015141701188019081A501C401DAA1E081F46228026432B402D042F46300832803606374039013B883C043D103F8245AA48104A084C104D214E024F06502040
:40030000560457405E805F248C1090049114948099A09B499D08A00CA208A430A680A880AB10B312C0F7C2CCC474CAF1CCDACEFBD0F0D234D670E640AA04AB20EC100C80EE
:4003400038043E103F0242085441584084018B01C280CEE0D010D4C0D620E61094049610ACC0B040B608E810EE108C0494049610AA10EA80A020B420EC08A020A020A020D2
:400380005420A020D402000308030A031055000000000801352348440800540F80000020006000080244002200001040000021103D00400000002101000021018100207098
:4003C000187066000700800F00800000000001004302000000BD0CEF37FFFFFF00000000040007000100000004040404000000010000C0004001800030004010100040A8B1
:400400000000000000000000000000000000000000001B0100001F3C09041200BF00400200000020000C00101B00A400DB00240411000A0100001B041B00000200100008B7
:400440001C3C80000700600300020000000000404502310006CF0D0E17FFFFFF0220000504000000010000000404040400000001000040014001500140017010401000005B
:4004800000000000000000000000000000000000800707000700000001000001010001000000000000000000000000000000000000000000000000000000000000000000A3
:4004C00000000000000000000000000000000000000000000000000000000000000000000000000000000000000000000000000000000000000000000000000000000000FC
:4005000000000000000000000000000000000000000000000000000000000000000000000000000000000000000000000000000000000000000000000000000000000000BB
:40054000000000000000000000000000000000000000000000000000000000000000000000000000000000000000000000000000000000000000000000000000000000007B
:40058000000000000000000000000000000000000000000000000000000000000000000000000000000000000000000000000000000000000000000000000000000000003B
:0200000490006A
:0400000000004005B7
:0200000490105A
:04000000BC90ACAF55
:0200000490303A
:02000000773E49
:0200000490402A
:4000000000000000000000000000000000000000000000000000000000000000000000000000000000000000000000000000000000000000000000000000000000000000C0
:400040000000000000000000000000000000000000000000000000000000000000000000000000000000000000000000000000000000000000000000000000000000000080
:400080000000000000000000000000000000000000000000000000000000000000000000000000000000000000000000000000000000000000000000000000000000000040
:4000C0000000000000000000000000000000000000000000000000000000000000000000000000000000000000000000000000000000000000000000000000000000000000
:0200000490501A
:0C00000000012E12306900012E1AA7A783
:00000001FF